{
  "address": "0x5C2eB1733A4C15321Cb1c6F0f20f0A840db3E540",
  "abi": [
    {
      "inputs": [
        {
          "internalType": "string",
          "name": "_name",
          "type": "string"
        },
        {
          "internalType": "string",
          "name": "_symbol",
          "type": "string"
        },
        {
          "internalType": "string",
          "name": "_baseTokenUri",
          "type": "string"
        },
        {
          "internalType": "string",
          "name": "_contractUri",
          "type": "string"
        },
        {
          "internalType": "address",
          "name": "_vrfCoordinator",
          "type": "address"
        },
        {
          "internalType": "address",
          "name": "_link",
          "type": "address"
        },
        {
          "internalType": "bytes32",
          "name": "_keyHash",
          "type": "bytes32"
        },
        {
          "internalType": "uint256",
          "name": "_fee",
          "type": "uint256"
        },
        {
          "internalType": "int256",
          "name": "_rentalFeeNumerator",
          "type": "int256"
        },
        {
          "internalType": "int256",
          "name": "_rentalFeeDenominator",
          "type": "int256"
        }
      ],
      "stateMutability": "nonpayable",
      "type": "constructor"
    },
    {
      "anonymous": false,
      "inputs": [
        {
          "indexed": true,
          "internalType": "address",
          "name": "owner",
          "type": "address"
        },
        {
          "indexed": true,
          "internalType": "address",
          "name": "approved",
          "type": "address"
        },
        {
          "indexed": true,
          "internalType": "uint256",
          "name": "tokenId",
          "type": "uint256"
        }
      ],
      "name": "Approval",
      "type": "event"
    },
    {
      "anonymous": false,
      "inputs": [
        {
          "indexed": true,
          "internalType": "address",
          "name": "owner",
          "type": "address"
        },
        {
          "indexed": true,
          "internalType": "address",
          "name": "operator",
          "type": "address"
        },
        {
          "indexed": false,
          "internalType": "bool",
          "name": "approved",
          "type": "bool"
        }
      ],
      "name": "ApprovalForAll",
      "type": "event"
    },
    {
      "anonymous": false,
      "inputs": [
        {
          "indexed": true,
          "internalType": "address",
          "name": "_to",
          "type": "address"
        },
        {
          "indexed": false,
          "internalType": "uint256",
          "name": "_value",
          "type": "uint256"
        }
      ],
      "name": "EtherWithdrawn",
      "type": "event"
    },
    {
      "anonymous": false,
      "inputs": [
        {
          "indexed": true,
          "internalType": "uint256",
          "name": "_tokenId",
          "type": "uint256"
        },
        {
          "indexed": true,
          "internalType": "address",
          "name": "_exhibitContractAddress",
          "type": "address"
        },
        {
          "indexed": false,
          "internalType": "uint256",
          "name": "_exhibitTokenId",
          "type": "uint256"
        }
      ],
      "name": "ExhibitSet",
      "type": "event"
    },
    {
      "anonymous": false,
      "inputs": [
        {
          "indexed": true,
          "internalType": "address",
          "name": "_to",
          "type": "address"
        },
        {
          "indexed": false,
          "internalType": "uint256",
          "name": "_value",
          "type": "uint256"
        }
      ],
      "name": "LinkWithdrawn",
      "type": "event"
    },
    {
      "anonymous": false,
      "inputs": [
        {
          "indexed": true,
          "internalType": "bytes32",
          "name": "_requestId",
          "type": "bytes32"
        },
        {
          "indexed": true,
          "internalType": "address",
          "name": "_address",
          "type": "address"
        },
        {
          "indexed": true,
          "internalType": "uint256",
          "name": "_tokenId",
          "type": "uint256"
        }
      ],
      "name": "MintFulfilled",
      "type": "event"
    },
    {
      "anonymous": false,
      "inputs": [
        {
          "indexed": true,
          "internalType": "bytes32",
          "name": "_requestId",
          "type": "bytes32"
        },
        {
          "indexed": true,
          "internalType": "address",
          "name": "_address",
          "type": "address"
        }
      ],
      "name": "MintRequest",
      "type": "event"
    },
    {
      "anonymous": false,
      "inputs": [
        {
          "indexed": false,
          "internalType": "address",
          "name": "account",
          "type": "address"
        }
      ],
      "name": "Paused",
      "type": "event"
    },
    {
      "anonymous": false,
      "inputs": [
        {
          "indexed": true,
          "internalType": "uint256",
          "name": "_tokenId",
          "type": "uint256"
        },
        {
          "indexed": true,
          "internalType": "address",
          "name": "_from",
          "type": "address"
        },
        {
          "indexed": false,
          "internalType": "uint256",
          "name": "_value",
          "type": "uint256"
        }
      ],
      "name": "RentalFeeCollectedFrom",
      "type": "event"
    },
    {
      "anonymous": false,
      "inputs": [
        {
          "indexed": false,
          "internalType": "int256",
          "name": "_oldNumerator",
          "type": "int256"
        },
        {
          "indexed": false,
          "internalType": "int256",
          "name": "_oldDenominator",
          "type": "int256"
        },
        {
          "indexed": false,
          "internalType": "int256",
          "name": "_newNumerator",
          "type": "int256"
        },
        {
          "indexed": false,
          "internalType": "int256",
          "name": "_newDenominator",
          "type": "int256"
        }
      ],
      "name": "RentalFeeUpdated",
      "type": "event"
    },
    {
      "anonymous": false,
      "inputs": [
        {
          "indexed": true,
          "internalType": "uint256",
          "name": "_tokenId",
          "type": "uint256"
        },
        {
          "indexed": true,
          "internalType": "address",
          "name": "_renter",
          "type": "address"
        },
        {
          "indexed": false,
          "internalType": "uint256",
          "name": "_rentalExpiryBlock",
          "type": "uint256"
        }
      ],
      "name": "RenterSet",
      "type": "event"
    },
    {
      "anonymous": false,
      "inputs": [
        {
          "indexed": true,
          "internalType": "bytes32",
          "name": "role",
          "type": "bytes32"
        },
        {
          "indexed": true,
          "internalType": "bytes32",
          "name": "previousAdminRole",
          "type": "bytes32"
        },
        {
          "indexed": true,
          "internalType": "bytes32",
          "name": "newAdminRole",
          "type": "bytes32"
        }
      ],
      "name": "RoleAdminChanged",
      "type": "event"
    },
    {
      "anonymous": false,
      "inputs": [
        {
          "indexed": true,
          "internalType": "bytes32",
          "name": "role",
          "type": "bytes32"
        },
        {
          "indexed": true,
          "internalType": "address",
          "name": "account",
          "type": "address"
        },
        {
          "indexed": true,
          "internalType": "address",
          "name": "sender",
          "type": "address"
        }
      ],
      "name": "RoleGranted",
      "type": "event"
    },
    {
      "anonymous": false,
      "inputs": [
        {
          "indexed": true,
          "internalType": "bytes32",
          "name": "role",
          "type": "bytes32"
        },
        {
          "indexed": true,
          "internalType": "address",
          "name": "account",
          "type": "address"
        },
        {
          "indexed": true,
          "internalType": "address",
          "name": "sender",
          "type": "address"
        }
      ],
      "name": "RoleRevoked",
      "type": "event"
    },
    {
      "anonymous": false,
      "inputs": [
        {
          "indexed": true,
          "internalType": "address",
          "name": "from",
          "type": "address"
        },
        {
          "indexed": true,
          "internalType": "address",
          "name": "to",
          "type": "address"
        },
        {
          "indexed": true,
          "internalType": "uint256",
          "name": "tokenId",
          "type": "uint256"
        }
      ],
      "name": "Transfer",
      "type": "event"
    },
    {
      "anonymous": false,
      "inputs": [
        {
          "indexed": false,
          "internalType": "address",
          "name": "account",
          "type": "address"
        }
      ],
      "name": "Unpaused",
      "type": "event"
    },
    {
      "inputs": [],
      "name": "DEFAULT_ADMIN_ROLE",
      "outputs": [
        {
          "internalType": "bytes32",
          "name": "",
          "type": "bytes32"
        }
      ],
      "stateMutability": "view",
      "type": "function"
    },
    {
      "inputs": [],
      "name": "MINTER_ROLE",
      "outputs": [
        {
          "internalType": "bytes32",
          "name": "",
          "type": "bytes32"
        }
      ],
      "stateMutability": "view",
      "type": "function"
    },
    {
      "inputs": [],
      "name": "PAUSER_ROLE",
      "outputs": [
        {
          "internalType": "bytes32",
          "name": "",
          "type": "bytes32"
        }
      ],
      "stateMutability": "view",
      "type": "function"
    },
    {
      "inputs": [],
      "name": "PRESALE_ROLE",
      "outputs": [
        {
          "internalType": "bytes32",
          "name": "",
          "type": "bytes32"
        }
      ],
      "stateMutability": "view",
      "type": "function"
    },
    {
      "inputs": [
        {
          "internalType": "uint256",
          "name": "",
          "type": "uint256"
        }
      ],
      "name": "_rentalPrices",
      "outputs": [
        {
          "internalType": "uint256",
          "name": "",
          "type": "uint256"
        }
      ],
      "stateMutability": "view",
      "type": "function"
    },
    {
      "inputs": [
        {
          "internalType": "address",
          "name": "to",
          "type": "address"
        },
        {
          "internalType": "uint256",
          "name": "tokenId",
          "type": "uint256"
        }
      ],
      "name": "approve",
      "outputs": [],
      "stateMutability": "nonpayable",
      "type": "function"
    },
    {
      "inputs": [
        {
          "internalType": "address",
          "name": "owner",
          "type": "address"
        }
      ],
      "name": "balanceOf",
      "outputs": [
        {
          "internalType": "uint256",
          "name": "",
          "type": "uint256"
        }
      ],
      "stateMutability": "view",
      "type": "function"
    },
    {
      "inputs": [
        {
          "internalType": "uint256",
          "name": "tokenId",
          "type": "uint256"
        }
      ],
      "name": "burn",
      "outputs": [],
      "stateMutability": "nonpayable",
      "type": "function"
    },
    {
      "inputs": [
        {
          "internalType": "uint256",
          "name": "_tokenId",
          "type": "uint256"
        }
      ],
      "name": "clearExhibit",
      "outputs": [],
      "stateMutability": "nonpayable",
      "type": "function"
    },
    {
      "inputs": [],
      "name": "contractURI",
      "outputs": [
        {
          "internalType": "string",
          "name": "",
          "type": "string"
        }
      ],
      "stateMutability": "view",
      "type": "function"
    },
    {
      "inputs": [
        {
          "internalType": "address",
          "name": "_exhibitor",
          "type": "address"
        },
        {
          "internalType": "address",
          "name": "_exhibitContractAddress",
          "type": "address"
        },
        {
          "internalType": "uint256",
          "name": "_exhibitTokenId",
          "type": "uint256"
        }
      ],
      "name": "exhibitIsOwnedBy",
      "outputs": [
        {
          "internalType": "bool",
          "name": "",
          "type": "bool"
        }
      ],
      "stateMutability": "view",
      "type": "function"
    },
    {
      "inputs": [
        {
          "internalType": "uint256",
          "name": "tokenId",
          "type": "uint256"
        }
      ],
      "name": "getApproved",
      "outputs": [
        {
          "internalType": "address",
          "name": "",
          "type": "address"
        }
      ],
      "stateMutability": "view",
      "type": "function"
    },
    {
      "inputs": [
        {
          "internalType": "enum Frame.Category",
          "name": "_category",
          "type": "uint8"
        }
      ],
      "name": "getCategoryDetail",
      "outputs": [
        {
          "internalType": "uint256",
          "name": "",
          "type": "uint256"
        },
        {
          "internalType": "uint256",
          "name": "",
          "type": "uint256"
        },
        {
          "internalType": "uint256",
          "name": "",
          "type": "uint256"
        },
        {
          "internalType": "uint256",
          "name": "",
          "type": "uint256"
        }
      ],
      "stateMutability": "view",
      "type": "function"
    },
    {
      "inputs": [
        {
          "internalType": "uint256",
          "name": "_tokenId",
          "type": "uint256"
        }
      ],
      "name": "getExhibit",
      "outputs": [
        {
          "components": [
            {
              "internalType": "address",
              "name": "contractAddress",
              "type": "address"
            },
            {
              "internalType": "uint256",
              "name": "tokenId",
              "type": "uint256"
            }
          ],
          "internalType": "struct IExhibitionable.Exhibit",
          "name": "",
          "type": "tuple"
        }
      ],
      "stateMutability": "view",
      "type": "function"
    },
    {
      "inputs": [
        {
          "internalType": "uint256",
          "name": "_tokenId",
          "type": "uint256"
        }
      ],
      "name": "getExhibitTokenURI",
      "outputs": [
        {
          "internalType": "string",
          "name": "",
          "type": "string"
        }
      ],
      "stateMutability": "view",
      "type": "function"
    },
    {
      "inputs": [
        {
          "internalType": "uint256",
          "name": "_tokenId",
          "type": "uint256"
        }
      ],
      "name": "getRentalPricePerBlock",
      "outputs": [
        {
          "internalType": "uint256",
          "name": "",
          "type": "uint256"
        }
      ],
      "stateMutability": "view",
      "type": "function"
    },
    {
      "inputs": [
        {
          "internalType": "uint256",
          "name": "_tokenId",
          "type": "uint256"
        }
      ],
      "name": "getRenter",
      "outputs": [
        {
          "components": [
            {
              "internalType": "address",
              "name": "renter",
              "type": "address"
            },
            {
              "internalType": "uint256",
              "name": "rentalExpiryBlock",
              "type": "uint256"
            }
          ],
          "internalType": "struct IRentable.Rental",
          "name": "",
          "type": "tuple"
        }
      ],
      "stateMutability": "view",
      "type": "function"
    },
    {
      "inputs": [
        {
          "internalType": "bytes32",
          "name": "role",
          "type": "bytes32"
        }
      ],
      "name": "getRoleAdmin",
      "outputs": [
        {
          "internalType": "bytes32",
          "name": "",
          "type": "bytes32"
        }
      ],
      "stateMutability": "view",
      "type": "function"
    },
    {
      "inputs": [
        {
          "internalType": "bytes32",
          "name": "role",
          "type": "bytes32"
        },
        {
          "internalType": "uint256",
          "name": "index",
          "type": "uint256"
        }
      ],
      "name": "getRoleMember",
      "outputs": [
        {
          "internalType": "address",
          "name": "",
          "type": "address"
        }
      ],
      "stateMutability": "view",
      "type": "function"
    },
    {
      "inputs": [
        {
          "internalType": "bytes32",
          "name": "role",
          "type": "bytes32"
        }
      ],
      "name": "getRoleMemberCount",
      "outputs": [
        {
          "internalType": "uint256",
          "name": "",
          "type": "uint256"
        }
      ],
      "stateMutability": "view",
      "type": "function"
    },
    {
      "inputs": [],
      "name": "getVersionNumber",
      "outputs": [
        {
          "internalType": "uint256",
          "name": "",
          "type": "uint256"
        },
        {
          "internalType": "uint256",
          "name": "",
          "type": "uint256"
        },
        {
          "internalType": "uint256",
          "name": "",
          "type": "uint256"
        },
        {
          "internalType": "uint256",
          "name": "",
          "type": "uint256"
        }
      ],
      "stateMutability": "pure",
      "type": "function"
    },
    {
      "inputs": [
        {
          "internalType": "bytes32",
          "name": "role",
          "type": "bytes32"
        },
        {
          "internalType": "address",
          "name": "account",
          "type": "address"
        }
      ],
      "name": "grantRole",
      "outputs": [],
      "stateMutability": "nonpayable",
      "type": "function"
    },
    {
      "inputs": [
        {
          "internalType": "bytes32",
          "name": "role",
          "type": "bytes32"
        },
        {
          "internalType": "address",
          "name": "account",
          "type": "address"
        }
      ],
      "name": "hasRole",
      "outputs": [
        {
          "internalType": "bool",
          "name": "",
          "type": "bool"
        }
      ],
      "stateMutability": "view",
      "type": "function"
    },
    {
      "inputs": [
        {
          "internalType": "address",
          "name": "owner",
          "type": "address"
        },
        {
          "internalType": "address",
          "name": "operator",
          "type": "address"
        }
      ],
      "name": "isApprovedForAll",
      "outputs": [
        {
          "internalType": "bool",
          "name": "",
          "type": "bool"
        }
      ],
      "stateMutability": "view",
      "type": "function"
    },
    {
      "inputs": [
        {
          "internalType": "uint256",
          "name": "_tokenId",
          "type": "uint256"
        }
      ],
      "name": "isCurrentlyRented",
      "outputs": [
        {
          "internalType": "bool",
          "name": "",
          "type": "bool"
        }
      ],
      "stateMutability": "view",
      "type": "function"
    },
    {
      "inputs": [
        {
          "internalType": "address",
          "name": "to",
          "type": "address"
        }
      ],
      "name": "mint",
      "outputs": [],
      "stateMutability": "nonpayable",
      "type": "function"
    },
    {
      "inputs": [
        {
          "internalType": "enum Frame.Category",
          "name": "_category",
          "type": "uint8"
        }
      ],
      "name": "mintFrame",
      "outputs": [],
      "stateMutability": "payable",
      "type": "function"
    },
    {
      "inputs": [],
      "name": "name",
      "outputs": [
        {
          "internalType": "string",
          "name": "",
          "type": "string"
        }
      ],
      "stateMutability": "view",
      "type": "function"
    },
    {
      "inputs": [
        {
          "internalType": "uint256",
          "name": "tokenId",
          "type": "uint256"
        }
      ],
      "name": "ownerOf",
      "outputs": [
        {
          "internalType": "address",
          "name": "",
          "type": "address"
        }
      ],
      "stateMutability": "view",
      "type": "function"
    },
    {
      "inputs": [],
      "name": "pause",
      "outputs": [],
      "stateMutability": "nonpayable",
      "type": "function"
    },
    {
      "inputs": [],
      "name": "paused",
      "outputs": [
        {
          "internalType": "bool",
          "name": "",
          "type": "bool"
        }
      ],
      "stateMutability": "view",
      "type": "function"
    },
    {
      "inputs": [
        {
          "internalType": "bytes32",
          "name": "requestId",
          "type": "bytes32"
        },
        {
          "internalType": "uint256",
          "name": "randomness",
          "type": "uint256"
        }
      ],
      "name": "rawFulfillRandomness",
      "outputs": [],
      "stateMutability": "nonpayable",
      "type": "function"
    },
    {
      "inputs": [
        {
          "internalType": "bytes32",
          "name": "role",
          "type": "bytes32"
        },
        {
          "internalType": "address",
          "name": "account",
          "type": "address"
        }
      ],
      "name": "renounceRole",
      "outputs": [],
      "stateMutability": "nonpayable",
      "type": "function"
    },
    {
      "inputs": [],
      "name": "rentalFeeDenominator",
      "outputs": [
        {
          "internalType": "int256",
          "name": "",
          "type": "int256"
        }
      ],
      "stateMutability": "view",
      "type": "function"
    },
    {
      "inputs": [],
      "name": "rentalFeeNumerator",
      "outputs": [
        {
          "internalType": "int256",
          "name": "",
          "type": "int256"
        }
      ],
      "stateMutability": "view",
      "type": "function"
    },
    {
      "inputs": [
        {
          "internalType": "bytes32",
          "name": "",
          "type": "bytes32"
        }
      ],
      "name": "requestIdToCategory",
      "outputs": [
        {
          "internalType": "enum Frame.Category",
          "name": "",
          "type": "uint8"
        }
      ],
      "stateMutability": "view",
      "type": "function"
    },
    {
      "inputs": [
        {
          "internalType": "bytes32",
          "name": "",
          "type": "bytes32"
        }
      ],
      "name": "requestIdToSender",
      "outputs": [
        {
          "internalType": "address",
          "name": "",
          "type": "address"
        }
      ],
      "stateMutability": "view",
      "type": "function"
    },
    {
      "inputs": [
        {
          "internalType": "bytes32",
          "name": "",
          "type": "bytes32"
        }
      ],
      "name": "requestIdToTokenId",
      "outputs": [
        {
          "internalType": "uint256",
          "name": "",
          "type": "uint256"
        }
      ],
      "stateMutability": "view",
      "type": "function"
    },
    {
      "inputs": [
        {
          "internalType": "bytes32",
          "name": "role",
          "type": "bytes32"
        },
        {
          "internalType": "address",
          "name": "account",
          "type": "address"
        }
      ],
      "name": "revokeRole",
      "outputs": [],
      "stateMutability": "nonpayable",
      "type": "function"
    },
    {
      "inputs": [
        {
          "internalType": "address",
          "name": "from",
          "type": "address"
        },
        {
          "internalType": "address",
          "name": "to",
          "type": "address"
        },
        {
          "internalType": "uint256",
          "name": "tokenId",
          "type": "uint256"
        }
      ],
      "name": "safeTransferFrom",
      "outputs": [],
      "stateMutability": "nonpayable",
      "type": "function"
    },
    {
      "inputs": [
        {
          "internalType": "address",
          "name": "from",
          "type": "address"
        },
        {
          "internalType": "address",
          "name": "to",
          "type": "address"
        },
        {
          "internalType": "uint256",
          "name": "tokenId",
          "type": "uint256"
        },
        {
          "internalType": "bytes",
          "name": "_data",
          "type": "bytes"
        }
      ],
      "name": "safeTransferFrom",
      "outputs": [],
      "stateMutability": "nonpayable",
      "type": "function"
    },
    {
      "inputs": [
        {
          "internalType": "address",
          "name": "operator",
          "type": "address"
        },
        {
          "internalType": "bool",
          "name": "approved",
          "type": "bool"
        }
      ],
      "name": "setApprovalForAll",
      "outputs": [],
      "stateMutability": "nonpayable",
      "type": "function"
    },
    {
      "inputs": [
        {
          "internalType": "enum Frame.Category",
          "name": "_category",
          "type": "uint8"
        },
        {
          "internalType": "uint256",
          "name": "_price",
          "type": "uint256"
        },
        {
          "internalType": "uint256",
          "name": "_startingTokenId",
          "type": "uint256"
        },
        {
          "internalType": "uint256",
          "name": "_supply",
          "type": "uint256"
        }
      ],
      "name": "setCategoryDetail",
      "outputs": [],
      "stateMutability": "nonpayable",
      "type": "function"
    },
    {
      "inputs": [
        {
          "internalType": "uint256",
          "name": "_tokenId",
          "type": "uint256"
        },
        {
          "internalType": "address",
          "name": "_exhibitContractAddress",
          "type": "address"
        },
        {
          "internalType": "uint256",
          "name": "_exhibitTokenId",
          "type": "uint256"
        }
      ],
      "name": "setExhibit",
      "outputs": [],
      "stateMutability": "nonpayable",
      "type": "function"
    },
    {
      "inputs": [
        {
          "internalType": "int256",
          "name": "_numerator",
          "type": "int256"
        },
        {
          "internalType": "int256",
          "name": "_denominator",
          "type": "int256"
        }
      ],
      "name": "setRentalFee",
      "outputs": [],
      "stateMutability": "nonpayable",
      "type": "function"
    },
    {
      "inputs": [
        {
          "internalType": "uint256",
          "name": "_tokenId",
          "type": "uint256"
        },
        {
          "internalType": "uint256",
          "name": "_rentalPrice",
          "type": "uint256"
        }
      ],
      "name": "setRentalPricePerBlock",
      "outputs": [],
      "stateMutability": "nonpayable",
      "type": "function"
    },
    {
      "inputs": [
        {
          "internalType": "uint256",
          "name": "_tokenId",
          "type": "uint256"
        },
        {
          "internalType": "address",
          "name": "_renter",
          "type": "address"
        },
        {
          "internalType": "uint256",
          "name": "_numberOfBlocks",
          "type": "uint256"
        }
      ],
      "name": "setRenter",
      "outputs": [],
      "stateMutability": "payable",
      "type": "function"
    },
    {
      "inputs": [
        {
          "internalType": "enum Frame.SaleStatus",
          "name": "_status",
          "type": "uint8"
        }
      ],
      "name": "setSaleStatus",
      "outputs": [],
      "stateMutability": "nonpayable",
      "type": "function"
    },
    {
      "inputs": [
        {
          "internalType": "bytes4",
          "name": "interfaceId",
          "type": "bytes4"
        }
      ],
      "name": "supportsInterface",
      "outputs": [
        {
          "internalType": "bool",
          "name": "",
          "type": "bool"
        }
      ],
      "stateMutability": "view",
      "type": "function"
    },
    {
      "inputs": [],
      "name": "symbol",
      "outputs": [
        {
          "internalType": "string",
          "name": "",
          "type": "string"
        }
      ],
      "stateMutability": "view",
      "type": "function"
    },
    {
      "inputs": [
        {
          "internalType": "uint256",
          "name": "index",
          "type": "uint256"
        }
      ],
      "name": "tokenByIndex",
      "outputs": [
        {
          "internalType": "uint256",
          "name": "",
          "type": "uint256"
        }
      ],
      "stateMutability": "view",
      "type": "function"
    },
    {
      "inputs": [
        {
          "internalType": "uint256",
          "name": "_tokenId",
          "type": "uint256"
        },
        {
          "internalType": "address",
          "name": "_address",
          "type": "address"
        }
      ],
      "name": "tokenIsRentedByAddress",
      "outputs": [
        {
          "internalType": "bool",
          "name": "",
          "type": "bool"
        }
      ],
      "stateMutability": "view",
      "type": "function"
    },
    {
      "inputs": [
        {
          "internalType": "address",
          "name": "owner",
          "type": "address"
        },
        {
          "internalType": "uint256",
          "name": "index",
          "type": "uint256"
        }
      ],
      "name": "tokenOfOwnerByIndex",
      "outputs": [
        {
          "internalType": "uint256",
          "name": "",
          "type": "uint256"
        }
      ],
      "stateMutability": "view",
      "type": "function"
    },
    {
      "inputs": [
        {
          "internalType": "uint256",
          "name": "tokenId",
          "type": "uint256"
        }
      ],
      "name": "tokenURI",
      "outputs": [
        {
          "internalType": "string",
          "name": "",
          "type": "string"
        }
      ],
      "stateMutability": "view",
      "type": "function"
    },
    {
      "inputs": [],
      "name": "totalSupply",
      "outputs": [
        {
          "internalType": "uint256",
          "name": "",
          "type": "uint256"
        }
      ],
      "stateMutability": "view",
      "type": "function"
    },
    {
      "inputs": [
        {
          "internalType": "address",
          "name": "from",
          "type": "address"
        },
        {
          "internalType": "address",
          "name": "to",
          "type": "address"
        },
        {
          "internalType": "uint256",
          "name": "tokenId",
          "type": "uint256"
        }
      ],
      "name": "transferFrom",
      "outputs": [],
      "stateMutability": "nonpayable",
      "type": "function"
    },
    {
      "inputs": [],
      "name": "unpause",
      "outputs": [],
      "stateMutability": "nonpayable",
      "type": "function"
    },
    {
      "inputs": [
        {
          "internalType": "address payable",
          "name": "_to",
          "type": "address"
        }
      ],
      "name": "withdrawAllLink",
      "outputs": [],
      "stateMutability": "nonpayable",
      "type": "function"
    },
    {
      "inputs": [
        {
          "internalType": "address payable",
          "name": "_to",
          "type": "address"
        },
        {
          "internalType": "uint256",
          "name": "_value",
          "type": "uint256"
        }
      ],
      "name": "withdrawEther",
      "outputs": [],
      "stateMutability": "nonpayable",
      "type": "function"
    }
  ],
  "transactionHash": "0x2a4cff019a82c28d28ab89676bad3e3dc7e3e2c959a2f1d872f50c5bf9ca32b1",
  "args": [
    "Frame",
    "FRAME",
    "ipfs://QmfSqrM4qmm1wiVnoCyrtuewzk8CL733cfdyg4RrARPH79/",
    "https://musee-dezental.com/storefront",
    "0xb3dCcb4Cf7a26f6cf6B120Cf5A73875B7BBc655B",
    "0x01BE23585060835E02B77ef475b0Cc51aA1e0709",
    "0x2ed0feb3e7fd2022120aa84fab1945545a9f2ffc9076fd6156fa96eaff4c1311",
    "100000000000000000",
    "50",
    "1000"
  ],
  "solcInputHash": "f777997f4a93fac96999633fdd728cd6",
  "bytecode": "0x60c060405267016345785d8a0000601955601a805460ff191690556032601b556103e8601c553480156200003257600080fd5b50604051620058f5380380620058f5833981016040819052620000559162000899565b85858b8b8b8282600160008190555081600690805190602001906200007c929190620006b2565b50805162000092906007906020840190620006b2565b50506010805460ff19169055508051620000b4906012906020840190620006b2565b50620000c260003362000272565b620000ee7f9f2df0fed2c77648de5860a4cc508cd0818c85b8b8a1ab4ceeef8d981c8956a63362000272565b6200011a7f65d7a28e3265b37a6474929f336521b332c1681b933f6cb9f3376673440d862a3362000272565b5050506001600160601b0319606092831b811660a052911b1660805286516200014b90601d9060208a0190620006b2565b50826019819055508360188190555081601b8190555080601c819055506000739c47fCcfE2add2311192cB91981348952B1e654E63a7cd63b76040518163ffffffff1660e01b8152600401610ee06040518083038186803b158015620001b057600080fd5b505af4158015620001c5573d6000803e3d6000fd5b505050506040513d601f19601f82011682018060405250810190620001eb919062000804565b905060005b607781101562000260576200024b7f6a4b509b5f306a69ec99e97ff6b166daad9c0a3dfce739a6d67ad1c57143a6b28383607781106200024057634e487b7160e01b600052603260045260246000fd5b6020020151620002b5565b80620002578162000b10565b915050620001f0565b50505050505050505050505062000b5a565b620002898282620002cc60201b620027cc1760201c565b6000828152600560209081526040909120620002b0918390620027d6620002dc821b17901c565b505050565b620002898282620002fc60201b620027eb1760201c565b620002d8828262000321565b5050565b6000620002f3836001600160a01b038416620003c5565b90505b92915050565b6000828152600460205260409020600101546200031a813362000417565b620002b083835b60008281526004602090815260408083206001600160a01b038516845290915290205460ff16620002d85760008281526004602090815260408083206001600160a01b03851684529091529020805460ff19166001179055620003813390565b6001600160a01b0316816001600160a01b0316837f2f8788117e7eff1d82e926ec794901d17c78024a50270940304540a733656f0d60405160405180910390a45050565b60008181526001830160205260408120546200040e57508154600181810184556000848152602080822090930184905584548482528286019093526040902091909155620002f6565b506000620002f6565b60008281526004602090815260408083206001600160a01b038516845290915290205460ff16620002d85762000463816001600160a01b03166014620004bd60201b620028111760201c565b6200047983602062002811620004bd821b17811c565b6040516020016200048c9291906200099b565b60408051601f198184030181529082905262461bcd60e51b8252620004b49160040162000a14565b60405180910390fd5b60606000620004ce83600262000a64565b620004db90600262000a49565b6001600160401b038111156200050157634e487b7160e01b600052604160045260246000fd5b6040519080825280601f01601f1916602001820160405280156200052c576020820181803683370190505b509050600360fc1b816000815181106200055657634e487b7160e01b600052603260045260246000fd5b60200101906001600160f81b031916908160001a905350600f60fb1b816001815181106200059457634e487b7160e01b600052603260045260246000fd5b60200101906001600160f81b031916908160001a9053506000620005ba84600262000a64565b620005c790600162000a49565b90505b600181111562000661576f181899199a1a9b1b9c1cb0b131b232b360811b85600f16601081106200060b57634e487b7160e01b600052603260045260246000fd5b1a60f81b8282815181106200063057634e487b7160e01b600052603260045260246000fd5b60200101906001600160f81b031916908160001a90535060049490941c93620006598162000ab9565b9050620005ca565b508315620002f35760405162461bcd60e51b815260206004820181905260248201527f537472696e67733a20686578206c656e67746820696e73756666696369656e746044820152606401620004b4565b828054620006c09062000ad3565b90600052602060002090601f016020900481019282620006e457600085556200072f565b82601f10620006ff57805160ff19168380011785556200072f565b828001600101855582156200072f579182015b828111156200072f57825182559160200191906001019062000712565b506200073d92915062000741565b5090565b5b808211156200073d576000815560010162000742565b80516001600160a01b03811681146200077057600080fd5b919050565b600082601f83011262000786578081fd5b81516001600160401b0380821115620007a357620007a362000b44565b604051601f8301601f19908116603f01168101908282118183101715620007ce57620007ce62000b44565b81604052838152866020858801011115620007e7578485fd5b620007fa84602083016020890162000a86565b9695505050505050565b6000610ee080838503121562000818578182fd5b83601f84011262000827578182fd5b6040518181016001600160401b03811182821017156200084b576200084b62000b44565b60405280848381018710156200085f578485fd5b8493505b60778410156200088e57620008788162000758565b8252600193909301926020918201910162000863565b509095945050505050565b6000806000806000806000806000806101408b8d031215620008b9578586fd5b8a516001600160401b0380821115620008d0578788fd5b620008de8e838f0162000775565b9b5060208d0151915080821115620008f4578788fd5b620009028e838f0162000775565b9a5060408d015191508082111562000918578788fd5b620009268e838f0162000775565b995060608d01519150808211156200093c578788fd5b506200094b8d828e0162000775565b9750506200095c60808c0162000758565b95506200096c60a08c0162000758565b945060c08b0151935060e08b015192506101008b015191506101208b015190509295989b9194979a5092959850565b7f416363657373436f6e74726f6c3a206163636f756e7420000000000000000000815260008351620009d581601785016020880162000a86565b7001034b99036b4b9b9b4b733903937b6329607d1b601791840191820152835162000a0881602884016020880162000a86565b01602801949350505050565b602081526000825180602084015262000a3581604085016020870162000a86565b601f01601f19169190910160400192915050565b6000821982111562000a5f5762000a5f62000b2e565b500190565b600081600019048311821515161562000a815762000a8162000b2e565b500290565b60005b8381101562000aa357818101518382015260200162000a89565b8381111562000ab3576000848401525b50505050565b60008162000acb5762000acb62000b2e565b506000190190565b600181811c9082168062000ae857607f821691505b6020821081141562000b0a57634e487b7160e01b600052602260045260246000fd5b50919050565b600060001982141562000b275762000b2762000b2e565b5060010190565b634e487b7160e01b600052601160045260246000fd5b634e487b7160e01b600052604160045260246000fd5b60805160601c60a05160601c614d5362000ba260003960008181611c4401526136ac01526000818161177501528181611803015281816120b2015261367d0152614d536000f3fe60806040526004361061038c5760003560e01c80636352211e116101dc578063a217fddf11610102578063d057d24c116100a0578063e8a3d4851161006f578063e8a3d48514610b49578063e985e9c514610b5e578063eb155e3114610ba7578063fc1560b714610bc757600080fd5b8063d057d24c14610a5f578063d539139314610ac1578063d547741f14610af5578063e63ab1e914610b1557600080fd5b8063a9c934f0116100dc578063a9c934f0146109ec578063b88d4fde146109ff578063c87b56dd14610a1f578063ca15c87314610a3f57600080fd5b8063a217fddf1461097a578063a22cb4651461098f578063a3e5cb51146109af57600080fd5b8063817d32d01161017a5780639326197a116101495780639326197a146108e457806394985ddd1461091857806395d89b411461093857806396eb80961461094d57600080fd5b8063817d32d01461086f5780638456cb591461088f5780639010d07c146108a457806391d14854146108c457600080fd5b80636a627842116101b65780636a627842146107ef57806370a082311461080f5780637e70f7cc1461082f5780637eaf76591461084f57600080fd5b80636352211e1461078f57806369087819146107af578063690e4bed146107cf57600080fd5b80633009c19b116102c15780634684c6111161025f578063522f68151161022e578063522f68151461070c57806354255be01461072c578063595ef018146107615780635c975abb1461077757600080fd5b80634684c6111461068c5780634891ad88146106ac5780634dd15481146106cc5780634f6ccce7146106ec57600080fd5b80633db07cb81161029b5780633db07cb8146106175780633f4ba83a1461063757806342842e0e1461064c57806342966c681461066c57600080fd5b80633009c19b146105b457806333a9dbe7146105e157806336568abe146105f757600080fd5b8063219c0eee1161032e578063248a9ca311610308578063248a9ca3146105245780632f2ff15d146105545780632f745c59146105745780633007a2fa1461059457600080fd5b8063219c0eee146104a157806322881f88146104d757806323b872dd1461050457600080fd5b8063095ea7b31161036a578063095ea7b31461042057806309acea491461044257806318160ddd14610462578063213a42341461048157600080fd5b806301ffc9a71461039157806306fdde03146103c6578063081812fc146103e8575b600080fd5b34801561039d57600080fd5b506103b16103ac3660046146c9565b610bda565b60405190151581526020015b60405180910390f35b3480156103d257600080fd5b506103db610beb565b6040516103bd919061497f565b3480156103f457600080fd5b5061040861040336600461466c565b610c7d565b6040516001600160a01b0390911681526020016103bd565b34801561042c57600080fd5b5061044061043b36600461463e565b610d0a565b005b34801561044e57600080fd5b5061044061045d36600461466c565b610e20565b34801561046e57600080fd5b50600e545b6040519081526020016103bd565b34801561048d57600080fd5b5061044061049c36600461471b565b610e8b565b3480156104ad57600080fd5b506104086104bc36600461466c565b6015602052600090815260409020546001600160a01b031681565b3480156104e357600080fd5b506104736104f236600461466c565b60176020526000908152604090205481565b34801561051057600080fd5b5061044061051f36600461452a565b610fd9565b34801561053057600080fd5b5061047361053f36600461466c565b60009081526004602052604090206001015490565b34801561056057600080fd5b5061044061056f366004614684565b61100b565b34801561058057600080fd5b5061047361058f36600461463e565b61102d565b3480156105a057600080fd5b506103b16105af366004614684565b6110c3565b3480156105c057600080fd5b506105d46105cf36600461466c565b6110d6565b6040516103bd9190614b1a565b3480156105ed57600080fd5b50610473601c5481565b34801561060357600080fd5b50610440610612366004614684565b6110f3565b34801561062357600080fd5b506103b161063236600461452a565b611115565b34801561064357600080fd5b50610440611158565b34801561065857600080fd5b5061044061066736600461452a565b611200565b34801561067857600080fd5b5061044061068736600461466c565b61121b565b34801561069857600080fd5b506104406106a73660046147fd565b611295565b3480156106b857600080fd5b506104406106c7366004614753565b6113de565b3480156106d857600080fd5b506104406106e73660046146a8565b61143c565b3480156106f857600080fd5b5061047361070736600461466c565b6114c5565b34801561071857600080fd5b506104406107273660046144c7565b611566565b34801561073857600080fd5b50600160006002825b6040805194855260208501939093529183015260608201526080016103bd565b34801561076d57600080fd5b50610473601b5481565b34801561078357600080fd5b5060105460ff166103b1565b34801561079b57600080fd5b506104086107aa36600461466c565b61160d565b3480156107bb57600080fd5b506104406107ca3660046146a8565b611684565b3480156107db57600080fd5b506104406107ea36600461448f565b61170e565b3480156107fb57600080fd5b5061044061080a36600461448f565b611930565b34801561081b57600080fd5b5061047361082a36600461448f565b6119ec565b34801561083b57600080fd5b5061047361084a36600461466c565b611a73565b34801561085b57600080fd5b506103b161086a36600461466c565b611a87565b34801561087b57600080fd5b5061074161088a366004614701565b611abd565b34801561089b57600080fd5b50610440611b52565b3480156108b057600080fd5b506104086108bf3660046146a8565b611bf6565b3480156108d057600080fd5b506103b16108df366004614684565b611c0e565b3480156108f057600080fd5b506104737f6a4b509b5f306a69ec99e97ff6b166daad9c0a3dfce739a6d67ad1c57143a6b281565b34801561092457600080fd5b506104406109333660046146a8565b611c39565b34801561094457600080fd5b506103db611cbf565b34801561095957600080fd5b5061047361096836600461466c565b60016020526000908152604090205481565b34801561098657600080fd5b50610473600081565b34801561099b57600080fd5b506104406109aa366004614611565b611cce565b3480156109bb57600080fd5b506109df6109ca36600461466c565b60166020526000908152604090205460ff1681565b6040516103bd9190614957565b6104406109fa366004614701565b611d93565b348015610a0b57600080fd5b50610440610a1a36600461456a565b61221d565b348015610a2b57600080fd5b506103db610a3a36600461466c565b612255565b348015610a4b57600080fd5b50610473610a5a36600461466c565b61231f565b348015610a6b57600080fd5b506105d4610a7a36600461466c565b604080518082019091526000808252602082015250600090815260036020908152604091829020825180840190935280546001600160a01b03168352600101549082015290565b348015610acd57600080fd5b506104737f9f2df0fed2c77648de5860a4cc508cd0818c85b8b8a1ab4ceeef8d981c8956a681565b348015610b0157600080fd5b50610440610b10366004614684565b612336565b348015610b2157600080fd5b506104737f65d7a28e3265b37a6474929f336521b332c1681b933f6cb9f3376673440d862a81565b348015610b5557600080fd5b506103db612340565b348015610b6a57600080fd5b506103b1610b793660046144f2565b6001600160a01b039182166000908152600b6020908152604080832093909416825291909152205460ff1690565b348015610bb357600080fd5b506103db610bc236600461466c565b6123ce565b610440610bd53660046147fd565b61252b565b6000610be5826129f3565b92915050565b606060068054610bfa90614c38565b80601f0160208091040260200160405190810160405280929190818152602001828054610c2690614c38565b8015610c735780601f10610c4857610100808354040283529160200191610c73565b820191906000526020600020905b815481529060010190602001808311610c5657829003601f168201915b5050505050905090565b6000610c8882612a18565b610cee5760405162461bcd60e51b815260206004820152602c60248201527f4552433732313a20617070726f76656420717565727920666f72206e6f6e657860448201526b34b9ba32b73a103a37b5b2b760a11b60648201526084015b60405180910390fd5b506000908152600a60205260409020546001600160a01b031690565b6000610d158261160d565b9050806001600160a01b0316836001600160a01b03161415610d835760405162461bcd60e51b815260206004820152602160248201527f4552433732313a20617070726f76616c20746f2063757272656e74206f776e656044820152603960f91b6064820152608401610ce5565b336001600160a01b0382161480610d9f5750610d9f8133610b79565b610e115760405162461bcd60e51b815260206004820152603860248201527f4552433732313a20617070726f76652063616c6c6572206973206e6f74206f7760448201527f6e6572206e6f7220617070726f76656420666f7220616c6c00000000000000006064820152608401610ce5565b610e1b8383612a35565b505050565b80610e2a81612a18565b610e465760405162461bcd60e51b8152600401610ce5906149e4565b60026000541415610e695760405162461bcd60e51b8152600401610ce590614ae3565b6002600055610e783383612aa3565b50610e8282612bc6565b50506001600055565b33610e97600082611c0e565b610eb35760405162461bcd60e51b8152600401610ce590614a30565b84600a81600a811115610ed657634e487b7160e01b600052602160045260246000fd5b1115610ef45760405162461bcd60e51b8152600401610ce590614aac565b600081600a811115610f1657634e487b7160e01b600052602160045260246000fd5b1015610f345760405162461bcd60e51b8152600401610ce590614aac565b60006014600088600a811115610f5a57634e487b7160e01b600052602160045260246000fd5b600a811115610f7957634e487b7160e01b600052602160045260246000fd5b8152602081019190915260400160002086815560018101869055600281018590559050845b610fa88587614b93565b811015610fcf57610fbc6003830182612bd2565b5080610fc781614c73565b915050610f9e565b5050505050505050565b610fe4335b82612bde565b6110005760405162461bcd60e51b8152600401610ce590614a5b565b610e1b838383612c7f565b61101582826127eb565b6000828152600560205260409020610e1b90826127d6565b6000611038836119ec565b821061109a5760405162461bcd60e51b815260206004820152602b60248201527f455243373231456e756d657261626c653a206f776e657220696e646578206f7560448201526a74206f6620626f756e647360a81b6064820152608401610ce5565b506001600160a01b03919091166000908152600c60209081526040808320938352929052205490565b60006110cf8383612e2a565b9392505050565b6040805180820190915260008082526020820152610be582612e4f565b6110fd8282612e96565b6000828152600560205260409020610e1b9082612f10565b60008061112184612f25565b1561113457611131858585612fa7565b90505b61113d84613043565b156111505761114d858585613079565b90505b949350505050565b6111827f65d7a28e3265b37a6474929f336521b332c1681b933f6cb9f3376673440d862a33611c0e565b6111f6576040805162461bcd60e51b81526020600482015260248101919091527f4552433732315072657365744d696e7465725061757365724175746f49643a2060448201527f6d75737420686176652070617573657220726f6c6520746f20756e70617573656064820152608401610ce5565b6111fe613105565b565b610e1b8383836040518060200160405280600081525061221d565b61122433610fde565b6112895760405162461bcd60e51b815260206004820152603060248201527f4552433732314275726e61626c653a2063616c6c6572206973206e6f74206f7760448201526f1b995c881b9bdc88185c1c1c9bdd995960821b6064820152608401610ce5565b61129281613198565b50565b8261129f81612a18565b6112bb5760405162461bcd60e51b8152600401610ce5906149e4565b336040516307b60f9760e31b81526001600160a01b0380831660048301528516602482015260448101849052849084903090633db07cb89060640160206040518083038186803b15801561130e57600080fd5b505afa158015611322573d6000803e3d6000fd5b505050506040513d601f19601f820116820180604052508101906113469190614650565b6113925760405162461bcd60e51b815260206004820152601860248201527f4672616d653a2045786869626974206e6f742076616c696400000000000000006044820152606401610ce5565b600260005414156113b55760405162461bcd60e51b8152600401610ce590614ae3565b60026000556113c43388612aa3565b506113d087878761323f565b505060016000555050505050565b336113ea600082611c0e565b6114065760405162461bcd60e51b8152600401610ce590614a30565b601a805483919060ff1916600183600281111561143357634e487b7160e01b600052602160045260246000fd5b02179055505050565b33611448600082611c0e565b6114645760405162461bcd60e51b8152600401610ce590614a30565b601b8054601c8054928690558490556040805182815260208101849052908101869052606081018590529091907fc2ac79bee6d1ed17598c0a9e971d185df3f02d421356e70c34d4f4855f4983379060800160405180910390a15050505050565b60006114d0600e5490565b82106115335760405162461bcd60e51b815260206004820152602c60248201527f455243373231456e756d657261626c653a20676c6f62616c20696e646578206f60448201526b7574206f6620626f756e647360a01b6064820152608401610ce5565b600e828154811061155457634e487b7160e01b600052603260045260246000fd5b90600052602060002001549050919050565b33611572600082611c0e565b61158e5760405162461bcd60e51b8152600401610ce590614a30565b600260005414156115b15760405162461bcd60e51b8152600401610ce590614ae3565b60026000556115c083836132af565b826001600160a01b03167f06097061aeda806b5e9cb4133d9899f332ff0913956567fc0f7ea15e3d19947c836040516115fb91815260200190565b60405180910390a25050600160005550565b6000818152600860205260408120546001600160a01b031680610be55760405162461bcd60e51b815260206004820152602960248201527f4552433732313a206f776e657220717565727920666f72206e6f6e657869737460448201526832b73a103a37b5b2b760b91b6064820152608401610ce5565b8161168e81612a18565b6116aa5760405162461bcd60e51b8152600401610ce5906149e4565b82336116b68282613352565b6116f95760405162461bcd60e51b8152602060048201526014602482015273233930b6b29d102737ba103a34329027bbb732b960611b6044820152606401610ce5565b50505060009182526001602052604090912055565b3361171a600082611c0e565b6117365760405162461bcd60e51b8152600401610ce590614a30565b600260005414156117595760405162461bcd60e51b8152600401610ce590614ae3565b600260009081556040516370a0823160e01b81523060048201527f00000000000000000000000000000000000000000000000000000000000000006001600160a01b0316906370a082319060240160206040518083038186803b1580156117bf57600080fd5b505afa1580156117d3573d6000803e3d6000fd5b505050506040513d601f19601f820116820180604052508101906117f791906147e5565b90506001600160a01b037f00000000000000000000000000000000000000000000000000000000000000001663a9059cbb336040516001600160e01b031960e084901b1681526001600160a01b03909116600482015260248101849052604401602060405180830381600087803b15801561187157600080fd5b505af1158015611885573d6000803e3d6000fd5b505050506040513d601f19601f820116820180604052508101906118a99190614650565b6118f55760405162461bcd60e51b815260206004820152601960248201527f4672616d653a204572726f722073656e64696e67204c494e4b000000000000006044820152606401610ce5565b826001600160a01b03167fcb1436249a1dd8cf93362c28d79a4e20dc54398b6c49e30316e8396e72a584b0826040516115fb91815260200190565b61195a7f9f2df0fed2c77648de5860a4cc508cd0818c85b8b8a1ab4ceeef8d981c8956a633611c0e565b6119cc5760405162461bcd60e51b815260206004820152603d60248201527f4552433732315072657365744d696e7465725061757365724175746f49643a2060448201527f6d7573742068617665206d696e74657220726f6c6520746f206d696e740000006064820152608401610ce5565b6119de816119d960115490565b613379565b611292601180546001019055565b60006001600160a01b038216611a575760405162461bcd60e51b815260206004820152602a60248201527f4552433732313a2062616c616e636520717565727920666f7220746865207a65604482015269726f206164647265737360b01b6064820152608401610ce5565b506001600160a01b031660009081526009602052604090205490565b600081815260016020526040812054610be5565b6000818152600260209081526040808320815180830190925280546001600160a01b031682526001015491018190524310610be5565b60008060008060006014600087600a811115611ae957634e487b7160e01b600052602160045260246000fd5b600a811115611b0857634e487b7160e01b600052602160045260246000fd5b815260200190815260200160002090506000611b26826003016134b8565b8260020154611b359190614bde565b825460018401546002909401549099939850965094509092505050565b611b7c7f65d7a28e3265b37a6474929f336521b332c1681b933f6cb9f3376673440d862a33611c0e565b611bee5760405162461bcd60e51b815260206004820152603e60248201527f4552433732315072657365744d696e7465725061757365724175746f49643a2060448201527f6d75737420686176652070617573657220726f6c6520746f20706175736500006064820152608401610ce5565b6111fe6134c2565b60008281526005602052604081206110cf908361353d565b60009182526004602090815260408084206001600160a01b0393909316845291905290205460ff1690565b336001600160a01b037f00000000000000000000000000000000000000000000000000000000000000001614611cb15760405162461bcd60e51b815260206004820152601f60248201527f4f6e6c7920565246436f6f7264696e61746f722063616e2066756c66696c6c006044820152606401610ce5565b611cbb8282613549565b5050565b606060078054610bfa90614c38565b6001600160a01b038216331415611d275760405162461bcd60e51b815260206004820152601960248201527f4552433732313a20617070726f766520746f2063616c6c6572000000000000006044820152606401610ce5565b336000818152600b602090815260408083206001600160a01b03871680855290835292819020805460ff191686151590811790915590519081529192917f17307eab39ab6107e8899845ad3d59bd9653f200f220920489ca2b5937696c31910160405180910390a35050565b6000601a5460ff166002811115611dba57634e487b7160e01b600052602160045260246000fd5b1415611e085760405162461bcd60e51b815260206004820152601c60248201527f4672616d653a204d696e74696e67206e6f7420617661696c61626c65000000006044820152606401610ce5565b80600a81600a811115611e2b57634e487b7160e01b600052602160045260246000fd5b1115611e495760405162461bcd60e51b8152600401610ce590614aac565b600081600a811115611e6b57634e487b7160e01b600052602160045260246000fd5b1015611e895760405162461bcd60e51b8152600401610ce590614aac565b60026000541415611eac5760405162461bcd60e51b8152600401610ce590614ae3565b600260005560105460ff1615611ef75760405162461bcd60e51b815260206004820152601060248201526f14185d5cd8589b194e881c185d5cd95960821b6044820152606401610ce5565b6001601a5460ff166002811115611f1e57634e487b7160e01b600052602160045260246000fd5b1415611f9a57611f4e7f6a4b509b5f306a69ec99e97ff6b166daad9c0a3dfce739a6d67ad1c57143a6b233611c0e565b611f9a5760405162461bcd60e51b815260206004820152601a60248201527f4672616d653a2041646472657373206e6f74206f6e206c6973740000000000006044820152606401610ce5565b60006014600084600a811115611fc057634e487b7160e01b600052602160045260246000fd5b600a811115611fdf57634e487b7160e01b600052602160045260246000fd5b815260200190815260200160002090506000611ffd826003016134b8565b1161203c5760405162461bcd60e51b815260206004820152600f60248201526e119c985b594e8814dbdb19081bdd5d608a1b6044820152606401610ce5565b8054341461209a5760405162461bcd60e51b815260206004820152602560248201527f4672616d653a20496e636f7272656374207061796d656e7420666f722063617460448201526465676f727960d81b6064820152608401610ce5565b6019546040516370a0823160e01b81523060048201527f00000000000000000000000000000000000000000000000000000000000000006001600160a01b0316906370a082319060240160206040518083038186803b1580156120fc57600080fd5b505afa158015612110573d6000803e3d6000fd5b505050506040513d601f19601f8201168201806040525081019061213491906147e5565b101561217b5760405162461bcd60e51b81526020600482015260166024820152754672616d653a204e6f7420656e6f756768204c494e4b60501b6044820152606401610ce5565b600061218b601854601954613679565b600081815260156020908152604080832080546001600160a01b03191633179055601690915290208054919250859160ff1916600183600a8111156121e057634e487b7160e01b600052602160045260246000fd5b0217905550604051339082907f9d03d5e4e11627bacfb2a3a993b2f9923c66e8cb86c1c3a6bca45fc876590d7890600090a3505060016000555050565b6122273383612bde565b6122435760405162461bcd60e51b8152600401610ce590614a5b565b61224f84848484613804565b50505050565b606061226082612a18565b6122c45760405162461bcd60e51b815260206004820152602f60248201527f4552433732314d657461646174613a2055524920717565727920666f72206e6f60448201526e3732bc34b9ba32b73a103a37b5b2b760891b6064820152608401610ce5565b60006122ce613837565b905060008151116122ee57604051806020016040528060008152506110cf565b806122f884613846565b60405160200161230992919061484f565b6040516020818303038152906040529392505050565b6000818152600560205260408120610be5906134b8565b6110fd8282613960565b601d805461234d90614c38565b80601f016020809104026020016040519081016040528092919081815260200182805461237990614c38565b80156123c65780601f1061239b576101008083540402835291602001916123c6565b820191906000526020600020905b8154815290600101906020018083116123a957829003601f168201915b505050505081565b600081815260036020526040902080546060919082906123f6906001600160a01b0316612f25565b15612488578154600183015460405163c87b56dd60e01b81526001600160a01b039092169163c87b56dd916124319160040190815260200190565b60006040518083038186803b15801561244957600080fd5b505afa15801561245d573d6000803e3d6000fd5b505050506040513d6000823e601f3d908101601f191682016040526124859190810190614772565b90505b815461249c906001600160a01b0316613043565b156110cf57815460018301546040516303a24d0760e21b81526001600160a01b0390921691630e89341c916124d79160040190815260200190565b60006040518083038186803b1580156124ef57600080fd5b505afa158015612503573d6000803e3d6000fd5b505050506040513d6000823e601f3d908101601f191682016040526111509190810190614772565b8261253581612a18565b6125515760405162461bcd60e51b8152600401610ce5906149e4565b600084815260026020908152604091829020825180840190935280546001600160a01b0316835260010154910181905284904310156125d25760405162461bcd60e51b815260206004820152601b60248201527f4672616d653a20546f6b656e20616c72656164792072656e74656400000000006044820152606401610ce5565b604051631f9c3df360e21b81526004810186905285906000903090637e70f7cc9060240160206040518083038186803b15801561260e57600080fd5b505afa158015612622573d6000803e3d6000fd5b505050506040513d601f19601f8201168201806040525081019061264691906147e5565b116126935760405162461bcd60e51b815260206004820152601b60248201527f4672616d653a2052656e74616c207072696365206e6f742073657400000000006044820152606401610ce5565b600260005414156126b65760405162461bcd60e51b8152600401610ce590614ae3565b6002600090815586815260016020526040812054906126d58287614bbf565b90508034146127265760405162461bcd60e51b815260206004820152601860248201527f4672616d653a20496e636f7272656374207061796d656e7400000000000000006044820152606401610ce5565b6000612736601b54601c54613986565b905060006127448284613a22565b905060006127518b61160d565b9050806001600160a01b03168b7ff589aa97ce865d224468fd0f94ceffe274703183477aeea987d264ec825d289d8460405161278f91815260200190565b60405180910390a36127a18285614bde565b9350806127ae81866132af565b6127b98c8c8c613a8a565b5050600160005550505050505050505050565b611cbb8282613b00565b60006110cf836001600160a01b038416613b86565b6000828152600460205260409020600101546128078133613bd5565b610e1b8383613b00565b60606000612820836002614bbf565b61282b906002614b93565b67ffffffffffffffff81111561285157634e487b7160e01b600052604160045260246000fd5b6040519080825280601f01601f19166020018201604052801561287b576020820181803683370190505b509050600360fc1b816000815181106128a457634e487b7160e01b600052603260045260246000fd5b60200101906001600160f81b031916908160001a905350600f60fb1b816001815181106128e157634e487b7160e01b600052603260045260246000fd5b60200101906001600160f81b031916908160001a9053506000612905846002614bbf565b612910906001614b93565b90505b60018111156129a4576f181899199a1a9b1b9c1cb0b131b232b360811b85600f166010811061295257634e487b7160e01b600052603260045260246000fd5b1a60f81b82828151811061297657634e487b7160e01b600052603260045260246000fd5b60200101906001600160f81b031916908160001a90535060049490941c9361299d81614c21565b9050612913565b5083156110cf5760405162461bcd60e51b815260206004820181905260248201527f537472696e67733a20686578206c656e67746820696e73756666696369656e746044820152606401610ce5565b60006001600160e01b0319821663780e9d6360e01b1480610be55750610be582613c39565b6000908152600860205260409020546001600160a01b0316151590565b6000818152600a6020526040902080546001600160a01b0319166001600160a01b0384169081179091558190612a6a8261160d565b6001600160a01b03167f8c5be1e5ebec7d5bd14f71427d1e84f3dd0314c0f7b2291e5b200ac8c7c3b92560405160405180910390a45050565b604051637eaf765960e01b8152600481018290526000903090637eaf76599060240160206040518083038186803b158015612add57600080fd5b505afa158015612af1573d6000803e3d6000fd5b505050506040513d601f19601f82011682018060405250810190612b159190614650565b15612b74576000612b268385612e2a565b905080612b6d5760405162461bcd60e51b8152602060048201526015602482015274233930b6b29d102737ba103a3432902932b73a32b960591b6044820152606401610ce5565b9050610be5565b6000612b808385613352565b905080612b6d5760405162461bcd60e51b8152602060048201526014602482015273233930b6b29d102737ba103a34329027bbb732b960611b6044820152606401610ce5565b6112928160008061323f565b60006110cf8383613b86565b6000612be982612a18565b612c055760405162461bcd60e51b8152600401610ce5906149e4565b6000612c108361160d565b9050806001600160a01b0316846001600160a01b03161480612c4b5750836001600160a01b0316612c4084610c7d565b6001600160a01b0316145b8061115057506001600160a01b038082166000908152600b602090815260408083209388168352929052205460ff16611150565b826001600160a01b0316612c928261160d565b6001600160a01b031614612cfa5760405162461bcd60e51b815260206004820152602960248201527f4552433732313a207472616e73666572206f6620746f6b656e2074686174206960448201526839903737ba1037bbb760b91b6064820152608401610ce5565b6001600160a01b038216612d5c5760405162461bcd60e51b8152602060048201526024808201527f4552433732313a207472616e7366657220746f20746865207a65726f206164646044820152637265737360e01b6064820152608401610ce5565b612d67838383613c79565b612d72600082612a35565b6001600160a01b0383166000908152600960205260408120805460019290612d9b908490614bde565b90915550506001600160a01b0382166000908152600960205260408120805460019290612dc9908490614b93565b909155505060008181526008602052604080822080546001600160a01b0319166001600160a01b0386811691821790925591518493918716917fddf252ad1be2c89b69c2b068fc378daa952ba7f163c4a11628f55a4df523b3ef91a4505050565b600080612e3684612e4f565b516001600160a01b039081169084161491505092915050565b604080518082019091526000808252602082015250600090815260026020908152604091829020825180840190935280546001600160a01b03168352600101549082015290565b6001600160a01b0381163314612f065760405162461bcd60e51b815260206004820152602f60248201527f416363657373436f6e74726f6c3a2063616e206f6e6c792072656e6f756e636560448201526e103937b632b9903337b91039b2b63360891b6064820152608401610ce5565b611cbb8282613c84565b60006110cf836001600160a01b038416613ceb565b6040516301ffc9a760e01b81526380ac58cd60e01b60048201526000906001600160a01b038316906301ffc9a7906024015b60206040518083038186803b158015612f6f57600080fd5b505afa158015612f83573d6000803e3d6000fd5b505050506040513d601f19601f82011682018060405250810190610be59190614650565b6000836001600160a01b0316836001600160a01b0316636352211e846040518263ffffffff1660e01b8152600401612fe191815260200190565b60206040518083038186803b158015612ff957600080fd5b505afa15801561300d573d6000803e3d6000fd5b505050506040513d601f19601f8201168201806040525081019061303191906144ab565b6001600160a01b031614949350505050565b6040516301ffc9a760e01b8152636cdb3d1360e11b60048201526000906001600160a01b038316906301ffc9a790602401612f57565b604051627eeac760e11b81526001600160a01b03848116600483015260248201839052600091829185169062fdd58e9060440160206040518083038186803b1580156130c457600080fd5b505afa1580156130d8573d6000803e3d6000fd5b505050506040513d601f19601f820116820180604052508101906130fc91906147e5565b11949350505050565b60105460ff1661314e5760405162461bcd60e51b815260206004820152601460248201527314185d5cd8589b194e881b9bdd081c185d5cd95960621b6044820152606401610ce5565b6010805460ff191690557f5db9ee0a495bf2e6ff9c91a7834c1ba4fdd244a5e8aa4e537bd38aeae4b073aa335b6040516001600160a01b03909116815260200160405180910390a1565b60006131a38261160d565b90506131b181600084613c79565b6131bc600083612a35565b6001600160a01b03811660009081526009602052604081208054600192906131e5908490614bde565b909155505060008281526008602052604080822080546001600160a01b0319169055518391906001600160a01b038416907fddf252ad1be2c89b69c2b068fc378daa952ba7f163c4a11628f55a4df523b3ef908390a45050565b60008381526003602090815260409182902080546001600160a01b0319166001600160a01b038616908117825560018201859055925184815290929186917f845ee41542a753bb1bf9f17c3d2930fd16349a29332893bc06569e4e9f5f46b391015b60405180910390a350505050565b6000826001600160a01b03168260405160006040518083038185875af1925050503d80600081146132fc576040519150601f19603f3d011682016040523d82523d6000602084013e613301565b606091505b5050905080610e1b5760405162461bcd60e51b815260206004820152601960248201527f4672616d653a204661696c656420746f2073656e6420455448000000000000006044820152606401610ce5565b600061335d8361160d565b6001600160a01b0316826001600160a01b031614905092915050565b6001600160a01b0382166133cf5760405162461bcd60e51b815260206004820181905260248201527f4552433732313a206d696e7420746f20746865207a65726f20616464726573736044820152606401610ce5565b6133d881612a18565b156134255760405162461bcd60e51b815260206004820152601c60248201527f4552433732313a20746f6b656e20616c7265616479206d696e746564000000006044820152606401610ce5565b61343160008383613c79565b6001600160a01b038216600090815260096020526040812080546001929061345a908490614b93565b909155505060008181526008602052604080822080546001600160a01b0319166001600160a01b03861690811790915590518392907fddf252ad1be2c89b69c2b068fc378daa952ba7f163c4a11628f55a4df523b3ef908290a45050565b6000610be5825490565b60105460ff16156135085760405162461bcd60e51b815260206004820152601060248201526f14185d5cd8589b194e881c185d5cd95960821b6044820152606401610ce5565b6010805460ff191660011790557f62e78cea01bee320cd4e420270b5ea74000d11b0c9f74754ebdbfc544b05a25861317b3390565b60006110cf8383613e08565b60008281526015602090815260408083205460169092528220546001600160a01b039091169190601490829060ff16600a81111561359757634e487b7160e01b600052602160045260246000fd5b600a8111156135b657634e487b7160e01b600052602160045260246000fd5b8152602001908152602001600020905060006135d4826003016134b8565b9050600060018211156135ff576135f86135ee8387614c8e565b600385019061353d565b9050613610565b61360d60038401600061353d565b90505b61361d6003840182613e40565b5060008681526017602052604090208190556136398482613e4c565b80846001600160a01b0316877f98b595a980d0cccd434684fb987af818dc227293514b685567789f969a0ff11660405160405180910390a4505050505050565b60007f00000000000000000000000000000000000000000000000000000000000000006001600160a01b0316634000aea07f0000000000000000000000000000000000000000000000000000000000000000848660006040516020016136e9929190918252602082015260400190565b6040516020818303038152906040526040518463ffffffff1660e01b815260040161371693929190614930565b602060405180830381600087803b15801561373057600080fd5b505af1158015613744573d6000803e3d6000fd5b505050506040513d601f19601f820116820180604052508101906137689190614650565b50600083815260136020818152604080842054815180840189905280830186905230606082015260808082018390528351808303909101815260a0909101909252815191830191909120938790529190526137c4906001614b93565b6000858152601360205260409020556111508482604080516020808201949094528082019290925280518083038201815260609092019052805191012090565b61380f848484612c7f565b61381b84848484613e66565b61224f5760405162461bcd60e51b8152600401610ce590614992565b606060128054610bfa90614c38565b60608161386a5750506040805180820190915260018152600360fc1b602082015290565b8160005b8115613894578061387e81614c73565b915061388d9050600a83614bab565b915061386e565b60008167ffffffffffffffff8111156138bd57634e487b7160e01b600052604160045260246000fd5b6040519080825280601f01601f1916602001820160405280156138e7576020820181803683370190505b5090505b8415611150576138fc600183614bde565b9150613909600a86614c8e565b613914906030614b93565b60f81b81838151811061393757634e487b7160e01b600052603260045260246000fd5b60200101906001600160f81b031916908160001a905350613959600a86614bab565b94506138eb565b60008281526004602052604090206001015461397c8133613bd5565b610e1b8383613c84565b60008161399257600080fd5b6000808412156139a757836000039350600190505b60008312156139b95760009290920391155b60006139c58585613f70565b905081156139f3576001607f1b816001600160801b031611156139e757600080fd5b6000039150610be59050565b6f7fffffffffffffffffffffffffffffff816001600160801b03161115613a1957600080fd5b9150610be59050565b600081613a3157506000610be5565b600083600f0b1215613a4257600080fd5b600f83900b6001600160801b038316810260401c90608084901c026001600160c01b03811115613a7157600080fd5b60401b8119811115613a8257600080fd5b019392505050565b600083815260026020526040902080546001600160a01b0319166001600160a01b038416178155613abb8243614b93565b6001820181905581546040519182526001600160a01b03169085907fed30b68a6b75846b1f125f61bee0f445ff34e5b5f127eda7d4ebb9634b16922e906020016132a1565b613b0a8282611c0e565b611cbb5760008281526004602090815260408083206001600160a01b03851684529091529020805460ff19166001179055613b423390565b6001600160a01b0316816001600160a01b0316837f2f8788117e7eff1d82e926ec794901d17c78024a50270940304540a733656f0d60405160405180910390a45050565b6000818152600183016020526040812054613bcd57508154600181810184556000848152602080822090930184905584548482528286019093526040902091909155610be5565b506000610be5565b613bdf8282611c0e565b611cbb57613bf7816001600160a01b03166014612811565b613c02836020612811565b604051602001613c1392919061487e565b60408051601f198184030181529082905262461bcd60e51b8252610ce59160040161497f565b60006001600160e01b031982166380ac58cd60e01b1480613c6a57506001600160e01b03198216635b5e139f60e01b145b80610be55750610be58261410a565b610e1b83838361412f565b613c8e8282611c0e565b15611cbb5760008281526004602090815260408083206001600160a01b0385168085529252808320805460ff1916905551339285917ff6391f5c32d9c69d2a47ea670b442974b53935d1edc7fd64eb21e047a839171b9190a45050565b60008181526001830160205260408120548015613dfe576000613d0f600183614bde565b8554909150600090613d2390600190614bde565b9050818114613da4576000866000018281548110613d5157634e487b7160e01b600052603260045260246000fd5b9060005260206000200154905080876000018481548110613d8257634e487b7160e01b600052603260045260246000fd5b6000918252602080832090910192909255918252600188019052604090208390555b8554869080613dc357634e487b7160e01b600052603160045260246000fd5b600190038181906000526020600020016000905590558560010160008681526020019081526020016000206000905560019350505050610be5565b6000915050610be5565b6000826000018281548110613e2d57634e487b7160e01b600052603260045260246000fd5b9060005260206000200154905092915050565b60006110cf8383613ceb565b611cbb8282604051806020016040528060008152506141a1565b60006001600160a01b0384163b15613f6857604051630a85bd0160e11b81526001600160a01b0385169063150b7a0290613eaa9033908990889088906004016148f3565b602060405180830381600087803b158015613ec457600080fd5b505af1925050508015613ef4575060408051601f3d908101601f19168201909252613ef1918101906146e5565b60015b613f4e573d808015613f22576040519150601f19603f3d011682016040523d82523d6000602084013e613f27565b606091505b508051613f465760405162461bcd60e51b8152600401610ce590614992565b805181602001fd5b6001600160e01b031916630a85bd0160e11b149050611150565b506001611150565b600081613f7c57600080fd5b60006001600160c01b038411613fb55782604085901b81613fad57634e487b7160e01b600052601260045260246000fd5b0490506140f6565b60c084811c6401000000008110613fce576020918201911c5b620100008110613fe0576010918201911c5b6101008110613ff1576008918201911c5b60108110614001576004918201911c5b60048110614011576002918201911c5b60028110614020576001820191505b60bf820360018603901c6001018260ff0387901b8161404f57634e487b7160e01b600052601260045260246000fd5b0492506001600160801b0383111561406657600080fd5b608085901c83026001600160801b038616840260c088901c604089901b82811015614092576001820391505b608084901b929003828110156140a9576001820391505b829003608084901c82146140cd57634e487b7160e01b600052600160045260246000fd5b8881816140ea57634e487b7160e01b600052601260045260246000fd5b04870196505050505050505b6001600160801b038111156110cf57600080fd5b60006001600160e01b03198216635a05180f60e01b1480610be55750610be5826141d4565b61413a838383614209565b60105460ff1615610e1b5760405162461bcd60e51b815260206004820152602b60248201527f4552433732315061757361626c653a20746f6b656e207472616e73666572207760448201526a1a1a5b19481c185d5cd95960aa1b6064820152608401610ce5565b6141ab8383613379565b6141b86000848484613e66565b610e1b5760405162461bcd60e51b8152600401610ce590614992565b60006001600160e01b03198216637965db0b60e01b1480610be557506301ffc9a760e01b6001600160e01b0319831614610be5565b6001600160a01b0383166142645761425f81600e80546000838152600f60205260408120829055600182018355919091527fbb7b4a454dc3493923482f07822329ed19e8244eff582cc204f8554c3620c3fd0155565b614287565b816001600160a01b0316836001600160a01b0316146142875761428783826142c1565b6001600160a01b03821661429e57610e1b8161435e565b826001600160a01b0316826001600160a01b031614610e1b57610e1b8282614437565b600060016142ce846119ec565b6142d89190614bde565b6000838152600d602052604090205490915080821461432b576001600160a01b0384166000908152600c602090815260408083208584528252808320548484528184208190558352600d90915290208190555b506000918252600d602090815260408084208490556001600160a01b039094168352600c81528383209183525290812055565b600e5460009061437090600190614bde565b6000838152600f6020526040812054600e80549394509092849081106143a657634e487b7160e01b600052603260045260246000fd5b9060005260206000200154905080600e83815481106143d557634e487b7160e01b600052603260045260246000fd5b6000918252602080832090910192909255828152600f9091526040808220849055858252812055600e80548061441b57634e487b7160e01b600052603160045260246000fd5b6001900381819060005260206000200160009055905550505050565b6000614442836119ec565b6001600160a01b039093166000908152600c602090815260408083208684528252808320859055938252600d9052919091209190915550565b8035600b811061448a57600080fd5b919050565b6000602082840312156144a0578081fd5b81356110cf81614ce4565b6000602082840312156144bc578081fd5b81516110cf81614ce4565b600080604083850312156144d9578081fd5b82356144e481614ce4565b946020939093013593505050565b60008060408385031215614504578182fd5b823561450f81614ce4565b9150602083013561451f81614ce4565b809150509250929050565b60008060006060848603121561453e578081fd5b833561454981614ce4565b9250602084013561455981614ce4565b929592945050506040919091013590565b6000806000806080858703121561457f578081fd5b843561458a81614ce4565b9350602085013561459a81614ce4565b925060408501359150606085013567ffffffffffffffff8111156145bc578182fd5b8501601f810187136145cc578182fd5b80356145df6145da82614b6b565b614b3a565b8181528860208385010111156145f3578384fd5b81602084016020830137908101602001929092525092959194509250565b60008060408385031215614623578182fd5b823561462e81614ce4565b9150602083013561451f81614cf9565b600080604083850312156144d9578182fd5b600060208284031215614661578081fd5b81516110cf81614cf9565b60006020828403121561467d578081fd5b5035919050565b60008060408385031215614696578182fd5b82359150602083013561451f81614ce4565b600080604083850312156146ba578182fd5b50508035926020909101359150565b6000602082840312156146da578081fd5b81356110cf81614d07565b6000602082840312156146f6578081fd5b81516110cf81614d07565b600060208284031215614712578081fd5b6110cf8261447b565b60008060008060808587031215614730578182fd5b6147398561447b565b966020860135965060408601359560600135945092505050565b600060208284031215614764578081fd5b8135600381106110cf578182fd5b600060208284031215614783578081fd5b815167ffffffffffffffff811115614799578182fd5b8201601f810184136147a9578182fd5b80516147b76145da82614b6b565b8181528560208385010111156147cb578384fd5b6147dc826020830160208601614bf5565b95945050505050565b6000602082840312156147f6578081fd5b5051919050565b600080600060608486031215614811578081fd5b83359250602084013561455981614ce4565b6000815180845261483b816020860160208601614bf5565b601f01601f19169290920160200192915050565b60008351614861818460208801614bf5565b835190830190614875818360208801614bf5565b01949350505050565b7f416363657373436f6e74726f6c3a206163636f756e74200000000000000000008152600083516148b6816017850160208801614bf5565b7001034b99036b4b9b9b4b733903937b6329607d1b60179184019182015283516148e7816028840160208801614bf5565b01602801949350505050565b6001600160a01b038581168252841660208201526040810183905260806060820181905260009061492690830184614823565b9695505050505050565b60018060a01b03841681528260208201526060604082015260006147dc6060830184614823565b60208101600b831061497957634e487b7160e01b600052602160045260246000fd5b91905290565b6020815260006110cf6020830184614823565b60208082526032908201527f4552433732313a207472616e7366657220746f206e6f6e20455243373231526560408201527131b2b4bb32b91034b6b83632b6b2b73a32b960711b606082015260800190565b6020808252602c908201527f4552433732313a206f70657261746f7220717565727920666f72206e6f6e657860408201526b34b9ba32b73a103a37b5b2b760a11b606082015260800190565b602080825260119082015270233930b6b29d1027b7363c9037bbb732b960791b604082015260600190565b60208082526031908201527f4552433732313a207472616e736665722063616c6c6572206973206e6f74206f6040820152701ddb995c881b9bdc88185c1c1c9bdd9959607a1b606082015260800190565b60208082526017908201527f4672616d653a20496e76616c69642043617465676f7279000000000000000000604082015260600190565b6020808252601f908201527f5265656e7472616e637947756172643a207265656e7472616e742063616c6c00604082015260600190565b81516001600160a01b031681526020808301519082015260408101610be5565b604051601f8201601f1916810167ffffffffffffffff81118282101715614b6357614b63614cce565b604052919050565b600067ffffffffffffffff821115614b8557614b85614cce565b50601f01601f191660200190565b60008219821115614ba657614ba6614ca2565b500190565b600082614bba57614bba614cb8565b500490565b6000816000190483118215151615614bd957614bd9614ca2565b500290565b600082821015614bf057614bf0614ca2565b500390565b60005b83811015614c10578181015183820152602001614bf8565b8381111561224f5750506000910152565b600081614c3057614c30614ca2565b506000190190565b600181811c90821680614c4c57607f821691505b60208210811415614c6d57634e487b7160e01b600052602260045260246000fd5b50919050565b6000600019821415614c8757614c87614ca2565b5060010190565b600082614c9d57614c9d614cb8565b500690565b634e487b7160e01b600052601160045260246000fd5b634e487b7160e01b600052601260045260246000fd5b634e487b7160e01b600052604160045260246000fd5b6001600160a01b038116811461129257600080fd5b801515811461129257600080fd5b6001600160e01b03198116811461129257600080fdfea264697066735822122075a8532b4c640fb7cb2a78356c7720519d17dbd53ec34d918a4f3397bed5981064736f6c63430008040033",
  "libraries": {
    "ABDKMath64x64": "0x7F654841a02752b90db5aaea68631fD099c63c4c",
    "AllowList": "0x9c47fCcfE2add2311192cB91981348952B1e654E"
  },
  "devdoc": {
    "author": "Aaron Boyd <https://github.com/aaronmboyd>",
    "details": "ERC-721 compatible token with multiple price categoriesAllows token holders to rent and exhibit other NFTs inside the FrameUses Chainlink VRF function to select minting within a price categoryImplements a basic pre-sale list using AccessControl roles configured during deployImplements ABDK math library for percentage-based fees arithmetic",
    "events": {
      "EtherWithdrawn(address,uint256)": {
        "params": {
          "_to": "Recipient of the ether",
          "_value": "Withdrawal amount in wei"
        }
      },
      "LinkWithdrawn(address,uint256)": {
        "params": {
          "_to": "Recipient of the LINK",
          "_value": "Withdrawal amount in wei"
        }
      },
      "MintFulfilled(bytes32,address,uint256)": {
        "params": {
          "_address": "Recipient address",
          "_requestId": "Request ID of the fulfillment",
          "_tokenId": "TokenID received"
        }
      },
      "MintRequest(bytes32,address)": {
        "params": {
          "_address": "Recipient address",
          "_requestId": "Request ID of the request"
        }
      },
      "RentalFeeCollectedFrom(uint256,address,uint256)": {
        "params": {
          "_from": "Frame owner",
          "_tokenId": "Token id that was rented",
          "_value": "Rental fee collected"
        }
      },
      "RentalFeeUpdated(int256,int256,int256,int256)": {
        "params": {
          "_newDenominator": "New denominator",
          "_newNumerator": "New numerator",
          "_oldDenominator": "Old denominator",
          "_oldNumerator": "Old numerator"
        }
      }
    },
    "kind": "dev",
    "methods": {
      "approve(address,uint256)": {
        "details": "See {IERC721-approve}."
      },
      "balanceOf(address)": {
        "details": "See {IERC721-balanceOf}."
      },
      "burn(uint256)": {
        "details": "Burns `tokenId`. See {ERC721-_burn}. Requirements: - The caller must own `tokenId` or be an approved operator."
      },
      "clearExhibit(uint256)": {
        "params": {
          "_tokenId": "The token identifier of the exhibit"
        }
      },
      "constructor": {
        "details": "Grants `DEFAULT_ADMIN_ROLE`, `MINTER_ROLE` and `PAUSER_ROLE` to the account that deploys the contract"
      },
      "exhibitIsOwnedBy(address,address,uint256)": {
        "params": {
          "_exhibitContractAddress": "The new exhibit contract address",
          "_exhibitTokenId": "The token identifier of the exhibit",
          "_exhibitor": "Exhibitor claiming ownership"
        }
      },
      "getApproved(uint256)": {
        "details": "See {IERC721-getApproved}."
      },
      "getCategoryDetail(uint8)": {
        "params": {
          "_category": "The Category to retrieve"
        },
        "returns": {
          "_0": "uint256 The price of the Category in wei",
          "_1": "uint256 The startingTokenId of the Category",
          "_2": "uint256 The total supply of the Category",
          "_3": "uint256 The remaining supply of the Category"
        }
      },
      "getExhibit(uint256)": {
        "params": {
          "_tokenId": "The token identifier of the exhibit"
        }
      },
      "getExhibitTokenURI(uint256)": {
        "params": {
          "_tokenId": "The token identifier of the exhibit"
        }
      },
      "getRentalPricePerBlock(uint256)": {
        "params": {
          "_tokenId": "Token identifier which is setting a renter"
        }
      },
      "getRenter(uint256)": {
        "params": {
          "_tokenId": "Token identifier which is setting a renter"
        }
      },
      "getRoleAdmin(bytes32)": {
        "details": "Returns the admin role that controls `role`. See {grantRole} and {revokeRole}. To change a role's admin, use {_setRoleAdmin}."
      },
      "getRoleMember(bytes32,uint256)": {
        "details": "Returns one of the accounts that have `role`. `index` must be a value between 0 and {getRoleMemberCount}, non-inclusive. Role bearers are not sorted in any particular way, and their ordering may change at any point. WARNING: When using {getRoleMember} and {getRoleMemberCount}, make sure you perform all queries on the same block. See the following https://forum.openzeppelin.com/t/iterating-over-elements-on-enumerableset-in-openzeppelin-contracts/2296[forum post] for more information."
      },
      "getRoleMemberCount(bytes32)": {
        "details": "Returns the number of accounts that have `role`. Can be used together with {getRoleMember} to enumerate all bearers of a role."
      },
      "getVersionNumber()": {
        "returns": {
          "_0": "The storage, major, minor, and patch version of the contract."
        }
      },
      "grantRole(bytes32,address)": {
        "details": "Overload {grantRole} to track enumerable memberships"
      },
      "hasRole(bytes32,address)": {
        "details": "Returns `true` if `account` has been granted `role`."
      },
      "isApprovedForAll(address,address)": {
        "details": "See {IERC721-isApprovedForAll}."
      },
      "isCurrentlyRented(uint256)": {
        "params": {
          "_tokenId": "The token to check is rented"
        }
      },
      "mint(address)": {
        "details": "Creates a new token for `to`. Its token ID will be automatically assigned (and available on the emitted {IERC721-Transfer} event), and the token URI autogenerated based on the base URI passed at construction. See {ERC721-_mint}. Requirements: - the caller must have the `MINTER_ROLE`."
      },
      "mintFrame(uint8)": {
        "params": {
          "_category": "Category to mint"
        }
      },
      "name()": {
        "details": "See {IERC721Metadata-name}."
      },
      "ownerOf(uint256)": {
        "details": "See {IERC721-ownerOf}."
      },
      "pause()": {
        "details": "Pauses all token transfers. See {ERC721Pausable} and {Pausable-_pause}. Requirements: - the caller must have the `PAUSER_ROLE`."
      },
      "paused()": {
        "details": "Returns true if the contract is paused, and false otherwise."
      },
      "renounceRole(bytes32,address)": {
        "details": "Overload {renounceRole} to track enumerable memberships"
      },
      "revokeRole(bytes32,address)": {
        "details": "Overload {revokeRole} to track enumerable memberships"
      },
      "safeTransferFrom(address,address,uint256)": {
        "details": "See {IERC721-safeTransferFrom}."
      },
      "safeTransferFrom(address,address,uint256,bytes)": {
        "details": "See {IERC721-safeTransferFrom}."
      },
      "setApprovalForAll(address,bool)": {
        "details": "See {IERC721-setApprovalForAll}."
      },
      "setCategoryDetail(uint8,uint256,uint256,uint256)": {
        "params": {
          "_category": "Category to configure",
          "_price": "Price of this category",
          "_startingTokenId": "Starting token ID of the category",
          "_supply": "Number of tokens in this category"
        }
      },
      "setExhibit(uint256,address,uint256)": {
        "params": {
          "_exhibitContractAddress": "The new exhibit contract address",
          "_exhibitTokenId": "The token identifier of the exhibit",
          "_tokenId": "Token identifier which is setting an exhibit"
        }
      },
      "setRentalFee(int256,int256)": {
        "params": {
          "_denominator": "Rental fee denominator",
          "_numerator": "Rental fee numerator"
        }
      },
      "setRentalPricePerBlock(uint256,uint256)": {
        "params": {
          "_rentalPrice": "The rental price per block",
          "_tokenId": "Token identifier which is setting a renter"
        }
      },
      "setRenter(uint256,address,uint256)": {
        "params": {
          "_numberOfBlocks": "The number of blocks to rent for",
          "_renter": "The new renter address",
          "_tokenId": "Token identifier which is setting a renter"
        }
      },
      "setSaleStatus(uint8)": {
        "details": "Possible statuses are the enum SaleStatus",
        "params": {
          "_status": "Status to set"
        }
      },
      "supportsInterface(bytes4)": {
        "details": "See {IERC165-supportsInterface}."
      },
      "symbol()": {
        "details": "See {IERC721Metadata-symbol}."
      },
      "tokenByIndex(uint256)": {
        "details": "See {IERC721Enumerable-tokenByIndex}."
      },
      "tokenIsRentedByAddress(uint256,address)": {
        "params": {
          "_address": "The address to check if it's rented by",
          "_tokenId": "The token to check is rented"
        }
      },
      "tokenOfOwnerByIndex(address,uint256)": {
        "details": "See {IERC721Enumerable-tokenOfOwnerByIndex}."
      },
      "tokenURI(uint256)": {
        "details": "See {IERC721Metadata-tokenURI}."
      },
      "totalSupply()": {
        "details": "See {IERC721Enumerable-totalSupply}."
      },
      "transferFrom(address,address,uint256)": {
        "details": "See {IERC721-transferFrom}."
      },
      "unpause()": {
        "details": "Unpauses all token transfers. See {ERC721Pausable} and {Pausable-_unpause}. Requirements: - the caller must have the `PAUSER_ROLE`."
      },
      "withdrawAllLink(address)": {
        "params": {
          "_to": "Address to receive all the LINK"
        }
      },
      "withdrawEther(address,uint256)": {
        "params": {
          "_to": "Address to receive the ether"
        }
      }
    },
    "stateVariables": {
      "PRESALE_ROLE": {
        "details": "Frame variablesFee: defaulted to 0.1 LINK on Rinkeby (varies by network), set during constructorKeyHash: must be set during constructor (varies by network)"
      },
      "categories": {
        "details": "Mappings"
      },
      "contractURI": {
        "details": "ERC721 variables"
      },
      "keyHash": {
        "details": "Chainlink variablesFee: defaulted to 0.1 LINK on Rinkeby (varies by network), set during constructorKeyHash: must be set during constructor (varies by network)"
      }
    },
    "title": "Musee Dezentral Frame NFT contract",
    "version": 1
  },
  "userdoc": {
    "events": {
      "EtherWithdrawn(address,uint256)": {
        "notice": "Triggered when ether is withdrawn"
      },
      "ExhibitSet(uint256,address,uint256)": {
        "notice": "Triggered when a a new exhibit has been set"
      },
      "LinkWithdrawn(address,uint256)": {
        "notice": "Triggered when LINK is withdrawn"
      },
      "MintFulfilled(bytes32,address,uint256)": {
        "notice": "Triggered when a minting is fulfilled"
      },
      "MintRequest(bytes32,address)": {
        "notice": "Triggered when a minting is requested"
      },
      "RentalFeeCollectedFrom(uint256,address,uint256)": {
        "notice": "Triggered when rental fee accumulated in the contract"
      },
      "RentalFeeUpdated(int256,int256,int256,int256)": {
        "notice": "Triggered when the Rental Fee is updated"
      },
      "RenterSet(uint256,address,uint256)": {
        "notice": "Triggered when a renter has been set"
      }
    },
    "kind": "user",
    "methods": {
      "clearExhibit(uint256)": {
        "notice": "Remove the exhibit for a tokenId"
      },
      "constructor": {
        "notice": "Constructor"
      },
      "exhibitIsOwnedBy(address,address,uint256)": {
        "notice": "Return true if the exhibit is owned by exhibtor"
      },
      "getCategoryDetail(uint8)": {
        "notice": "Returns information about a Category"
      },
      "getExhibit(uint256)": {
        "notice": "Get the exhibit for a tokenId"
      },
      "getExhibitTokenURI(uint256)": {
        "notice": "Get the exhibit token URI for a tokenId"
      },
      "getRentalPricePerBlock(uint256)": {
        "notice": "Get the rental price per block for a tokenId"
      },
      "getRenter(uint256)": {
        "notice": "Get a renter for a tokenId"
      },
      "getVersionNumber()": {
        "notice": "Returns the storage, major, minor, and patch version of the contract."
      },
      "isCurrentlyRented(uint256)": {
        "notice": "Checks if a token is currently rented by anyone"
      },
      "mintFrame(uint8)": {
        "notice": "Mint a Frame in a given Category"
      },
      "setCategoryDetail(uint8,uint256,uint256,uint256)": {
        "notice": "Configure a category"
      },
      "setExhibit(uint256,address,uint256)": {
        "notice": "Set an exhibit for a tokenId"
      },
      "setRentalFee(int256,int256)": {
        "notice": "Set rental fee"
      },
      "setRentalPricePerBlock(uint256,uint256)": {
        "notice": "Set the rental price per block for a tokenId"
      },
      "setRenter(uint256,address,uint256)": {
        "notice": "Set a renter for a tokenId"
      },
      "setSaleStatus(uint8)": {
        "notice": "Set the status of the sale"
      },
      "tokenIsRentedByAddress(uint256,address)": {
        "notice": "Checks if a token is currently rented by address"
      },
      "withdrawAllLink(address)": {
        "notice": "Withdraws all LINK token from this contract"
      },
      "withdrawEther(address,uint256)": {
        "notice": "Withdraws an amount of ether from this contract"
      }
    },
    "version": 1
  },
  "storageLayout": {
    "storage": [
      {
        "astId": 1056,
        "contract": "contracts/Frame.sol:Frame",
        "label": "_status",
        "offset": 0,
        "slot": "0",
        "type": "t_uint256"
      },
      {
        "astId": 7734,
        "contract": "contracts/Frame.sol:Frame",
        "label": "_rentalPrices",
        "offset": 0,
        "slot": "1",
        "type": "t_mapping(t_uint256,t_uint256)"
      },
      {
        "astId": 7739,
        "contract": "contracts/Frame.sol:Frame",
        "label": "_renters",
        "offset": 0,
        "slot": "2",
        "type": "t_mapping(t_uint256,t_struct(Rental)8005_storage)"
      },
      {
        "astId": 7465,
        "contract": "contracts/Frame.sol:Frame",
        "label": "_exhibits",
        "offset": 0,
        "slot": "3",
        "type": "t_mapping(t_uint256,t_struct(Exhibit)7943_storage)"
      },
      {
        "astId": 290,
        "contract": "contracts/Frame.sol:Frame",
        "label": "_roles",
        "offset": 0,
        "slot": "4",
        "type": "t_mapping(t_bytes32,t_struct(RoleData)285_storage)"
      },
      {
        "astId": 591,
        "contract": "contracts/Frame.sol:Frame",
        "label": "_roleMembers",
        "offset": 0,
        "slot": "5",
        "type": "t_mapping(t_bytes32,t_struct(AddressSet)6088_storage)"
      },
      {
        "astId": 3569,
        "contract": "contracts/Frame.sol:Frame",
        "label": "_name",
        "offset": 0,
        "slot": "6",
        "type": "t_string_storage"
      },
      {
        "astId": 3571,
        "contract": "contracts/Frame.sol:Frame",
        "label": "_symbol",
        "offset": 0,
        "slot": "7",
        "type": "t_string_storage"
      },
      {
        "astId": 3575,
        "contract": "contracts/Frame.sol:Frame",
        "label": "_owners",
        "offset": 0,
        "slot": "8",
        "type": "t_mapping(t_uint256,t_address)"
      },
      {
        "astId": 3579,
        "contract": "contracts/Frame.sol:Frame",
        "label": "_balances",
        "offset": 0,
        "slot": "9",
        "type": "t_mapping(t_address,t_uint256)"
      },
      {
        "astId": 3583,
        "contract": "contracts/Frame.sol:Frame",
        "label": "_tokenApprovals",
        "offset": 0,
        "slot": "10",
        "type": "t_mapping(t_uint256,t_address)"
      },
      {
        "astId": 3589,
        "contract": "contracts/Frame.sol:Frame",
        "label": "_operatorApprovals",
        "offset": 0,
        "slot": "11",
        "type": "t_mapping(t_address,t_mapping(t_address,t_bool))"
      },
      {
        "astId": 4538,
        "contract": "contracts/Frame.sol:Frame",
        "label": "_ownedTokens",
        "offset": 0,
        "slot": "12",
        "type": "t_mapping(t_address,t_mapping(t_uint256,t_uint256))"
      },
      {
        "astId": 4542,
        "contract": "contracts/Frame.sol:Frame",
        "label": "_ownedTokensIndex",
        "offset": 0,
        "slot": "13",
        "type": "t_mapping(t_uint256,t_uint256)"
      },
      {
        "astId": 4545,
        "contract": "contracts/Frame.sol:Frame",
        "label": "_allTokens",
        "offset": 0,
        "slot": "14",
        "type": "t_array(t_uint256)dyn_storage"
      },
      {
        "astId": 4549,
        "contract": "contracts/Frame.sol:Frame",
        "label": "_allTokensIndex",
        "offset": 0,
        "slot": "15",
        "type": "t_mapping(t_uint256,t_uint256)"
      },
      {
        "astId": 971,
        "contract": "contracts/Frame.sol:Frame",
        "label": "_paused",
        "offset": 0,
        "slot": "16",
        "type": "t_bool"
      },
      {
        "astId": 4993,
        "contract": "contracts/Frame.sol:Frame",
        "label": "_tokenIdTracker",
        "offset": 0,
        "slot": "17",
        "type": "t_struct(Counter)5469_storage"
      },
      {
        "astId": 4995,
        "contract": "contracts/Frame.sol:Frame",
        "label": "_baseTokenURI",
        "offset": 0,
        "slot": "18",
        "type": "t_string_storage"
      },
      {
        "astId": 79,
        "contract": "contracts/Frame.sol:Frame",
        "label": "nonces",
        "offset": 0,
        "slot": "19",
        "type": "t_mapping(t_bytes32,t_uint256)"
      },
      {
        "astId": 6436,
        "contract": "contracts/Frame.sol:Frame",
        "label": "categories",
        "offset": 0,
        "slot": "20",
        "type": "t_mapping(t_enum(Category)6419,t_struct(CategoryDetail)6429_storage)"
      },
      {
        "astId": 6440,
        "contract": "contracts/Frame.sol:Frame",
        "label": "requestIdToSender",
        "offset": 0,
        "slot": "21",
        "type": "t_mapping(t_bytes32,t_address)"
      },
      {
        "astId": 6445,
        "contract": "contracts/Frame.sol:Frame",
        "label": "requestIdToCategory",
        "offset": 0,
        "slot": "22",
        "type": "t_mapping(t_bytes32,t_enum(Category)6419)"
      },
      {
        "astId": 6449,
        "contract": "contracts/Frame.sol:Frame",
        "label": "requestIdToTokenId",
        "offset": 0,
        "slot": "23",
        "type": "t_mapping(t_bytes32,t_uint256)"
      },
      {
        "astId": 6452,
        "contract": "contracts/Frame.sol:Frame",
        "label": "keyHash",
        "offset": 0,
        "slot": "24",
        "type": "t_bytes32"
      },
      {
        "astId": 6459,
        "contract": "contracts/Frame.sol:Frame",
        "label": "fee",
        "offset": 0,
        "slot": "25",
        "type": "t_uint256"
      },
      {
        "astId": 6470,
        "contract": "contracts/Frame.sol:Frame",
        "label": "saleStatus",
        "offset": 0,
        "slot": "26",
        "type": "t_enum(SaleStatus)6407"
      },
      {
        "astId": 6473,
        "contract": "contracts/Frame.sol:Frame",
        "label": "rentalFeeNumerator",
        "offset": 0,
        "slot": "27",
        "type": "t_int256"
      },
      {
        "astId": 6476,
        "contract": "contracts/Frame.sol:Frame",
        "label": "rentalFeeDenominator",
        "offset": 0,
        "slot": "28",
        "type": "t_int256"
      },
      {
        "astId": 6479,
        "contract": "contracts/Frame.sol:Frame",
        "label": "contractURI",
        "offset": 0,
        "slot": "29",
        "type": "t_string_storage"
      }
    ],
    "types": {
      "t_address": {
        "encoding": "inplace",
        "label": "address",
        "numberOfBytes": "20"
      },
      "t_array(t_bytes32)dyn_storage": {
        "base": "t_bytes32",
        "encoding": "dynamic_array",
        "label": "bytes32[]",
        "numberOfBytes": "32"
      },
      "t_array(t_uint256)dyn_storage": {
        "base": "t_uint256",
        "encoding": "dynamic_array",
        "label": "uint256[]",
        "numberOfBytes": "32"
      },
      "t_bool": {
        "encoding": "inplace",
        "label": "bool",
        "numberOfBytes": "1"
      },
      "t_bytes32": {
        "encoding": "inplace",
        "label": "bytes32",
        "numberOfBytes": "32"
      },
      "t_enum(Category)6419": {
        "encoding": "inplace",
        "label": "enum Frame.Category",
        "numberOfBytes": "1"
      },
      "t_enum(SaleStatus)6407": {
        "encoding": "inplace",
        "label": "enum Frame.SaleStatus",
        "numberOfBytes": "1"
      },
      "t_int256": {
        "encoding": "inplace",
        "label": "int256",
        "numberOfBytes": "32"
      },
      "t_mapping(t_address,t_bool)": {
        "encoding": "mapping",
        "key": "t_address",
        "label": "mapping(address => bool)",
        "numberOfBytes": "32",
        "value": "t_bool"
      },
      "t_mapping(t_address,t_mapping(t_address,t_bool))": {
        "encoding": "mapping",
        "key": "t_address",
        "label": "mapping(address => mapping(address => bool))",
        "numberOfBytes": "32",
        "value": "t_mapping(t_address,t_bool)"
      },
      "t_mapping(t_address,t_mapping(t_uint256,t_uint256))": {
        "encoding": "mapping",
        "key": "t_address",
        "label": "mapping(address => mapping(uint256 => uint256))",
        "numberOfBytes": "32",
        "value": "t_mapping(t_uint256,t_uint256)"
      },
      "t_mapping(t_address,t_uint256)": {
        "encoding": "mapping",
        "key": "t_address",
        "label": "mapping(address => uint256)",
        "numberOfBytes": "32",
        "value": "t_uint256"
      },
      "t_mapping(t_bytes32,t_address)": {
        "encoding": "mapping",
        "key": "t_bytes32",
        "label": "mapping(bytes32 => address)",
        "numberOfBytes": "32",
        "value": "t_address"
      },
      "t_mapping(t_bytes32,t_enum(Category)6419)": {
        "encoding": "mapping",
        "key": "t_bytes32",
        "label": "mapping(bytes32 => enum Frame.Category)",
        "numberOfBytes": "32",
        "value": "t_enum(Category)6419"
      },
      "t_mapping(t_bytes32,t_struct(AddressSet)6088_storage)": {
        "encoding": "mapping",
        "key": "t_bytes32",
        "label": "mapping(bytes32 => struct EnumerableSet.AddressSet)",
        "numberOfBytes": "32",
        "value": "t_struct(AddressSet)6088_storage"
      },
      "t_mapping(t_bytes32,t_struct(RoleData)285_storage)": {
        "encoding": "mapping",
        "key": "t_bytes32",
        "label": "mapping(bytes32 => struct AccessControl.RoleData)",
        "numberOfBytes": "32",
        "value": "t_struct(RoleData)285_storage"
      },
      "t_mapping(t_bytes32,t_uint256)": {
        "encoding": "mapping",
        "key": "t_bytes32",
        "label": "mapping(bytes32 => uint256)",
        "numberOfBytes": "32",
        "value": "t_uint256"
      },
      "t_mapping(t_enum(Category)6419,t_struct(CategoryDetail)6429_storage)": {
        "encoding": "mapping",
        "key": "t_enum(Category)6419",
        "label": "mapping(enum Frame.Category => struct Frame.CategoryDetail)",
        "numberOfBytes": "32",
        "value": "t_struct(CategoryDetail)6429_storage"
      },
      "t_mapping(t_uint256,t_address)": {
        "encoding": "mapping",
        "key": "t_uint256",
        "label": "mapping(uint256 => address)",
        "numberOfBytes": "32",
        "value": "t_address"
      },
      "t_mapping(t_uint256,t_struct(Exhibit)7943_storage)": {
        "encoding": "mapping",
        "key": "t_uint256",
        "label": "mapping(uint256 => struct IExhibitionable.Exhibit)",
        "numberOfBytes": "32",
        "value": "t_struct(Exhibit)7943_storage"
      },
      "t_mapping(t_uint256,t_struct(Rental)8005_storage)": {
        "encoding": "mapping",
        "key": "t_uint256",
        "label": "mapping(uint256 => struct IRentable.Rental)",
        "numberOfBytes": "32",
        "value": "t_struct(Rental)8005_storage"
      },
      "t_mapping(t_uint256,t_uint256)": {
        "encoding": "mapping",
        "key": "t_uint256",
        "label": "mapping(uint256 => uint256)",
        "numberOfBytes": "32",
        "value": "t_uint256"
      },
      "t_string_storage": {
        "encoding": "bytes",
        "label": "string",
        "numberOfBytes": "32"
      },
      "t_struct(AddressSet)6088_storage": {
        "encoding": "inplace",
        "label": "struct EnumerableSet.AddressSet",
        "members": [
          {
            "astId": 6087,
            "contract": "contracts/Frame.sol:Frame",
            "label": "_inner",
            "offset": 0,
            "slot": "0",
            "type": "t_struct(Set)5787_storage"
          }
        ],
        "numberOfBytes": "64"
      },
      "t_struct(CategoryDetail)6429_storage": {
        "encoding": "inplace",
        "label": "struct Frame.CategoryDetail",
        "members": [
          {
            "astId": 6421,
            "contract": "contracts/Frame.sol:Frame",
            "label": "price",
            "offset": 0,
            "slot": "0",
            "type": "t_uint256"
          },
          {
            "astId": 6423,
            "contract": "contracts/Frame.sol:Frame",
            "label": "startingTokenId",
            "offset": 0,
            "slot": "1",
            "type": "t_uint256"
          },
          {
            "astId": 6425,
            "contract": "contracts/Frame.sol:Frame",
            "label": "supply",
            "offset": 0,
            "slot": "2",
            "type": "t_uint256"
          },
          {
            "astId": 6428,
            "contract": "contracts/Frame.sol:Frame",
            "label": "tokenIds",
            "offset": 0,
            "slot": "3",
            "type": "t_struct(UintSet)6245_storage"
          }
        ],
        "numberOfBytes": "160"
      },
      "t_struct(Counter)5469_storage": {
        "encoding": "inplace",
        "label": "struct Counters.Counter",
        "members": [
          {
            "astId": 5468,
            "contract": "contracts/Frame.sol:Frame",
            "label": "_value",
            "offset": 0,
            "slot": "0",
            "type": "t_uint256"
          }
        ],
        "numberOfBytes": "32"
      },
      "t_struct(Exhibit)7943_storage": {
        "encoding": "inplace",
        "label": "struct IExhibitionable.Exhibit",
        "members": [
          {
            "astId": 7940,
            "contract": "contracts/Frame.sol:Frame",
            "label": "contractAddress",
            "offset": 0,
            "slot": "0",
            "type": "t_address"
          },
          {
            "astId": 7942,
            "contract": "contracts/Frame.sol:Frame",
            "label": "tokenId",
            "offset": 0,
            "slot": "1",
            "type": "t_uint256"
          }
        ],
        "numberOfBytes": "64"
      },
      "t_struct(Rental)8005_storage": {
        "encoding": "inplace",
        "label": "struct IRentable.Rental",
        "members": [
          {
            "astId": 8002,
            "contract": "contracts/Frame.sol:Frame",
            "label": "renter",
            "offset": 0,
            "slot": "0",
            "type": "t_address"
          },
          {
            "astId": 8004,
            "contract": "contracts/Frame.sol:Frame",
            "label": "rentalExpiryBlock",
            "offset": 0,
            "slot": "1",
            "type": "t_uint256"
          }
        ],
        "numberOfBytes": "64"
      },
      "t_struct(RoleData)285_storage": {
        "encoding": "inplace",
        "label": "struct AccessControl.RoleData",
        "members": [
          {
            "astId": 282,
            "contract": "contracts/Frame.sol:Frame",
            "label": "members",
            "offset": 0,
            "slot": "0",
            "type": "t_mapping(t_address,t_bool)"
          },
          {
            "astId": 284,
            "contract": "contracts/Frame.sol:Frame",
            "label": "adminRole",
            "offset": 0,
            "slot": "1",
            "type": "t_bytes32"
          }
        ],
        "numberOfBytes": "64"
      },
      "t_struct(Set)5787_storage": {
        "encoding": "inplace",
        "label": "struct EnumerableSet.Set",
        "members": [
          {
            "astId": 5782,
            "contract": "contracts/Frame.sol:Frame",
            "label": "_values",
            "offset": 0,
            "slot": "0",
            "type": "t_array(t_bytes32)dyn_storage"
          },
          {
            "astId": 5786,
            "contract": "contracts/Frame.sol:Frame",
            "label": "_indexes",
            "offset": 0,
            "slot": "1",
            "type": "t_mapping(t_bytes32,t_uint256)"
          }
        ],
        "numberOfBytes": "64"
      },
      "t_struct(UintSet)6245_storage": {
        "encoding": "inplace",
        "label": "struct EnumerableSet.UintSet",
        "members": [
          {
            "astId": 6244,
            "contract": "contracts/Frame.sol:Frame",
            "label": "_inner",
            "offset": 0,
            "slot": "0",
            "type": "t_struct(Set)5787_storage"
          }
        ],
        "numberOfBytes": "64"
      },
      "t_uint256": {
        "encoding": "inplace",
        "label": "uint256",
        "numberOfBytes": "32"
      }
    }
  }
}