{
  "address": "0x0a57E0c990211003305c6b3bE711b5eF0C10b81F",
  "abi": [
    {
      "inputs": [
        {
          "internalType": "string",
          "name": "_name",
          "type": "string"
        },
        {
          "internalType": "string",
          "name": "_symbol",
          "type": "string"
        },
        {
          "internalType": "string",
          "name": "_baseTokenUri",
          "type": "string"
        },
        {
          "internalType": "string",
          "name": "_contractUri",
          "type": "string"
        }
      ],
      "stateMutability": "nonpayable",
      "type": "constructor"
    },
    {
      "anonymous": false,
      "inputs": [
        {
          "indexed": true,
          "internalType": "address",
          "name": "owner",
          "type": "address"
        },
        {
          "indexed": true,
          "internalType": "address",
          "name": "approved",
          "type": "address"
        },
        {
          "indexed": true,
          "internalType": "uint256",
          "name": "tokenId",
          "type": "uint256"
        }
      ],
      "name": "Approval",
      "type": "event"
    },
    {
      "anonymous": false,
      "inputs": [
        {
          "indexed": true,
          "internalType": "address",
          "name": "owner",
          "type": "address"
        },
        {
          "indexed": true,
          "internalType": "address",
          "name": "operator",
          "type": "address"
        },
        {
          "indexed": false,
          "internalType": "bool",
          "name": "approved",
          "type": "bool"
        }
      ],
      "name": "ApprovalForAll",
      "type": "event"
    },
    {
      "anonymous": false,
      "inputs": [
        {
          "indexed": true,
          "internalType": "uint256",
          "name": "_tokenId",
          "type": "uint256"
        },
        {
          "indexed": true,
          "internalType": "address",
          "name": "_exhibitContractAddress",
          "type": "address"
        },
        {
          "indexed": false,
          "internalType": "uint256",
          "name": "_exhibitTokenId",
          "type": "uint256"
        }
      ],
      "name": "ExhibitSet",
      "type": "event"
    },
    {
      "anonymous": false,
      "inputs": [
        {
          "indexed": false,
          "internalType": "address",
          "name": "account",
          "type": "address"
        }
      ],
      "name": "Paused",
      "type": "event"
    },
    {
      "anonymous": false,
      "inputs": [
        {
          "indexed": true,
          "internalType": "uint256",
          "name": "_tokenId",
          "type": "uint256"
        },
        {
          "indexed": true,
          "internalType": "address",
          "name": "_renter",
          "type": "address"
        },
        {
          "indexed": false,
          "internalType": "uint256",
          "name": "_rentalExpiryBlock",
          "type": "uint256"
        }
      ],
      "name": "RenterSet",
      "type": "event"
    },
    {
      "anonymous": false,
      "inputs": [
        {
          "indexed": true,
          "internalType": "bytes32",
          "name": "role",
          "type": "bytes32"
        },
        {
          "indexed": true,
          "internalType": "bytes32",
          "name": "previousAdminRole",
          "type": "bytes32"
        },
        {
          "indexed": true,
          "internalType": "bytes32",
          "name": "newAdminRole",
          "type": "bytes32"
        }
      ],
      "name": "RoleAdminChanged",
      "type": "event"
    },
    {
      "anonymous": false,
      "inputs": [
        {
          "indexed": true,
          "internalType": "bytes32",
          "name": "role",
          "type": "bytes32"
        },
        {
          "indexed": true,
          "internalType": "address",
          "name": "account",
          "type": "address"
        },
        {
          "indexed": true,
          "internalType": "address",
          "name": "sender",
          "type": "address"
        }
      ],
      "name": "RoleGranted",
      "type": "event"
    },
    {
      "anonymous": false,
      "inputs": [
        {
          "indexed": true,
          "internalType": "bytes32",
          "name": "role",
          "type": "bytes32"
        },
        {
          "indexed": true,
          "internalType": "address",
          "name": "account",
          "type": "address"
        },
        {
          "indexed": true,
          "internalType": "address",
          "name": "sender",
          "type": "address"
        }
      ],
      "name": "RoleRevoked",
      "type": "event"
    },
    {
      "anonymous": false,
      "inputs": [
        {
          "indexed": true,
          "internalType": "address",
          "name": "from",
          "type": "address"
        },
        {
          "indexed": true,
          "internalType": "address",
          "name": "to",
          "type": "address"
        },
        {
          "indexed": true,
          "internalType": "uint256",
          "name": "tokenId",
          "type": "uint256"
        }
      ],
      "name": "Transfer",
      "type": "event"
    },
    {
      "anonymous": false,
      "inputs": [
        {
          "indexed": false,
          "internalType": "address",
          "name": "account",
          "type": "address"
        }
      ],
      "name": "Unpaused",
      "type": "event"
    },
    {
      "inputs": [],
      "name": "DEFAULT_ADMIN_ROLE",
      "outputs": [
        {
          "internalType": "bytes32",
          "name": "",
          "type": "bytes32"
        }
      ],
      "stateMutability": "view",
      "type": "function"
    },
    {
      "inputs": [],
      "name": "MINTER_ROLE",
      "outputs": [
        {
          "internalType": "bytes32",
          "name": "",
          "type": "bytes32"
        }
      ],
      "stateMutability": "view",
      "type": "function"
    },
    {
      "inputs": [],
      "name": "PAUSER_ROLE",
      "outputs": [
        {
          "internalType": "bytes32",
          "name": "",
          "type": "bytes32"
        }
      ],
      "stateMutability": "view",
      "type": "function"
    },
    {
      "inputs": [
        {
          "internalType": "uint256",
          "name": "",
          "type": "uint256"
        }
      ],
      "name": "_rentalPrices",
      "outputs": [
        {
          "internalType": "uint256",
          "name": "",
          "type": "uint256"
        }
      ],
      "stateMutability": "view",
      "type": "function"
    },
    {
      "inputs": [
        {
          "internalType": "address payable",
          "name": "_to",
          "type": "address"
        },
        {
          "internalType": "uint256",
          "name": "_amount",
          "type": "uint256"
        }
      ],
      "name": "_transfer",
      "outputs": [],
      "stateMutability": "nonpayable",
      "type": "function"
    },
    {
      "inputs": [
        {
          "internalType": "address",
          "name": "to",
          "type": "address"
        },
        {
          "internalType": "uint256",
          "name": "tokenId",
          "type": "uint256"
        }
      ],
      "name": "approve",
      "outputs": [],
      "stateMutability": "nonpayable",
      "type": "function"
    },
    {
      "inputs": [
        {
          "internalType": "address",
          "name": "owner",
          "type": "address"
        }
      ],
      "name": "balanceOf",
      "outputs": [
        {
          "internalType": "uint256",
          "name": "",
          "type": "uint256"
        }
      ],
      "stateMutability": "view",
      "type": "function"
    },
    {
      "inputs": [
        {
          "internalType": "uint256",
          "name": "tokenId",
          "type": "uint256"
        }
      ],
      "name": "burn",
      "outputs": [],
      "stateMutability": "nonpayable",
      "type": "function"
    },
    {
      "inputs": [
        {
          "internalType": "uint256",
          "name": "_tokenId",
          "type": "uint256"
        }
      ],
      "name": "clearExhibit",
      "outputs": [],
      "stateMutability": "nonpayable",
      "type": "function"
    },
    {
      "inputs": [],
      "name": "contractURI",
      "outputs": [
        {
          "internalType": "string",
          "name": "",
          "type": "string"
        }
      ],
      "stateMutability": "view",
      "type": "function"
    },
    {
      "inputs": [
        {
          "internalType": "uint256",
          "name": "tokenId",
          "type": "uint256"
        }
      ],
      "name": "getApproved",
      "outputs": [
        {
          "internalType": "address",
          "name": "",
          "type": "address"
        }
      ],
      "stateMutability": "view",
      "type": "function"
    },
    {
      "inputs": [
        {
          "internalType": "uint256",
          "name": "_tokenId",
          "type": "uint256"
        }
      ],
      "name": "getExhibit",
      "outputs": [
        {
          "components": [
            {
              "internalType": "address",
              "name": "contractAddress",
              "type": "address"
            },
            {
              "internalType": "uint256",
              "name": "tokenId",
              "type": "uint256"
            }
          ],
          "internalType": "struct IExhibitionable.Exhibit",
          "name": "",
          "type": "tuple"
        }
      ],
      "stateMutability": "view",
      "type": "function"
    },
    {
      "inputs": [
        {
          "internalType": "uint256",
          "name": "_tokenId",
          "type": "uint256"
        }
      ],
      "name": "getRentalPricePerBlock",
      "outputs": [
        {
          "internalType": "uint256",
          "name": "",
          "type": "uint256"
        }
      ],
      "stateMutability": "view",
      "type": "function"
    },
    {
      "inputs": [
        {
          "internalType": "uint256",
          "name": "_tokenId",
          "type": "uint256"
        }
      ],
      "name": "getRenter",
      "outputs": [
        {
          "components": [
            {
              "internalType": "address",
              "name": "renter",
              "type": "address"
            },
            {
              "internalType": "uint256",
              "name": "rentalExpiryBlock",
              "type": "uint256"
            }
          ],
          "internalType": "struct IRentable.Rental",
          "name": "",
          "type": "tuple"
        }
      ],
      "stateMutability": "view",
      "type": "function"
    },
    {
      "inputs": [
        {
          "internalType": "bytes32",
          "name": "role",
          "type": "bytes32"
        }
      ],
      "name": "getRoleAdmin",
      "outputs": [
        {
          "internalType": "bytes32",
          "name": "",
          "type": "bytes32"
        }
      ],
      "stateMutability": "view",
      "type": "function"
    },
    {
      "inputs": [
        {
          "internalType": "bytes32",
          "name": "role",
          "type": "bytes32"
        },
        {
          "internalType": "uint256",
          "name": "index",
          "type": "uint256"
        }
      ],
      "name": "getRoleMember",
      "outputs": [
        {
          "internalType": "address",
          "name": "",
          "type": "address"
        }
      ],
      "stateMutability": "view",
      "type": "function"
    },
    {
      "inputs": [
        {
          "internalType": "bytes32",
          "name": "role",
          "type": "bytes32"
        }
      ],
      "name": "getRoleMemberCount",
      "outputs": [
        {
          "internalType": "uint256",
          "name": "",
          "type": "uint256"
        }
      ],
      "stateMutability": "view",
      "type": "function"
    },
    {
      "inputs": [],
      "name": "getVersionNumber",
      "outputs": [
        {
          "internalType": "uint256",
          "name": "",
          "type": "uint256"
        },
        {
          "internalType": "uint256",
          "name": "",
          "type": "uint256"
        },
        {
          "internalType": "uint256",
          "name": "",
          "type": "uint256"
        },
        {
          "internalType": "uint256",
          "name": "",
          "type": "uint256"
        }
      ],
      "stateMutability": "pure",
      "type": "function"
    },
    {
      "inputs": [
        {
          "internalType": "bytes32",
          "name": "role",
          "type": "bytes32"
        },
        {
          "internalType": "address",
          "name": "account",
          "type": "address"
        }
      ],
      "name": "grantRole",
      "outputs": [],
      "stateMutability": "nonpayable",
      "type": "function"
    },
    {
      "inputs": [
        {
          "internalType": "bytes32",
          "name": "role",
          "type": "bytes32"
        },
        {
          "internalType": "address",
          "name": "account",
          "type": "address"
        }
      ],
      "name": "hasRole",
      "outputs": [
        {
          "internalType": "bool",
          "name": "",
          "type": "bool"
        }
      ],
      "stateMutability": "view",
      "type": "function"
    },
    {
      "inputs": [
        {
          "internalType": "address",
          "name": "owner",
          "type": "address"
        },
        {
          "internalType": "address",
          "name": "operator",
          "type": "address"
        }
      ],
      "name": "isApprovedForAll",
      "outputs": [
        {
          "internalType": "bool",
          "name": "",
          "type": "bool"
        }
      ],
      "stateMutability": "view",
      "type": "function"
    },
    {
      "inputs": [
        {
          "internalType": "address",
          "name": "to",
          "type": "address"
        }
      ],
      "name": "mint",
      "outputs": [],
      "stateMutability": "nonpayable",
      "type": "function"
    },
    {
      "inputs": [],
      "name": "name",
      "outputs": [
        {
          "internalType": "string",
          "name": "",
          "type": "string"
        }
      ],
      "stateMutability": "view",
      "type": "function"
    },
    {
      "inputs": [
        {
          "internalType": "address",
          "name": "_to",
          "type": "address"
        },
        {
          "internalType": "enum Frame.Category",
          "name": "_category",
          "type": "uint8"
        },
        {
          "internalType": "uint256",
          "name": "_tokenId",
          "type": "uint256"
        }
      ],
      "name": "ownerMint",
      "outputs": [],
      "stateMutability": "nonpayable",
      "type": "function"
    },
    {
      "inputs": [
        {
          "internalType": "uint256",
          "name": "tokenId",
          "type": "uint256"
        }
      ],
      "name": "ownerOf",
      "outputs": [
        {
          "internalType": "address",
          "name": "",
          "type": "address"
        }
      ],
      "stateMutability": "view",
      "type": "function"
    },
    {
      "inputs": [],
      "name": "pause",
      "outputs": [],
      "stateMutability": "nonpayable",
      "type": "function"
    },
    {
      "inputs": [],
      "name": "paused",
      "outputs": [
        {
          "internalType": "bool",
          "name": "",
          "type": "bool"
        }
      ],
      "stateMutability": "view",
      "type": "function"
    },
    {
      "inputs": [
        {
          "internalType": "enum Frame.Category",
          "name": "_category",
          "type": "uint8"
        }
      ],
      "name": "purchase",
      "outputs": [],
      "stateMutability": "payable",
      "type": "function"
    },
    {
      "inputs": [
        {
          "internalType": "bytes32",
          "name": "role",
          "type": "bytes32"
        },
        {
          "internalType": "address",
          "name": "account",
          "type": "address"
        }
      ],
      "name": "renounceRole",
      "outputs": [],
      "stateMutability": "nonpayable",
      "type": "function"
    },
    {
      "inputs": [
        {
          "internalType": "bytes32",
          "name": "role",
          "type": "bytes32"
        },
        {
          "internalType": "address",
          "name": "account",
          "type": "address"
        }
      ],
      "name": "revokeRole",
      "outputs": [],
      "stateMutability": "nonpayable",
      "type": "function"
    },
    {
      "inputs": [
        {
          "internalType": "address",
          "name": "from",
          "type": "address"
        },
        {
          "internalType": "address",
          "name": "to",
          "type": "address"
        },
        {
          "internalType": "uint256",
          "name": "tokenId",
          "type": "uint256"
        }
      ],
      "name": "safeTransferFrom",
      "outputs": [],
      "stateMutability": "nonpayable",
      "type": "function"
    },
    {
      "inputs": [
        {
          "internalType": "address",
          "name": "from",
          "type": "address"
        },
        {
          "internalType": "address",
          "name": "to",
          "type": "address"
        },
        {
          "internalType": "uint256",
          "name": "tokenId",
          "type": "uint256"
        },
        {
          "internalType": "bytes",
          "name": "_data",
          "type": "bytes"
        }
      ],
      "name": "safeTransferFrom",
      "outputs": [],
      "stateMutability": "nonpayable",
      "type": "function"
    },
    {
      "inputs": [
        {
          "internalType": "address",
          "name": "operator",
          "type": "address"
        },
        {
          "internalType": "bool",
          "name": "approved",
          "type": "bool"
        }
      ],
      "name": "setApprovalForAll",
      "outputs": [],
      "stateMutability": "nonpayable",
      "type": "function"
    },
    {
      "inputs": [
        {
          "internalType": "enum Frame.Category",
          "name": "_category",
          "type": "uint8"
        },
        {
          "internalType": "uint256",
          "name": "_price",
          "type": "uint256"
        },
        {
          "internalType": "uint256",
          "name": "_startingTokenId",
          "type": "uint256"
        },
        {
          "internalType": "uint256",
          "name": "_supply",
          "type": "uint256"
        }
      ],
      "name": "setCategoryDetail",
      "outputs": [],
      "stateMutability": "nonpayable",
      "type": "function"
    },
    {
      "inputs": [
        {
          "internalType": "uint256",
          "name": "_tokenId",
          "type": "uint256"
        },
        {
          "internalType": "address",
          "name": "_exhibitContractAddress",
          "type": "address"
        },
        {
          "internalType": "uint256",
          "name": "_exhibitTokenId",
          "type": "uint256"
        }
      ],
      "name": "setExhibit",
      "outputs": [],
      "stateMutability": "nonpayable",
      "type": "function"
    },
    {
      "inputs": [
        {
          "internalType": "uint256",
          "name": "_tokenId",
          "type": "uint256"
        },
        {
          "internalType": "uint256",
          "name": "_rentalPrice",
          "type": "uint256"
        }
      ],
      "name": "setRentalPricePerBlock",
      "outputs": [],
      "stateMutability": "nonpayable",
      "type": "function"
    },
    {
      "inputs": [
        {
          "internalType": "uint256",
          "name": "_tokenId",
          "type": "uint256"
        },
        {
          "internalType": "address",
          "name": "_renter",
          "type": "address"
        },
        {
          "internalType": "uint256",
          "name": "_rentalExpiryAtBlock",
          "type": "uint256"
        }
      ],
      "name": "setRenter",
      "outputs": [],
      "stateMutability": "payable",
      "type": "function"
    },
    {
      "inputs": [
        {
          "internalType": "bytes4",
          "name": "interfaceId",
          "type": "bytes4"
        }
      ],
      "name": "supportsInterface",
      "outputs": [
        {
          "internalType": "bool",
          "name": "",
          "type": "bool"
        }
      ],
      "stateMutability": "view",
      "type": "function"
    },
    {
      "inputs": [],
      "name": "symbol",
      "outputs": [
        {
          "internalType": "string",
          "name": "",
          "type": "string"
        }
      ],
      "stateMutability": "view",
      "type": "function"
    },
    {
      "inputs": [
        {
          "internalType": "uint256",
          "name": "index",
          "type": "uint256"
        }
      ],
      "name": "tokenByIndex",
      "outputs": [
        {
          "internalType": "uint256",
          "name": "",
          "type": "uint256"
        }
      ],
      "stateMutability": "view",
      "type": "function"
    },
    {
      "inputs": [
        {
          "internalType": "address",
          "name": "owner",
          "type": "address"
        },
        {
          "internalType": "uint256",
          "name": "index",
          "type": "uint256"
        }
      ],
      "name": "tokenOfOwnerByIndex",
      "outputs": [
        {
          "internalType": "uint256",
          "name": "",
          "type": "uint256"
        }
      ],
      "stateMutability": "view",
      "type": "function"
    },
    {
      "inputs": [
        {
          "internalType": "uint256",
          "name": "tokenId",
          "type": "uint256"
        }
      ],
      "name": "tokenURI",
      "outputs": [
        {
          "internalType": "string",
          "name": "",
          "type": "string"
        }
      ],
      "stateMutability": "view",
      "type": "function"
    },
    {
      "inputs": [],
      "name": "totalSupply",
      "outputs": [
        {
          "internalType": "uint256",
          "name": "",
          "type": "uint256"
        }
      ],
      "stateMutability": "view",
      "type": "function"
    },
    {
      "inputs": [
        {
          "internalType": "address",
          "name": "from",
          "type": "address"
        },
        {
          "internalType": "address",
          "name": "to",
          "type": "address"
        },
        {
          "internalType": "uint256",
          "name": "tokenId",
          "type": "uint256"
        }
      ],
      "name": "transferFrom",
      "outputs": [],
      "stateMutability": "nonpayable",
      "type": "function"
    },
    {
      "inputs": [],
      "name": "unpause",
      "outputs": [],
      "stateMutability": "nonpayable",
      "type": "function"
    }
  ],
  "transactionHash": "0xbadb39485098506328d52915d21622af3bdcd31b55221c36a77e107376169e72",
  "args": [
    "Frame",
    "FRAME",
    "ipfs://QmVzJjTG3Mj4ABtbFrda9goz4bmJWt9JsQ7guUUpGpsQK4/",
    "https://musee-dezental.com/storefront"
  ],
  "solcInputHash": "82c0cfcfae836901a0f4ca5652c928d9",
  "bytecode": "0x608060405260006015553480156200001657600080fd5b5060405162003d9f38038062003d9f8339810160408190526200003991620003e0565b60016000558351849084908490839083906200005d90600690602085019062000287565b5080516200007390600790602084019062000287565b50506010805460ff191690555080516200009590601290602084019062000287565b50620000a36000336200011e565b620000cf7f9f2df0fed2c77648de5860a4cc508cd0818c85b8b8a1ab4ceeef8d981c8956a6336200011e565b620000fb7f65d7a28e3265b37a6474929f336521b332c1681b933f6cb9f3376673440d862a336200011e565b50508151620001139150601390602084019062000287565b5050505050620004e7565b6200013582826200016160201b62001e311760201c565b60008281526005602090815260409091206200015c91839062001e3f62000171821b17901c565b505050565b6200016d828262000191565b5050565b600062000188836001600160a01b03841662000235565b90505b92915050565b60008281526004602090815260408083206001600160a01b038516845290915290205460ff166200016d5760008281526004602090815260408083206001600160a01b03851684529091529020805460ff19166001179055620001f13390565b6001600160a01b0316816001600160a01b0316837f2f8788117e7eff1d82e926ec794901d17c78024a50270940304540a733656f0d60405160405180910390a45050565b60008181526001830160205260408120546200027e575081546001818101845560008481526020808220909301849055845484825282860190935260409020919091556200018b565b5060006200018b565b828054620002959062000494565b90600052602060002090601f016020900481019282620002b9576000855562000304565b82601f10620002d457805160ff191683800117855562000304565b8280016001018555821562000304579182015b8281111562000304578251825591602001919060010190620002e7565b506200031292915062000316565b5090565b5b8082111562000312576000815560010162000317565b600082601f8301126200033e578081fd5b81516001600160401b03808211156200035b576200035b620004d1565b604051601f8301601f19908116603f01168101908282118183101715620003865762000386620004d1565b81604052838152602092508683858801011115620003a2578485fd5b8491505b83821015620003c55785820183015181830184015290820190620003a6565b83821115620003d657848385830101525b9695505050505050565b60008060008060808587031215620003f6578384fd5b84516001600160401b03808211156200040d578586fd5b6200041b888389016200032d565b9550602087015191508082111562000431578485fd5b6200043f888389016200032d565b9450604087015191508082111562000455578384fd5b62000463888389016200032d565b9350606087015191508082111562000479578283fd5b5062000488878288016200032d565b91505092959194509250565b600181811c90821680620004a957607f821691505b60208210811415620004cb57634e487b7160e01b600052602260045260246000fd5b50919050565b634e487b7160e01b600052604160045260246000fd5b6138a880620004f76000396000f3fe6080604052600436106102725760003560e01c80635c975abb1161014f578063a217fddf116100c1578063d53913931161007a578063d539139314610814578063d547741f14610848578063e63ab1e914610868578063e8a3d4851461089c578063e985e9c5146108b1578063fc1560b7146108fa57600080fd5b8063a217fddf1461071d578063a22cb46514610732578063b88d4fde14610752578063c87b56dd14610772578063ca15c87314610792578063d057d24c146107b257600080fd5b80637e70f7cc116101135780637e70f7cc146106595780638456cb59146106865780639010d07c1461069b57806391d14854146106bb57806395d89b41146106db57806396eb8096146106f057600080fd5b80635c975abb146105c15780636352211e146105d957806369087819146105f95780636a6278421461061957806370a082311461063957600080fd5b80633009c19b116101e857806342966c68116101ac57806342966c68146104ee5780634684c6111461050e5780634847a79c1461052e57806348bee4ce1461054e5780634f6ccce71461056e57806354255be01461058e57600080fd5b80633009c19b146104175780633298df761461048657806336568abe146104995780633f4ba83a146104b957806342842e0e146104ce57600080fd5b806318160ddd1161023a57806318160ddd14610348578063213a42341461036757806323b872dd14610387578063248a9ca3146103a75780632f2ff15d146103d75780632f745c59146103f757600080fd5b806301ffc9a71461027757806306fdde03146102ac578063081812fc146102ce578063095ea7b31461030657806309acea4914610328575b600080fd5b34801561028357600080fd5b50610297610292366004613340565b61090d565b60405190151581526020015b60405180910390f35b3480156102b857600080fd5b506102c161091e565b6040516102a3919061356c565b3480156102da57600080fd5b506102ee6102e93660046132e3565b6109b0565b6040516001600160a01b0390911681526020016102a3565b34801561031257600080fd5b506103266103213660046132d1565b610a3d565b005b34801561033457600080fd5b506103266103433660046132e3565b610b53565b34801561035457600080fd5b50600e545b6040519081526020016102a3565b34801561037357600080fd5b50610326610382366004613392565b610ccd565b34801561039357600080fd5b506103266103a2366004613167565b610d84565b3480156103b357600080fd5b506103596103c23660046132e3565b60009081526004602052604090206001015490565b3480156103e357600080fd5b506103266103f23660046132fb565b610db6565b34801561040357600080fd5b506103596104123660046132d1565b610dd8565b34801561042357600080fd5b506104796104323660046132e3565b604080518082019091526000808252602082015250600090815260026020908152604091829020825180840190935280546001600160a01b03168352600101549082015290565b6040516102a391906136a5565b610326610494366004613378565b610e6e565b3480156104a557600080fd5b506103266104b43660046132fb565b610fce565b3480156104c557600080fd5b50610326610ff0565b3480156104da57600080fd5b506103266104e9366004613167565b611098565b3480156104fa57600080fd5b506103266105093660046132e3565b6110b3565b34801561051a57600080fd5b50610326610529366004613439565b61112d565b34801561053a57600080fd5b50610326610549366004613104565b6112bf565b34801561055a57600080fd5b50610326610569366004613294565b611362565b34801561057a57600080fd5b506103596105893660046132e3565b61147b565b34801561059a57600080fd5b506001600081806040805194855260208501939093529183015260608201526080016102a3565b3480156105cd57600080fd5b5060105460ff16610297565b3480156105e557600080fd5b506102ee6105f43660046132e3565b61151c565b34801561060557600080fd5b5061032661061436600461331f565b611593565b34801561062557600080fd5b506103266106343660046130e8565b611682565b34801561064557600080fd5b506103596106543660046130e8565b61173e565b34801561066557600080fd5b506103596106743660046132e3565b60009081526001602052604090205490565b34801561069257600080fd5b506103266117c5565b3480156106a757600080fd5b506102ee6106b636600461331f565b611869565b3480156106c757600080fd5b506102976106d63660046132fb565b611888565b3480156106e757600080fd5b506102c16118b3565b3480156106fc57600080fd5b5061035961070b3660046132e3565b60016020526000908152604090205481565b34801561072957600080fd5b50610359600081565b34801561073e57600080fd5b5061032661074d366004613263565b6118c2565b34801561075e57600080fd5b5061032661076d3660046131a7565b611987565b34801561077e57600080fd5b506102c161078d3660046132e3565b6119bf565b34801561079e57600080fd5b506103596107ad3660046132e3565b611a89565b3480156107be57600080fd5b506104796107cd3660046132e3565b604080518082019091526000808252602082015250600090815260036020908152604091829020825180840190935280546001600160a01b03168352600101549082015290565b34801561082057600080fd5b506103597f9f2df0fed2c77648de5860a4cc508cd0818c85b8b8a1ab4ceeef8d981c8956a681565b34801561085457600080fd5b506103266108633660046132fb565b611aa0565b34801561087457600080fd5b506103597f65d7a28e3265b37a6474929f336521b332c1681b933f6cb9f3376673440d862a81565b3480156108a857600080fd5b506102c1611aaa565b3480156108bd57600080fd5b506102976108cc36600461312f565b6001600160a01b039182166000908152600b6020908152604080832093909416825291909152205460ff1690565b610326610908366004613439565b611b38565b600061091882611e54565b92915050565b60606006805461092d9061379b565b80601f01602080910402602001604051908101604052809291908181526020018280546109599061379b565b80156109a65780601f1061097b576101008083540402835291602001916109a6565b820191906000526020600020905b81548152906001019060200180831161098957829003601f168201915b5050505050905090565b60006109bb82611e79565b610a215760405162461bcd60e51b815260206004820152602c60248201527f4552433732313a20617070726f76656420717565727920666f72206e6f6e657860448201526b34b9ba32b73a103a37b5b2b760a11b60648201526084015b60405180910390fd5b506000908152600a60205260409020546001600160a01b031690565b6000610a488261151c565b9050806001600160a01b0316836001600160a01b03161415610ab65760405162461bcd60e51b815260206004820152602160248201527f4552433732313a20617070726f76616c20746f2063757272656e74206f776e656044820152603960f91b6064820152608401610a18565b336001600160a01b0382161480610ad25750610ad281336108cc565b610b445760405162461bcd60e51b815260206004820152603860248201527f4552433732313a20617070726f76652063616c6c6572206973206e6f74206f7760448201527f6e6572206e6f7220617070726f76656420666f7220616c6c00000000000000006064820152608401610a18565b610b4e8383611e96565b505050565b80610b5d81611e79565b610b795760405162461bcd60e51b8152600401610a18906135d1565b81336000610b868361151c565b604051633009c19b60e01b8152600481018590529091506001600160a01b0383811690831614906000903090633009c19b90602401604080518083038186803b158015610bd257600080fd5b505afa158015610be6573d6000803e3d6000fd5b505050506040513d601f19601f82011682018060405250810190610c0a91906133ca565b80519091506001600160a01b038581169116148280610c265750805b610c725760405162461bcd60e51b815260206004820152601f60248201527f4672616d653a20546f6b656e206e6f74206f776e6564202f2072656e746564006044820152606401610a18565b6040516309acea4960e01b81526004810189905230906309acea4990602401600060405180830381600087803b158015610cab57600080fd5b505af1158015610cbf573d6000803e3d6000fd5b505050505050505050505050565b33610cd9600082611888565b610d195760405162461bcd60e51b8152602060048201526011602482015270233930b6b29d1027b7363c9037bbb732b960791b6044820152606401610a18565b60006014600087600a811115610d3f57634e487b7160e01b600052602160045260246000fd5b600a811115610d5e57634e487b7160e01b600052602160045260246000fd5b815260208101919091526040016000209485555050600183019190915560029091015550565b610d8f335b82611f04565b610dab5760405162461bcd60e51b8152600401610a189061361d565b610b4e838383611fa9565b610dc08282612154565b6000828152600560205260409020610b4e9082611e3f565b6000610de38361173e565b8210610e455760405162461bcd60e51b815260206004820152602b60248201527f455243373231456e756d657261626c653a206f776e657220696e646578206f7560448201526a74206f6620626f756e647360a81b6064820152608401610a18565b506001600160a01b03919091166000908152600c60209081526040808320938352929052205490565b60026000541415610e915760405162461bcd60e51b8152600401610a189061366e565b6002600090815560148183600a811115610ebb57634e487b7160e01b600052602160045260246000fd5b600a811115610eda57634e487b7160e01b600052602160045260246000fd5b815260200190815260200160002090506000610ef88260030161217a565b11610f375760405162461bcd60e51b815260206004820152600f60248201526e119c985b594e8814dbdb19081bdd5d608a1b6044820152606401610a18565b8054341015610f815760405162461bcd60e51b815260206004820152601660248201527508ce4c2daca74409cdee840e0c2d2c840cadcdeeaced60531b6044820152606401610a18565b6000610f97610f928360030161217a565b612184565b90506000610fa860038401836121f1565b9050610fb5303383611fa9565b610fc260038401826121fd565b50506001600055505050565b610fd88282612209565b6000828152600560205260409020610b4e9082612283565b61101a7f65d7a28e3265b37a6474929f336521b332c1681b933f6cb9f3376673440d862a33611888565b61108e576040805162461bcd60e51b81526020600482015260248101919091527f4552433732315072657365744d696e7465725061757365724175746f49643a2060448201527f6d75737420686176652070617573657220726f6c6520746f20756e70617573656064820152608401610a18565b611096612298565b565b610b4e83838360405180602001604052806000815250611987565b6110bc33610d89565b6111215760405162461bcd60e51b815260206004820152603060248201527f4552433732314275726e61626c653a2063616c6c6572206973206e6f74206f7760448201526f1b995c881b9bdc88185c1c1c9bdd995960821b6064820152608401610a18565b61112a8161232b565b50565b8261113781611e79565b6111535760405162461bcd60e51b8152600401610a18906135d1565b833360006111608361151c565b604051633009c19b60e01b8152600481018590529091506001600160a01b0383811690831614906000903090633009c19b90602401604080518083038186803b1580156111ac57600080fd5b505afa1580156111c0573d6000803e3d6000fd5b505050506040513d601f19601f820116820180604052508101906111e491906133ca565b80519091506001600160a01b0385811691161482806112005750805b61124c5760405162461bcd60e51b815260206004820152601f60248201527f4672616d653a20546f6b656e206e6f74206f776e6564202f2072656e746564006044820152606401610a18565b604051634684c61160e01b8152600481018b90526001600160a01b038a166024820152604481018990523090634684c61190606401600060405180830381600087803b15801561129b57600080fd5b505af11580156112af573d6000803e3d6000fd5b5050505050505050505050505050565b6000826001600160a01b03168260405160006040518083038185875af1925050503d806000811461130c576040519150601f19603f3d011682016040523d82523d6000602084013e611311565b606091505b5050905080610b4e5760405162461bcd60e51b815260206004820152601960248201527f4672616d653a204661696c656420746f2073656e6420455448000000000000006044820152606401610a18565b3361138d7f9f2df0fed2c77648de5860a4cc508cd0818c85b8b8a1ab4ceeef8d981c8956a682611888565b6113ce5760405162461bcd60e51b8152602060048201526012602482015271233930b6b29d1027b7363c9036b4b73a32b960711b6044820152606401610a18565b600260005414156113f15760405162461bcd60e51b8152600401610a189061366e565b600260005561140084836123d2565b61140a3083610a3d565b60006014600085600a81111561143057634e487b7160e01b600052602160045260246000fd5b600a81111561144f57634e487b7160e01b600052602160045260246000fd5b81526020810191909152604001600020905061146e60038201846123ec565b5050600160005550505050565b6000611486600e5490565b82106114e95760405162461bcd60e51b815260206004820152602c60248201527f455243373231456e756d657261626c653a20676c6f62616c20696e646578206f60448201526b7574206f6620626f756e647360a01b6064820152608401610a18565b600e828154811061150a57634e487b7160e01b600052603260045260246000fd5b90600052602060002001549050919050565b6000818152600860205260408120546001600160a01b0316806109185760405162461bcd60e51b815260206004820152602960248201527f4552433732313a206f776e657220717565727920666f72206e6f6e657869737460448201526832b73a103a37b5b2b760b91b6064820152608401610a18565b8161159d81611e79565b6115b95760405162461bcd60e51b8152600401610a18906135d1565b823360006115c68361151c565b9050816001600160a01b0316816001600160a01b0316146116225760405162461bcd60e51b8152602060048201526016602482015275119c985b594e88151bdad95b881b9bdd081bdddb995960521b6044820152606401610a18565b604051636908781960e01b815260048101879052602481018690523090636908781990604401600060405180830381600087803b15801561166257600080fd5b505af1158015611676573d6000803e3d6000fd5b50505050505050505050565b6116ac7f9f2df0fed2c77648de5860a4cc508cd0818c85b8b8a1ab4ceeef8d981c8956a633611888565b61171e5760405162461bcd60e51b815260206004820152603d60248201527f4552433732315072657365744d696e7465725061757365724175746f49643a2060448201527f6d7573742068617665206d696e74657220726f6c6520746f206d696e740000006064820152608401610a18565b6117308161172b60115490565b6123f8565b61112a601180546001019055565b60006001600160a01b0382166117a95760405162461bcd60e51b815260206004820152602a60248201527f4552433732313a2062616c616e636520717565727920666f7220746865207a65604482015269726f206164647265737360b01b6064820152608401610a18565b506001600160a01b031660009081526009602052604090205490565b6117ef7f65d7a28e3265b37a6474929f336521b332c1681b933f6cb9f3376673440d862a33611888565b6118615760405162461bcd60e51b815260206004820152603e60248201527f4552433732315072657365744d696e7465725061757365724175746f49643a2060448201527f6d75737420686176652070617573657220726f6c6520746f20706175736500006064820152608401610a18565b611096612537565b600082815260056020526040812061188190836121f1565b9392505050565b60009182526004602090815260408084206001600160a01b0393909316845291905290205460ff1690565b60606007805461092d9061379b565b6001600160a01b03821633141561191b5760405162461bcd60e51b815260206004820152601960248201527f4552433732313a20617070726f766520746f2063616c6c6572000000000000006044820152606401610a18565b336000818152600b602090815260408083206001600160a01b03871680855290835292819020805460ff191686151590811790915590519081529192917f17307eab39ab6107e8899845ad3d59bd9653f200f220920489ca2b5937696c31910160405180910390a35050565b6119913383611f04565b6119ad5760405162461bcd60e51b8152600401610a189061361d565b6119b9848484846125b2565b50505050565b60606119ca82611e79565b611a2e5760405162461bcd60e51b815260206004820152602f60248201527f4552433732314d657461646174613a2055524920717565727920666f72206e6f60448201526e3732bc34b9ba32b73a103a37b5b2b760891b6064820152608401610a18565b6000611a386125e5565b90506000815111611a585760405180602001604052806000815250611881565b80611a62846125f4565b604051602001611a7392919061348b565b6040516020818303038152906040529392505050565b60008181526005602052604081206109189061217a565b610fd8828261270e565b60138054611ab79061379b565b80601f0160208091040260200160405190810160405280929190818152602001828054611ae39061379b565b8015611b305780601f10611b0557610100808354040283529160200191611b30565b820191906000526020600020905b815481529060010190602001808311611b1357829003601f168201915b505050505081565b82611b4281611e79565b611b5e5760405162461bcd60e51b8152600401610a18906135d1565b604051633009c19b60e01b81526004810185905284906000903090633009c19b90602401604080518083038186803b158015611b9957600080fd5b505afa158015611bad573d6000803e3d6000fd5b505050506040513d601f19601f82011682018060405250810190611bd191906133ca565b9050806020015160001480611be95750438160200151105b611c355760405162461bcd60e51b815260206004820152601b60248201527f4672616d653a20546f6b656e20616c72656164792072656e74656400000000006044820152606401610a18565b83428111611c855760405162461bcd60e51b815260206004820152601a60248201527f4672616d653a20426c6f636b206e6f7420696e206675747572650000000000006044820152606401610a18565b60026000541415611ca85760405162461bcd60e51b8152600401610a189061366e565b60026000908155604051631f9c3df360e21b8152600481018990523090637e70f7cc9060240160206040518083038186803b158015611ce657600080fd5b505afa158015611cfa573d6000803e3d6000fd5b505050506040513d601f19601f82011682018060405250810190611d1e9190613421565b9050600081611d2d4389613741565b611d379190613722565b905080341015611d815760405162461bcd60e51b8152602060048201526015602482015274119c985b594e8814995b9d185b081c185e5b595b9d605a1b6044820152606401610a18565b6000611d8c8a61151c565b9050611d9881836112bf565b6000611da48334613741565b9050338115611db757611db781836112bf565b60405163fc1560b760e01b8152600481018d90526001600160a01b038c166024820152604481018b9052309063fc1560b790606401600060405180830381600087803b158015611e0657600080fd5b505af1158015611e1a573d6000803e3d6000fd5b505060016000555050505050505050505050505050565b611e3b8282612734565b5050565b6000611881836001600160a01b0384166127ba565b60006001600160e01b0319821663780e9d6360e01b1480610918575061091882612809565b6000908152600860205260409020546001600160a01b0316151590565b6000818152600a6020526040902080546001600160a01b0319166001600160a01b0384169081179091558190611ecb8261151c565b6001600160a01b03167f8c5be1e5ebec7d5bd14f71427d1e84f3dd0314c0f7b2291e5b200ac8c7c3b92560405160405180910390a45050565b6000611f0f82611e79565b611f2b5760405162461bcd60e51b8152600401610a18906135d1565b6000611f368361151c565b9050806001600160a01b0316846001600160a01b03161480611f715750836001600160a01b0316611f66846109b0565b6001600160a01b0316145b80611fa157506001600160a01b038082166000908152600b602090815260408083209388168352929052205460ff165b949350505050565b826001600160a01b0316611fbc8261151c565b6001600160a01b0316146120245760405162461bcd60e51b815260206004820152602960248201527f4552433732313a207472616e73666572206f6620746f6b656e2074686174206960448201526839903737ba1037bbb760b91b6064820152608401610a18565b6001600160a01b0382166120865760405162461bcd60e51b8152602060048201526024808201527f4552433732313a207472616e7366657220746f20746865207a65726f206164646044820152637265737360e01b6064820152608401610a18565b612091838383612849565b61209c600082611e96565b6001600160a01b03831660009081526009602052604081208054600192906120c5908490613741565b90915550506001600160a01b03821660009081526009602052604081208054600192906120f39084906136f6565b909155505060008181526008602052604080822080546001600160a01b0319166001600160a01b0386811691821790925591518493918716917fddf252ad1be2c89b69c2b068fc378daa952ba7f163c4a11628f55a4df523b3ef91a4505050565b6000828152600460205260409020600101546121708133612854565b610b4e8383612734565b6000610918825490565b6015805460009182612195836137d6565b9091555050601554604080514260208201526bffffffffffffffffffffffff193360601b1691810191909152605481019190915282906074016040516020818303038152906040528051906020012060001c61091891906137f1565b600061188183836128b8565b600061188183836128f0565b6001600160a01b03811633146122795760405162461bcd60e51b815260206004820152602f60248201527f416363657373436f6e74726f6c3a2063616e206f6e6c792072656e6f756e636560448201526e103937b632b9903337b91039b2b63360891b6064820152608401610a18565b611e3b8282612a0d565b6000611881836001600160a01b0384166128f0565b60105460ff166122e15760405162461bcd60e51b815260206004820152601460248201527314185d5cd8589b194e881b9bdd081c185d5cd95960621b6044820152606401610a18565b6010805460ff191690557f5db9ee0a495bf2e6ff9c91a7834c1ba4fdd244a5e8aa4e537bd38aeae4b073aa335b6040516001600160a01b03909116815260200160405180910390a1565b60006123368261151c565b905061234481600084612849565b61234f600083611e96565b6001600160a01b0381166000908152600960205260408120805460019290612378908490613741565b909155505060008281526008602052604080822080546001600160a01b0319169055518391906001600160a01b038416907fddf252ad1be2c89b69c2b068fc378daa952ba7f163c4a11628f55a4df523b3ef908390a45050565b611e3b828260405180602001604052806000815250612a74565b600061188183836127ba565b6001600160a01b03821661244e5760405162461bcd60e51b815260206004820181905260248201527f4552433732313a206d696e7420746f20746865207a65726f20616464726573736044820152606401610a18565b61245781611e79565b156124a45760405162461bcd60e51b815260206004820152601c60248201527f4552433732313a20746f6b656e20616c7265616479206d696e746564000000006044820152606401610a18565b6124b060008383612849565b6001600160a01b03821660009081526009602052604081208054600192906124d99084906136f6565b909155505060008181526008602052604080822080546001600160a01b0319166001600160a01b03861690811790915590518392907fddf252ad1be2c89b69c2b068fc378daa952ba7f163c4a11628f55a4df523b3ef908290a45050565b60105460ff161561257d5760405162461bcd60e51b815260206004820152601060248201526f14185d5cd8589b194e881c185d5cd95960821b6044820152606401610a18565b6010805460ff191660011790557f62e78cea01bee320cd4e420270b5ea74000d11b0c9f74754ebdbfc544b05a25861230e3390565b6125bd848484611fa9565b6125c984848484612aa7565b6119b95760405162461bcd60e51b8152600401610a189061357f565b60606012805461092d9061379b565b6060816126185750506040805180820190915260018152600360fc1b602082015290565b8160005b8115612642578061262c816137d6565b915061263b9050600a8361370e565b915061261c565b60008167ffffffffffffffff81111561266b57634e487b7160e01b600052604160045260246000fd5b6040519080825280601f01601f191660200182016040528015612695576020820181803683370190505b5090505b8415611fa1576126aa600183613741565b91506126b7600a866137f1565b6126c29060306136f6565b60f81b8183815181106126e557634e487b7160e01b600052603260045260246000fd5b60200101906001600160f81b031916908160001a905350612707600a8661370e565b9450612699565b60008281526004602052604090206001015461272a8133612854565b610b4e8383612a0d565b61273e8282611888565b611e3b5760008281526004602090815260408083206001600160a01b03851684529091529020805460ff191660011790556127763390565b6001600160a01b0316816001600160a01b0316837f2f8788117e7eff1d82e926ec794901d17c78024a50270940304540a733656f0d60405160405180910390a45050565b600081815260018301602052604081205461280157508154600181810184556000848152602080822090930184905584548482528286019093526040902091909155610918565b506000610918565b60006001600160e01b031982166380ac58cd60e01b148061283a57506001600160e01b03198216635b5e139f60e01b145b80610918575061091882612bb4565b610b4e838383612bd9565b61285e8282611888565b611e3b57612876816001600160a01b03166014612c4b565b612881836020612c4b565b6040516020016128929291906134ba565b60408051601f198184030181529082905262461bcd60e51b8252610a189160040161356c565b60008260000182815481106128dd57634e487b7160e01b600052603260045260246000fd5b9060005260206000200154905092915050565b60008181526001830160205260408120548015612a03576000612914600183613741565b855490915060009061292890600190613741565b90508181146129a957600086600001828154811061295657634e487b7160e01b600052603260045260246000fd5b906000526020600020015490508087600001848154811061298757634e487b7160e01b600052603260045260246000fd5b6000918252602080832090910192909255918252600188019052604090208390555b85548690806129c857634e487b7160e01b600052603160045260246000fd5b600190038181906000526020600020016000905590558560010160008681526020019081526020016000206000905560019350505050610918565b6000915050610918565b612a178282611888565b15611e3b5760008281526004602090815260408083206001600160a01b0385168085529252808320805460ff1916905551339285917ff6391f5c32d9c69d2a47ea670b442974b53935d1edc7fd64eb21e047a839171b9190a45050565b612a7e83836123f8565b612a8b6000848484612aa7565b610b4e5760405162461bcd60e51b8152600401610a189061357f565b60006001600160a01b0384163b15612ba957604051630a85bd0160e11b81526001600160a01b0385169063150b7a0290612aeb90339089908890889060040161352f565b602060405180830381600087803b158015612b0557600080fd5b505af1925050508015612b35575060408051601f3d908101601f19168201909252612b329181019061335c565b60015b612b8f573d808015612b63576040519150601f19603f3d011682016040523d82523d6000602084013e612b68565b606091505b508051612b875760405162461bcd60e51b8152600401610a189061357f565b805181602001fd5b6001600160e01b031916630a85bd0160e11b149050611fa1565b506001949350505050565b60006001600160e01b03198216635a05180f60e01b1480610918575061091882612e2d565b612be4838383612e62565b60105460ff1615610b4e5760405162461bcd60e51b815260206004820152602b60248201527f4552433732315061757361626c653a20746f6b656e207472616e73666572207760448201526a1a1a5b19481c185d5cd95960aa1b6064820152608401610a18565b60606000612c5a836002613722565b612c659060026136f6565b67ffffffffffffffff811115612c8b57634e487b7160e01b600052604160045260246000fd5b6040519080825280601f01601f191660200182016040528015612cb5576020820181803683370190505b509050600360fc1b81600081518110612cde57634e487b7160e01b600052603260045260246000fd5b60200101906001600160f81b031916908160001a905350600f60fb1b81600181518110612d1b57634e487b7160e01b600052603260045260246000fd5b60200101906001600160f81b031916908160001a9053506000612d3f846002613722565b612d4a9060016136f6565b90505b6001811115612dde576f181899199a1a9b1b9c1cb0b131b232b360811b85600f1660108110612d8c57634e487b7160e01b600052603260045260246000fd5b1a60f81b828281518110612db057634e487b7160e01b600052603260045260246000fd5b60200101906001600160f81b031916908160001a90535060049490941c93612dd781613784565b9050612d4d565b5083156118815760405162461bcd60e51b815260206004820181905260248201527f537472696e67733a20686578206c656e67746820696e73756666696369656e746044820152606401610a18565b60006001600160e01b03198216637965db0b60e01b148061091857506301ffc9a760e01b6001600160e01b0319831614610918565b6001600160a01b038316612ebd57612eb881600e80546000838152600f60205260408120829055600182018355919091527fbb7b4a454dc3493923482f07822329ed19e8244eff582cc204f8554c3620c3fd0155565b612ee0565b816001600160a01b0316836001600160a01b031614612ee057612ee08382612f1a565b6001600160a01b038216612ef757610b4e81612fb7565b826001600160a01b0316826001600160a01b031614610b4e57610b4e8282613090565b60006001612f278461173e565b612f319190613741565b6000838152600d6020526040902054909150808214612f84576001600160a01b0384166000908152600c602090815260408083208584528252808320548484528184208190558352600d90915290208190555b506000918252600d602090815260408084208490556001600160a01b039094168352600c81528383209183525290812055565b600e54600090612fc990600190613741565b6000838152600f6020526040812054600e8054939450909284908110612fff57634e487b7160e01b600052603260045260246000fd5b9060005260206000200154905080600e838154811061302e57634e487b7160e01b600052603260045260246000fd5b6000918252602080832090910192909255828152600f9091526040808220849055858252812055600e80548061307457634e487b7160e01b600052603160045260246000fd5b6001900381819060005260206000200160009055905550505050565b600061309b8361173e565b6001600160a01b039093166000908152600c602090815260408083208684528252808320859055938252600d9052919091209190915550565b8035600b81106130e357600080fd5b919050565b6000602082840312156130f9578081fd5b813561188181613847565b60008060408385031215613116578081fd5b823561312181613847565b946020939093013593505050565b60008060408385031215613141578182fd5b823561314c81613847565b9150602083013561315c81613847565b809150509250929050565b60008060006060848603121561317b578081fd5b833561318681613847565b9250602084013561319681613847565b929592945050506040919091013590565b600080600080608085870312156131bc578081fd5b84356131c781613847565b93506020858101356131d881613847565b935060408601359250606086013567ffffffffffffffff808211156131fb578384fd5b818801915088601f83011261320e578384fd5b81358181111561322057613220613831565b613232601f8201601f191685016136c5565b91508082528984828501011115613247578485fd5b8084840185840137810190920192909252939692955090935050565b60008060408385031215613275578182fd5b823561328081613847565b91506020830135801515811461315c578182fd5b6000806000606084860312156132a8578283fd5b83356132b381613847565b92506132c1602085016130d4565b9150604084013590509250925092565b60008060408385031215613116578182fd5b6000602082840312156132f4578081fd5b5035919050565b6000806040838503121561330d578182fd5b82359150602083013561315c81613847565b60008060408385031215613331578182fd5b50508035926020909101359150565b600060208284031215613351578081fd5b81356118818161385c565b60006020828403121561336d578081fd5b81516118818161385c565b600060208284031215613389578081fd5b611881826130d4565b600080600080608085870312156133a7578182fd5b6133b0856130d4565b966020860135965060408601359560600135945092505050565b6000604082840312156133db578081fd5b6040516040810181811067ffffffffffffffff821117156133fe576133fe613831565b604052825161340c81613847565b81526020928301519281019290925250919050565b600060208284031215613432578081fd5b5051919050565b60008060006060848603121561344d578081fd5b83359250602084013561319681613847565b60008151808452613477816020860160208601613758565b601f01601f19169290920160200192915050565b6000835161349d818460208801613758565b8351908301906134b1818360208801613758565b01949350505050565b7f416363657373436f6e74726f6c3a206163636f756e74200000000000000000008152600083516134f2816017850160208801613758565b7001034b99036b4b9b9b4b733903937b6329607d1b6017918401918201528351613523816028840160208801613758565b01602801949350505050565b6001600160a01b03858116825284166020820152604081018390526080606082018190526000906135629083018461345f565b9695505050505050565b602081526000611881602083018461345f565b60208082526032908201527f4552433732313a207472616e7366657220746f206e6f6e20455243373231526560408201527131b2b4bb32b91034b6b83632b6b2b73a32b960711b606082015260800190565b6020808252602c908201527f4552433732313a206f70657261746f7220717565727920666f72206e6f6e657860408201526b34b9ba32b73a103a37b5b2b760a11b606082015260800190565b60208082526031908201527f4552433732313a207472616e736665722063616c6c6572206973206e6f74206f6040820152701ddb995c881b9bdc88185c1c1c9bdd9959607a1b606082015260800190565b6020808252601f908201527f5265656e7472616e637947756172643a207265656e7472616e742063616c6c00604082015260600190565b81516001600160a01b031681526020808301519082015260408101610918565b604051601f8201601f1916810167ffffffffffffffff811182821017156136ee576136ee613831565b604052919050565b6000821982111561370957613709613805565b500190565b60008261371d5761371d61381b565b500490565b600081600019048311821515161561373c5761373c613805565b500290565b60008282101561375357613753613805565b500390565b60005b8381101561377357818101518382015260200161375b565b838111156119b95750506000910152565b60008161379357613793613805565b506000190190565b600181811c908216806137af57607f821691505b602082108114156137d057634e487b7160e01b600052602260045260246000fd5b50919050565b60006000198214156137ea576137ea613805565b5060010190565b6000826138005761380061381b565b500690565b634e487b7160e01b600052601160045260246000fd5b634e487b7160e01b600052601260045260246000fd5b634e487b7160e01b600052604160045260246000fd5b6001600160a01b038116811461112a57600080fd5b6001600160e01b03198116811461112a57600080fdfea264697066735822122073e9d13357e23c53fe9c153423c149a7b0adbbf779be2c0fad8b166d8855db6264736f6c63430008040033",
  "devdoc": {
    "kind": "dev",
    "methods": {
      "approve(address,uint256)": {
        "details": "See {IERC721-approve}."
      },
      "balanceOf(address)": {
        "details": "See {IERC721-balanceOf}."
      },
      "burn(uint256)": {
        "details": "Burns `tokenId`. See {ERC721-_burn}. Requirements: - The caller must own `tokenId` or be an approved operator."
      },
      "constructor": {
        "details": "Grants `DEFAULT_ADMIN_ROLE`, `MINTER_ROLE` and `PAUSER_ROLE` to the account that deploys the contract."
      },
      "getApproved(uint256)": {
        "details": "See {IERC721-getApproved}."
      },
      "getRoleAdmin(bytes32)": {
        "details": "Returns the admin role that controls `role`. See {grantRole} and {revokeRole}. To change a role's admin, use {_setRoleAdmin}."
      },
      "getRoleMember(bytes32,uint256)": {
        "details": "Returns one of the accounts that have `role`. `index` must be a value between 0 and {getRoleMemberCount}, non-inclusive. Role bearers are not sorted in any particular way, and their ordering may change at any point. WARNING: When using {getRoleMember} and {getRoleMemberCount}, make sure you perform all queries on the same block. See the following https://forum.openzeppelin.com/t/iterating-over-elements-on-enumerableset-in-openzeppelin-contracts/2296[forum post] for more information."
      },
      "getRoleMemberCount(bytes32)": {
        "details": "Returns the number of accounts that have `role`. Can be used together with {getRoleMember} to enumerate all bearers of a role."
      },
      "getVersionNumber()": {
        "returns": {
          "_0": "The storage, major, minor, and patch version of the contract."
        }
      },
      "grantRole(bytes32,address)": {
        "details": "Overload {grantRole} to track enumerable memberships"
      },
      "hasRole(bytes32,address)": {
        "details": "Returns `true` if `account` has been granted `role`."
      },
      "isApprovedForAll(address,address)": {
        "details": "See {IERC721-isApprovedForAll}."
      },
      "mint(address)": {
        "details": "Creates a new token for `to`. Its token ID will be automatically assigned (and available on the emitted {IERC721-Transfer} event), and the token URI autogenerated based on the base URI passed at construction. See {ERC721-_mint}. Requirements: - the caller must have the `MINTER_ROLE`."
      },
      "name()": {
        "details": "See {IERC721Metadata-name}."
      },
      "ownerOf(uint256)": {
        "details": "See {IERC721-ownerOf}."
      },
      "pause()": {
        "details": "Pauses all token transfers. See {ERC721Pausable} and {Pausable-_pause}. Requirements: - the caller must have the `PAUSER_ROLE`."
      },
      "paused()": {
        "details": "Returns true if the contract is paused, and false otherwise."
      },
      "renounceRole(bytes32,address)": {
        "details": "Overload {renounceRole} to track enumerable memberships"
      },
      "revokeRole(bytes32,address)": {
        "details": "Overload {revokeRole} to track enumerable memberships"
      },
      "safeTransferFrom(address,address,uint256)": {
        "details": "See {IERC721-safeTransferFrom}."
      },
      "safeTransferFrom(address,address,uint256,bytes)": {
        "details": "See {IERC721-safeTransferFrom}."
      },
      "setApprovalForAll(address,bool)": {
        "details": "See {IERC721-setApprovalForAll}."
      },
      "setExhibit(uint256,address,uint256)": {
        "details": "Exhibitionable implementation overrides"
      },
      "setRenter(uint256,address,uint256)": {
        "details": "Rentable implementation overrides"
      },
      "supportsInterface(bytes4)": {
        "details": "See {IERC165-supportsInterface}."
      },
      "symbol()": {
        "details": "See {IERC721Metadata-symbol}."
      },
      "tokenByIndex(uint256)": {
        "details": "See {IERC721Enumerable-tokenByIndex}."
      },
      "tokenOfOwnerByIndex(address,uint256)": {
        "details": "See {IERC721Enumerable-tokenOfOwnerByIndex}."
      },
      "tokenURI(uint256)": {
        "details": "See {IERC721Metadata-tokenURI}."
      },
      "totalSupply()": {
        "details": "See {IERC721Enumerable-totalSupply}."
      },
      "transferFrom(address,address,uint256)": {
        "details": "See {IERC721-transferFrom}."
      },
      "unpause()": {
        "details": "Unpauses all token transfers. See {ERC721Pausable} and {Pausable-_unpause}. Requirements: - the caller must have the `PAUSER_ROLE`."
      }
    },
    "version": 1
  },
  "userdoc": {
    "events": {
      "ExhibitSet(uint256,address,uint256)": {
        "notice": "Triggered when a a new exhibit has been set"
      },
      "RenterSet(uint256,address,uint256)": {
        "notice": "Triggered when a renter has been set"
      }
    },
    "kind": "user",
    "methods": {
      "getVersionNumber()": {
        "notice": "Returns the storage, major, minor, and patch version of the contract."
      }
    },
    "version": 1
  },
  "storageLayout": {
    "storage": [
      {
        "astId": 686,
        "contract": "contracts/Frame.sol:Frame",
        "label": "_status",
        "offset": 0,
        "slot": "0",
        "type": "t_uint256"
      },
      {
        "astId": 4287,
        "contract": "contracts/Frame.sol:Frame",
        "label": "_rentalPrices",
        "offset": 0,
        "slot": "1",
        "type": "t_mapping(t_uint256,t_uint256)"
      },
      {
        "astId": 4292,
        "contract": "contracts/Frame.sol:Frame",
        "label": "_renters",
        "offset": 0,
        "slot": "2",
        "type": "t_mapping(t_uint256,t_struct(Rental)4419_storage)"
      },
      {
        "astId": 4193,
        "contract": "contracts/Frame.sol:Frame",
        "label": "_exhibits",
        "offset": 0,
        "slot": "3",
        "type": "t_mapping(t_uint256,t_struct(Exhibit)4380_storage)"
      },
      {
        "astId": 24,
        "contract": "contracts/Frame.sol:Frame",
        "label": "_roles",
        "offset": 0,
        "slot": "4",
        "type": "t_mapping(t_bytes32,t_struct(RoleData)19_storage)"
      },
      {
        "astId": 325,
        "contract": "contracts/Frame.sol:Frame",
        "label": "_roleMembers",
        "offset": 0,
        "slot": "5",
        "type": "t_mapping(t_bytes32,t_struct(AddressSet)3260_storage)"
      },
      {
        "astId": 741,
        "contract": "contracts/Frame.sol:Frame",
        "label": "_name",
        "offset": 0,
        "slot": "6",
        "type": "t_string_storage"
      },
      {
        "astId": 743,
        "contract": "contracts/Frame.sol:Frame",
        "label": "_symbol",
        "offset": 0,
        "slot": "7",
        "type": "t_string_storage"
      },
      {
        "astId": 747,
        "contract": "contracts/Frame.sol:Frame",
        "label": "_owners",
        "offset": 0,
        "slot": "8",
        "type": "t_mapping(t_uint256,t_address)"
      },
      {
        "astId": 751,
        "contract": "contracts/Frame.sol:Frame",
        "label": "_balances",
        "offset": 0,
        "slot": "9",
        "type": "t_mapping(t_address,t_uint256)"
      },
      {
        "astId": 755,
        "contract": "contracts/Frame.sol:Frame",
        "label": "_tokenApprovals",
        "offset": 0,
        "slot": "10",
        "type": "t_mapping(t_uint256,t_address)"
      },
      {
        "astId": 761,
        "contract": "contracts/Frame.sol:Frame",
        "label": "_operatorApprovals",
        "offset": 0,
        "slot": "11",
        "type": "t_mapping(t_address,t_mapping(t_address,t_bool))"
      },
      {
        "astId": 1710,
        "contract": "contracts/Frame.sol:Frame",
        "label": "_ownedTokens",
        "offset": 0,
        "slot": "12",
        "type": "t_mapping(t_address,t_mapping(t_uint256,t_uint256))"
      },
      {
        "astId": 1714,
        "contract": "contracts/Frame.sol:Frame",
        "label": "_ownedTokensIndex",
        "offset": 0,
        "slot": "13",
        "type": "t_mapping(t_uint256,t_uint256)"
      },
      {
        "astId": 1717,
        "contract": "contracts/Frame.sol:Frame",
        "label": "_allTokens",
        "offset": 0,
        "slot": "14",
        "type": "t_array(t_uint256)dyn_storage"
      },
      {
        "astId": 1721,
        "contract": "contracts/Frame.sol:Frame",
        "label": "_allTokensIndex",
        "offset": 0,
        "slot": "15",
        "type": "t_mapping(t_uint256,t_uint256)"
      },
      {
        "astId": 601,
        "contract": "contracts/Frame.sol:Frame",
        "label": "_paused",
        "offset": 0,
        "slot": "16",
        "type": "t_bool"
      },
      {
        "astId": 2165,
        "contract": "contracts/Frame.sol:Frame",
        "label": "_tokenIdTracker",
        "offset": 0,
        "slot": "17",
        "type": "t_struct(Counter)2641_storage"
      },
      {
        "astId": 2167,
        "contract": "contracts/Frame.sol:Frame",
        "label": "_baseTokenURI",
        "offset": 0,
        "slot": "18",
        "type": "t_string_storage"
      },
      {
        "astId": 3571,
        "contract": "contracts/Frame.sol:Frame",
        "label": "contractURI",
        "offset": 0,
        "slot": "19",
        "type": "t_string_storage"
      },
      {
        "astId": 3599,
        "contract": "contracts/Frame.sol:Frame",
        "label": "categories",
        "offset": 0,
        "slot": "20",
        "type": "t_mapping(t_enum(Category)3583,t_struct(CategoryDetail)3593_storage)"
      },
      {
        "astId": 3602,
        "contract": "contracts/Frame.sol:Frame",
        "label": "randNonce",
        "offset": 0,
        "slot": "21",
        "type": "t_uint256"
      }
    ],
    "types": {
      "t_address": {
        "encoding": "inplace",
        "label": "address",
        "numberOfBytes": "20"
      },
      "t_array(t_bytes32)dyn_storage": {
        "base": "t_bytes32",
        "encoding": "dynamic_array",
        "label": "bytes32[]",
        "numberOfBytes": "32"
      },
      "t_array(t_uint256)dyn_storage": {
        "base": "t_uint256",
        "encoding": "dynamic_array",
        "label": "uint256[]",
        "numberOfBytes": "32"
      },
      "t_bool": {
        "encoding": "inplace",
        "label": "bool",
        "numberOfBytes": "1"
      },
      "t_bytes32": {
        "encoding": "inplace",
        "label": "bytes32",
        "numberOfBytes": "32"
      },
      "t_enum(Category)3583": {
        "encoding": "inplace",
        "label": "enum Frame.Category",
        "numberOfBytes": "1"
      },
      "t_mapping(t_address,t_bool)": {
        "encoding": "mapping",
        "key": "t_address",
        "label": "mapping(address => bool)",
        "numberOfBytes": "32",
        "value": "t_bool"
      },
      "t_mapping(t_address,t_mapping(t_address,t_bool))": {
        "encoding": "mapping",
        "key": "t_address",
        "label": "mapping(address => mapping(address => bool))",
        "numberOfBytes": "32",
        "value": "t_mapping(t_address,t_bool)"
      },
      "t_mapping(t_address,t_mapping(t_uint256,t_uint256))": {
        "encoding": "mapping",
        "key": "t_address",
        "label": "mapping(address => mapping(uint256 => uint256))",
        "numberOfBytes": "32",
        "value": "t_mapping(t_uint256,t_uint256)"
      },
      "t_mapping(t_address,t_uint256)": {
        "encoding": "mapping",
        "key": "t_address",
        "label": "mapping(address => uint256)",
        "numberOfBytes": "32",
        "value": "t_uint256"
      },
      "t_mapping(t_bytes32,t_struct(AddressSet)3260_storage)": {
        "encoding": "mapping",
        "key": "t_bytes32",
        "label": "mapping(bytes32 => struct EnumerableSet.AddressSet)",
        "numberOfBytes": "32",
        "value": "t_struct(AddressSet)3260_storage"
      },
      "t_mapping(t_bytes32,t_struct(RoleData)19_storage)": {
        "encoding": "mapping",
        "key": "t_bytes32",
        "label": "mapping(bytes32 => struct AccessControl.RoleData)",
        "numberOfBytes": "32",
        "value": "t_struct(RoleData)19_storage"
      },
      "t_mapping(t_bytes32,t_uint256)": {
        "encoding": "mapping",
        "key": "t_bytes32",
        "label": "mapping(bytes32 => uint256)",
        "numberOfBytes": "32",
        "value": "t_uint256"
      },
      "t_mapping(t_enum(Category)3583,t_struct(CategoryDetail)3593_storage)": {
        "encoding": "mapping",
        "key": "t_enum(Category)3583",
        "label": "mapping(enum Frame.Category => struct Frame.CategoryDetail)",
        "numberOfBytes": "32",
        "value": "t_struct(CategoryDetail)3593_storage"
      },
      "t_mapping(t_uint256,t_address)": {
        "encoding": "mapping",
        "key": "t_uint256",
        "label": "mapping(uint256 => address)",
        "numberOfBytes": "32",
        "value": "t_address"
      },
      "t_mapping(t_uint256,t_struct(Exhibit)4380_storage)": {
        "encoding": "mapping",
        "key": "t_uint256",
        "label": "mapping(uint256 => struct IExhibitionable.Exhibit)",
        "numberOfBytes": "32",
        "value": "t_struct(Exhibit)4380_storage"
      },
      "t_mapping(t_uint256,t_struct(Rental)4419_storage)": {
        "encoding": "mapping",
        "key": "t_uint256",
        "label": "mapping(uint256 => struct IRentable.Rental)",
        "numberOfBytes": "32",
        "value": "t_struct(Rental)4419_storage"
      },
      "t_mapping(t_uint256,t_uint256)": {
        "encoding": "mapping",
        "key": "t_uint256",
        "label": "mapping(uint256 => uint256)",
        "numberOfBytes": "32",
        "value": "t_uint256"
      },
      "t_string_storage": {
        "encoding": "bytes",
        "label": "string",
        "numberOfBytes": "32"
      },
      "t_struct(AddressSet)3260_storage": {
        "encoding": "inplace",
        "label": "struct EnumerableSet.AddressSet",
        "members": [
          {
            "astId": 3259,
            "contract": "contracts/Frame.sol:Frame",
            "label": "_inner",
            "offset": 0,
            "slot": "0",
            "type": "t_struct(Set)2959_storage"
          }
        ],
        "numberOfBytes": "64"
      },
      "t_struct(CategoryDetail)3593_storage": {
        "encoding": "inplace",
        "label": "struct Frame.CategoryDetail",
        "members": [
          {
            "astId": 3585,
            "contract": "contracts/Frame.sol:Frame",
            "label": "price",
            "offset": 0,
            "slot": "0",
            "type": "t_uint256"
          },
          {
            "astId": 3587,
            "contract": "contracts/Frame.sol:Frame",
            "label": "startingTokenId",
            "offset": 0,
            "slot": "1",
            "type": "t_uint256"
          },
          {
            "astId": 3589,
            "contract": "contracts/Frame.sol:Frame",
            "label": "supply",
            "offset": 0,
            "slot": "2",
            "type": "t_uint256"
          },
          {
            "astId": 3592,
            "contract": "contracts/Frame.sol:Frame",
            "label": "tokenIds",
            "offset": 0,
            "slot": "3",
            "type": "t_struct(UintSet)3417_storage"
          }
        ],
        "numberOfBytes": "160"
      },
      "t_struct(Counter)2641_storage": {
        "encoding": "inplace",
        "label": "struct Counters.Counter",
        "members": [
          {
            "astId": 2640,
            "contract": "contracts/Frame.sol:Frame",
            "label": "_value",
            "offset": 0,
            "slot": "0",
            "type": "t_uint256"
          }
        ],
        "numberOfBytes": "32"
      },
      "t_struct(Exhibit)4380_storage": {
        "encoding": "inplace",
        "label": "struct IExhibitionable.Exhibit",
        "members": [
          {
            "astId": 4377,
            "contract": "contracts/Frame.sol:Frame",
            "label": "contractAddress",
            "offset": 0,
            "slot": "0",
            "type": "t_address"
          },
          {
            "astId": 4379,
            "contract": "contracts/Frame.sol:Frame",
            "label": "tokenId",
            "offset": 0,
            "slot": "1",
            "type": "t_uint256"
          }
        ],
        "numberOfBytes": "64"
      },
      "t_struct(Rental)4419_storage": {
        "encoding": "inplace",
        "label": "struct IRentable.Rental",
        "members": [
          {
            "astId": 4416,
            "contract": "contracts/Frame.sol:Frame",
            "label": "renter",
            "offset": 0,
            "slot": "0",
            "type": "t_address"
          },
          {
            "astId": 4418,
            "contract": "contracts/Frame.sol:Frame",
            "label": "rentalExpiryBlock",
            "offset": 0,
            "slot": "1",
            "type": "t_uint256"
          }
        ],
        "numberOfBytes": "64"
      },
      "t_struct(RoleData)19_storage": {
        "encoding": "inplace",
        "label": "struct AccessControl.RoleData",
        "members": [
          {
            "astId": 16,
            "contract": "contracts/Frame.sol:Frame",
            "label": "members",
            "offset": 0,
            "slot": "0",
            "type": "t_mapping(t_address,t_bool)"
          },
          {
            "astId": 18,
            "contract": "contracts/Frame.sol:Frame",
            "label": "adminRole",
            "offset": 0,
            "slot": "1",
            "type": "t_bytes32"
          }
        ],
        "numberOfBytes": "64"
      },
      "t_struct(Set)2959_storage": {
        "encoding": "inplace",
        "label": "struct EnumerableSet.Set",
        "members": [
          {
            "astId": 2954,
            "contract": "contracts/Frame.sol:Frame",
            "label": "_values",
            "offset": 0,
            "slot": "0",
            "type": "t_array(t_bytes32)dyn_storage"
          },
          {
            "astId": 2958,
            "contract": "contracts/Frame.sol:Frame",
            "label": "_indexes",
            "offset": 0,
            "slot": "1",
            "type": "t_mapping(t_bytes32,t_uint256)"
          }
        ],
        "numberOfBytes": "64"
      },
      "t_struct(UintSet)3417_storage": {
        "encoding": "inplace",
        "label": "struct EnumerableSet.UintSet",
        "members": [
          {
            "astId": 3416,
            "contract": "contracts/Frame.sol:Frame",
            "label": "_inner",
            "offset": 0,
            "slot": "0",
            "type": "t_struct(Set)2959_storage"
          }
        ],
        "numberOfBytes": "64"
      },
      "t_uint256": {
        "encoding": "inplace",
        "label": "uint256",
        "numberOfBytes": "32"
      }
    }
  }
}