{
  "address": "0x589d3dC627E3dF4f29BE0f66181925125c0D093C",
  "abi": [
    {
      "inputs": [
        {
          "internalType": "string",
          "name": "_name",
          "type": "string"
        },
        {
          "internalType": "string",
          "name": "_symbol",
          "type": "string"
        },
        {
          "internalType": "string",
          "name": "_baseTokenUri",
          "type": "string"
        },
        {
          "internalType": "string",
          "name": "_contractUri",
          "type": "string"
        },
        {
          "internalType": "address",
          "name": "_vrfCoordinator",
          "type": "address"
        },
        {
          "internalType": "address",
          "name": "_link",
          "type": "address"
        },
        {
          "internalType": "bytes32",
          "name": "_keyHash",
          "type": "bytes32"
        },
        {
          "internalType": "uint256",
          "name": "_fee",
          "type": "uint256"
        },
        {
          "internalType": "int256",
          "name": "_rentalFeeNumerator",
          "type": "int256"
        },
        {
          "internalType": "int256",
          "name": "_rentalFeeDenominator",
          "type": "int256"
        }
      ],
      "stateMutability": "nonpayable",
      "type": "constructor"
    },
    {
      "anonymous": false,
      "inputs": [
        {
          "indexed": true,
          "internalType": "address",
          "name": "owner",
          "type": "address"
        },
        {
          "indexed": true,
          "internalType": "address",
          "name": "approved",
          "type": "address"
        },
        {
          "indexed": true,
          "internalType": "uint256",
          "name": "tokenId",
          "type": "uint256"
        }
      ],
      "name": "Approval",
      "type": "event"
    },
    {
      "anonymous": false,
      "inputs": [
        {
          "indexed": true,
          "internalType": "address",
          "name": "owner",
          "type": "address"
        },
        {
          "indexed": true,
          "internalType": "address",
          "name": "operator",
          "type": "address"
        },
        {
          "indexed": false,
          "internalType": "bool",
          "name": "approved",
          "type": "bool"
        }
      ],
      "name": "ApprovalForAll",
      "type": "event"
    },
    {
      "anonymous": false,
      "inputs": [
        {
          "indexed": true,
          "internalType": "address",
          "name": "_to",
          "type": "address"
        },
        {
          "indexed": false,
          "internalType": "uint256",
          "name": "_value",
          "type": "uint256"
        }
      ],
      "name": "EtherWithdrawn",
      "type": "event"
    },
    {
      "anonymous": false,
      "inputs": [
        {
          "indexed": true,
          "internalType": "uint256",
          "name": "_tokenId",
          "type": "uint256"
        },
        {
          "indexed": true,
          "internalType": "address",
          "name": "_exhibitContractAddress",
          "type": "address"
        },
        {
          "indexed": false,
          "internalType": "uint256",
          "name": "_exhibitTokenId",
          "type": "uint256"
        }
      ],
      "name": "ExhibitSet",
      "type": "event"
    },
    {
      "anonymous": false,
      "inputs": [
        {
          "indexed": true,
          "internalType": "address",
          "name": "_to",
          "type": "address"
        },
        {
          "indexed": false,
          "internalType": "uint256",
          "name": "_value",
          "type": "uint256"
        }
      ],
      "name": "LinkWithdrawn",
      "type": "event"
    },
    {
      "anonymous": false,
      "inputs": [
        {
          "indexed": true,
          "internalType": "bytes32",
          "name": "_requestId",
          "type": "bytes32"
        },
        {
          "indexed": true,
          "internalType": "address",
          "name": "_address",
          "type": "address"
        },
        {
          "indexed": true,
          "internalType": "uint256",
          "name": "_tokenId",
          "type": "uint256"
        }
      ],
      "name": "MintFulfilled",
      "type": "event"
    },
    {
      "anonymous": false,
      "inputs": [
        {
          "indexed": true,
          "internalType": "bytes32",
          "name": "_requestId",
          "type": "bytes32"
        },
        {
          "indexed": true,
          "internalType": "address",
          "name": "_address",
          "type": "address"
        }
      ],
      "name": "MintRequest",
      "type": "event"
    },
    {
      "anonymous": false,
      "inputs": [
        {
          "indexed": false,
          "internalType": "address",
          "name": "account",
          "type": "address"
        }
      ],
      "name": "Paused",
      "type": "event"
    },
    {
      "anonymous": false,
      "inputs": [
        {
          "indexed": true,
          "internalType": "uint256",
          "name": "_tokenId",
          "type": "uint256"
        },
        {
          "indexed": true,
          "internalType": "address",
          "name": "_from",
          "type": "address"
        },
        {
          "indexed": false,
          "internalType": "uint256",
          "name": "_value",
          "type": "uint256"
        }
      ],
      "name": "RentalFeeCollectedFrom",
      "type": "event"
    },
    {
      "anonymous": false,
      "inputs": [
        {
          "indexed": false,
          "internalType": "int256",
          "name": "_oldNumerator",
          "type": "int256"
        },
        {
          "indexed": false,
          "internalType": "int256",
          "name": "_oldDenominator",
          "type": "int256"
        },
        {
          "indexed": false,
          "internalType": "int256",
          "name": "_newNumerator",
          "type": "int256"
        },
        {
          "indexed": false,
          "internalType": "int256",
          "name": "_newDenominator",
          "type": "int256"
        }
      ],
      "name": "RentalFeeUpdated",
      "type": "event"
    },
    {
      "anonymous": false,
      "inputs": [
        {
          "indexed": true,
          "internalType": "uint256",
          "name": "_tokenId",
          "type": "uint256"
        },
        {
          "indexed": true,
          "internalType": "address",
          "name": "_renter",
          "type": "address"
        },
        {
          "indexed": false,
          "internalType": "uint256",
          "name": "_rentalExpiryBlock",
          "type": "uint256"
        }
      ],
      "name": "RenterSet",
      "type": "event"
    },
    {
      "anonymous": false,
      "inputs": [
        {
          "indexed": true,
          "internalType": "bytes32",
          "name": "role",
          "type": "bytes32"
        },
        {
          "indexed": true,
          "internalType": "bytes32",
          "name": "previousAdminRole",
          "type": "bytes32"
        },
        {
          "indexed": true,
          "internalType": "bytes32",
          "name": "newAdminRole",
          "type": "bytes32"
        }
      ],
      "name": "RoleAdminChanged",
      "type": "event"
    },
    {
      "anonymous": false,
      "inputs": [
        {
          "indexed": true,
          "internalType": "bytes32",
          "name": "role",
          "type": "bytes32"
        },
        {
          "indexed": true,
          "internalType": "address",
          "name": "account",
          "type": "address"
        },
        {
          "indexed": true,
          "internalType": "address",
          "name": "sender",
          "type": "address"
        }
      ],
      "name": "RoleGranted",
      "type": "event"
    },
    {
      "anonymous": false,
      "inputs": [
        {
          "indexed": true,
          "internalType": "bytes32",
          "name": "role",
          "type": "bytes32"
        },
        {
          "indexed": true,
          "internalType": "address",
          "name": "account",
          "type": "address"
        },
        {
          "indexed": true,
          "internalType": "address",
          "name": "sender",
          "type": "address"
        }
      ],
      "name": "RoleRevoked",
      "type": "event"
    },
    {
      "anonymous": false,
      "inputs": [
        {
          "indexed": true,
          "internalType": "address",
          "name": "from",
          "type": "address"
        },
        {
          "indexed": true,
          "internalType": "address",
          "name": "to",
          "type": "address"
        },
        {
          "indexed": true,
          "internalType": "uint256",
          "name": "tokenId",
          "type": "uint256"
        }
      ],
      "name": "Transfer",
      "type": "event"
    },
    {
      "anonymous": false,
      "inputs": [
        {
          "indexed": false,
          "internalType": "address",
          "name": "account",
          "type": "address"
        }
      ],
      "name": "Unpaused",
      "type": "event"
    },
    {
      "inputs": [],
      "name": "DEFAULT_ADMIN_ROLE",
      "outputs": [
        {
          "internalType": "bytes32",
          "name": "",
          "type": "bytes32"
        }
      ],
      "stateMutability": "view",
      "type": "function"
    },
    {
      "inputs": [],
      "name": "MINTER_ROLE",
      "outputs": [
        {
          "internalType": "bytes32",
          "name": "",
          "type": "bytes32"
        }
      ],
      "stateMutability": "view",
      "type": "function"
    },
    {
      "inputs": [],
      "name": "PAUSER_ROLE",
      "outputs": [
        {
          "internalType": "bytes32",
          "name": "",
          "type": "bytes32"
        }
      ],
      "stateMutability": "view",
      "type": "function"
    },
    {
      "inputs": [],
      "name": "PRESALE_ROLE",
      "outputs": [
        {
          "internalType": "bytes32",
          "name": "",
          "type": "bytes32"
        }
      ],
      "stateMutability": "view",
      "type": "function"
    },
    {
      "inputs": [
        {
          "internalType": "uint256",
          "name": "",
          "type": "uint256"
        }
      ],
      "name": "_rentalPrices",
      "outputs": [
        {
          "internalType": "uint256",
          "name": "",
          "type": "uint256"
        }
      ],
      "stateMutability": "view",
      "type": "function"
    },
    {
      "inputs": [
        {
          "internalType": "address",
          "name": "to",
          "type": "address"
        },
        {
          "internalType": "uint256",
          "name": "tokenId",
          "type": "uint256"
        }
      ],
      "name": "approve",
      "outputs": [],
      "stateMutability": "nonpayable",
      "type": "function"
    },
    {
      "inputs": [
        {
          "internalType": "address",
          "name": "owner",
          "type": "address"
        }
      ],
      "name": "balanceOf",
      "outputs": [
        {
          "internalType": "uint256",
          "name": "",
          "type": "uint256"
        }
      ],
      "stateMutability": "view",
      "type": "function"
    },
    {
      "inputs": [
        {
          "internalType": "uint256",
          "name": "tokenId",
          "type": "uint256"
        }
      ],
      "name": "burn",
      "outputs": [],
      "stateMutability": "nonpayable",
      "type": "function"
    },
    {
      "inputs": [
        {
          "internalType": "uint256",
          "name": "_tokenId",
          "type": "uint256"
        },
        {
          "internalType": "uint256",
          "name": "_numberOfBlocks",
          "type": "uint256"
        }
      ],
      "name": "calculateRentalCost",
      "outputs": [
        {
          "internalType": "uint256",
          "name": "",
          "type": "uint256"
        }
      ],
      "stateMutability": "view",
      "type": "function"
    },
    {
      "inputs": [
        {
          "internalType": "uint256",
          "name": "_tokenId",
          "type": "uint256"
        }
      ],
      "name": "clearExhibit",
      "outputs": [],
      "stateMutability": "nonpayable",
      "type": "function"
    },
    {
      "inputs": [],
      "name": "contractURI",
      "outputs": [
        {
          "internalType": "string",
          "name": "",
          "type": "string"
        }
      ],
      "stateMutability": "view",
      "type": "function"
    },
    {
      "inputs": [
        {
          "internalType": "address",
          "name": "_exhibitor",
          "type": "address"
        },
        {
          "internalType": "address",
          "name": "_exhibitContractAddress",
          "type": "address"
        },
        {
          "internalType": "uint256",
          "name": "_exhibitTokenId",
          "type": "uint256"
        }
      ],
      "name": "exhibitIsOwnedBy",
      "outputs": [
        {
          "internalType": "bool",
          "name": "",
          "type": "bool"
        }
      ],
      "stateMutability": "view",
      "type": "function"
    },
    {
      "inputs": [
        {
          "internalType": "uint256",
          "name": "tokenId",
          "type": "uint256"
        }
      ],
      "name": "getApproved",
      "outputs": [
        {
          "internalType": "address",
          "name": "",
          "type": "address"
        }
      ],
      "stateMutability": "view",
      "type": "function"
    },
    {
      "inputs": [
        {
          "internalType": "enum Frame.Category",
          "name": "_category",
          "type": "uint8"
        }
      ],
      "name": "getCategoryDetail",
      "outputs": [
        {
          "internalType": "uint256",
          "name": "",
          "type": "uint256"
        },
        {
          "internalType": "uint256",
          "name": "",
          "type": "uint256"
        },
        {
          "internalType": "uint256",
          "name": "",
          "type": "uint256"
        },
        {
          "internalType": "uint256",
          "name": "",
          "type": "uint256"
        }
      ],
      "stateMutability": "view",
      "type": "function"
    },
    {
      "inputs": [
        {
          "internalType": "uint256",
          "name": "_tokenId",
          "type": "uint256"
        }
      ],
      "name": "getExhibit",
      "outputs": [
        {
          "components": [
            {
              "internalType": "address",
              "name": "contractAddress",
              "type": "address"
            },
            {
              "internalType": "uint256",
              "name": "tokenId",
              "type": "uint256"
            }
          ],
          "internalType": "struct IExhibitionable.Exhibit",
          "name": "",
          "type": "tuple"
        }
      ],
      "stateMutability": "view",
      "type": "function"
    },
    {
      "inputs": [
        {
          "internalType": "uint256",
          "name": "_tokenId",
          "type": "uint256"
        }
      ],
      "name": "getExhibitTokenURI",
      "outputs": [
        {
          "internalType": "string",
          "name": "",
          "type": "string"
        }
      ],
      "stateMutability": "view",
      "type": "function"
    },
    {
      "inputs": [
        {
          "internalType": "uint256",
          "name": "_tokenId",
          "type": "uint256"
        }
      ],
      "name": "getRentalPricePerBlock",
      "outputs": [
        {
          "internalType": "uint256",
          "name": "",
          "type": "uint256"
        }
      ],
      "stateMutability": "view",
      "type": "function"
    },
    {
      "inputs": [
        {
          "internalType": "uint256",
          "name": "_tokenId",
          "type": "uint256"
        }
      ],
      "name": "getRenter",
      "outputs": [
        {
          "components": [
            {
              "internalType": "address",
              "name": "renter",
              "type": "address"
            },
            {
              "internalType": "uint256",
              "name": "rentalExpiryBlock",
              "type": "uint256"
            }
          ],
          "internalType": "struct IRentable.Rental",
          "name": "",
          "type": "tuple"
        }
      ],
      "stateMutability": "view",
      "type": "function"
    },
    {
      "inputs": [
        {
          "internalType": "bytes32",
          "name": "role",
          "type": "bytes32"
        }
      ],
      "name": "getRoleAdmin",
      "outputs": [
        {
          "internalType": "bytes32",
          "name": "",
          "type": "bytes32"
        }
      ],
      "stateMutability": "view",
      "type": "function"
    },
    {
      "inputs": [
        {
          "internalType": "bytes32",
          "name": "role",
          "type": "bytes32"
        },
        {
          "internalType": "uint256",
          "name": "index",
          "type": "uint256"
        }
      ],
      "name": "getRoleMember",
      "outputs": [
        {
          "internalType": "address",
          "name": "",
          "type": "address"
        }
      ],
      "stateMutability": "view",
      "type": "function"
    },
    {
      "inputs": [
        {
          "internalType": "bytes32",
          "name": "role",
          "type": "bytes32"
        }
      ],
      "name": "getRoleMemberCount",
      "outputs": [
        {
          "internalType": "uint256",
          "name": "",
          "type": "uint256"
        }
      ],
      "stateMutability": "view",
      "type": "function"
    },
    {
      "inputs": [],
      "name": "getVersionNumber",
      "outputs": [
        {
          "internalType": "uint256",
          "name": "",
          "type": "uint256"
        },
        {
          "internalType": "uint256",
          "name": "",
          "type": "uint256"
        },
        {
          "internalType": "uint256",
          "name": "",
          "type": "uint256"
        },
        {
          "internalType": "uint256",
          "name": "",
          "type": "uint256"
        }
      ],
      "stateMutability": "pure",
      "type": "function"
    },
    {
      "inputs": [
        {
          "internalType": "bytes32",
          "name": "role",
          "type": "bytes32"
        },
        {
          "internalType": "address",
          "name": "account",
          "type": "address"
        }
      ],
      "name": "grantRole",
      "outputs": [],
      "stateMutability": "nonpayable",
      "type": "function"
    },
    {
      "inputs": [
        {
          "internalType": "bytes32",
          "name": "role",
          "type": "bytes32"
        },
        {
          "internalType": "address",
          "name": "account",
          "type": "address"
        }
      ],
      "name": "hasRole",
      "outputs": [
        {
          "internalType": "bool",
          "name": "",
          "type": "bool"
        }
      ],
      "stateMutability": "view",
      "type": "function"
    },
    {
      "inputs": [
        {
          "internalType": "address",
          "name": "owner",
          "type": "address"
        },
        {
          "internalType": "address",
          "name": "operator",
          "type": "address"
        }
      ],
      "name": "isApprovedForAll",
      "outputs": [
        {
          "internalType": "bool",
          "name": "",
          "type": "bool"
        }
      ],
      "stateMutability": "view",
      "type": "function"
    },
    {
      "inputs": [
        {
          "internalType": "uint256",
          "name": "_tokenId",
          "type": "uint256"
        }
      ],
      "name": "isCurrentlyRented",
      "outputs": [
        {
          "internalType": "bool",
          "name": "",
          "type": "bool"
        }
      ],
      "stateMutability": "view",
      "type": "function"
    },
    {
      "inputs": [
        {
          "internalType": "address",
          "name": "to",
          "type": "address"
        }
      ],
      "name": "mint",
      "outputs": [],
      "stateMutability": "nonpayable",
      "type": "function"
    },
    {
      "inputs": [
        {
          "internalType": "enum Frame.Category",
          "name": "_category",
          "type": "uint8"
        }
      ],
      "name": "mintFrame",
      "outputs": [],
      "stateMutability": "payable",
      "type": "function"
    },
    {
      "inputs": [],
      "name": "name",
      "outputs": [
        {
          "internalType": "string",
          "name": "",
          "type": "string"
        }
      ],
      "stateMutability": "view",
      "type": "function"
    },
    {
      "inputs": [
        {
          "internalType": "uint256",
          "name": "tokenId",
          "type": "uint256"
        }
      ],
      "name": "ownerOf",
      "outputs": [
        {
          "internalType": "address",
          "name": "",
          "type": "address"
        }
      ],
      "stateMutability": "view",
      "type": "function"
    },
    {
      "inputs": [],
      "name": "pause",
      "outputs": [],
      "stateMutability": "nonpayable",
      "type": "function"
    },
    {
      "inputs": [],
      "name": "paused",
      "outputs": [
        {
          "internalType": "bool",
          "name": "",
          "type": "bool"
        }
      ],
      "stateMutability": "view",
      "type": "function"
    },
    {
      "inputs": [
        {
          "internalType": "bytes32",
          "name": "requestId",
          "type": "bytes32"
        },
        {
          "internalType": "uint256",
          "name": "randomness",
          "type": "uint256"
        }
      ],
      "name": "rawFulfillRandomness",
      "outputs": [],
      "stateMutability": "nonpayable",
      "type": "function"
    },
    {
      "inputs": [
        {
          "internalType": "bytes32",
          "name": "role",
          "type": "bytes32"
        },
        {
          "internalType": "address",
          "name": "account",
          "type": "address"
        }
      ],
      "name": "renounceRole",
      "outputs": [],
      "stateMutability": "nonpayable",
      "type": "function"
    },
    {
      "inputs": [],
      "name": "rentalFeeDenominator",
      "outputs": [
        {
          "internalType": "int256",
          "name": "",
          "type": "int256"
        }
      ],
      "stateMutability": "view",
      "type": "function"
    },
    {
      "inputs": [],
      "name": "rentalFeeNumerator",
      "outputs": [
        {
          "internalType": "int256",
          "name": "",
          "type": "int256"
        }
      ],
      "stateMutability": "view",
      "type": "function"
    },
    {
      "inputs": [
        {
          "internalType": "bytes32",
          "name": "",
          "type": "bytes32"
        }
      ],
      "name": "requestIdToCategory",
      "outputs": [
        {
          "internalType": "enum Frame.Category",
          "name": "",
          "type": "uint8"
        }
      ],
      "stateMutability": "view",
      "type": "function"
    },
    {
      "inputs": [
        {
          "internalType": "bytes32",
          "name": "",
          "type": "bytes32"
        }
      ],
      "name": "requestIdToSender",
      "outputs": [
        {
          "internalType": "address",
          "name": "",
          "type": "address"
        }
      ],
      "stateMutability": "view",
      "type": "function"
    },
    {
      "inputs": [
        {
          "internalType": "bytes32",
          "name": "",
          "type": "bytes32"
        }
      ],
      "name": "requestIdToTokenId",
      "outputs": [
        {
          "internalType": "uint256",
          "name": "",
          "type": "uint256"
        }
      ],
      "stateMutability": "view",
      "type": "function"
    },
    {
      "inputs": [
        {
          "internalType": "bytes32",
          "name": "role",
          "type": "bytes32"
        },
        {
          "internalType": "address",
          "name": "account",
          "type": "address"
        }
      ],
      "name": "revokeRole",
      "outputs": [],
      "stateMutability": "nonpayable",
      "type": "function"
    },
    {
      "inputs": [
        {
          "internalType": "address",
          "name": "from",
          "type": "address"
        },
        {
          "internalType": "address",
          "name": "to",
          "type": "address"
        },
        {
          "internalType": "uint256",
          "name": "tokenId",
          "type": "uint256"
        }
      ],
      "name": "safeTransferFrom",
      "outputs": [],
      "stateMutability": "nonpayable",
      "type": "function"
    },
    {
      "inputs": [
        {
          "internalType": "address",
          "name": "from",
          "type": "address"
        },
        {
          "internalType": "address",
          "name": "to",
          "type": "address"
        },
        {
          "internalType": "uint256",
          "name": "tokenId",
          "type": "uint256"
        },
        {
          "internalType": "bytes",
          "name": "_data",
          "type": "bytes"
        }
      ],
      "name": "safeTransferFrom",
      "outputs": [],
      "stateMutability": "nonpayable",
      "type": "function"
    },
    {
      "inputs": [
        {
          "internalType": "address",
          "name": "operator",
          "type": "address"
        },
        {
          "internalType": "bool",
          "name": "approved",
          "type": "bool"
        }
      ],
      "name": "setApprovalForAll",
      "outputs": [],
      "stateMutability": "nonpayable",
      "type": "function"
    },
    {
      "inputs": [
        {
          "internalType": "enum Frame.Category",
          "name": "_category",
          "type": "uint8"
        },
        {
          "internalType": "uint256",
          "name": "_price",
          "type": "uint256"
        },
        {
          "internalType": "uint256",
          "name": "_startingTokenId",
          "type": "uint256"
        },
        {
          "internalType": "uint256",
          "name": "_supply",
          "type": "uint256"
        }
      ],
      "name": "setCategoryDetail",
      "outputs": [],
      "stateMutability": "nonpayable",
      "type": "function"
    },
    {
      "inputs": [
        {
          "internalType": "uint256",
          "name": "_tokenId",
          "type": "uint256"
        },
        {
          "internalType": "address",
          "name": "_exhibitContractAddress",
          "type": "address"
        },
        {
          "internalType": "uint256",
          "name": "_exhibitTokenId",
          "type": "uint256"
        }
      ],
      "name": "setExhibit",
      "outputs": [],
      "stateMutability": "nonpayable",
      "type": "function"
    },
    {
      "inputs": [
        {
          "internalType": "int256",
          "name": "_numerator",
          "type": "int256"
        },
        {
          "internalType": "int256",
          "name": "_denominator",
          "type": "int256"
        }
      ],
      "name": "setRentalFee",
      "outputs": [],
      "stateMutability": "nonpayable",
      "type": "function"
    },
    {
      "inputs": [
        {
          "internalType": "uint256",
          "name": "_tokenId",
          "type": "uint256"
        },
        {
          "internalType": "uint256",
          "name": "_rentalPrice",
          "type": "uint256"
        }
      ],
      "name": "setRentalPricePerBlock",
      "outputs": [],
      "stateMutability": "nonpayable",
      "type": "function"
    },
    {
      "inputs": [
        {
          "internalType": "uint256",
          "name": "_tokenId",
          "type": "uint256"
        },
        {
          "internalType": "address",
          "name": "_renter",
          "type": "address"
        },
        {
          "internalType": "uint256",
          "name": "_numberOfBlocks",
          "type": "uint256"
        }
      ],
      "name": "setRenter",
      "outputs": [],
      "stateMutability": "payable",
      "type": "function"
    },
    {
      "inputs": [
        {
          "internalType": "enum Frame.SaleStatus",
          "name": "_status",
          "type": "uint8"
        }
      ],
      "name": "setSaleStatus",
      "outputs": [],
      "stateMutability": "nonpayable",
      "type": "function"
    },
    {
      "inputs": [
        {
          "internalType": "bytes4",
          "name": "interfaceId",
          "type": "bytes4"
        }
      ],
      "name": "supportsInterface",
      "outputs": [
        {
          "internalType": "bool",
          "name": "",
          "type": "bool"
        }
      ],
      "stateMutability": "view",
      "type": "function"
    },
    {
      "inputs": [],
      "name": "symbol",
      "outputs": [
        {
          "internalType": "string",
          "name": "",
          "type": "string"
        }
      ],
      "stateMutability": "view",
      "type": "function"
    },
    {
      "inputs": [
        {
          "internalType": "uint256",
          "name": "index",
          "type": "uint256"
        }
      ],
      "name": "tokenByIndex",
      "outputs": [
        {
          "internalType": "uint256",
          "name": "",
          "type": "uint256"
        }
      ],
      "stateMutability": "view",
      "type": "function"
    },
    {
      "inputs": [
        {
          "internalType": "uint256",
          "name": "_tokenId",
          "type": "uint256"
        },
        {
          "internalType": "address",
          "name": "_address",
          "type": "address"
        }
      ],
      "name": "tokenIsRentedByAddress",
      "outputs": [
        {
          "internalType": "bool",
          "name": "",
          "type": "bool"
        }
      ],
      "stateMutability": "view",
      "type": "function"
    },
    {
      "inputs": [
        {
          "internalType": "address",
          "name": "owner",
          "type": "address"
        },
        {
          "internalType": "uint256",
          "name": "index",
          "type": "uint256"
        }
      ],
      "name": "tokenOfOwnerByIndex",
      "outputs": [
        {
          "internalType": "uint256",
          "name": "",
          "type": "uint256"
        }
      ],
      "stateMutability": "view",
      "type": "function"
    },
    {
      "inputs": [
        {
          "internalType": "uint256",
          "name": "tokenId",
          "type": "uint256"
        }
      ],
      "name": "tokenURI",
      "outputs": [
        {
          "internalType": "string",
          "name": "",
          "type": "string"
        }
      ],
      "stateMutability": "view",
      "type": "function"
    },
    {
      "inputs": [],
      "name": "totalSupply",
      "outputs": [
        {
          "internalType": "uint256",
          "name": "",
          "type": "uint256"
        }
      ],
      "stateMutability": "view",
      "type": "function"
    },
    {
      "inputs": [
        {
          "internalType": "address",
          "name": "from",
          "type": "address"
        },
        {
          "internalType": "address",
          "name": "to",
          "type": "address"
        },
        {
          "internalType": "uint256",
          "name": "tokenId",
          "type": "uint256"
        }
      ],
      "name": "transferFrom",
      "outputs": [],
      "stateMutability": "nonpayable",
      "type": "function"
    },
    {
      "inputs": [],
      "name": "unpause",
      "outputs": [],
      "stateMutability": "nonpayable",
      "type": "function"
    },
    {
      "inputs": [
        {
          "internalType": "address payable",
          "name": "_to",
          "type": "address"
        }
      ],
      "name": "withdrawAllLink",
      "outputs": [],
      "stateMutability": "nonpayable",
      "type": "function"
    },
    {
      "inputs": [
        {
          "internalType": "address payable",
          "name": "_to",
          "type": "address"
        },
        {
          "internalType": "uint256",
          "name": "_value",
          "type": "uint256"
        }
      ],
      "name": "withdrawEther",
      "outputs": [],
      "stateMutability": "nonpayable",
      "type": "function"
    }
  ],
  "transactionHash": "0x12cdc39c0278ba2bc9eae94da625407a9eb9465fc7f8c52f0e052a71f871531d",
  "args": [
    "Frame",
    "FRAME",
    "ipfs://QmfSqrM4qmm1wiVnoCyrtuewzk8CL733cfdyg4RrARPH79/",
    "https://musee-dezental.com/storefront",
    "0xb3dCcb4Cf7a26f6cf6B120Cf5A73875B7BBc655B",
    "0x01BE23585060835E02B77ef475b0Cc51aA1e0709",
    "0x2ed0feb3e7fd2022120aa84fab1945545a9f2ffc9076fd6156fa96eaff4c1311",
    "100000000000000000",
    "50",
    "1000"
  ],
  "solcInputHash": "34f2a6df41bf538361904905b2a8cfb9",
  "bytecode": "0x60c060405267016345785d8a0000601955601a805460ff191690556032601b556103e8601c553480156200003257600080fd5b506040516200592f3803806200592f833981016040819052620000559162000899565b85858b8b8b8282600160008190555081600690805190602001906200007c929190620006b2565b50805162000092906007906020840190620006b2565b50506010805460ff19169055508051620000b4906012906020840190620006b2565b50620000c260003362000272565b620000ee7f9f2df0fed2c77648de5860a4cc508cd0818c85b8b8a1ab4ceeef8d981c8956a63362000272565b6200011a7f65d7a28e3265b37a6474929f336521b332c1681b933f6cb9f3376673440d862a3362000272565b5050506001600160601b0319606092831b811660a052911b1660805286516200014b90601d9060208a0190620006b2565b50826019819055508360188190555081601b8190555080601c81905550600073C4764e05Edc0D7a2Dd90fE0E922987E3C16dBd3163a7cd63b76040518163ffffffff1660e01b8152600401610fc06040518083038186803b158015620001b057600080fd5b505af4158015620001c5573d6000803e3d6000fd5b505050506040513d601f19601f82011682018060405250810190620001eb919062000804565b905060005b607e81101562000260576200024b7f6a4b509b5f306a69ec99e97ff6b166daad9c0a3dfce739a6d67ad1c57143a6b28383607e81106200024057634e487b7160e01b600052603260045260246000fd5b6020020151620002b5565b80620002578162000b10565b915050620001f0565b50505050505050505050505062000b5a565b620002898282620002cc60201b620028061760201c565b6000828152600560209081526040909120620002b091839062002810620002dc821b17901c565b505050565b620002898282620002fc60201b620028251760201c565b620002d8828262000321565b5050565b6000620002f3836001600160a01b038416620003c5565b90505b92915050565b6000828152600460205260409020600101546200031a813362000417565b620002b083835b60008281526004602090815260408083206001600160a01b038516845290915290205460ff16620002d85760008281526004602090815260408083206001600160a01b03851684529091529020805460ff19166001179055620003813390565b6001600160a01b0316816001600160a01b0316837f2f8788117e7eff1d82e926ec794901d17c78024a50270940304540a733656f0d60405160405180910390a45050565b60008181526001830160205260408120546200040e57508154600181810184556000848152602080822090930184905584548482528286019093526040902091909155620002f6565b506000620002f6565b60008281526004602090815260408083206001600160a01b038516845290915290205460ff16620002d85762000463816001600160a01b03166014620004bd60201b6200284b1760201c565b620004798360206200284b620004bd821b17811c565b6040516020016200048c9291906200099b565b60408051601f198184030181529082905262461bcd60e51b8252620004b49160040162000a14565b60405180910390fd5b60606000620004ce83600262000a64565b620004db90600262000a49565b6001600160401b038111156200050157634e487b7160e01b600052604160045260246000fd5b6040519080825280601f01601f1916602001820160405280156200052c576020820181803683370190505b509050600360fc1b816000815181106200055657634e487b7160e01b600052603260045260246000fd5b60200101906001600160f81b031916908160001a905350600f60fb1b816001815181106200059457634e487b7160e01b600052603260045260246000fd5b60200101906001600160f81b031916908160001a9053506000620005ba84600262000a64565b620005c790600162000a49565b90505b600181111562000661576f181899199a1a9b1b9c1cb0b131b232b360811b85600f16601081106200060b57634e487b7160e01b600052603260045260246000fd5b1a60f81b8282815181106200063057634e487b7160e01b600052603260045260246000fd5b60200101906001600160f81b031916908160001a90535060049490941c93620006598162000ab9565b9050620005ca565b508315620002f35760405162461bcd60e51b815260206004820181905260248201527f537472696e67733a20686578206c656e67746820696e73756666696369656e746044820152606401620004b4565b828054620006c09062000ad3565b90600052602060002090601f016020900481019282620006e457600085556200072f565b82601f10620006ff57805160ff19168380011785556200072f565b828001600101855582156200072f579182015b828111156200072f57825182559160200191906001019062000712565b506200073d92915062000741565b5090565b5b808211156200073d576000815560010162000742565b80516001600160a01b03811681146200077057600080fd5b919050565b600082601f83011262000786578081fd5b81516001600160401b0380821115620007a357620007a362000b44565b604051601f8301601f19908116603f01168101908282118183101715620007ce57620007ce62000b44565b81604052838152866020858801011115620007e7578485fd5b620007fa84602083016020890162000a86565b9695505050505050565b6000610fc080838503121562000818578182fd5b83601f84011262000827578182fd5b6040518181016001600160401b03811182821017156200084b576200084b62000b44565b60405280848381018710156200085f578485fd5b8493505b607e8410156200088e57620008788162000758565b8252600193909301926020918201910162000863565b509095945050505050565b6000806000806000806000806000806101408b8d031215620008b9578586fd5b8a516001600160401b0380821115620008d0578788fd5b620008de8e838f0162000775565b9b5060208d0151915080821115620008f4578788fd5b620009028e838f0162000775565b9a5060408d015191508082111562000918578788fd5b620009268e838f0162000775565b995060608d01519150808211156200093c578788fd5b506200094b8d828e0162000775565b9750506200095c60808c0162000758565b95506200096c60a08c0162000758565b945060c08b0151935060e08b015192506101008b015191506101208b015190509295989b9194979a5092959850565b7f416363657373436f6e74726f6c3a206163636f756e7420000000000000000000815260008351620009d581601785016020880162000a86565b7001034b99036b4b9b9b4b733903937b6329607d1b601791840191820152835162000a0881602884016020880162000a86565b01602801949350505050565b602081526000825180602084015262000a3581604085016020870162000a86565b601f01601f19169190910160400192915050565b6000821982111562000a5f5762000a5f62000b2e565b500190565b600081600019048311821515161562000a815762000a8162000b2e565b500290565b60005b8381101562000aa357818101518382015260200162000a89565b8381111562000ab3576000848401525b50505050565b60008162000acb5762000acb62000b2e565b506000190190565b600181811c9082168062000ae857607f821691505b6020821081141562000b0a57634e487b7160e01b600052602260045260246000fd5b50919050565b600060001982141562000b275762000b2762000b2e565b5060010190565b634e487b7160e01b600052601160045260246000fd5b634e487b7160e01b600052604160045260246000fd5b60805160601c60a05160601c614d8d62000ba260003960008181611c7e01526136e60152600081816117a00152818161184b015281816120ec01526136b70152614d8d6000f3fe6080604052600436106103975760003560e01c806369087819116101dc578063a217fddf11610102578063d057d24c116100a0578063e8a3d4851161006f578063e8a3d48514610b74578063e985e9c514610b89578063eb155e3114610bd2578063fc1560b714610bf257600080fd5b8063d057d24c14610a8a578063d539139314610aec578063d547741f14610b20578063e63ab1e914610b4057600080fd5b8063a9c934f0116100dc578063a9c934f014610a17578063b88d4fde14610a2a578063c87b56dd14610a4a578063ca15c87314610a6a57600080fd5b8063a217fddf146109a5578063a22cb465146109ba578063a3e5cb51146109da57600080fd5b80638456cb591161017a5780639326197a116101495780639326197a1461090f57806394985ddd1461094357806395d89b411461096357806396eb80961461097857600080fd5b80638456cb591461089a578063893e5544146108af5780639010d07c146108cf57806391d14854146108ef57600080fd5b806370a08231116101b657806370a082311461081a5780637e70f7cc1461083a5780637eaf76591461085a578063817d32d01461087a57600080fd5b806369087819146107ba578063690e4bed146107da5780636a627842146107fa57600080fd5b806333a9dbe7116102c15780634891ad881161025f57806354255be01161022e57806354255be014610737578063595ef0181461076c5780635c975abb146107825780636352211e1461079a57600080fd5b80634891ad88146106b75780634dd15481146106d75780634f6ccce7146106f7578063522f68151461071757600080fd5b80633f4ba83a1161029b5780633f4ba83a1461064257806342842e0e1461065757806342966c68146106775780634684c6111461069757600080fd5b806333a9dbe7146105ec57806336568abe146106025780633db07cb81461062257600080fd5b8063219c0eee116103395780632f2ff15d116103085780632f2ff15d1461055f5780632f745c591461057f5780633007a2fa1461059f5780633009c19b146105bf57600080fd5b8063219c0eee146104ac57806322881f88146104e257806323b872dd1461050f578063248a9ca31461052f57600080fd5b8063095ea7b311610375578063095ea7b31461042b57806309acea491461044d57806318160ddd1461046d578063213a42341461048c57600080fd5b806301ffc9a71461039c57806306fdde03146103d1578063081812fc146103f3575b600080fd5b3480156103a857600080fd5b506103bc6103b7366004614703565b610c05565b60405190151581526020015b60405180910390f35b3480156103dd57600080fd5b506103e6610c16565b6040516103c891906149b9565b3480156103ff57600080fd5b5061041361040e3660046146a6565b610ca8565b6040516001600160a01b0390911681526020016103c8565b34801561043757600080fd5b5061044b610446366004614678565b610d35565b005b34801561045957600080fd5b5061044b6104683660046146a6565b610e4b565b34801561047957600080fd5b50600e545b6040519081526020016103c8565b34801561049857600080fd5b5061044b6104a7366004614755565b610eb6565b3480156104b857600080fd5b506104136104c73660046146a6565b6015602052600090815260409020546001600160a01b031681565b3480156104ee57600080fd5b5061047e6104fd3660046146a6565b60176020526000908152604090205481565b34801561051b57600080fd5b5061044b61052a366004614564565b611004565b34801561053b57600080fd5b5061047e61054a3660046146a6565b60009081526004602052604090206001015490565b34801561056b57600080fd5b5061044b61057a3660046146be565b611036565b34801561058b57600080fd5b5061047e61059a366004614678565b611058565b3480156105ab57600080fd5b506103bc6105ba3660046146be565b6110ee565b3480156105cb57600080fd5b506105df6105da3660046146a6565b611101565b6040516103c89190614b54565b3480156105f857600080fd5b5061047e601c5481565b34801561060e57600080fd5b5061044b61061d3660046146be565b61111e565b34801561062e57600080fd5b506103bc61063d366004614564565b611140565b34801561064e57600080fd5b5061044b611183565b34801561066357600080fd5b5061044b610672366004614564565b61122b565b34801561068357600080fd5b5061044b6106923660046146a6565b611246565b3480156106a357600080fd5b5061044b6106b2366004614837565b6112c0565b3480156106c357600080fd5b5061044b6106d236600461478d565b611409565b3480156106e357600080fd5b5061044b6106f23660046146e2565b611467565b34801561070357600080fd5b5061047e6107123660046146a6565b6114f0565b34801561072357600080fd5b5061044b610732366004614501565b611591565b34801561074357600080fd5b50600160006002825b6040805194855260208501939093529183015260608201526080016103c8565b34801561077857600080fd5b5061047e601b5481565b34801561078e57600080fd5b5060105460ff166103bc565b3480156107a657600080fd5b506104136107b53660046146a6565b611638565b3480156107c657600080fd5b5061044b6107d53660046146e2565b6116af565b3480156107e657600080fd5b5061044b6107f53660046144c9565b611739565b34801561080657600080fd5b5061044b6108153660046144c9565b611950565b34801561082657600080fd5b5061047e6108353660046144c9565b611a0c565b34801561084657600080fd5b5061047e6108553660046146a6565b611a93565b34801561086657600080fd5b506103bc6108753660046146a6565b611aa7565b34801561088657600080fd5b5061074c61089536600461473b565b611add565b3480156108a657600080fd5b5061044b611b72565b3480156108bb57600080fd5b5061047e6108ca3660046146e2565b611c16565b3480156108db57600080fd5b506104136108ea3660046146e2565b611c30565b3480156108fb57600080fd5b506103bc61090a3660046146be565b611c48565b34801561091b57600080fd5b5061047e7f6a4b509b5f306a69ec99e97ff6b166daad9c0a3dfce739a6d67ad1c57143a6b281565b34801561094f57600080fd5b5061044b61095e3660046146e2565b611c73565b34801561096f57600080fd5b506103e6611cf9565b34801561098457600080fd5b5061047e6109933660046146a6565b60016020526000908152604090205481565b3480156109b157600080fd5b5061047e600081565b3480156109c657600080fd5b5061044b6109d536600461464b565b611d08565b3480156109e657600080fd5b50610a0a6109f53660046146a6565b60166020526000908152604090205460ff1681565b6040516103c89190614991565b61044b610a2536600461473b565b611dcd565b348015610a3657600080fd5b5061044b610a453660046145a4565b612257565b348015610a5657600080fd5b506103e6610a653660046146a6565b61228f565b348015610a7657600080fd5b5061047e610a853660046146a6565b612359565b348015610a9657600080fd5b506105df610aa53660046146a6565b604080518082019091526000808252602082015250600090815260036020908152604091829020825180840190935280546001600160a01b03168352600101549082015290565b348015610af857600080fd5b5061047e7f9f2df0fed2c77648de5860a4cc508cd0818c85b8b8a1ab4ceeef8d981c8956a681565b348015610b2c57600080fd5b5061044b610b3b3660046146be565b612370565b348015610b4c57600080fd5b5061047e7f65d7a28e3265b37a6474929f336521b332c1681b933f6cb9f3376673440d862a81565b348015610b8057600080fd5b506103e661237a565b348015610b9557600080fd5b506103bc610ba436600461452c565b6001600160a01b039182166000908152600b6020908152604080832093909416825291909152205460ff1690565b348015610bde57600080fd5b506103e6610bed3660046146a6565b612408565b61044b610c00366004614837565b612565565b6000610c1082612a2d565b92915050565b606060068054610c2590614c72565b80601f0160208091040260200160405190810160405280929190818152602001828054610c5190614c72565b8015610c9e5780601f10610c7357610100808354040283529160200191610c9e565b820191906000526020600020905b815481529060010190602001808311610c8157829003601f168201915b5050505050905090565b6000610cb382612a52565b610d195760405162461bcd60e51b815260206004820152602c60248201527f4552433732313a20617070726f76656420717565727920666f72206e6f6e657860448201526b34b9ba32b73a103a37b5b2b760a11b60648201526084015b60405180910390fd5b506000908152600a60205260409020546001600160a01b031690565b6000610d4082611638565b9050806001600160a01b0316836001600160a01b03161415610dae5760405162461bcd60e51b815260206004820152602160248201527f4552433732313a20617070726f76616c20746f2063757272656e74206f776e656044820152603960f91b6064820152608401610d10565b336001600160a01b0382161480610dca5750610dca8133610ba4565b610e3c5760405162461bcd60e51b815260206004820152603860248201527f4552433732313a20617070726f76652063616c6c6572206973206e6f74206f7760448201527f6e6572206e6f7220617070726f76656420666f7220616c6c00000000000000006064820152608401610d10565b610e468383612a6f565b505050565b80610e5581612a52565b610e715760405162461bcd60e51b8152600401610d1090614a1e565b60026000541415610e945760405162461bcd60e51b8152600401610d1090614b1d565b6002600055610ea33383612add565b50610ead82612c00565b50506001600055565b33610ec2600082611c48565b610ede5760405162461bcd60e51b8152600401610d1090614a6a565b84600a81600a811115610f0157634e487b7160e01b600052602160045260246000fd5b1115610f1f5760405162461bcd60e51b8152600401610d1090614ae6565b600081600a811115610f4157634e487b7160e01b600052602160045260246000fd5b1015610f5f5760405162461bcd60e51b8152600401610d1090614ae6565b60006014600088600a811115610f8557634e487b7160e01b600052602160045260246000fd5b600a811115610fa457634e487b7160e01b600052602160045260246000fd5b8152602081019190915260400160002086815560018101869055600281018590559050845b610fd38587614bcd565b811015610ffa57610fe76003830182612c0c565b5080610ff281614cad565b915050610fc9565b5050505050505050565b61100f335b82612c18565b61102b5760405162461bcd60e51b8152600401610d1090614a95565b610e46838383612cb9565b6110408282612825565b6000828152600560205260409020610e469082612810565b600061106383611a0c565b82106110c55760405162461bcd60e51b815260206004820152602b60248201527f455243373231456e756d657261626c653a206f776e657220696e646578206f7560448201526a74206f6620626f756e647360a81b6064820152608401610d10565b506001600160a01b03919091166000908152600c60209081526040808320938352929052205490565b60006110fa8383612e64565b9392505050565b6040805180820190915260008082526020820152610c1082612e89565b6111288282612ed0565b6000828152600560205260409020610e469082612f4a565b60008061114c84612f5f565b1561115f5761115c858585612fe1565b90505b6111688461307d565b1561117b576111788585856130b3565b90505b949350505050565b6111ad7f65d7a28e3265b37a6474929f336521b332c1681b933f6cb9f3376673440d862a33611c48565b611221576040805162461bcd60e51b81526020600482015260248101919091527f4552433732315072657365744d696e7465725061757365724175746f49643a2060448201527f6d75737420686176652070617573657220726f6c6520746f20756e70617573656064820152608401610d10565b61122961313f565b565b610e4683838360405180602001604052806000815250612257565b61124f33611009565b6112b45760405162461bcd60e51b815260206004820152603060248201527f4552433732314275726e61626c653a2063616c6c6572206973206e6f74206f7760448201526f1b995c881b9bdc88185c1c1c9bdd995960821b6064820152608401610d10565b6112bd816131d2565b50565b826112ca81612a52565b6112e65760405162461bcd60e51b8152600401610d1090614a1e565b336040516307b60f9760e31b81526001600160a01b0380831660048301528516602482015260448101849052849084903090633db07cb89060640160206040518083038186803b15801561133957600080fd5b505afa15801561134d573d6000803e3d6000fd5b505050506040513d601f19601f82011682018060405250810190611371919061468a565b6113bd5760405162461bcd60e51b815260206004820152601860248201527f4672616d653a2045786869626974206e6f742076616c696400000000000000006044820152606401610d10565b600260005414156113e05760405162461bcd60e51b8152600401610d1090614b1d565b60026000556113ef3388612add565b506113fb878787613279565b505060016000555050505050565b33611415600082611c48565b6114315760405162461bcd60e51b8152600401610d1090614a6a565b601a805483919060ff1916600183600281111561145e57634e487b7160e01b600052602160045260246000fd5b02179055505050565b33611473600082611c48565b61148f5760405162461bcd60e51b8152600401610d1090614a6a565b601b8054601c8054928690558490556040805182815260208101849052908101869052606081018590529091907fc2ac79bee6d1ed17598c0a9e971d185df3f02d421356e70c34d4f4855f4983379060800160405180910390a15050505050565b60006114fb600e5490565b821061155e5760405162461bcd60e51b815260206004820152602c60248201527f455243373231456e756d657261626c653a20676c6f62616c20696e646578206f60448201526b7574206f6620626f756e647360a01b6064820152608401610d10565b600e828154811061157f57634e487b7160e01b600052603260045260246000fd5b90600052602060002001549050919050565b3361159d600082611c48565b6115b95760405162461bcd60e51b8152600401610d1090614a6a565b600260005414156115dc5760405162461bcd60e51b8152600401610d1090614b1d565b60026000556115eb83836132e9565b826001600160a01b03167f06097061aeda806b5e9cb4133d9899f332ff0913956567fc0f7ea15e3d19947c8360405161162691815260200190565b60405180910390a25050600160005550565b6000818152600860205260408120546001600160a01b031680610c105760405162461bcd60e51b815260206004820152602960248201527f4552433732313a206f776e657220717565727920666f72206e6f6e657869737460448201526832b73a103a37b5b2b760b91b6064820152608401610d10565b816116b981612a52565b6116d55760405162461bcd60e51b8152600401610d1090614a1e565b82336116e1828261338c565b6117245760405162461bcd60e51b8152602060048201526014602482015273233930b6b29d102737ba103a34329027bbb732b960611b6044820152606401610d10565b50505060009182526001602052604090912055565b33611745600082611c48565b6117615760405162461bcd60e51b8152600401610d1090614a6a565b600260005414156117845760405162461bcd60e51b8152600401610d1090614b1d565b600260009081556040516370a0823160e01b81523060048201527f00000000000000000000000000000000000000000000000000000000000000006001600160a01b0316906370a082319060240160206040518083038186803b1580156117ea57600080fd5b505afa1580156117fe573d6000803e3d6000fd5b505050506040513d601f19601f82011682018060405250810190611822919061481f565b60405163a9059cbb60e01b81526001600160a01b038581166004830152602482018390529192507f00000000000000000000000000000000000000000000000000000000000000009091169063a9059cbb90604401602060405180830381600087803b15801561189157600080fd5b505af11580156118a5573d6000803e3d6000fd5b505050506040513d601f19601f820116820180604052508101906118c9919061468a565b6119155760405162461bcd60e51b815260206004820152601960248201527f4672616d653a204572726f722073656e64696e67204c494e4b000000000000006044820152606401610d10565b826001600160a01b03167fcb1436249a1dd8cf93362c28d79a4e20dc54398b6c49e30316e8396e72a584b08260405161162691815260200190565b61197a7f9f2df0fed2c77648de5860a4cc508cd0818c85b8b8a1ab4ceeef8d981c8956a633611c48565b6119ec5760405162461bcd60e51b815260206004820152603d60248201527f4552433732315072657365744d696e7465725061757365724175746f49643a2060448201527f6d7573742068617665206d696e74657220726f6c6520746f206d696e740000006064820152608401610d10565b6119fe816119f960115490565b6133b3565b6112bd601180546001019055565b60006001600160a01b038216611a775760405162461bcd60e51b815260206004820152602a60248201527f4552433732313a2062616c616e636520717565727920666f7220746865207a65604482015269726f206164647265737360b01b6064820152608401610d10565b506001600160a01b031660009081526009602052604090205490565b600081815260016020526040812054610c10565b6000818152600260209081526040808320815180830190925280546001600160a01b031682526001015491018190524310610c10565b60008060008060006014600087600a811115611b0957634e487b7160e01b600052602160045260246000fd5b600a811115611b2857634e487b7160e01b600052602160045260246000fd5b815260200190815260200160002090506000611b46826003016134f2565b8260020154611b559190614c18565b825460018401546002909401549099939850965094509092505050565b611b9c7f65d7a28e3265b37a6474929f336521b332c1681b933f6cb9f3376673440d862a33611c48565b611c0e5760405162461bcd60e51b815260206004820152603e60248201527f4552433732315072657365744d696e7465725061757365724175746f49643a2060448201527f6d75737420686176652070617573657220726f6c6520746f20706175736500006064820152608401610d10565b6112296134fc565b6000828152600160205260408120546110fa908390614bf9565b60008281526005602052604081206110fa9083613577565b60009182526004602090815260408084206001600160a01b0393909316845291905290205460ff1690565b336001600160a01b037f00000000000000000000000000000000000000000000000000000000000000001614611ceb5760405162461bcd60e51b815260206004820152601f60248201527f4f6e6c7920565246436f6f7264696e61746f722063616e2066756c66696c6c006044820152606401610d10565b611cf58282613583565b5050565b606060078054610c2590614c72565b6001600160a01b038216331415611d615760405162461bcd60e51b815260206004820152601960248201527f4552433732313a20617070726f766520746f2063616c6c6572000000000000006044820152606401610d10565b336000818152600b602090815260408083206001600160a01b03871680855290835292819020805460ff191686151590811790915590519081529192917f17307eab39ab6107e8899845ad3d59bd9653f200f220920489ca2b5937696c31910160405180910390a35050565b6000601a5460ff166002811115611df457634e487b7160e01b600052602160045260246000fd5b1415611e425760405162461bcd60e51b815260206004820152601c60248201527f4672616d653a204d696e74696e67206e6f7420617661696c61626c65000000006044820152606401610d10565b80600a81600a811115611e6557634e487b7160e01b600052602160045260246000fd5b1115611e835760405162461bcd60e51b8152600401610d1090614ae6565b600081600a811115611ea557634e487b7160e01b600052602160045260246000fd5b1015611ec35760405162461bcd60e51b8152600401610d1090614ae6565b60026000541415611ee65760405162461bcd60e51b8152600401610d1090614b1d565b600260005560105460ff1615611f315760405162461bcd60e51b815260206004820152601060248201526f14185d5cd8589b194e881c185d5cd95960821b6044820152606401610d10565b6001601a5460ff166002811115611f5857634e487b7160e01b600052602160045260246000fd5b1415611fd457611f887f6a4b509b5f306a69ec99e97ff6b166daad9c0a3dfce739a6d67ad1c57143a6b233611c48565b611fd45760405162461bcd60e51b815260206004820152601a60248201527f4672616d653a2041646472657373206e6f74206f6e206c6973740000000000006044820152606401610d10565b60006014600084600a811115611ffa57634e487b7160e01b600052602160045260246000fd5b600a81111561201957634e487b7160e01b600052602160045260246000fd5b815260200190815260200160002090506000612037826003016134f2565b116120765760405162461bcd60e51b815260206004820152600f60248201526e119c985b594e8814dbdb19081bdd5d608a1b6044820152606401610d10565b805434146120d45760405162461bcd60e51b815260206004820152602560248201527f4672616d653a20496e636f7272656374207061796d656e7420666f722063617460448201526465676f727960d81b6064820152608401610d10565b6019546040516370a0823160e01b81523060048201527f00000000000000000000000000000000000000000000000000000000000000006001600160a01b0316906370a082319060240160206040518083038186803b15801561213657600080fd5b505afa15801561214a573d6000803e3d6000fd5b505050506040513d601f19601f8201168201806040525081019061216e919061481f565b10156121b55760405162461bcd60e51b81526020600482015260166024820152754672616d653a204e6f7420656e6f756768204c494e4b60501b6044820152606401610d10565b60006121c56018546019546136b3565b600081815260156020908152604080832080546001600160a01b03191633179055601690915290208054919250859160ff1916600183600a81111561221a57634e487b7160e01b600052602160045260246000fd5b0217905550604051339082907f9d03d5e4e11627bacfb2a3a993b2f9923c66e8cb86c1c3a6bca45fc876590d7890600090a3505060016000555050565b6122613383612c18565b61227d5760405162461bcd60e51b8152600401610d1090614a95565b6122898484848461383e565b50505050565b606061229a82612a52565b6122fe5760405162461bcd60e51b815260206004820152602f60248201527f4552433732314d657461646174613a2055524920717565727920666f72206e6f60448201526e3732bc34b9ba32b73a103a37b5b2b760891b6064820152608401610d10565b6000612308613871565b9050600081511161232857604051806020016040528060008152506110fa565b8061233284613880565b604051602001612343929190614889565b6040516020818303038152906040529392505050565b6000818152600560205260408120610c10906134f2565b611128828261399a565b601d805461238790614c72565b80601f01602080910402602001604051908101604052809291908181526020018280546123b390614c72565b80156124005780601f106123d557610100808354040283529160200191612400565b820191906000526020600020905b8154815290600101906020018083116123e357829003601f168201915b505050505081565b60008181526003602052604090208054606091908290612430906001600160a01b0316612f5f565b156124c2578154600183015460405163c87b56dd60e01b81526001600160a01b039092169163c87b56dd9161246b9160040190815260200190565b60006040518083038186803b15801561248357600080fd5b505afa158015612497573d6000803e3d6000fd5b505050506040513d6000823e601f3d908101601f191682016040526124bf91908101906147ac565b90505b81546124d6906001600160a01b031661307d565b156110fa57815460018301546040516303a24d0760e21b81526001600160a01b0390921691630e89341c916125119160040190815260200190565b60006040518083038186803b15801561252957600080fd5b505afa15801561253d573d6000803e3d6000fd5b505050506040513d6000823e601f3d908101601f1916820160405261117b91908101906147ac565b8261256f81612a52565b61258b5760405162461bcd60e51b8152600401610d1090614a1e565b600084815260026020908152604091829020825180840190935280546001600160a01b03168352600101549101819052849043101561260c5760405162461bcd60e51b815260206004820152601b60248201527f4672616d653a20546f6b656e20616c72656164792072656e74656400000000006044820152606401610d10565b604051631f9c3df360e21b81526004810186905285906000903090637e70f7cc9060240160206040518083038186803b15801561264857600080fd5b505afa15801561265c573d6000803e3d6000fd5b505050506040513d601f19601f82011682018060405250810190612680919061481f565b116126cd5760405162461bcd60e51b815260206004820152601b60248201527f4672616d653a2052656e74616c207072696365206e6f742073657400000000006044820152606401610d10565b600260005414156126f05760405162461bcd60e51b8152600401610d1090614b1d565b60026000908155868152600160205260408120549061270f8287614bf9565b90508034146127605760405162461bcd60e51b815260206004820152601860248201527f4672616d653a20496e636f7272656374207061796d656e7400000000000000006044820152606401610d10565b6000612770601b54601c546139c0565b9050600061277e8284613a5c565b9050600061278b8b611638565b9050806001600160a01b03168b7ff589aa97ce865d224468fd0f94ceffe274703183477aeea987d264ec825d289d846040516127c991815260200190565b60405180910390a36127db8285614c18565b9350806127e881866132e9565b6127f38c8c8c613ac4565b5050600160005550505050505050505050565b611cf58282613b3a565b60006110fa836001600160a01b038416613bc0565b6000828152600460205260409020600101546128418133613c0f565b610e468383613b3a565b6060600061285a836002614bf9565b612865906002614bcd565b67ffffffffffffffff81111561288b57634e487b7160e01b600052604160045260246000fd5b6040519080825280601f01601f1916602001820160405280156128b5576020820181803683370190505b509050600360fc1b816000815181106128de57634e487b7160e01b600052603260045260246000fd5b60200101906001600160f81b031916908160001a905350600f60fb1b8160018151811061291b57634e487b7160e01b600052603260045260246000fd5b60200101906001600160f81b031916908160001a905350600061293f846002614bf9565b61294a906001614bcd565b90505b60018111156129de576f181899199a1a9b1b9c1cb0b131b232b360811b85600f166010811061298c57634e487b7160e01b600052603260045260246000fd5b1a60f81b8282815181106129b057634e487b7160e01b600052603260045260246000fd5b60200101906001600160f81b031916908160001a90535060049490941c936129d781614c5b565b905061294d565b5083156110fa5760405162461bcd60e51b815260206004820181905260248201527f537472696e67733a20686578206c656e67746820696e73756666696369656e746044820152606401610d10565b60006001600160e01b0319821663780e9d6360e01b1480610c105750610c1082613c73565b6000908152600860205260409020546001600160a01b0316151590565b6000818152600a6020526040902080546001600160a01b0319166001600160a01b0384169081179091558190612aa482611638565b6001600160a01b03167f8c5be1e5ebec7d5bd14f71427d1e84f3dd0314c0f7b2291e5b200ac8c7c3b92560405160405180910390a45050565b604051637eaf765960e01b8152600481018290526000903090637eaf76599060240160206040518083038186803b158015612b1757600080fd5b505afa158015612b2b573d6000803e3d6000fd5b505050506040513d601f19601f82011682018060405250810190612b4f919061468a565b15612bae576000612b608385612e64565b905080612ba75760405162461bcd60e51b8152602060048201526015602482015274233930b6b29d102737ba103a3432902932b73a32b960591b6044820152606401610d10565b9050610c10565b6000612bba838561338c565b905080612ba75760405162461bcd60e51b8152602060048201526014602482015273233930b6b29d102737ba103a34329027bbb732b960611b6044820152606401610d10565b6112bd81600080613279565b60006110fa8383613bc0565b6000612c2382612a52565b612c3f5760405162461bcd60e51b8152600401610d1090614a1e565b6000612c4a83611638565b9050806001600160a01b0316846001600160a01b03161480612c855750836001600160a01b0316612c7a84610ca8565b6001600160a01b0316145b8061117b57506001600160a01b038082166000908152600b602090815260408083209388168352929052205460ff1661117b565b826001600160a01b0316612ccc82611638565b6001600160a01b031614612d345760405162461bcd60e51b815260206004820152602960248201527f4552433732313a207472616e73666572206f6620746f6b656e2074686174206960448201526839903737ba1037bbb760b91b6064820152608401610d10565b6001600160a01b038216612d965760405162461bcd60e51b8152602060048201526024808201527f4552433732313a207472616e7366657220746f20746865207a65726f206164646044820152637265737360e01b6064820152608401610d10565b612da1838383613cb3565b612dac600082612a6f565b6001600160a01b0383166000908152600960205260408120805460019290612dd5908490614c18565b90915550506001600160a01b0382166000908152600960205260408120805460019290612e03908490614bcd565b909155505060008181526008602052604080822080546001600160a01b0319166001600160a01b0386811691821790925591518493918716917fddf252ad1be2c89b69c2b068fc378daa952ba7f163c4a11628f55a4df523b3ef91a4505050565b600080612e7084612e89565b516001600160a01b039081169084161491505092915050565b604080518082019091526000808252602082015250600090815260026020908152604091829020825180840190935280546001600160a01b03168352600101549082015290565b6001600160a01b0381163314612f405760405162461bcd60e51b815260206004820152602f60248201527f416363657373436f6e74726f6c3a2063616e206f6e6c792072656e6f756e636560448201526e103937b632b9903337b91039b2b63360891b6064820152608401610d10565b611cf58282613cbe565b60006110fa836001600160a01b038416613d25565b6040516301ffc9a760e01b81526380ac58cd60e01b60048201526000906001600160a01b038316906301ffc9a7906024015b60206040518083038186803b158015612fa957600080fd5b505afa158015612fbd573d6000803e3d6000fd5b505050506040513d601f19601f82011682018060405250810190610c10919061468a565b6000836001600160a01b0316836001600160a01b0316636352211e846040518263ffffffff1660e01b815260040161301b91815260200190565b60206040518083038186803b15801561303357600080fd5b505afa158015613047573d6000803e3d6000fd5b505050506040513d601f19601f8201168201806040525081019061306b91906144e5565b6001600160a01b031614949350505050565b6040516301ffc9a760e01b8152636cdb3d1360e11b60048201526000906001600160a01b038316906301ffc9a790602401612f91565b604051627eeac760e11b81526001600160a01b03848116600483015260248201839052600091829185169062fdd58e9060440160206040518083038186803b1580156130fe57600080fd5b505afa158015613112573d6000803e3d6000fd5b505050506040513d601f19601f82011682018060405250810190613136919061481f565b11949350505050565b60105460ff166131885760405162461bcd60e51b815260206004820152601460248201527314185d5cd8589b194e881b9bdd081c185d5cd95960621b6044820152606401610d10565b6010805460ff191690557f5db9ee0a495bf2e6ff9c91a7834c1ba4fdd244a5e8aa4e537bd38aeae4b073aa335b6040516001600160a01b03909116815260200160405180910390a1565b60006131dd82611638565b90506131eb81600084613cb3565b6131f6600083612a6f565b6001600160a01b038116600090815260096020526040812080546001929061321f908490614c18565b909155505060008281526008602052604080822080546001600160a01b0319169055518391906001600160a01b038416907fddf252ad1be2c89b69c2b068fc378daa952ba7f163c4a11628f55a4df523b3ef908390a45050565b60008381526003602090815260409182902080546001600160a01b0319166001600160a01b038616908117825560018201859055925184815290929186917f845ee41542a753bb1bf9f17c3d2930fd16349a29332893bc06569e4e9f5f46b391015b60405180910390a350505050565b6000826001600160a01b03168260405160006040518083038185875af1925050503d8060008114613336576040519150601f19603f3d011682016040523d82523d6000602084013e61333b565b606091505b5050905080610e465760405162461bcd60e51b815260206004820152601960248201527f4672616d653a204661696c656420746f2073656e6420455448000000000000006044820152606401610d10565b600061339783611638565b6001600160a01b0316826001600160a01b031614905092915050565b6001600160a01b0382166134095760405162461bcd60e51b815260206004820181905260248201527f4552433732313a206d696e7420746f20746865207a65726f20616464726573736044820152606401610d10565b61341281612a52565b1561345f5760405162461bcd60e51b815260206004820152601c60248201527f4552433732313a20746f6b656e20616c7265616479206d696e746564000000006044820152606401610d10565b61346b60008383613cb3565b6001600160a01b0382166000908152600960205260408120805460019290613494908490614bcd565b909155505060008181526008602052604080822080546001600160a01b0319166001600160a01b03861690811790915590518392907fddf252ad1be2c89b69c2b068fc378daa952ba7f163c4a11628f55a4df523b3ef908290a45050565b6000610c10825490565b60105460ff16156135425760405162461bcd60e51b815260206004820152601060248201526f14185d5cd8589b194e881c185d5cd95960821b6044820152606401610d10565b6010805460ff191660011790557f62e78cea01bee320cd4e420270b5ea74000d11b0c9f74754ebdbfc544b05a2586131b53390565b60006110fa8383613e42565b60008281526015602090815260408083205460169092528220546001600160a01b039091169190601490829060ff16600a8111156135d157634e487b7160e01b600052602160045260246000fd5b600a8111156135f057634e487b7160e01b600052602160045260246000fd5b81526020019081526020016000209050600061360e826003016134f2565b905060006001821115613639576136326136288387614cc8565b6003850190613577565b905061364a565b613647600384016000613577565b90505b6136576003840182613e7a565b5060008681526017602052604090208190556136738482613e86565b80846001600160a01b0316877f98b595a980d0cccd434684fb987af818dc227293514b685567789f969a0ff11660405160405180910390a4505050505050565b60007f00000000000000000000000000000000000000000000000000000000000000006001600160a01b0316634000aea07f000000000000000000000000000000000000000000000000000000000000000084866000604051602001613723929190918252602082015260400190565b6040516020818303038152906040526040518463ffffffff1660e01b81526004016137509392919061496a565b602060405180830381600087803b15801561376a57600080fd5b505af115801561377e573d6000803e3d6000fd5b505050506040513d601f19601f820116820180604052508101906137a2919061468a565b50600083815260136020818152604080842054815180840189905280830186905230606082015260808082018390528351808303909101815260a0909101909252815191830191909120938790529190526137fe906001614bcd565b60008581526013602052604090205561117b8482604080516020808201949094528082019290925280518083038201815260609092019052805191012090565b613849848484612cb9565b61385584848484613ea0565b6122895760405162461bcd60e51b8152600401610d10906149cc565b606060128054610c2590614c72565b6060816138a45750506040805180820190915260018152600360fc1b602082015290565b8160005b81156138ce57806138b881614cad565b91506138c79050600a83614be5565b91506138a8565b60008167ffffffffffffffff8111156138f757634e487b7160e01b600052604160045260246000fd5b6040519080825280601f01601f191660200182016040528015613921576020820181803683370190505b5090505b841561117b57613936600183614c18565b9150613943600a86614cc8565b61394e906030614bcd565b60f81b81838151811061397157634e487b7160e01b600052603260045260246000fd5b60200101906001600160f81b031916908160001a905350613993600a86614be5565b9450613925565b6000828152600460205260409020600101546139b68133613c0f565b610e468383613cbe565b6000816139cc57600080fd5b6000808412156139e157836000039350600190505b60008312156139f35760009290920391155b60006139ff8585613faa565b90508115613a2d576001607f1b816001600160801b03161115613a2157600080fd5b6000039150610c109050565b6f7fffffffffffffffffffffffffffffff816001600160801b03161115613a5357600080fd5b9150610c109050565b600081613a6b57506000610c10565b600083600f0b1215613a7c57600080fd5b600f83900b6001600160801b038316810260401c90608084901c026001600160c01b03811115613aab57600080fd5b60401b8119811115613abc57600080fd5b019392505050565b600083815260026020526040902080546001600160a01b0319166001600160a01b038416178155613af58243614bcd565b6001820181905581546040519182526001600160a01b03169085907fed30b68a6b75846b1f125f61bee0f445ff34e5b5f127eda7d4ebb9634b16922e906020016132db565b613b448282611c48565b611cf55760008281526004602090815260408083206001600160a01b03851684529091529020805460ff19166001179055613b7c3390565b6001600160a01b0316816001600160a01b0316837f2f8788117e7eff1d82e926ec794901d17c78024a50270940304540a733656f0d60405160405180910390a45050565b6000818152600183016020526040812054613c0757508154600181810184556000848152602080822090930184905584548482528286019093526040902091909155610c10565b506000610c10565b613c198282611c48565b611cf557613c31816001600160a01b0316601461284b565b613c3c83602061284b565b604051602001613c4d9291906148b8565b60408051601f198184030181529082905262461bcd60e51b8252610d10916004016149b9565b60006001600160e01b031982166380ac58cd60e01b1480613ca457506001600160e01b03198216635b5e139f60e01b145b80610c105750610c1082614144565b610e46838383614169565b613cc88282611c48565b15611cf55760008281526004602090815260408083206001600160a01b0385168085529252808320805460ff1916905551339285917ff6391f5c32d9c69d2a47ea670b442974b53935d1edc7fd64eb21e047a839171b9190a45050565b60008181526001830160205260408120548015613e38576000613d49600183614c18565b8554909150600090613d5d90600190614c18565b9050818114613dde576000866000018281548110613d8b57634e487b7160e01b600052603260045260246000fd5b9060005260206000200154905080876000018481548110613dbc57634e487b7160e01b600052603260045260246000fd5b6000918252602080832090910192909255918252600188019052604090208390555b8554869080613dfd57634e487b7160e01b600052603160045260246000fd5b600190038181906000526020600020016000905590558560010160008681526020019081526020016000206000905560019350505050610c10565b6000915050610c10565b6000826000018281548110613e6757634e487b7160e01b600052603260045260246000fd5b9060005260206000200154905092915050565b60006110fa8383613d25565b611cf58282604051806020016040528060008152506141db565b60006001600160a01b0384163b15613fa257604051630a85bd0160e11b81526001600160a01b0385169063150b7a0290613ee490339089908890889060040161492d565b602060405180830381600087803b158015613efe57600080fd5b505af1925050508015613f2e575060408051601f3d908101601f19168201909252613f2b9181019061471f565b60015b613f88573d808015613f5c576040519150601f19603f3d011682016040523d82523d6000602084013e613f61565b606091505b508051613f805760405162461bcd60e51b8152600401610d10906149cc565b805181602001fd5b6001600160e01b031916630a85bd0160e11b14905061117b565b50600161117b565b600081613fb657600080fd5b60006001600160c01b038411613fef5782604085901b81613fe757634e487b7160e01b600052601260045260246000fd5b049050614130565b60c084811c6401000000008110614008576020918201911c5b62010000811061401a576010918201911c5b610100811061402b576008918201911c5b6010811061403b576004918201911c5b6004811061404b576002918201911c5b6002811061405a576001820191505b60bf820360018603901c6001018260ff0387901b8161408957634e487b7160e01b600052601260045260246000fd5b0492506001600160801b038311156140a057600080fd5b608085901c83026001600160801b038616840260c088901c604089901b828110156140cc576001820391505b608084901b929003828110156140e3576001820391505b829003608084901c821461410757634e487b7160e01b600052600160045260246000fd5b88818161412457634e487b7160e01b600052601260045260246000fd5b04870196505050505050505b6001600160801b038111156110fa57600080fd5b60006001600160e01b03198216635a05180f60e01b1480610c105750610c108261420e565b614174838383614243565b60105460ff1615610e465760405162461bcd60e51b815260206004820152602b60248201527f4552433732315061757361626c653a20746f6b656e207472616e73666572207760448201526a1a1a5b19481c185d5cd95960aa1b6064820152608401610d10565b6141e583836133b3565b6141f26000848484613ea0565b610e465760405162461bcd60e51b8152600401610d10906149cc565b60006001600160e01b03198216637965db0b60e01b1480610c1057506301ffc9a760e01b6001600160e01b0319831614610c10565b6001600160a01b03831661429e5761429981600e80546000838152600f60205260408120829055600182018355919091527fbb7b4a454dc3493923482f07822329ed19e8244eff582cc204f8554c3620c3fd0155565b6142c1565b816001600160a01b0316836001600160a01b0316146142c1576142c183826142fb565b6001600160a01b0382166142d857610e4681614398565b826001600160a01b0316826001600160a01b031614610e4657610e468282614471565b6000600161430884611a0c565b6143129190614c18565b6000838152600d6020526040902054909150808214614365576001600160a01b0384166000908152600c602090815260408083208584528252808320548484528184208190558352600d90915290208190555b506000918252600d602090815260408084208490556001600160a01b039094168352600c81528383209183525290812055565b600e546000906143aa90600190614c18565b6000838152600f6020526040812054600e80549394509092849081106143e057634e487b7160e01b600052603260045260246000fd5b9060005260206000200154905080600e838154811061440f57634e487b7160e01b600052603260045260246000fd5b6000918252602080832090910192909255828152600f9091526040808220849055858252812055600e80548061445557634e487b7160e01b600052603160045260246000fd5b6001900381819060005260206000200160009055905550505050565b600061447c83611a0c565b6001600160a01b039093166000908152600c602090815260408083208684528252808320859055938252600d9052919091209190915550565b8035600b81106144c457600080fd5b919050565b6000602082840312156144da578081fd5b81356110fa81614d1e565b6000602082840312156144f6578081fd5b81516110fa81614d1e565b60008060408385031215614513578081fd5b823561451e81614d1e565b946020939093013593505050565b6000806040838503121561453e578182fd5b823561454981614d1e565b9150602083013561455981614d1e565b809150509250929050565b600080600060608486031215614578578081fd5b833561458381614d1e565b9250602084013561459381614d1e565b929592945050506040919091013590565b600080600080608085870312156145b9578081fd5b84356145c481614d1e565b935060208501356145d481614d1e565b925060408501359150606085013567ffffffffffffffff8111156145f6578182fd5b8501601f81018713614606578182fd5b803561461961461482614ba5565b614b74565b81815288602083850101111561462d578384fd5b81602084016020830137908101602001929092525092959194509250565b6000806040838503121561465d578182fd5b823561466881614d1e565b9150602083013561455981614d33565b60008060408385031215614513578182fd5b60006020828403121561469b578081fd5b81516110fa81614d33565b6000602082840312156146b7578081fd5b5035919050565b600080604083850312156146d0578182fd5b82359150602083013561455981614d1e565b600080604083850312156146f4578182fd5b50508035926020909101359150565b600060208284031215614714578081fd5b81356110fa81614d41565b600060208284031215614730578081fd5b81516110fa81614d41565b60006020828403121561474c578081fd5b6110fa826144b5565b6000806000806080858703121561476a578182fd5b614773856144b5565b966020860135965060408601359560600135945092505050565b60006020828403121561479e578081fd5b8135600381106110fa578182fd5b6000602082840312156147bd578081fd5b815167ffffffffffffffff8111156147d3578182fd5b8201601f810184136147e3578182fd5b80516147f161461482614ba5565b818152856020838501011115614805578384fd5b614816826020830160208601614c2f565b95945050505050565b600060208284031215614830578081fd5b5051919050565b60008060006060848603121561484b578081fd5b83359250602084013561459381614d1e565b60008151808452614875816020860160208601614c2f565b601f01601f19169290920160200192915050565b6000835161489b818460208801614c2f565b8351908301906148af818360208801614c2f565b01949350505050565b7f416363657373436f6e74726f6c3a206163636f756e74200000000000000000008152600083516148f0816017850160208801614c2f565b7001034b99036b4b9b9b4b733903937b6329607d1b6017918401918201528351614921816028840160208801614c2f565b01602801949350505050565b6001600160a01b03858116825284166020820152604081018390526080606082018190526000906149609083018461485d565b9695505050505050565b60018060a01b0384168152826020820152606060408201526000614816606083018461485d565b60208101600b83106149b357634e487b7160e01b600052602160045260246000fd5b91905290565b6020815260006110fa602083018461485d565b60208082526032908201527f4552433732313a207472616e7366657220746f206e6f6e20455243373231526560408201527131b2b4bb32b91034b6b83632b6b2b73a32b960711b606082015260800190565b6020808252602c908201527f4552433732313a206f70657261746f7220717565727920666f72206e6f6e657860408201526b34b9ba32b73a103a37b5b2b760a11b606082015260800190565b602080825260119082015270233930b6b29d1027b7363c9037bbb732b960791b604082015260600190565b60208082526031908201527f4552433732313a207472616e736665722063616c6c6572206973206e6f74206f6040820152701ddb995c881b9bdc88185c1c1c9bdd9959607a1b606082015260800190565b60208082526017908201527f4672616d653a20496e76616c69642043617465676f7279000000000000000000604082015260600190565b6020808252601f908201527f5265656e7472616e637947756172643a207265656e7472616e742063616c6c00604082015260600190565b81516001600160a01b031681526020808301519082015260408101610c10565b604051601f8201601f1916810167ffffffffffffffff81118282101715614b9d57614b9d614d08565b604052919050565b600067ffffffffffffffff821115614bbf57614bbf614d08565b50601f01601f191660200190565b60008219821115614be057614be0614cdc565b500190565b600082614bf457614bf4614cf2565b500490565b6000816000190483118215151615614c1357614c13614cdc565b500290565b600082821015614c2a57614c2a614cdc565b500390565b60005b83811015614c4a578181015183820152602001614c32565b838111156122895750506000910152565b600081614c6a57614c6a614cdc565b506000190190565b600181811c90821680614c8657607f821691505b60208210811415614ca757634e487b7160e01b600052602260045260246000fd5b50919050565b6000600019821415614cc157614cc1614cdc565b5060010190565b600082614cd757614cd7614cf2565b500690565b634e487b7160e01b600052601160045260246000fd5b634e487b7160e01b600052601260045260246000fd5b634e487b7160e01b600052604160045260246000fd5b6001600160a01b03811681146112bd57600080fd5b80151581146112bd57600080fd5b6001600160e01b0319811681146112bd57600080fdfea26469706673582212204ada8f00deed7aa0d9715712b961fd7b6f73d2c2006ed7761f5a227d34a3a73464736f6c63430008040033",
  "libraries": {
    "ABDKMath64x64": "0x7F654841a02752b90db5aaea68631fD099c63c4c",
    "AllowList": "0xC4764e05Edc0D7a2Dd90fE0E922987E3C16dBd31"
  },
  "devdoc": {
    "author": "Aaron Boyd <https://github.com/aaronmboyd>",
    "details": "ERC-721 compatible token with multiple price categoriesAllows token holders to rent and exhibit other NFTs inside the FrameUses Chainlink VRF function to select minting within a price categoryImplements a basic pre-sale list using AccessControl roles configured during deployImplements ABDK math library for percentage-based fees arithmetic",
    "events": {
      "EtherWithdrawn(address,uint256)": {
        "params": {
          "_to": "Recipient of the ether",
          "_value": "Withdrawal amount in wei"
        }
      },
      "LinkWithdrawn(address,uint256)": {
        "params": {
          "_to": "Recipient of the LINK",
          "_value": "Withdrawal amount in wei"
        }
      },
      "MintFulfilled(bytes32,address,uint256)": {
        "params": {
          "_address": "Recipient address",
          "_requestId": "Request ID of the fulfillment",
          "_tokenId": "TokenID received"
        }
      },
      "MintRequest(bytes32,address)": {
        "params": {
          "_address": "Recipient address",
          "_requestId": "Request ID of the request"
        }
      },
      "RentalFeeCollectedFrom(uint256,address,uint256)": {
        "params": {
          "_from": "Frame owner",
          "_tokenId": "Token id that was rented",
          "_value": "Rental fee collected"
        }
      },
      "RentalFeeUpdated(int256,int256,int256,int256)": {
        "params": {
          "_newDenominator": "New denominator",
          "_newNumerator": "New numerator",
          "_oldDenominator": "Old denominator",
          "_oldNumerator": "Old numerator"
        }
      }
    },
    "kind": "dev",
    "methods": {
      "approve(address,uint256)": {
        "details": "See {IERC721-approve}."
      },
      "balanceOf(address)": {
        "details": "See {IERC721-balanceOf}."
      },
      "burn(uint256)": {
        "details": "Burns `tokenId`. See {ERC721-_burn}. Requirements: - The caller must own `tokenId` or be an approved operator."
      },
      "calculateRentalCost(uint256,uint256)": {
        "params": {
          "_numberOfBlocks": "Number of blocks to rent for",
          "_tokenId": "Token identifier to calculate for"
        }
      },
      "clearExhibit(uint256)": {
        "params": {
          "_tokenId": "The token identifier of the exhibit"
        }
      },
      "constructor": {
        "details": "Grants `DEFAULT_ADMIN_ROLE`, `MINTER_ROLE` and `PAUSER_ROLE` to the account that deploys the contract"
      },
      "exhibitIsOwnedBy(address,address,uint256)": {
        "params": {
          "_exhibitContractAddress": "The new exhibit contract address",
          "_exhibitTokenId": "The token identifier of the exhibit",
          "_exhibitor": "Exhibitor claiming ownership"
        }
      },
      "getApproved(uint256)": {
        "details": "See {IERC721-getApproved}."
      },
      "getCategoryDetail(uint8)": {
        "params": {
          "_category": "The Category to retrieve"
        },
        "returns": {
          "_0": "uint256 The price of the Category in wei",
          "_1": "uint256 The startingTokenId of the Category",
          "_2": "uint256 The total supply of the Category",
          "_3": "uint256 The remaining supply of the Category"
        }
      },
      "getExhibit(uint256)": {
        "params": {
          "_tokenId": "The token identifier of the exhibit"
        }
      },
      "getExhibitTokenURI(uint256)": {
        "params": {
          "_tokenId": "The token identifier of the exhibit"
        }
      },
      "getRentalPricePerBlock(uint256)": {
        "params": {
          "_tokenId": "Token identifier which is setting a renter"
        }
      },
      "getRenter(uint256)": {
        "params": {
          "_tokenId": "Token identifier which is setting a renter"
        }
      },
      "getRoleAdmin(bytes32)": {
        "details": "Returns the admin role that controls `role`. See {grantRole} and {revokeRole}. To change a role's admin, use {_setRoleAdmin}."
      },
      "getRoleMember(bytes32,uint256)": {
        "details": "Returns one of the accounts that have `role`. `index` must be a value between 0 and {getRoleMemberCount}, non-inclusive. Role bearers are not sorted in any particular way, and their ordering may change at any point. WARNING: When using {getRoleMember} and {getRoleMemberCount}, make sure you perform all queries on the same block. See the following https://forum.openzeppelin.com/t/iterating-over-elements-on-enumerableset-in-openzeppelin-contracts/2296[forum post] for more information."
      },
      "getRoleMemberCount(bytes32)": {
        "details": "Returns the number of accounts that have `role`. Can be used together with {getRoleMember} to enumerate all bearers of a role."
      },
      "getVersionNumber()": {
        "returns": {
          "_0": "The storage, major, minor, and patch version of the contract."
        }
      },
      "grantRole(bytes32,address)": {
        "details": "Overload {grantRole} to track enumerable memberships"
      },
      "hasRole(bytes32,address)": {
        "details": "Returns `true` if `account` has been granted `role`."
      },
      "isApprovedForAll(address,address)": {
        "details": "See {IERC721-isApprovedForAll}."
      },
      "isCurrentlyRented(uint256)": {
        "params": {
          "_tokenId": "The token to check is rented"
        }
      },
      "mint(address)": {
        "details": "Creates a new token for `to`. Its token ID will be automatically assigned (and available on the emitted {IERC721-Transfer} event), and the token URI autogenerated based on the base URI passed at construction. See {ERC721-_mint}. Requirements: - the caller must have the `MINTER_ROLE`."
      },
      "mintFrame(uint8)": {
        "params": {
          "_category": "Category to mint"
        }
      },
      "name()": {
        "details": "See {IERC721Metadata-name}."
      },
      "ownerOf(uint256)": {
        "details": "See {IERC721-ownerOf}."
      },
      "pause()": {
        "details": "Pauses all token transfers. See {ERC721Pausable} and {Pausable-_pause}. Requirements: - the caller must have the `PAUSER_ROLE`."
      },
      "paused()": {
        "details": "Returns true if the contract is paused, and false otherwise."
      },
      "renounceRole(bytes32,address)": {
        "details": "Overload {renounceRole} to track enumerable memberships"
      },
      "revokeRole(bytes32,address)": {
        "details": "Overload {revokeRole} to track enumerable memberships"
      },
      "safeTransferFrom(address,address,uint256)": {
        "details": "See {IERC721-safeTransferFrom}."
      },
      "safeTransferFrom(address,address,uint256,bytes)": {
        "details": "See {IERC721-safeTransferFrom}."
      },
      "setApprovalForAll(address,bool)": {
        "details": "See {IERC721-setApprovalForAll}."
      },
      "setCategoryDetail(uint8,uint256,uint256,uint256)": {
        "params": {
          "_category": "Category to configure",
          "_price": "Price of this category",
          "_startingTokenId": "Starting token ID of the category",
          "_supply": "Number of tokens in this category"
        }
      },
      "setExhibit(uint256,address,uint256)": {
        "params": {
          "_exhibitContractAddress": "The new exhibit contract address",
          "_exhibitTokenId": "The token identifier of the exhibit",
          "_tokenId": "Token identifier which is setting an exhibit"
        }
      },
      "setRentalFee(int256,int256)": {
        "params": {
          "_denominator": "Rental fee denominator",
          "_numerator": "Rental fee numerator"
        }
      },
      "setRentalPricePerBlock(uint256,uint256)": {
        "params": {
          "_rentalPrice": "The rental price per block",
          "_tokenId": "Token identifier which is setting a renter"
        }
      },
      "setRenter(uint256,address,uint256)": {
        "params": {
          "_numberOfBlocks": "The number of blocks to rent for",
          "_renter": "The new renter address",
          "_tokenId": "Token identifier which is setting a renter"
        }
      },
      "setSaleStatus(uint8)": {
        "details": "Possible statuses are the enum SaleStatus",
        "params": {
          "_status": "Status to set"
        }
      },
      "supportsInterface(bytes4)": {
        "details": "See {IERC165-supportsInterface}."
      },
      "symbol()": {
        "details": "See {IERC721Metadata-symbol}."
      },
      "tokenByIndex(uint256)": {
        "details": "See {IERC721Enumerable-tokenByIndex}."
      },
      "tokenIsRentedByAddress(uint256,address)": {
        "params": {
          "_address": "The address to check if it's rented by",
          "_tokenId": "The token to check is rented"
        }
      },
      "tokenOfOwnerByIndex(address,uint256)": {
        "details": "See {IERC721Enumerable-tokenOfOwnerByIndex}."
      },
      "tokenURI(uint256)": {
        "details": "See {IERC721Metadata-tokenURI}."
      },
      "totalSupply()": {
        "details": "See {IERC721Enumerable-totalSupply}."
      },
      "transferFrom(address,address,uint256)": {
        "details": "See {IERC721-transferFrom}."
      },
      "unpause()": {
        "details": "Unpauses all token transfers. See {ERC721Pausable} and {Pausable-_unpause}. Requirements: - the caller must have the `PAUSER_ROLE`."
      },
      "withdrawAllLink(address)": {
        "params": {
          "_to": "Address to receive all the LINK"
        }
      },
      "withdrawEther(address,uint256)": {
        "params": {
          "_to": "Address to receive the ether"
        }
      }
    },
    "stateVariables": {
      "PRESALE_ROLE": {
        "details": "Frame variablesFee: defaulted to 0.1 LINK on Rinkeby (varies by network), set during constructorKeyHash: must be set during constructor (varies by network)"
      },
      "categories": {
        "details": "Mappings"
      },
      "contractURI": {
        "details": "ERC721 variables"
      },
      "keyHash": {
        "details": "Chainlink variablesFee: defaulted to 0.1 LINK on Rinkeby (varies by network), set during constructorKeyHash: must be set during constructor (varies by network)"
      }
    },
    "title": "Musee Dezentral Frame NFT contract",
    "version": 1
  },
  "userdoc": {
    "events": {
      "EtherWithdrawn(address,uint256)": {
        "notice": "Triggered when ether is withdrawn"
      },
      "ExhibitSet(uint256,address,uint256)": {
        "notice": "Triggered when a a new exhibit has been set"
      },
      "LinkWithdrawn(address,uint256)": {
        "notice": "Triggered when LINK is withdrawn"
      },
      "MintFulfilled(bytes32,address,uint256)": {
        "notice": "Triggered when a minting is fulfilled"
      },
      "MintRequest(bytes32,address)": {
        "notice": "Triggered when a minting is requested"
      },
      "RentalFeeCollectedFrom(uint256,address,uint256)": {
        "notice": "Triggered when rental fee accumulated in the contract"
      },
      "RentalFeeUpdated(int256,int256,int256,int256)": {
        "notice": "Triggered when the Rental Fee is updated"
      },
      "RenterSet(uint256,address,uint256)": {
        "notice": "Triggered when a renter has been set"
      }
    },
    "kind": "user",
    "methods": {
      "calculateRentalCost(uint256,uint256)": {
        "notice": "Calculate rental cost to send to setRenter function"
      },
      "clearExhibit(uint256)": {
        "notice": "Remove the exhibit for a tokenId"
      },
      "constructor": {
        "notice": "Constructor"
      },
      "exhibitIsOwnedBy(address,address,uint256)": {
        "notice": "Return true if the exhibit is owned by exhibtor"
      },
      "getCategoryDetail(uint8)": {
        "notice": "Returns information about a Category"
      },
      "getExhibit(uint256)": {
        "notice": "Get the exhibit for a tokenId"
      },
      "getExhibitTokenURI(uint256)": {
        "notice": "Get the exhibit token URI for a tokenId"
      },
      "getRentalPricePerBlock(uint256)": {
        "notice": "Get the rental price per block for a tokenId"
      },
      "getRenter(uint256)": {
        "notice": "Get a renter for a tokenId"
      },
      "getVersionNumber()": {
        "notice": "Returns the storage, major, minor, and patch version of the contract."
      },
      "isCurrentlyRented(uint256)": {
        "notice": "Checks if a token is currently rented by anyone"
      },
      "mintFrame(uint8)": {
        "notice": "Mint a Frame in a given Category"
      },
      "setCategoryDetail(uint8,uint256,uint256,uint256)": {
        "notice": "Configure a category"
      },
      "setExhibit(uint256,address,uint256)": {
        "notice": "Set an exhibit for a tokenId"
      },
      "setRentalFee(int256,int256)": {
        "notice": "Set rental fee"
      },
      "setRentalPricePerBlock(uint256,uint256)": {
        "notice": "Set the rental price per block for a tokenId"
      },
      "setRenter(uint256,address,uint256)": {
        "notice": "Set a renter for a tokenId"
      },
      "setSaleStatus(uint8)": {
        "notice": "Set the status of the sale"
      },
      "tokenIsRentedByAddress(uint256,address)": {
        "notice": "Checks if a token is currently rented by address"
      },
      "withdrawAllLink(address)": {
        "notice": "Withdraws all LINK token from this contract"
      },
      "withdrawEther(address,uint256)": {
        "notice": "Withdraws an amount of ether from this contract"
      }
    },
    "version": 1
  },
  "storageLayout": {
    "storage": [
      {
        "astId": 1056,
        "contract": "contracts/Frame.sol:Frame",
        "label": "_status",
        "offset": 0,
        "slot": "0",
        "type": "t_uint256"
      },
      {
        "astId": 7733,
        "contract": "contracts/Frame.sol:Frame",
        "label": "_rentalPrices",
        "offset": 0,
        "slot": "1",
        "type": "t_mapping(t_uint256,t_uint256)"
      },
      {
        "astId": 7738,
        "contract": "contracts/Frame.sol:Frame",
        "label": "_renters",
        "offset": 0,
        "slot": "2",
        "type": "t_mapping(t_uint256,t_struct(Rental)8021_storage)"
      },
      {
        "astId": 7464,
        "contract": "contracts/Frame.sol:Frame",
        "label": "_exhibits",
        "offset": 0,
        "slot": "3",
        "type": "t_mapping(t_uint256,t_struct(Exhibit)7959_storage)"
      },
      {
        "astId": 290,
        "contract": "contracts/Frame.sol:Frame",
        "label": "_roles",
        "offset": 0,
        "slot": "4",
        "type": "t_mapping(t_bytes32,t_struct(RoleData)285_storage)"
      },
      {
        "astId": 591,
        "contract": "contracts/Frame.sol:Frame",
        "label": "_roleMembers",
        "offset": 0,
        "slot": "5",
        "type": "t_mapping(t_bytes32,t_struct(AddressSet)6088_storage)"
      },
      {
        "astId": 3569,
        "contract": "contracts/Frame.sol:Frame",
        "label": "_name",
        "offset": 0,
        "slot": "6",
        "type": "t_string_storage"
      },
      {
        "astId": 3571,
        "contract": "contracts/Frame.sol:Frame",
        "label": "_symbol",
        "offset": 0,
        "slot": "7",
        "type": "t_string_storage"
      },
      {
        "astId": 3575,
        "contract": "contracts/Frame.sol:Frame",
        "label": "_owners",
        "offset": 0,
        "slot": "8",
        "type": "t_mapping(t_uint256,t_address)"
      },
      {
        "astId": 3579,
        "contract": "contracts/Frame.sol:Frame",
        "label": "_balances",
        "offset": 0,
        "slot": "9",
        "type": "t_mapping(t_address,t_uint256)"
      },
      {
        "astId": 3583,
        "contract": "contracts/Frame.sol:Frame",
        "label": "_tokenApprovals",
        "offset": 0,
        "slot": "10",
        "type": "t_mapping(t_uint256,t_address)"
      },
      {
        "astId": 3589,
        "contract": "contracts/Frame.sol:Frame",
        "label": "_operatorApprovals",
        "offset": 0,
        "slot": "11",
        "type": "t_mapping(t_address,t_mapping(t_address,t_bool))"
      },
      {
        "astId": 4538,
        "contract": "contracts/Frame.sol:Frame",
        "label": "_ownedTokens",
        "offset": 0,
        "slot": "12",
        "type": "t_mapping(t_address,t_mapping(t_uint256,t_uint256))"
      },
      {
        "astId": 4542,
        "contract": "contracts/Frame.sol:Frame",
        "label": "_ownedTokensIndex",
        "offset": 0,
        "slot": "13",
        "type": "t_mapping(t_uint256,t_uint256)"
      },
      {
        "astId": 4545,
        "contract": "contracts/Frame.sol:Frame",
        "label": "_allTokens",
        "offset": 0,
        "slot": "14",
        "type": "t_array(t_uint256)dyn_storage"
      },
      {
        "astId": 4549,
        "contract": "contracts/Frame.sol:Frame",
        "label": "_allTokensIndex",
        "offset": 0,
        "slot": "15",
        "type": "t_mapping(t_uint256,t_uint256)"
      },
      {
        "astId": 971,
        "contract": "contracts/Frame.sol:Frame",
        "label": "_paused",
        "offset": 0,
        "slot": "16",
        "type": "t_bool"
      },
      {
        "astId": 4993,
        "contract": "contracts/Frame.sol:Frame",
        "label": "_tokenIdTracker",
        "offset": 0,
        "slot": "17",
        "type": "t_struct(Counter)5469_storage"
      },
      {
        "astId": 4995,
        "contract": "contracts/Frame.sol:Frame",
        "label": "_baseTokenURI",
        "offset": 0,
        "slot": "18",
        "type": "t_string_storage"
      },
      {
        "astId": 79,
        "contract": "contracts/Frame.sol:Frame",
        "label": "nonces",
        "offset": 0,
        "slot": "19",
        "type": "t_mapping(t_bytes32,t_uint256)"
      },
      {
        "astId": 6436,
        "contract": "contracts/Frame.sol:Frame",
        "label": "categories",
        "offset": 0,
        "slot": "20",
        "type": "t_mapping(t_enum(Category)6419,t_struct(CategoryDetail)6429_storage)"
      },
      {
        "astId": 6440,
        "contract": "contracts/Frame.sol:Frame",
        "label": "requestIdToSender",
        "offset": 0,
        "slot": "21",
        "type": "t_mapping(t_bytes32,t_address)"
      },
      {
        "astId": 6445,
        "contract": "contracts/Frame.sol:Frame",
        "label": "requestIdToCategory",
        "offset": 0,
        "slot": "22",
        "type": "t_mapping(t_bytes32,t_enum(Category)6419)"
      },
      {
        "astId": 6449,
        "contract": "contracts/Frame.sol:Frame",
        "label": "requestIdToTokenId",
        "offset": 0,
        "slot": "23",
        "type": "t_mapping(t_bytes32,t_uint256)"
      },
      {
        "astId": 6452,
        "contract": "contracts/Frame.sol:Frame",
        "label": "keyHash",
        "offset": 0,
        "slot": "24",
        "type": "t_bytes32"
      },
      {
        "astId": 6459,
        "contract": "contracts/Frame.sol:Frame",
        "label": "fee",
        "offset": 0,
        "slot": "25",
        "type": "t_uint256"
      },
      {
        "astId": 6470,
        "contract": "contracts/Frame.sol:Frame",
        "label": "saleStatus",
        "offset": 0,
        "slot": "26",
        "type": "t_enum(SaleStatus)6407"
      },
      {
        "astId": 6473,
        "contract": "contracts/Frame.sol:Frame",
        "label": "rentalFeeNumerator",
        "offset": 0,
        "slot": "27",
        "type": "t_int256"
      },
      {
        "astId": 6476,
        "contract": "contracts/Frame.sol:Frame",
        "label": "rentalFeeDenominator",
        "offset": 0,
        "slot": "28",
        "type": "t_int256"
      },
      {
        "astId": 6479,
        "contract": "contracts/Frame.sol:Frame",
        "label": "contractURI",
        "offset": 0,
        "slot": "29",
        "type": "t_string_storage"
      }
    ],
    "types": {
      "t_address": {
        "encoding": "inplace",
        "label": "address",
        "numberOfBytes": "20"
      },
      "t_array(t_bytes32)dyn_storage": {
        "base": "t_bytes32",
        "encoding": "dynamic_array",
        "label": "bytes32[]",
        "numberOfBytes": "32"
      },
      "t_array(t_uint256)dyn_storage": {
        "base": "t_uint256",
        "encoding": "dynamic_array",
        "label": "uint256[]",
        "numberOfBytes": "32"
      },
      "t_bool": {
        "encoding": "inplace",
        "label": "bool",
        "numberOfBytes": "1"
      },
      "t_bytes32": {
        "encoding": "inplace",
        "label": "bytes32",
        "numberOfBytes": "32"
      },
      "t_enum(Category)6419": {
        "encoding": "inplace",
        "label": "enum Frame.Category",
        "numberOfBytes": "1"
      },
      "t_enum(SaleStatus)6407": {
        "encoding": "inplace",
        "label": "enum Frame.SaleStatus",
        "numberOfBytes": "1"
      },
      "t_int256": {
        "encoding": "inplace",
        "label": "int256",
        "numberOfBytes": "32"
      },
      "t_mapping(t_address,t_bool)": {
        "encoding": "mapping",
        "key": "t_address",
        "label": "mapping(address => bool)",
        "numberOfBytes": "32",
        "value": "t_bool"
      },
      "t_mapping(t_address,t_mapping(t_address,t_bool))": {
        "encoding": "mapping",
        "key": "t_address",
        "label": "mapping(address => mapping(address => bool))",
        "numberOfBytes": "32",
        "value": "t_mapping(t_address,t_bool)"
      },
      "t_mapping(t_address,t_mapping(t_uint256,t_uint256))": {
        "encoding": "mapping",
        "key": "t_address",
        "label": "mapping(address => mapping(uint256 => uint256))",
        "numberOfBytes": "32",
        "value": "t_mapping(t_uint256,t_uint256)"
      },
      "t_mapping(t_address,t_uint256)": {
        "encoding": "mapping",
        "key": "t_address",
        "label": "mapping(address => uint256)",
        "numberOfBytes": "32",
        "value": "t_uint256"
      },
      "t_mapping(t_bytes32,t_address)": {
        "encoding": "mapping",
        "key": "t_bytes32",
        "label": "mapping(bytes32 => address)",
        "numberOfBytes": "32",
        "value": "t_address"
      },
      "t_mapping(t_bytes32,t_enum(Category)6419)": {
        "encoding": "mapping",
        "key": "t_bytes32",
        "label": "mapping(bytes32 => enum Frame.Category)",
        "numberOfBytes": "32",
        "value": "t_enum(Category)6419"
      },
      "t_mapping(t_bytes32,t_struct(AddressSet)6088_storage)": {
        "encoding": "mapping",
        "key": "t_bytes32",
        "label": "mapping(bytes32 => struct EnumerableSet.AddressSet)",
        "numberOfBytes": "32",
        "value": "t_struct(AddressSet)6088_storage"
      },
      "t_mapping(t_bytes32,t_struct(RoleData)285_storage)": {
        "encoding": "mapping",
        "key": "t_bytes32",
        "label": "mapping(bytes32 => struct AccessControl.RoleData)",
        "numberOfBytes": "32",
        "value": "t_struct(RoleData)285_storage"
      },
      "t_mapping(t_bytes32,t_uint256)": {
        "encoding": "mapping",
        "key": "t_bytes32",
        "label": "mapping(bytes32 => uint256)",
        "numberOfBytes": "32",
        "value": "t_uint256"
      },
      "t_mapping(t_enum(Category)6419,t_struct(CategoryDetail)6429_storage)": {
        "encoding": "mapping",
        "key": "t_enum(Category)6419",
        "label": "mapping(enum Frame.Category => struct Frame.CategoryDetail)",
        "numberOfBytes": "32",
        "value": "t_struct(CategoryDetail)6429_storage"
      },
      "t_mapping(t_uint256,t_address)": {
        "encoding": "mapping",
        "key": "t_uint256",
        "label": "mapping(uint256 => address)",
        "numberOfBytes": "32",
        "value": "t_address"
      },
      "t_mapping(t_uint256,t_struct(Exhibit)7959_storage)": {
        "encoding": "mapping",
        "key": "t_uint256",
        "label": "mapping(uint256 => struct IExhibitionable.Exhibit)",
        "numberOfBytes": "32",
        "value": "t_struct(Exhibit)7959_storage"
      },
      "t_mapping(t_uint256,t_struct(Rental)8021_storage)": {
        "encoding": "mapping",
        "key": "t_uint256",
        "label": "mapping(uint256 => struct IRentable.Rental)",
        "numberOfBytes": "32",
        "value": "t_struct(Rental)8021_storage"
      },
      "t_mapping(t_uint256,t_uint256)": {
        "encoding": "mapping",
        "key": "t_uint256",
        "label": "mapping(uint256 => uint256)",
        "numberOfBytes": "32",
        "value": "t_uint256"
      },
      "t_string_storage": {
        "encoding": "bytes",
        "label": "string",
        "numberOfBytes": "32"
      },
      "t_struct(AddressSet)6088_storage": {
        "encoding": "inplace",
        "label": "struct EnumerableSet.AddressSet",
        "members": [
          {
            "astId": 6087,
            "contract": "contracts/Frame.sol:Frame",
            "label": "_inner",
            "offset": 0,
            "slot": "0",
            "type": "t_struct(Set)5787_storage"
          }
        ],
        "numberOfBytes": "64"
      },
      "t_struct(CategoryDetail)6429_storage": {
        "encoding": "inplace",
        "label": "struct Frame.CategoryDetail",
        "members": [
          {
            "astId": 6421,
            "contract": "contracts/Frame.sol:Frame",
            "label": "price",
            "offset": 0,
            "slot": "0",
            "type": "t_uint256"
          },
          {
            "astId": 6423,
            "contract": "contracts/Frame.sol:Frame",
            "label": "startingTokenId",
            "offset": 0,
            "slot": "1",
            "type": "t_uint256"
          },
          {
            "astId": 6425,
            "contract": "contracts/Frame.sol:Frame",
            "label": "supply",
            "offset": 0,
            "slot": "2",
            "type": "t_uint256"
          },
          {
            "astId": 6428,
            "contract": "contracts/Frame.sol:Frame",
            "label": "tokenIds",
            "offset": 0,
            "slot": "3",
            "type": "t_struct(UintSet)6245_storage"
          }
        ],
        "numberOfBytes": "160"
      },
      "t_struct(Counter)5469_storage": {
        "encoding": "inplace",
        "label": "struct Counters.Counter",
        "members": [
          {
            "astId": 5468,
            "contract": "contracts/Frame.sol:Frame",
            "label": "_value",
            "offset": 0,
            "slot": "0",
            "type": "t_uint256"
          }
        ],
        "numberOfBytes": "32"
      },
      "t_struct(Exhibit)7959_storage": {
        "encoding": "inplace",
        "label": "struct IExhibitionable.Exhibit",
        "members": [
          {
            "astId": 7956,
            "contract": "contracts/Frame.sol:Frame",
            "label": "contractAddress",
            "offset": 0,
            "slot": "0",
            "type": "t_address"
          },
          {
            "astId": 7958,
            "contract": "contracts/Frame.sol:Frame",
            "label": "tokenId",
            "offset": 0,
            "slot": "1",
            "type": "t_uint256"
          }
        ],
        "numberOfBytes": "64"
      },
      "t_struct(Rental)8021_storage": {
        "encoding": "inplace",
        "label": "struct IRentable.Rental",
        "members": [
          {
            "astId": 8018,
            "contract": "contracts/Frame.sol:Frame",
            "label": "renter",
            "offset": 0,
            "slot": "0",
            "type": "t_address"
          },
          {
            "astId": 8020,
            "contract": "contracts/Frame.sol:Frame",
            "label": "rentalExpiryBlock",
            "offset": 0,
            "slot": "1",
            "type": "t_uint256"
          }
        ],
        "numberOfBytes": "64"
      },
      "t_struct(RoleData)285_storage": {
        "encoding": "inplace",
        "label": "struct AccessControl.RoleData",
        "members": [
          {
            "astId": 282,
            "contract": "contracts/Frame.sol:Frame",
            "label": "members",
            "offset": 0,
            "slot": "0",
            "type": "t_mapping(t_address,t_bool)"
          },
          {
            "astId": 284,
            "contract": "contracts/Frame.sol:Frame",
            "label": "adminRole",
            "offset": 0,
            "slot": "1",
            "type": "t_bytes32"
          }
        ],
        "numberOfBytes": "64"
      },
      "t_struct(Set)5787_storage": {
        "encoding": "inplace",
        "label": "struct EnumerableSet.Set",
        "members": [
          {
            "astId": 5782,
            "contract": "contracts/Frame.sol:Frame",
            "label": "_values",
            "offset": 0,
            "slot": "0",
            "type": "t_array(t_bytes32)dyn_storage"
          },
          {
            "astId": 5786,
            "contract": "contracts/Frame.sol:Frame",
            "label": "_indexes",
            "offset": 0,
            "slot": "1",
            "type": "t_mapping(t_bytes32,t_uint256)"
          }
        ],
        "numberOfBytes": "64"
      },
      "t_struct(UintSet)6245_storage": {
        "encoding": "inplace",
        "label": "struct EnumerableSet.UintSet",
        "members": [
          {
            "astId": 6244,
            "contract": "contracts/Frame.sol:Frame",
            "label": "_inner",
            "offset": 0,
            "slot": "0",
            "type": "t_struct(Set)5787_storage"
          }
        ],
        "numberOfBytes": "64"
      },
      "t_uint256": {
        "encoding": "inplace",
        "label": "uint256",
        "numberOfBytes": "32"
      }
    }
  }
}