{
  "address": "0xBbf17439C851d2c26BdC6Fa7eBb3c28424680935",
  "abi": [
    {
      "inputs": [
        {
          "internalType": "string",
          "name": "_name",
          "type": "string"
        },
        {
          "internalType": "string",
          "name": "_symbol",
          "type": "string"
        },
        {
          "internalType": "string",
          "name": "_baseTokenUri",
          "type": "string"
        },
        {
          "internalType": "string",
          "name": "_contractUri",
          "type": "string"
        },
        {
          "internalType": "address",
          "name": "_vrfCoordinator",
          "type": "address"
        },
        {
          "internalType": "address",
          "name": "_link",
          "type": "address"
        },
        {
          "internalType": "bytes32",
          "name": "_keyHash",
          "type": "bytes32"
        },
        {
          "internalType": "uint256",
          "name": "_fee",
          "type": "uint256"
        }
      ],
      "stateMutability": "nonpayable",
      "type": "constructor"
    },
    {
      "anonymous": false,
      "inputs": [
        {
          "indexed": true,
          "internalType": "address",
          "name": "owner",
          "type": "address"
        },
        {
          "indexed": true,
          "internalType": "address",
          "name": "approved",
          "type": "address"
        },
        {
          "indexed": true,
          "internalType": "uint256",
          "name": "tokenId",
          "type": "uint256"
        }
      ],
      "name": "Approval",
      "type": "event"
    },
    {
      "anonymous": false,
      "inputs": [
        {
          "indexed": true,
          "internalType": "address",
          "name": "owner",
          "type": "address"
        },
        {
          "indexed": true,
          "internalType": "address",
          "name": "operator",
          "type": "address"
        },
        {
          "indexed": false,
          "internalType": "bool",
          "name": "approved",
          "type": "bool"
        }
      ],
      "name": "ApprovalForAll",
      "type": "event"
    },
    {
      "anonymous": false,
      "inputs": [
        {
          "indexed": true,
          "internalType": "address",
          "name": "_to",
          "type": "address"
        },
        {
          "indexed": false,
          "internalType": "uint256",
          "name": "_value",
          "type": "uint256"
        }
      ],
      "name": "EtherWithdrawn",
      "type": "event"
    },
    {
      "anonymous": false,
      "inputs": [
        {
          "indexed": true,
          "internalType": "uint256",
          "name": "_tokenId",
          "type": "uint256"
        },
        {
          "indexed": true,
          "internalType": "address",
          "name": "_exhibitContractAddress",
          "type": "address"
        },
        {
          "indexed": false,
          "internalType": "uint256",
          "name": "_exhibitTokenId",
          "type": "uint256"
        }
      ],
      "name": "ExhibitSet",
      "type": "event"
    },
    {
      "anonymous": false,
      "inputs": [
        {
          "indexed": true,
          "internalType": "address",
          "name": "_to",
          "type": "address"
        },
        {
          "indexed": false,
          "internalType": "uint256",
          "name": "_value",
          "type": "uint256"
        }
      ],
      "name": "LinkWithdrawn",
      "type": "event"
    },
    {
      "anonymous": false,
      "inputs": [
        {
          "indexed": true,
          "internalType": "bytes32",
          "name": "_requestId",
          "type": "bytes32"
        },
        {
          "indexed": true,
          "internalType": "address",
          "name": "_address",
          "type": "address"
        },
        {
          "indexed": true,
          "internalType": "uint256",
          "name": "_tokenId",
          "type": "uint256"
        }
      ],
      "name": "MintFulfilled",
      "type": "event"
    },
    {
      "anonymous": false,
      "inputs": [
        {
          "indexed": true,
          "internalType": "bytes32",
          "name": "_requestId",
          "type": "bytes32"
        },
        {
          "indexed": true,
          "internalType": "address",
          "name": "_address",
          "type": "address"
        }
      ],
      "name": "MintRequest",
      "type": "event"
    },
    {
      "anonymous": false,
      "inputs": [
        {
          "indexed": false,
          "internalType": "address",
          "name": "account",
          "type": "address"
        }
      ],
      "name": "Paused",
      "type": "event"
    },
    {
      "anonymous": false,
      "inputs": [
        {
          "indexed": true,
          "internalType": "uint256",
          "name": "_tokenId",
          "type": "uint256"
        },
        {
          "indexed": true,
          "internalType": "address",
          "name": "_renter",
          "type": "address"
        },
        {
          "indexed": false,
          "internalType": "uint256",
          "name": "_rentalExpiryBlock",
          "type": "uint256"
        }
      ],
      "name": "RenterSet",
      "type": "event"
    },
    {
      "anonymous": false,
      "inputs": [
        {
          "indexed": true,
          "internalType": "bytes32",
          "name": "role",
          "type": "bytes32"
        },
        {
          "indexed": true,
          "internalType": "bytes32",
          "name": "previousAdminRole",
          "type": "bytes32"
        },
        {
          "indexed": true,
          "internalType": "bytes32",
          "name": "newAdminRole",
          "type": "bytes32"
        }
      ],
      "name": "RoleAdminChanged",
      "type": "event"
    },
    {
      "anonymous": false,
      "inputs": [
        {
          "indexed": true,
          "internalType": "bytes32",
          "name": "role",
          "type": "bytes32"
        },
        {
          "indexed": true,
          "internalType": "address",
          "name": "account",
          "type": "address"
        },
        {
          "indexed": true,
          "internalType": "address",
          "name": "sender",
          "type": "address"
        }
      ],
      "name": "RoleGranted",
      "type": "event"
    },
    {
      "anonymous": false,
      "inputs": [
        {
          "indexed": true,
          "internalType": "bytes32",
          "name": "role",
          "type": "bytes32"
        },
        {
          "indexed": true,
          "internalType": "address",
          "name": "account",
          "type": "address"
        },
        {
          "indexed": true,
          "internalType": "address",
          "name": "sender",
          "type": "address"
        }
      ],
      "name": "RoleRevoked",
      "type": "event"
    },
    {
      "anonymous": false,
      "inputs": [
        {
          "indexed": true,
          "internalType": "address",
          "name": "from",
          "type": "address"
        },
        {
          "indexed": true,
          "internalType": "address",
          "name": "to",
          "type": "address"
        },
        {
          "indexed": true,
          "internalType": "uint256",
          "name": "tokenId",
          "type": "uint256"
        }
      ],
      "name": "Transfer",
      "type": "event"
    },
    {
      "anonymous": false,
      "inputs": [
        {
          "indexed": false,
          "internalType": "address",
          "name": "account",
          "type": "address"
        }
      ],
      "name": "Unpaused",
      "type": "event"
    },
    {
      "inputs": [],
      "name": "DEFAULT_ADMIN_ROLE",
      "outputs": [
        {
          "internalType": "bytes32",
          "name": "",
          "type": "bytes32"
        }
      ],
      "stateMutability": "view",
      "type": "function"
    },
    {
      "inputs": [],
      "name": "MINTER_ROLE",
      "outputs": [
        {
          "internalType": "bytes32",
          "name": "",
          "type": "bytes32"
        }
      ],
      "stateMutability": "view",
      "type": "function"
    },
    {
      "inputs": [],
      "name": "PAUSER_ROLE",
      "outputs": [
        {
          "internalType": "bytes32",
          "name": "",
          "type": "bytes32"
        }
      ],
      "stateMutability": "view",
      "type": "function"
    },
    {
      "inputs": [
        {
          "internalType": "uint256",
          "name": "",
          "type": "uint256"
        }
      ],
      "name": "_rentalPrices",
      "outputs": [
        {
          "internalType": "uint256",
          "name": "",
          "type": "uint256"
        }
      ],
      "stateMutability": "view",
      "type": "function"
    },
    {
      "inputs": [
        {
          "internalType": "address",
          "name": "to",
          "type": "address"
        },
        {
          "internalType": "uint256",
          "name": "tokenId",
          "type": "uint256"
        }
      ],
      "name": "approve",
      "outputs": [],
      "stateMutability": "nonpayable",
      "type": "function"
    },
    {
      "inputs": [
        {
          "internalType": "address",
          "name": "owner",
          "type": "address"
        }
      ],
      "name": "balanceOf",
      "outputs": [
        {
          "internalType": "uint256",
          "name": "",
          "type": "uint256"
        }
      ],
      "stateMutability": "view",
      "type": "function"
    },
    {
      "inputs": [
        {
          "internalType": "uint256",
          "name": "tokenId",
          "type": "uint256"
        }
      ],
      "name": "burn",
      "outputs": [],
      "stateMutability": "nonpayable",
      "type": "function"
    },
    {
      "inputs": [
        {
          "internalType": "uint256",
          "name": "_tokenId",
          "type": "uint256"
        }
      ],
      "name": "clearExhibit",
      "outputs": [],
      "stateMutability": "nonpayable",
      "type": "function"
    },
    {
      "inputs": [],
      "name": "contractURI",
      "outputs": [
        {
          "internalType": "string",
          "name": "",
          "type": "string"
        }
      ],
      "stateMutability": "view",
      "type": "function"
    },
    {
      "inputs": [
        {
          "internalType": "uint256",
          "name": "tokenId",
          "type": "uint256"
        }
      ],
      "name": "getApproved",
      "outputs": [
        {
          "internalType": "address",
          "name": "",
          "type": "address"
        }
      ],
      "stateMutability": "view",
      "type": "function"
    },
    {
      "inputs": [
        {
          "internalType": "uint256",
          "name": "_tokenId",
          "type": "uint256"
        }
      ],
      "name": "getExhibit",
      "outputs": [
        {
          "components": [
            {
              "internalType": "address",
              "name": "contractAddress",
              "type": "address"
            },
            {
              "internalType": "uint256",
              "name": "tokenId",
              "type": "uint256"
            }
          ],
          "internalType": "struct IExhibitionable.Exhibit",
          "name": "",
          "type": "tuple"
        }
      ],
      "stateMutability": "view",
      "type": "function"
    },
    {
      "inputs": [
        {
          "internalType": "uint256",
          "name": "_tokenId",
          "type": "uint256"
        }
      ],
      "name": "getRentalPricePerBlock",
      "outputs": [
        {
          "internalType": "uint256",
          "name": "",
          "type": "uint256"
        }
      ],
      "stateMutability": "view",
      "type": "function"
    },
    {
      "inputs": [
        {
          "internalType": "uint256",
          "name": "_tokenId",
          "type": "uint256"
        }
      ],
      "name": "getRenter",
      "outputs": [
        {
          "components": [
            {
              "internalType": "address",
              "name": "renter",
              "type": "address"
            },
            {
              "internalType": "uint256",
              "name": "rentalExpiryBlock",
              "type": "uint256"
            }
          ],
          "internalType": "struct IRentable.Rental",
          "name": "",
          "type": "tuple"
        }
      ],
      "stateMutability": "view",
      "type": "function"
    },
    {
      "inputs": [
        {
          "internalType": "bytes32",
          "name": "role",
          "type": "bytes32"
        }
      ],
      "name": "getRoleAdmin",
      "outputs": [
        {
          "internalType": "bytes32",
          "name": "",
          "type": "bytes32"
        }
      ],
      "stateMutability": "view",
      "type": "function"
    },
    {
      "inputs": [
        {
          "internalType": "bytes32",
          "name": "role",
          "type": "bytes32"
        },
        {
          "internalType": "uint256",
          "name": "index",
          "type": "uint256"
        }
      ],
      "name": "getRoleMember",
      "outputs": [
        {
          "internalType": "address",
          "name": "",
          "type": "address"
        }
      ],
      "stateMutability": "view",
      "type": "function"
    },
    {
      "inputs": [
        {
          "internalType": "bytes32",
          "name": "role",
          "type": "bytes32"
        }
      ],
      "name": "getRoleMemberCount",
      "outputs": [
        {
          "internalType": "uint256",
          "name": "",
          "type": "uint256"
        }
      ],
      "stateMutability": "view",
      "type": "function"
    },
    {
      "inputs": [],
      "name": "getVersionNumber",
      "outputs": [
        {
          "internalType": "uint256",
          "name": "",
          "type": "uint256"
        },
        {
          "internalType": "uint256",
          "name": "",
          "type": "uint256"
        },
        {
          "internalType": "uint256",
          "name": "",
          "type": "uint256"
        },
        {
          "internalType": "uint256",
          "name": "",
          "type": "uint256"
        }
      ],
      "stateMutability": "pure",
      "type": "function"
    },
    {
      "inputs": [
        {
          "internalType": "bytes32",
          "name": "role",
          "type": "bytes32"
        },
        {
          "internalType": "address",
          "name": "account",
          "type": "address"
        }
      ],
      "name": "grantRole",
      "outputs": [],
      "stateMutability": "nonpayable",
      "type": "function"
    },
    {
      "inputs": [
        {
          "internalType": "bytes32",
          "name": "role",
          "type": "bytes32"
        },
        {
          "internalType": "address",
          "name": "account",
          "type": "address"
        }
      ],
      "name": "hasRole",
      "outputs": [
        {
          "internalType": "bool",
          "name": "",
          "type": "bool"
        }
      ],
      "stateMutability": "view",
      "type": "function"
    },
    {
      "inputs": [
        {
          "internalType": "address",
          "name": "owner",
          "type": "address"
        },
        {
          "internalType": "address",
          "name": "operator",
          "type": "address"
        }
      ],
      "name": "isApprovedForAll",
      "outputs": [
        {
          "internalType": "bool",
          "name": "",
          "type": "bool"
        }
      ],
      "stateMutability": "view",
      "type": "function"
    },
    {
      "inputs": [
        {
          "internalType": "address",
          "name": "to",
          "type": "address"
        }
      ],
      "name": "mint",
      "outputs": [],
      "stateMutability": "nonpayable",
      "type": "function"
    },
    {
      "inputs": [
        {
          "internalType": "enum Frame.Category",
          "name": "_category",
          "type": "uint8"
        }
      ],
      "name": "mintFrame",
      "outputs": [],
      "stateMutability": "payable",
      "type": "function"
    },
    {
      "inputs": [],
      "name": "name",
      "outputs": [
        {
          "internalType": "string",
          "name": "",
          "type": "string"
        }
      ],
      "stateMutability": "view",
      "type": "function"
    },
    {
      "inputs": [
        {
          "internalType": "uint256",
          "name": "tokenId",
          "type": "uint256"
        }
      ],
      "name": "ownerOf",
      "outputs": [
        {
          "internalType": "address",
          "name": "",
          "type": "address"
        }
      ],
      "stateMutability": "view",
      "type": "function"
    },
    {
      "inputs": [],
      "name": "pause",
      "outputs": [],
      "stateMutability": "nonpayable",
      "type": "function"
    },
    {
      "inputs": [],
      "name": "paused",
      "outputs": [
        {
          "internalType": "bool",
          "name": "",
          "type": "bool"
        }
      ],
      "stateMutability": "view",
      "type": "function"
    },
    {
      "inputs": [
        {
          "internalType": "bytes32",
          "name": "requestId",
          "type": "bytes32"
        },
        {
          "internalType": "uint256",
          "name": "randomness",
          "type": "uint256"
        }
      ],
      "name": "rawFulfillRandomness",
      "outputs": [],
      "stateMutability": "nonpayable",
      "type": "function"
    },
    {
      "inputs": [
        {
          "internalType": "bytes32",
          "name": "role",
          "type": "bytes32"
        },
        {
          "internalType": "address",
          "name": "account",
          "type": "address"
        }
      ],
      "name": "renounceRole",
      "outputs": [],
      "stateMutability": "nonpayable",
      "type": "function"
    },
    {
      "inputs": [
        {
          "internalType": "bytes32",
          "name": "",
          "type": "bytes32"
        }
      ],
      "name": "requestIdToCategory",
      "outputs": [
        {
          "internalType": "enum Frame.Category",
          "name": "",
          "type": "uint8"
        }
      ],
      "stateMutability": "view",
      "type": "function"
    },
    {
      "inputs": [
        {
          "internalType": "bytes32",
          "name": "",
          "type": "bytes32"
        }
      ],
      "name": "requestIdToSender",
      "outputs": [
        {
          "internalType": "address",
          "name": "",
          "type": "address"
        }
      ],
      "stateMutability": "view",
      "type": "function"
    },
    {
      "inputs": [
        {
          "internalType": "bytes32",
          "name": "",
          "type": "bytes32"
        }
      ],
      "name": "requestIdToTokenId",
      "outputs": [
        {
          "internalType": "uint256",
          "name": "",
          "type": "uint256"
        }
      ],
      "stateMutability": "view",
      "type": "function"
    },
    {
      "inputs": [
        {
          "internalType": "bytes32",
          "name": "role",
          "type": "bytes32"
        },
        {
          "internalType": "address",
          "name": "account",
          "type": "address"
        }
      ],
      "name": "revokeRole",
      "outputs": [],
      "stateMutability": "nonpayable",
      "type": "function"
    },
    {
      "inputs": [
        {
          "internalType": "address",
          "name": "from",
          "type": "address"
        },
        {
          "internalType": "address",
          "name": "to",
          "type": "address"
        },
        {
          "internalType": "uint256",
          "name": "tokenId",
          "type": "uint256"
        }
      ],
      "name": "safeTransferFrom",
      "outputs": [],
      "stateMutability": "nonpayable",
      "type": "function"
    },
    {
      "inputs": [
        {
          "internalType": "address",
          "name": "from",
          "type": "address"
        },
        {
          "internalType": "address",
          "name": "to",
          "type": "address"
        },
        {
          "internalType": "uint256",
          "name": "tokenId",
          "type": "uint256"
        },
        {
          "internalType": "bytes",
          "name": "_data",
          "type": "bytes"
        }
      ],
      "name": "safeTransferFrom",
      "outputs": [],
      "stateMutability": "nonpayable",
      "type": "function"
    },
    {
      "inputs": [
        {
          "internalType": "address",
          "name": "operator",
          "type": "address"
        },
        {
          "internalType": "bool",
          "name": "approved",
          "type": "bool"
        }
      ],
      "name": "setApprovalForAll",
      "outputs": [],
      "stateMutability": "nonpayable",
      "type": "function"
    },
    {
      "inputs": [],
      "name": "setCategoriesInitialized",
      "outputs": [],
      "stateMutability": "nonpayable",
      "type": "function"
    },
    {
      "inputs": [
        {
          "internalType": "enum Frame.Category",
          "name": "_category",
          "type": "uint8"
        },
        {
          "internalType": "uint256",
          "name": "_price",
          "type": "uint256"
        },
        {
          "internalType": "uint256",
          "name": "_startingTokenId",
          "type": "uint256"
        },
        {
          "internalType": "uint256",
          "name": "_supply",
          "type": "uint256"
        }
      ],
      "name": "setCategoryDetail",
      "outputs": [],
      "stateMutability": "nonpayable",
      "type": "function"
    },
    {
      "inputs": [
        {
          "internalType": "uint256",
          "name": "_tokenId",
          "type": "uint256"
        },
        {
          "internalType": "address",
          "name": "_exhibitContractAddress",
          "type": "address"
        },
        {
          "internalType": "uint256",
          "name": "_exhibitTokenId",
          "type": "uint256"
        }
      ],
      "name": "setExhibit",
      "outputs": [],
      "stateMutability": "nonpayable",
      "type": "function"
    },
    {
      "inputs": [
        {
          "internalType": "uint256",
          "name": "_tokenId",
          "type": "uint256"
        },
        {
          "internalType": "uint256",
          "name": "_rentalPrice",
          "type": "uint256"
        }
      ],
      "name": "setRentalPricePerBlock",
      "outputs": [],
      "stateMutability": "nonpayable",
      "type": "function"
    },
    {
      "inputs": [
        {
          "internalType": "uint256",
          "name": "_tokenId",
          "type": "uint256"
        },
        {
          "internalType": "address",
          "name": "_renter",
          "type": "address"
        },
        {
          "internalType": "uint256",
          "name": "_rentalExpiryAtBlock",
          "type": "uint256"
        }
      ],
      "name": "setRenter",
      "outputs": [],
      "stateMutability": "payable",
      "type": "function"
    },
    {
      "inputs": [
        {
          "internalType": "bytes4",
          "name": "interfaceId",
          "type": "bytes4"
        }
      ],
      "name": "supportsInterface",
      "outputs": [
        {
          "internalType": "bool",
          "name": "",
          "type": "bool"
        }
      ],
      "stateMutability": "view",
      "type": "function"
    },
    {
      "inputs": [],
      "name": "symbol",
      "outputs": [
        {
          "internalType": "string",
          "name": "",
          "type": "string"
        }
      ],
      "stateMutability": "view",
      "type": "function"
    },
    {
      "inputs": [
        {
          "internalType": "uint256",
          "name": "index",
          "type": "uint256"
        }
      ],
      "name": "tokenByIndex",
      "outputs": [
        {
          "internalType": "uint256",
          "name": "",
          "type": "uint256"
        }
      ],
      "stateMutability": "view",
      "type": "function"
    },
    {
      "inputs": [
        {
          "internalType": "address",
          "name": "owner",
          "type": "address"
        },
        {
          "internalType": "uint256",
          "name": "index",
          "type": "uint256"
        }
      ],
      "name": "tokenOfOwnerByIndex",
      "outputs": [
        {
          "internalType": "uint256",
          "name": "",
          "type": "uint256"
        }
      ],
      "stateMutability": "view",
      "type": "function"
    },
    {
      "inputs": [
        {
          "internalType": "uint256",
          "name": "tokenId",
          "type": "uint256"
        }
      ],
      "name": "tokenURI",
      "outputs": [
        {
          "internalType": "string",
          "name": "",
          "type": "string"
        }
      ],
      "stateMutability": "view",
      "type": "function"
    },
    {
      "inputs": [],
      "name": "totalSupply",
      "outputs": [
        {
          "internalType": "uint256",
          "name": "",
          "type": "uint256"
        }
      ],
      "stateMutability": "view",
      "type": "function"
    },
    {
      "inputs": [
        {
          "internalType": "address",
          "name": "from",
          "type": "address"
        },
        {
          "internalType": "address",
          "name": "to",
          "type": "address"
        },
        {
          "internalType": "uint256",
          "name": "tokenId",
          "type": "uint256"
        }
      ],
      "name": "transferFrom",
      "outputs": [],
      "stateMutability": "nonpayable",
      "type": "function"
    },
    {
      "inputs": [],
      "name": "unpause",
      "outputs": [],
      "stateMutability": "nonpayable",
      "type": "function"
    },
    {
      "inputs": [
        {
          "internalType": "address payable",
          "name": "_to",
          "type": "address"
        }
      ],
      "name": "withdrawAllLink",
      "outputs": [],
      "stateMutability": "nonpayable",
      "type": "function"
    },
    {
      "inputs": [
        {
          "internalType": "address payable",
          "name": "_to",
          "type": "address"
        },
        {
          "internalType": "uint256",
          "name": "_value",
          "type": "uint256"
        }
      ],
      "name": "withdrawEther",
      "outputs": [],
      "stateMutability": "nonpayable",
      "type": "function"
    }
  ],
  "transactionHash": "0xb3991e75012497a9b0369fdf19ce5f1f2dd9f9213e97ff0e625ab00c56384113",
  "args": [
    "Frame",
    "FRAME",
    "ipfs://QmTwKp2Nxue8pUoxEGbP35fbi5wWVWsg52MH7NHo3hLfw9/",
    "https://musee-dezental.com/storefront",
    "0xb3dCcb4Cf7a26f6cf6B120Cf5A73875B7BBc655B",
    "0x01BE23585060835E02B77ef475b0Cc51aA1e0709",
    "0x2ed0feb3e7fd2022120aa84fab1945545a9f2ffc9076fd6156fa96eaff4c1311",
    "100000000000000000"
  ],
  "solcInputHash": "2e82a26cbaa464103e586e4f56db0056",
  "bytecode": "0x60c0604052600060195567016345785d8a0000601b55601c805460ff191690553480156200002c57600080fd5b5060405162004786380380620047868339810160408190526200004f9162000438565b838389898982826001600081905550816006908051906020019062000076929190620002c2565b5080516200008c906007906020840190620002c2565b50506010805460ff19169055508051620000ae906012906020840190620002c2565b50620000bc60003362000159565b620000e87f9f2df0fed2c77648de5860a4cc508cd0818c85b8b8a1ab4ceeef8d981c8956a63362000159565b620001147f65d7a28e3265b37a6474929f336521b332c1681b933f6cb9f3376673440d862a3362000159565b5050506001600160601b0319606092831b811660a052911b16608052845162000145906014906020880190620002c2565b50601b55601a555062000577945050505050565b6200017082826200019c60201b620023d01760201c565b600082815260056020908152604090912062000197918390620023da620001ac821b17901c565b505050565b620001a88282620001cc565b5050565b6000620001c3836001600160a01b03841662000270565b90505b92915050565b60008281526004602090815260408083206001600160a01b038516845290915290205460ff16620001a85760008281526004602090815260408083206001600160a01b03851684529091529020805460ff191660011790556200022c3390565b6001600160a01b0316816001600160a01b0316837f2f8788117e7eff1d82e926ec794901d17c78024a50270940304540a733656f0d60405160405180910390a45050565b6000818152600183016020526040812054620002b957508154600181810184556000848152602080822090930184905584548482528286019093526040902091909155620001c6565b506000620001c6565b828054620002d09062000524565b90600052602060002090601f016020900481019282620002f457600085556200033f565b82601f106200030f57805160ff19168380011785556200033f565b828001600101855582156200033f579182015b828111156200033f57825182559160200191906001019062000322565b506200034d92915062000351565b5090565b5b808211156200034d576000815560010162000352565b80516001600160a01b03811681146200038057600080fd5b919050565b600082601f83011262000396578081fd5b81516001600160401b0380821115620003b357620003b362000561565b604051601f8301601f19908116603f01168101908282118183101715620003de57620003de62000561565b81604052838152602092508683858801011115620003fa578485fd5b8491505b838210156200041d5785820183015181830184015290820190620003fe565b838211156200042e57848385830101525b9695505050505050565b600080600080600080600080610100898b03121562000455578384fd5b88516001600160401b03808211156200046c578586fd5b6200047a8c838d0162000385565b995060208b015191508082111562000490578586fd5b6200049e8c838d0162000385565b985060408b0151915080821115620004b4578586fd5b620004c28c838d0162000385565b975060608b0151915080821115620004d8578586fd5b50620004e78b828c0162000385565b955050620004f860808a0162000368565b93506200050860a08a0162000368565b60c08a015160e0909a0151989b979a5095989497939692505050565b600181811c908216806200053957607f821691505b602082108114156200055b57634e487b7160e01b600052602260045260246000fd5b50919050565b634e487b7160e01b600052604160045260246000fd5b60805160601c60a05160601c6141c7620005bf60003960008181611a2f0152612cb3015260008181611638015281816116c601528181611d830152612c8401526141c76000f3fe6080604052600436106102c95760003560e01c8063690e4bed11610175578063a3e5cb51116100dc578063d057d24c11610095578063e63ab1e91161006f578063e63ab1e914610995578063e8a3d485146109c9578063e985e9c5146109de578063fc1560b714610a2757600080fd5b8063d057d24c146108df578063d539139314610941578063d547741f1461097557600080fd5b8063a3e5cb511461081a578063a9c934f014610857578063b88d4fde1461086a578063c87b56dd1461088a578063ca15c873146108aa578063ccac97d3146108ca57600080fd5b806391d148541161012e57806391d148541461076357806394985ddd1461078357806395d89b41146107a357806396eb8096146107b8578063a217fddf146107e5578063a22cb465146107fa57600080fd5b8063690e4bed146106a15780636a627842146106c157806370a08231146106e15780637e70f7cc146107015780638456cb591461072e5780639010d07c1461074357600080fd5b80632f745c59116102345780634684c611116101ed57806354255be0116101c757806354255be0146106155780635c975abb146106495780636352211e14610661578063690878191461068157600080fd5b80634684c611146105b55780634f6ccce7146105d5578063522f6815146105f557600080fd5b80632f745c59146104b15780633009c19b146104d157806336568abe146105405780633f4ba83a1461056057806342842e0e1461057557806342966c681461059557600080fd5b8063213a423411610286578063213a4234146103be578063219c0eee146103de57806322881f881461041457806323b872dd14610441578063248a9ca3146104615780632f2ff15d1461049157600080fd5b806301ffc9a7146102ce57806306fdde0314610303578063081812fc14610325578063095ea7b31461035d57806309acea491461037f57806318160ddd1461039f575b600080fd5b3480156102da57600080fd5b506102ee6102e9366004613b97565b610a3a565b60405190151581526020015b60405180910390f35b34801561030f57600080fd5b50610318610a4b565b6040516102fa9190613e1b565b34801561033157600080fd5b50610345610340366004613b3a565b610add565b6040516001600160a01b0390911681526020016102fa565b34801561036957600080fd5b5061037d610378366004613b0c565b610b6a565b005b34801561038b57600080fd5b5061037d61039a366004613b3a565b610c80565b3480156103ab57600080fd5b50600e545b6040519081526020016102fa565b3480156103ca57600080fd5b5061037d6103d9366004613be9565b610dfa565b3480156103ea57600080fd5b506103456103f9366004613b3a565b6016602052600090815260409020546001600160a01b031681565b34801561042057600080fd5b506103b061042f366004613b3a565b60186020526000908152604090205481565b34801561044d57600080fd5b5061037d61045c3660046139e3565b610f48565b34801561046d57600080fd5b506103b061047c366004613b3a565b60009081526004602052604090206001015490565b34801561049d57600080fd5b5061037d6104ac366004613b52565b610f7a565b3480156104bd57600080fd5b506103b06104cc366004613b0c565b610f9c565b3480156104dd57600080fd5b506105336104ec366004613b3a565b604080518082019091526000808252602082015250600090815260026020908152604091829020825180840190935280546001600160a01b03168352600101549082015290565b6040516102fa9190613fb6565b34801561054c57600080fd5b5061037d61055b366004613b52565b611032565b34801561056c57600080fd5b5061037d611054565b34801561058157600080fd5b5061037d6105903660046139e3565b6110fc565b3480156105a157600080fd5b5061037d6105b0366004613b3a565b611117565b3480156105c157600080fd5b5061037d6105d0366004613c90565b611191565b3480156105e157600080fd5b506103b06105f0366004613b3a565b611323565b34801561060157600080fd5b5061037d610610366004613980565b6113c4565b34801561062157600080fd5b50600160006002816040805194855260208501939093529183015260608201526080016102fa565b34801561065557600080fd5b5060105460ff166102ee565b34801561066d57600080fd5b5061034561067c366004613b3a565b61146b565b34801561068d57600080fd5b5061037d61069c366004613b76565b6114e2565b3480156106ad57600080fd5b5061037d6106bc366004613964565b6115d1565b3480156106cd57600080fd5b5061037d6106dc366004613964565b6117f3565b3480156106ed57600080fd5b506103b06106fc366004613964565b6118af565b34801561070d57600080fd5b506103b061071c366004613b3a565b60009081526001602052604090205490565b34801561073a57600080fd5b5061037d611936565b34801561074f57600080fd5b5061034561075e366004613b76565b6119da565b34801561076f57600080fd5b506102ee61077e366004613b52565b6119f9565b34801561078f57600080fd5b5061037d61079e366004613b76565b611a24565b3480156107af57600080fd5b50610318611aaa565b3480156107c457600080fd5b506103b06107d3366004613b3a565b60016020526000908152604090205481565b3480156107f157600080fd5b506103b0600081565b34801561080657600080fd5b5061037d610815366004613adf565b611ab9565b34801561082657600080fd5b5061084a610835366004613b3a565b60176020526000908152604090205460ff1681565b6040516102fa9190613df3565b61037d610865366004613bcf565b611b7e565b34801561087657600080fd5b5061037d610885366004613a23565b611eee565b34801561089657600080fd5b506103186108a5366004613b3a565b611f26565b3480156108b657600080fd5b506103b06108c5366004613b3a565b611ff0565b3480156108d657600080fd5b5061037d612007565b3480156108eb57600080fd5b506105336108fa366004613b3a565b604080518082019091526000808252602082015250600090815260036020908152604091829020825180840190935280546001600160a01b03168352600101549082015290565b34801561094d57600080fd5b506103b07f9f2df0fed2c77648de5860a4cc508cd0818c85b8b8a1ab4ceeef8d981c8956a681565b34801561098157600080fd5b5061037d610990366004613b52565b61203f565b3480156109a157600080fd5b506103b07f65d7a28e3265b37a6474929f336521b332c1681b933f6cb9f3376673440d862a81565b3480156109d557600080fd5b50610318612049565b3480156109ea57600080fd5b506102ee6109f93660046139ab565b6001600160a01b039182166000908152600b6020908152604080832093909416825291909152205460ff1690565b61037d610a35366004613c90565b6120d7565b6000610a45826123ef565b92915050565b606060068054610a5a906140ac565b80601f0160208091040260200160405190810160405280929190818152602001828054610a86906140ac565b8015610ad35780601f10610aa857610100808354040283529160200191610ad3565b820191906000526020600020905b815481529060010190602001808311610ab657829003601f168201915b5050505050905090565b6000610ae882612414565b610b4e5760405162461bcd60e51b815260206004820152602c60248201527f4552433732313a20617070726f76656420717565727920666f72206e6f6e657860448201526b34b9ba32b73a103a37b5b2b760a11b60648201526084015b60405180910390fd5b506000908152600a60205260409020546001600160a01b031690565b6000610b758261146b565b9050806001600160a01b0316836001600160a01b03161415610be35760405162461bcd60e51b815260206004820152602160248201527f4552433732313a20617070726f76616c20746f2063757272656e74206f776e656044820152603960f91b6064820152608401610b45565b336001600160a01b0382161480610bff5750610bff81336109f9565b610c715760405162461bcd60e51b815260206004820152603860248201527f4552433732313a20617070726f76652063616c6c6572206973206e6f74206f7760448201527f6e6572206e6f7220617070726f76656420666f7220616c6c00000000000000006064820152608401610b45565b610c7b8383612431565b505050565b80610c8a81612414565b610ca65760405162461bcd60e51b8152600401610b4590613e80565b81336000610cb38361146b565b604051633009c19b60e01b8152600481018590529091506001600160a01b0383811690831614906000903090633009c19b90602401604080518083038186803b158015610cff57600080fd5b505afa158015610d13573d6000803e3d6000fd5b505050506040513d601f19601f82011682018060405250810190610d379190613c21565b80519091506001600160a01b038581169116148280610d535750805b610d9f5760405162461bcd60e51b815260206004820152601f60248201527f4672616d653a20546f6b656e206e6f74206f776e6564202f2072656e746564006044820152606401610b45565b6040516309acea4960e01b81526004810189905230906309acea4990602401600060405180830381600087803b158015610dd857600080fd5b505af1158015610dec573d6000803e3d6000fd5b505050505050505050505050565b33610e066000826119f9565b610e225760405162461bcd60e51b8152600401610b4590613ecc565b84600a81600a811115610e4557634e487b7160e01b600052602160045260246000fd5b1115610e635760405162461bcd60e51b8152600401610b4590613f48565b600081600a811115610e8557634e487b7160e01b600052602160045260246000fd5b1015610ea35760405162461bcd60e51b8152600401610b4590613f48565b60006015600088600a811115610ec957634e487b7160e01b600052602160045260246000fd5b600a811115610ee857634e487b7160e01b600052602160045260246000fd5b8152602081019190915260400160002086815560018101869055600281018590559050845b610f178587614007565b811015610f3e57610f2b600383018261249f565b5080610f36816140e7565b915050610f0d565b5050505050505050565b610f53335b826124ab565b610f6f5760405162461bcd60e51b8152600401610b4590613ef7565b610c7b838383612550565b610f8482826126fb565b6000828152600560205260409020610c7b90826123da565b6000610fa7836118af565b82106110095760405162461bcd60e51b815260206004820152602b60248201527f455243373231456e756d657261626c653a206f776e657220696e646578206f7560448201526a74206f6620626f756e647360a81b6064820152608401610b45565b506001600160a01b03919091166000908152600c60209081526040808320938352929052205490565b61103c8282612721565b6000828152600560205260409020610c7b908261279b565b61107e7f65d7a28e3265b37a6474929f336521b332c1681b933f6cb9f3376673440d862a336119f9565b6110f2576040805162461bcd60e51b81526020600482015260248101919091527f4552433732315072657365744d696e7465725061757365724175746f49643a2060448201527f6d75737420686176652070617573657220726f6c6520746f20756e70617573656064820152608401610b45565b6110fa6127b0565b565b610c7b83838360405180602001604052806000815250611eee565b61112033610f4d565b6111855760405162461bcd60e51b815260206004820152603060248201527f4552433732314275726e61626c653a2063616c6c6572206973206e6f74206f7760448201526f1b995c881b9bdc88185c1c1c9bdd995960821b6064820152608401610b45565b61118e81612843565b50565b8261119b81612414565b6111b75760405162461bcd60e51b8152600401610b4590613e80565b833360006111c48361146b565b604051633009c19b60e01b8152600481018590529091506001600160a01b0383811690831614906000903090633009c19b90602401604080518083038186803b15801561121057600080fd5b505afa158015611224573d6000803e3d6000fd5b505050506040513d601f19601f820116820180604052508101906112489190613c21565b80519091506001600160a01b0385811691161482806112645750805b6112b05760405162461bcd60e51b815260206004820152601f60248201527f4672616d653a20546f6b656e206e6f74206f776e6564202f2072656e746564006044820152606401610b45565b604051634684c61160e01b8152600481018b90526001600160a01b038a166024820152604481018990523090634684c61190606401600060405180830381600087803b1580156112ff57600080fd5b505af1158015611313573d6000803e3d6000fd5b5050505050505050505050505050565b600061132e600e5490565b82106113915760405162461bcd60e51b815260206004820152602c60248201527f455243373231456e756d657261626c653a20676c6f62616c20696e646578206f60448201526b7574206f6620626f756e647360a01b6064820152608401610b45565b600e82815481106113b257634e487b7160e01b600052603260045260246000fd5b90600052602060002001549050919050565b336113d06000826119f9565b6113ec5760405162461bcd60e51b8152600401610b4590613ecc565b6002600054141561140f5760405162461bcd60e51b8152600401610b4590613f7f565b600260005561141e83836128ea565b826001600160a01b03167f06097061aeda806b5e9cb4133d9899f332ff0913956567fc0f7ea15e3d19947c8360405161145991815260200190565b60405180910390a25050600160005550565b6000818152600860205260408120546001600160a01b031680610a455760405162461bcd60e51b815260206004820152602960248201527f4552433732313a206f776e657220717565727920666f72206e6f6e657869737460448201526832b73a103a37b5b2b760b91b6064820152608401610b45565b816114ec81612414565b6115085760405162461bcd60e51b8152600401610b4590613e80565b823360006115158361146b565b9050816001600160a01b0316816001600160a01b0316146115715760405162461bcd60e51b8152602060048201526016602482015275119c985b594e88151bdad95b881b9bdd081bdddb995960521b6044820152606401610b45565b604051636908781960e01b815260048101879052602481018690523090636908781990604401600060405180830381600087803b1580156115b157600080fd5b505af11580156115c5573d6000803e3d6000fd5b50505050505050505050565b336115dd6000826119f9565b6115f95760405162461bcd60e51b8152600401610b4590613ecc565b6002600054141561161c5760405162461bcd60e51b8152600401610b4590613f7f565b600260009081556040516370a0823160e01b81523060048201527f00000000000000000000000000000000000000000000000000000000000000006001600160a01b0316906370a082319060240160206040518083038186803b15801561168257600080fd5b505afa158015611696573d6000803e3d6000fd5b505050506040513d601f19601f820116820180604052508101906116ba9190613c78565b90506001600160a01b037f00000000000000000000000000000000000000000000000000000000000000001663a9059cbb336040516001600160e01b031960e084901b1681526001600160a01b03909116600482015260248101849052604401602060405180830381600087803b15801561173457600080fd5b505af1158015611748573d6000803e3d6000fd5b505050506040513d601f19601f8201168201806040525081019061176c9190613b1e565b6117b85760405162461bcd60e51b815260206004820152601960248201527f4672616d653a204572726f722073656e64696e67204c494e4b000000000000006044820152606401610b45565b826001600160a01b03167fcb1436249a1dd8cf93362c28d79a4e20dc54398b6c49e30316e8396e72a584b08260405161145991815260200190565b61181d7f9f2df0fed2c77648de5860a4cc508cd0818c85b8b8a1ab4ceeef8d981c8956a6336119f9565b61188f5760405162461bcd60e51b815260206004820152603d60248201527f4552433732315072657365744d696e7465725061757365724175746f49643a2060448201527f6d7573742068617665206d696e74657220726f6c6520746f206d696e740000006064820152608401610b45565b6118a18161189c60115490565b61298d565b61118e601180546001019055565b60006001600160a01b03821661191a5760405162461bcd60e51b815260206004820152602a60248201527f4552433732313a2062616c616e636520717565727920666f7220746865207a65604482015269726f206164647265737360b01b6064820152608401610b45565b506001600160a01b031660009081526009602052604090205490565b6119607f65d7a28e3265b37a6474929f336521b332c1681b933f6cb9f3376673440d862a336119f9565b6119d25760405162461bcd60e51b815260206004820152603e60248201527f4552433732315072657365744d696e7465725061757365724175746f49643a2060448201527f6d75737420686176652070617573657220726f6c6520746f20706175736500006064820152608401610b45565b6110fa612acc565b60008281526005602052604081206119f29083612b47565b9392505050565b60009182526004602090815260408084206001600160a01b0393909316845291905290205460ff1690565b336001600160a01b037f00000000000000000000000000000000000000000000000000000000000000001614611a9c5760405162461bcd60e51b815260206004820152601f60248201527f4f6e6c7920565246436f6f7264696e61746f722063616e2066756c66696c6c006044820152606401610b45565b611aa68282612b53565b5050565b606060078054610a5a906140ac565b6001600160a01b038216331415611b125760405162461bcd60e51b815260206004820152601960248201527f4552433732313a20617070726f766520746f2063616c6c6572000000000000006044820152606401610b45565b336000818152600b602090815260408083206001600160a01b03871680855290835292819020805460ff191686151590811790915590519081529192917f17307eab39ab6107e8899845ad3d59bd9653f200f220920489ca2b5937696c31910160405180910390a35050565b601c5460ff16611bc35760405162461bcd60e51b815260206004820152601060248201526f4672616d653a204e6f7420726561647960801b6044820152606401610b45565b80600a81600a811115611be657634e487b7160e01b600052602160045260246000fd5b1115611c045760405162461bcd60e51b8152600401610b4590613f48565b600081600a811115611c2657634e487b7160e01b600052602160045260246000fd5b1015611c445760405162461bcd60e51b8152600401610b4590613f48565b60026000541415611c675760405162461bcd60e51b8152600401610b4590613f7f565b6002600090815560158184600a811115611c9157634e487b7160e01b600052602160045260246000fd5b600a811115611cb057634e487b7160e01b600052602160045260246000fd5b815260200190815260200160002090506000611cce82600301612c76565b11611d0d5760405162461bcd60e51b815260206004820152600f60248201526e119c985b594e8814dbdb19081bdd5d608a1b6044820152606401610b45565b80543414611d6b5760405162461bcd60e51b815260206004820152602560248201527f4672616d653a20496e636f7272656374207061796d656e7420666f722063617460448201526465676f727960d81b6064820152608401610b45565b601b546040516370a0823160e01b81523060048201527f00000000000000000000000000000000000000000000000000000000000000006001600160a01b0316906370a082319060240160206040518083038186803b158015611dcd57600080fd5b505afa158015611de1573d6000803e3d6000fd5b505050506040513d601f19601f82011682018060405250810190611e059190613c78565b1015611e4c5760405162461bcd60e51b81526020600482015260166024820152754672616d653a204e6f7420656e6f756768204c494e4b60501b6044820152606401610b45565b6000611e5c601a54601b54612c80565b600081815260166020908152604080832080546001600160a01b03191633179055601790915290208054919250859160ff1916600183600a811115611eb157634e487b7160e01b600052602160045260246000fd5b0217905550604051339082907f9d03d5e4e11627bacfb2a3a993b2f9923c66e8cb86c1c3a6bca45fc876590d7890600090a3505060016000555050565b611ef833836124ab565b611f145760405162461bcd60e51b8152600401610b4590613ef7565b611f2084848484612e0b565b50505050565b6060611f3182612414565b611f955760405162461bcd60e51b815260206004820152602f60248201527f4552433732314d657461646174613a2055524920717565727920666f72206e6f60448201526e3732bc34b9ba32b73a103a37b5b2b760891b6064820152608401610b45565b6000611f9f612e3e565b90506000815111611fbf57604051806020016040528060008152506119f2565b80611fc984612e4d565b604051602001611fda929190613ce2565b6040516020818303038152906040529392505050565b6000818152600560205260408120610a4590612c76565b336120136000826119f9565b61202f5760405162461bcd60e51b8152600401610b4590613ecc565b50601c805460ff19166001179055565b61103c8282612f67565b60148054612056906140ac565b80601f0160208091040260200160405190810160405280929190818152602001828054612082906140ac565b80156120cf5780601f106120a4576101008083540402835291602001916120cf565b820191906000526020600020905b8154815290600101906020018083116120b257829003601f168201915b505050505081565b826120e181612414565b6120fd5760405162461bcd60e51b8152600401610b4590613e80565b604051633009c19b60e01b81526004810185905284906000903090633009c19b90602401604080518083038186803b15801561213857600080fd5b505afa15801561214c573d6000803e3d6000fd5b505050506040513d601f19601f820116820180604052508101906121709190613c21565b90508060200151600014806121885750438160200151105b6121d45760405162461bcd60e51b815260206004820152601b60248201527f4672616d653a20546f6b656e20616c72656164792072656e74656400000000006044820152606401610b45565b834281116122245760405162461bcd60e51b815260206004820152601a60248201527f4672616d653a20426c6f636b206e6f7420696e206675747572650000000000006044820152606401610b45565b600260005414156122475760405162461bcd60e51b8152600401610b4590613f7f565b60026000908155604051631f9c3df360e21b8152600481018990523090637e70f7cc9060240160206040518083038186803b15801561228557600080fd5b505afa158015612299573d6000803e3d6000fd5b505050506040513d601f19601f820116820180604052508101906122bd9190613c78565b90506000816122cc4389614052565b6122d69190614033565b9050803410156123205760405162461bcd60e51b8152602060048201526015602482015274119c985b594e8814995b9d185b081c185e5b595b9d605a1b6044820152606401610b45565b600061232b8a61146b565b905061233781836128ea565b60006123438334614052565b90503381156123565761235681836128ea565b60405163fc1560b760e01b8152600481018d90526001600160a01b038c166024820152604481018b9052309063fc1560b790606401600060405180830381600087803b1580156123a557600080fd5b505af11580156123b9573d6000803e3d6000fd5b505060016000555050505050505050505050505050565b611aa68282612f8d565b60006119f2836001600160a01b038416613013565b60006001600160e01b0319821663780e9d6360e01b1480610a455750610a4582613062565b6000908152600860205260409020546001600160a01b0316151590565b6000818152600a6020526040902080546001600160a01b0319166001600160a01b03841690811790915581906124668261146b565b6001600160a01b03167f8c5be1e5ebec7d5bd14f71427d1e84f3dd0314c0f7b2291e5b200ac8c7c3b92560405160405180910390a45050565b60006119f28383613013565b60006124b682612414565b6124d25760405162461bcd60e51b8152600401610b4590613e80565b60006124dd8361146b565b9050806001600160a01b0316846001600160a01b031614806125185750836001600160a01b031661250d84610add565b6001600160a01b0316145b8061254857506001600160a01b038082166000908152600b602090815260408083209388168352929052205460ff165b949350505050565b826001600160a01b03166125638261146b565b6001600160a01b0316146125cb5760405162461bcd60e51b815260206004820152602960248201527f4552433732313a207472616e73666572206f6620746f6b656e2074686174206960448201526839903737ba1037bbb760b91b6064820152608401610b45565b6001600160a01b03821661262d5760405162461bcd60e51b8152602060048201526024808201527f4552433732313a207472616e7366657220746f20746865207a65726f206164646044820152637265737360e01b6064820152608401610b45565b6126388383836130a2565b612643600082612431565b6001600160a01b038316600090815260096020526040812080546001929061266c908490614052565b90915550506001600160a01b038216600090815260096020526040812080546001929061269a908490614007565b909155505060008181526008602052604080822080546001600160a01b0319166001600160a01b0386811691821790925591518493918716917fddf252ad1be2c89b69c2b068fc378daa952ba7f163c4a11628f55a4df523b3ef91a4505050565b60008281526004602052604090206001015461271781336130ad565b610c7b8383612f8d565b6001600160a01b03811633146127915760405162461bcd60e51b815260206004820152602f60248201527f416363657373436f6e74726f6c3a2063616e206f6e6c792072656e6f756e636560448201526e103937b632b9903337b91039b2b63360891b6064820152608401610b45565b611aa68282613111565b60006119f2836001600160a01b038416613178565b60105460ff166127f95760405162461bcd60e51b815260206004820152601460248201527314185d5cd8589b194e881b9bdd081c185d5cd95960621b6044820152606401610b45565b6010805460ff191690557f5db9ee0a495bf2e6ff9c91a7834c1ba4fdd244a5e8aa4e537bd38aeae4b073aa335b6040516001600160a01b03909116815260200160405180910390a1565b600061284e8261146b565b905061285c816000846130a2565b612867600083612431565b6001600160a01b0381166000908152600960205260408120805460019290612890908490614052565b909155505060008281526008602052604080822080546001600160a01b0319169055518391906001600160a01b038416907fddf252ad1be2c89b69c2b068fc378daa952ba7f163c4a11628f55a4df523b3ef908390a45050565b6000826001600160a01b03168260405160006040518083038185875af1925050503d8060008114612937576040519150601f19603f3d011682016040523d82523d6000602084013e61293c565b606091505b5050905080610c7b5760405162461bcd60e51b815260206004820152601960248201527f4672616d653a204661696c656420746f2073656e6420455448000000000000006044820152606401610b45565b6001600160a01b0382166129e35760405162461bcd60e51b815260206004820181905260248201527f4552433732313a206d696e7420746f20746865207a65726f20616464726573736044820152606401610b45565b6129ec81612414565b15612a395760405162461bcd60e51b815260206004820152601c60248201527f4552433732313a20746f6b656e20616c7265616479206d696e746564000000006044820152606401610b45565b612a45600083836130a2565b6001600160a01b0382166000908152600960205260408120805460019290612a6e908490614007565b909155505060008181526008602052604080822080546001600160a01b0319166001600160a01b03861690811790915590518392907fddf252ad1be2c89b69c2b068fc378daa952ba7f163c4a11628f55a4df523b3ef908290a45050565b60105460ff1615612b125760405162461bcd60e51b815260206004820152601060248201526f14185d5cd8589b194e881c185d5cd95960821b6044820152606401610b45565b6010805460ff191660011790557f62e78cea01bee320cd4e420270b5ea74000d11b0c9f74754ebdbfc544b05a2586128263390565b60006119f28383613295565b60008281526016602090815260408083205460179092528220546001600160a01b039091169190601590829060ff16600a811115612ba157634e487b7160e01b600052602160045260246000fd5b600a811115612bc057634e487b7160e01b600052602160045260246000fd5b815260200190815260200160002090506000612bde82600301612c76565b905060006001821115612bfc57612bf58286614102565b9050612c0d565b612c0a600384016000612b47565b90505b612c1a60038401826132cd565b506000868152601860205260409020819055612c3684826132d9565b80846001600160a01b0316877f98b595a980d0cccd434684fb987af818dc227293514b685567789f969a0ff11660405160405180910390a4505050505050565b6000610a45825490565b60007f00000000000000000000000000000000000000000000000000000000000000006001600160a01b0316634000aea07f000000000000000000000000000000000000000000000000000000000000000084866000604051602001612cf0929190918252602082015260400190565b6040516020818303038152906040526040518463ffffffff1660e01b8152600401612d1d93929190613dc3565b602060405180830381600087803b158015612d3757600080fd5b505af1158015612d4b573d6000803e3d6000fd5b505050506040513d601f19601f82011682018060405250810190612d6f9190613b1e565b50600083815260136020818152604080842054815180840189905280830186905230606082015260808082018390528351808303909101815260a090910190925281519183019190912093879052919052612dcb906001614007565b6000858152601360205260409020556125488482604080516020808201949094528082019290925280518083038201815260609092019052805191012090565b612e16848484612550565b612e22848484846132f3565b611f205760405162461bcd60e51b8152600401610b4590613e2e565b606060128054610a5a906140ac565b606081612e715750506040805180820190915260018152600360fc1b602082015290565b8160005b8115612e9b5780612e85816140e7565b9150612e949050600a8361401f565b9150612e75565b60008167ffffffffffffffff811115612ec457634e487b7160e01b600052604160045260246000fd5b6040519080825280601f01601f191660200182016040528015612eee576020820181803683370190505b5090505b841561254857612f03600183614052565b9150612f10600a86614102565b612f1b906030614007565b60f81b818381518110612f3e57634e487b7160e01b600052603260045260246000fd5b60200101906001600160f81b031916908160001a905350612f60600a8661401f565b9450612ef2565b600082815260046020526040902060010154612f8381336130ad565b610c7b8383613111565b612f9782826119f9565b611aa65760008281526004602090815260408083206001600160a01b03851684529091529020805460ff19166001179055612fcf3390565b6001600160a01b0316816001600160a01b0316837f2f8788117e7eff1d82e926ec794901d17c78024a50270940304540a733656f0d60405160405180910390a45050565b600081815260018301602052604081205461305a57508154600181810184556000848152602080822090930184905584548482528286019093526040902091909155610a45565b506000610a45565b60006001600160e01b031982166380ac58cd60e01b148061309357506001600160e01b03198216635b5e139f60e01b145b80610a455750610a45826133fd565b610c7b838383613422565b6130b782826119f9565b611aa6576130cf816001600160a01b03166014613494565b6130da836020613494565b6040516020016130eb929190613d11565b60408051601f198184030181529082905262461bcd60e51b8252610b4591600401613e1b565b61311b82826119f9565b15611aa65760008281526004602090815260408083206001600160a01b0385168085529252808320805460ff1916905551339285917ff6391f5c32d9c69d2a47ea670b442974b53935d1edc7fd64eb21e047a839171b9190a45050565b6000818152600183016020526040812054801561328b57600061319c600183614052565b85549091506000906131b090600190614052565b90508181146132315760008660000182815481106131de57634e487b7160e01b600052603260045260246000fd5b906000526020600020015490508087600001848154811061320f57634e487b7160e01b600052603260045260246000fd5b6000918252602080832090910192909255918252600188019052604090208390555b855486908061325057634e487b7160e01b600052603160045260246000fd5b600190038181906000526020600020016000905590558560010160008681526020019081526020016000206000905560019350505050610a45565b6000915050610a45565b60008260000182815481106132ba57634e487b7160e01b600052603260045260246000fd5b9060005260206000200154905092915050565b60006119f28383613178565b611aa6828260405180602001604052806000815250613676565b60006001600160a01b0384163b156133f557604051630a85bd0160e11b81526001600160a01b0385169063150b7a0290613337903390899088908890600401613d86565b602060405180830381600087803b15801561335157600080fd5b505af1925050508015613381575060408051601f3d908101601f1916820190925261337e91810190613bb3565b60015b6133db573d8080156133af576040519150601f19603f3d011682016040523d82523d6000602084013e6133b4565b606091505b5080516133d35760405162461bcd60e51b8152600401610b4590613e2e565b805181602001fd5b6001600160e01b031916630a85bd0160e11b149050612548565b506001612548565b60006001600160e01b03198216635a05180f60e01b1480610a455750610a45826136a9565b61342d8383836136de565b60105460ff1615610c7b5760405162461bcd60e51b815260206004820152602b60248201527f4552433732315061757361626c653a20746f6b656e207472616e73666572207760448201526a1a1a5b19481c185d5cd95960aa1b6064820152608401610b45565b606060006134a3836002614033565b6134ae906002614007565b67ffffffffffffffff8111156134d457634e487b7160e01b600052604160045260246000fd5b6040519080825280601f01601f1916602001820160405280156134fe576020820181803683370190505b509050600360fc1b8160008151811061352757634e487b7160e01b600052603260045260246000fd5b60200101906001600160f81b031916908160001a905350600f60fb1b8160018151811061356457634e487b7160e01b600052603260045260246000fd5b60200101906001600160f81b031916908160001a9053506000613588846002614033565b613593906001614007565b90505b6001811115613627576f181899199a1a9b1b9c1cb0b131b232b360811b85600f16601081106135d557634e487b7160e01b600052603260045260246000fd5b1a60f81b8282815181106135f957634e487b7160e01b600052603260045260246000fd5b60200101906001600160f81b031916908160001a90535060049490941c9361362081614095565b9050613596565b5083156119f25760405162461bcd60e51b815260206004820181905260248201527f537472696e67733a20686578206c656e67746820696e73756666696369656e746044820152606401610b45565b613680838361298d565b61368d60008484846132f3565b610c7b5760405162461bcd60e51b8152600401610b4590613e2e565b60006001600160e01b03198216637965db0b60e01b1480610a4557506301ffc9a760e01b6001600160e01b0319831614610a45565b6001600160a01b0383166137395761373481600e80546000838152600f60205260408120829055600182018355919091527fbb7b4a454dc3493923482f07822329ed19e8244eff582cc204f8554c3620c3fd0155565b61375c565b816001600160a01b0316836001600160a01b03161461375c5761375c8382613796565b6001600160a01b03821661377357610c7b81613833565b826001600160a01b0316826001600160a01b031614610c7b57610c7b828261390c565b600060016137a3846118af565b6137ad9190614052565b6000838152600d6020526040902054909150808214613800576001600160a01b0384166000908152600c602090815260408083208584528252808320548484528184208190558352600d90915290208190555b506000918252600d602090815260408084208490556001600160a01b039094168352600c81528383209183525290812055565b600e5460009061384590600190614052565b6000838152600f6020526040812054600e805493945090928490811061387b57634e487b7160e01b600052603260045260246000fd5b9060005260206000200154905080600e83815481106138aa57634e487b7160e01b600052603260045260246000fd5b6000918252602080832090910192909255828152600f9091526040808220849055858252812055600e8054806138f057634e487b7160e01b600052603160045260246000fd5b6001900381819060005260206000200160009055905550505050565b6000613917836118af565b6001600160a01b039093166000908152600c602090815260408083208684528252808320859055938252600d9052919091209190915550565b8035600b811061395f57600080fd5b919050565b600060208284031215613975578081fd5b81356119f281614158565b60008060408385031215613992578081fd5b823561399d81614158565b946020939093013593505050565b600080604083850312156139bd578182fd5b82356139c881614158565b915060208301356139d881614158565b809150509250929050565b6000806000606084860312156139f7578081fd5b8335613a0281614158565b92506020840135613a1281614158565b929592945050506040919091013590565b60008060008060808587031215613a38578081fd5b8435613a4381614158565b9350602085810135613a5481614158565b935060408601359250606086013567ffffffffffffffff80821115613a77578384fd5b818801915088601f830112613a8a578384fd5b813581811115613a9c57613a9c614142565b613aae601f8201601f19168501613fd6565b91508082528984828501011115613ac3578485fd5b8084840185840137810190920192909252939692955090935050565b60008060408385031215613af1578182fd5b8235613afc81614158565b915060208301356139d88161416d565b60008060408385031215613992578182fd5b600060208284031215613b2f578081fd5b81516119f28161416d565b600060208284031215613b4b578081fd5b5035919050565b60008060408385031215613b64578182fd5b8235915060208301356139d881614158565b60008060408385031215613b88578182fd5b50508035926020909101359150565b600060208284031215613ba8578081fd5b81356119f28161417b565b600060208284031215613bc4578081fd5b81516119f28161417b565b600060208284031215613be0578081fd5b6119f282613950565b60008060008060808587031215613bfe578182fd5b613c0785613950565b966020860135965060408601359560600135945092505050565b600060408284031215613c32578081fd5b6040516040810181811067ffffffffffffffff82111715613c5557613c55614142565b6040528251613c6381614158565b81526020928301519281019290925250919050565b600060208284031215613c89578081fd5b5051919050565b600080600060608486031215613ca4578081fd5b833592506020840135613a1281614158565b60008151808452613cce816020860160208601614069565b601f01601f19169290920160200192915050565b60008351613cf4818460208801614069565b835190830190613d08818360208801614069565b01949350505050565b7f416363657373436f6e74726f6c3a206163636f756e7420000000000000000000815260008351613d49816017850160208801614069565b7001034b99036b4b9b9b4b733903937b6329607d1b6017918401918201528351613d7a816028840160208801614069565b01602801949350505050565b6001600160a01b0385811682528416602082015260408101839052608060608201819052600090613db990830184613cb6565b9695505050505050565b60018060a01b0384168152826020820152606060408201526000613dea6060830184613cb6565b95945050505050565b60208101600b8310613e1557634e487b7160e01b600052602160045260246000fd5b91905290565b6020815260006119f26020830184613cb6565b60208082526032908201527f4552433732313a207472616e7366657220746f206e6f6e20455243373231526560408201527131b2b4bb32b91034b6b83632b6b2b73a32b960711b606082015260800190565b6020808252602c908201527f4552433732313a206f70657261746f7220717565727920666f72206e6f6e657860408201526b34b9ba32b73a103a37b5b2b760a11b606082015260800190565b602080825260119082015270233930b6b29d1027b7363c9037bbb732b960791b604082015260600190565b60208082526031908201527f4552433732313a207472616e736665722063616c6c6572206973206e6f74206f6040820152701ddb995c881b9bdc88185c1c1c9bdd9959607a1b606082015260800190565b60208082526017908201527f4672616d653a20496e76616c69642043617465676f7279000000000000000000604082015260600190565b6020808252601f908201527f5265656e7472616e637947756172643a207265656e7472616e742063616c6c00604082015260600190565b81516001600160a01b031681526020808301519082015260408101610a45565b604051601f8201601f1916810167ffffffffffffffff81118282101715613fff57613fff614142565b604052919050565b6000821982111561401a5761401a614116565b500190565b60008261402e5761402e61412c565b500490565b600081600019048311821515161561404d5761404d614116565b500290565b60008282101561406457614064614116565b500390565b60005b8381101561408457818101518382015260200161406c565b83811115611f205750506000910152565b6000816140a4576140a4614116565b506000190190565b600181811c908216806140c057607f821691505b602082108114156140e157634e487b7160e01b600052602260045260246000fd5b50919050565b60006000198214156140fb576140fb614116565b5060010190565b6000826141115761411161412c565b500690565b634e487b7160e01b600052601160045260246000fd5b634e487b7160e01b600052601260045260246000fd5b634e487b7160e01b600052604160045260246000fd5b6001600160a01b038116811461118e57600080fd5b801515811461118e57600080fd5b6001600160e01b03198116811461118e57600080fdfea26469706673582212205dbdf2d3171bbb59cdf6d29fa5d94aefea057a49edd282e7e243586a59d748c064736f6c63430008040033",
  "devdoc": {
    "kind": "dev",
    "methods": {
      "approve(address,uint256)": {
        "details": "See {IERC721-approve}."
      },
      "balanceOf(address)": {
        "details": "See {IERC721-balanceOf}."
      },
      "burn(uint256)": {
        "details": "Burns `tokenId`. See {ERC721-_burn}. Requirements: - The caller must own `tokenId` or be an approved operator."
      },
      "constructor": {
        "details": "Grants `DEFAULT_ADMIN_ROLE`, `MINTER_ROLE` and `PAUSER_ROLE` to the account that deploys the contract."
      },
      "getApproved(uint256)": {
        "details": "See {IERC721-getApproved}."
      },
      "getRoleAdmin(bytes32)": {
        "details": "Returns the admin role that controls `role`. See {grantRole} and {revokeRole}. To change a role's admin, use {_setRoleAdmin}."
      },
      "getRoleMember(bytes32,uint256)": {
        "details": "Returns one of the accounts that have `role`. `index` must be a value between 0 and {getRoleMemberCount}, non-inclusive. Role bearers are not sorted in any particular way, and their ordering may change at any point. WARNING: When using {getRoleMember} and {getRoleMemberCount}, make sure you perform all queries on the same block. See the following https://forum.openzeppelin.com/t/iterating-over-elements-on-enumerableset-in-openzeppelin-contracts/2296[forum post] for more information."
      },
      "getRoleMemberCount(bytes32)": {
        "details": "Returns the number of accounts that have `role`. Can be used together with {getRoleMember} to enumerate all bearers of a role."
      },
      "getVersionNumber()": {
        "returns": {
          "_0": "The storage, major, minor, and patch version of the contract."
        }
      },
      "grantRole(bytes32,address)": {
        "details": "Overload {grantRole} to track enumerable memberships"
      },
      "hasRole(bytes32,address)": {
        "details": "Returns `true` if `account` has been granted `role`."
      },
      "isApprovedForAll(address,address)": {
        "details": "See {IERC721-isApprovedForAll}."
      },
      "mint(address)": {
        "details": "Creates a new token for `to`. Its token ID will be automatically assigned (and available on the emitted {IERC721-Transfer} event), and the token URI autogenerated based on the base URI passed at construction. See {ERC721-_mint}. Requirements: - the caller must have the `MINTER_ROLE`."
      },
      "name()": {
        "details": "See {IERC721Metadata-name}."
      },
      "ownerOf(uint256)": {
        "details": "See {IERC721-ownerOf}."
      },
      "pause()": {
        "details": "Pauses all token transfers. See {ERC721Pausable} and {Pausable-_pause}. Requirements: - the caller must have the `PAUSER_ROLE`."
      },
      "paused()": {
        "details": "Returns true if the contract is paused, and false otherwise."
      },
      "renounceRole(bytes32,address)": {
        "details": "Overload {renounceRole} to track enumerable memberships"
      },
      "revokeRole(bytes32,address)": {
        "details": "Overload {revokeRole} to track enumerable memberships"
      },
      "safeTransferFrom(address,address,uint256)": {
        "details": "See {IERC721-safeTransferFrom}."
      },
      "safeTransferFrom(address,address,uint256,bytes)": {
        "details": "See {IERC721-safeTransferFrom}."
      },
      "setApprovalForAll(address,bool)": {
        "details": "See {IERC721-setApprovalForAll}."
      },
      "setExhibit(uint256,address,uint256)": {
        "details": "Exhibitionable implementation overrides"
      },
      "setRenter(uint256,address,uint256)": {
        "details": "Rentable implementation overrides"
      },
      "supportsInterface(bytes4)": {
        "details": "See {IERC165-supportsInterface}."
      },
      "symbol()": {
        "details": "See {IERC721Metadata-symbol}."
      },
      "tokenByIndex(uint256)": {
        "details": "See {IERC721Enumerable-tokenByIndex}."
      },
      "tokenOfOwnerByIndex(address,uint256)": {
        "details": "See {IERC721Enumerable-tokenOfOwnerByIndex}."
      },
      "tokenURI(uint256)": {
        "details": "See {IERC721Metadata-tokenURI}."
      },
      "totalSupply()": {
        "details": "See {IERC721Enumerable-totalSupply}."
      },
      "transferFrom(address,address,uint256)": {
        "details": "See {IERC721-transferFrom}."
      },
      "unpause()": {
        "details": "Unpauses all token transfers. See {ERC721Pausable} and {Pausable-_unpause}. Requirements: - the caller must have the `PAUSER_ROLE`."
      }
    },
    "version": 1
  },
  "userdoc": {
    "events": {
      "ExhibitSet(uint256,address,uint256)": {
        "notice": "Triggered when a a new exhibit has been set"
      },
      "RenterSet(uint256,address,uint256)": {
        "notice": "Triggered when a renter has been set"
      }
    },
    "kind": "user",
    "methods": {
      "getVersionNumber()": {
        "notice": "Returns the storage, major, minor, and patch version of the contract."
      }
    },
    "version": 1
  },
  "storageLayout": {
    "storage": [
      {
        "astId": 952,
        "contract": "contracts/Frame.sol:Frame",
        "label": "_status",
        "offset": 0,
        "slot": "0",
        "type": "t_uint256"
      },
      {
        "astId": 4775,
        "contract": "contracts/Frame.sol:Frame",
        "label": "_rentalPrices",
        "offset": 0,
        "slot": "1",
        "type": "t_mapping(t_uint256,t_uint256)"
      },
      {
        "astId": 4780,
        "contract": "contracts/Frame.sol:Frame",
        "label": "_renters",
        "offset": 0,
        "slot": "2",
        "type": "t_mapping(t_uint256,t_struct(Rental)4907_storage)"
      },
      {
        "astId": 4681,
        "contract": "contracts/Frame.sol:Frame",
        "label": "_exhibits",
        "offset": 0,
        "slot": "3",
        "type": "t_mapping(t_uint256,t_struct(Exhibit)4868_storage)"
      },
      {
        "astId": 290,
        "contract": "contracts/Frame.sol:Frame",
        "label": "_roles",
        "offset": 0,
        "slot": "4",
        "type": "t_mapping(t_bytes32,t_struct(RoleData)285_storage)"
      },
      {
        "astId": 591,
        "contract": "contracts/Frame.sol:Frame",
        "label": "_roleMembers",
        "offset": 0,
        "slot": "5",
        "type": "t_mapping(t_bytes32,t_struct(AddressSet)3526_storage)"
      },
      {
        "astId": 1007,
        "contract": "contracts/Frame.sol:Frame",
        "label": "_name",
        "offset": 0,
        "slot": "6",
        "type": "t_string_storage"
      },
      {
        "astId": 1009,
        "contract": "contracts/Frame.sol:Frame",
        "label": "_symbol",
        "offset": 0,
        "slot": "7",
        "type": "t_string_storage"
      },
      {
        "astId": 1013,
        "contract": "contracts/Frame.sol:Frame",
        "label": "_owners",
        "offset": 0,
        "slot": "8",
        "type": "t_mapping(t_uint256,t_address)"
      },
      {
        "astId": 1017,
        "contract": "contracts/Frame.sol:Frame",
        "label": "_balances",
        "offset": 0,
        "slot": "9",
        "type": "t_mapping(t_address,t_uint256)"
      },
      {
        "astId": 1021,
        "contract": "contracts/Frame.sol:Frame",
        "label": "_tokenApprovals",
        "offset": 0,
        "slot": "10",
        "type": "t_mapping(t_uint256,t_address)"
      },
      {
        "astId": 1027,
        "contract": "contracts/Frame.sol:Frame",
        "label": "_operatorApprovals",
        "offset": 0,
        "slot": "11",
        "type": "t_mapping(t_address,t_mapping(t_address,t_bool))"
      },
      {
        "astId": 1976,
        "contract": "contracts/Frame.sol:Frame",
        "label": "_ownedTokens",
        "offset": 0,
        "slot": "12",
        "type": "t_mapping(t_address,t_mapping(t_uint256,t_uint256))"
      },
      {
        "astId": 1980,
        "contract": "contracts/Frame.sol:Frame",
        "label": "_ownedTokensIndex",
        "offset": 0,
        "slot": "13",
        "type": "t_mapping(t_uint256,t_uint256)"
      },
      {
        "astId": 1983,
        "contract": "contracts/Frame.sol:Frame",
        "label": "_allTokens",
        "offset": 0,
        "slot": "14",
        "type": "t_array(t_uint256)dyn_storage"
      },
      {
        "astId": 1987,
        "contract": "contracts/Frame.sol:Frame",
        "label": "_allTokensIndex",
        "offset": 0,
        "slot": "15",
        "type": "t_mapping(t_uint256,t_uint256)"
      },
      {
        "astId": 867,
        "contract": "contracts/Frame.sol:Frame",
        "label": "_paused",
        "offset": 0,
        "slot": "16",
        "type": "t_bool"
      },
      {
        "astId": 2431,
        "contract": "contracts/Frame.sol:Frame",
        "label": "_tokenIdTracker",
        "offset": 0,
        "slot": "17",
        "type": "t_struct(Counter)2907_storage"
      },
      {
        "astId": 2433,
        "contract": "contracts/Frame.sol:Frame",
        "label": "_baseTokenURI",
        "offset": 0,
        "slot": "18",
        "type": "t_string_storage"
      },
      {
        "astId": 79,
        "contract": "contracts/Frame.sol:Frame",
        "label": "nonces",
        "offset": 0,
        "slot": "19",
        "type": "t_mapping(t_bytes32,t_uint256)"
      },
      {
        "astId": 3840,
        "contract": "contracts/Frame.sol:Frame",
        "label": "contractURI",
        "offset": 0,
        "slot": "20",
        "type": "t_string_storage"
      },
      {
        "astId": 3868,
        "contract": "contracts/Frame.sol:Frame",
        "label": "categories",
        "offset": 0,
        "slot": "21",
        "type": "t_mapping(t_enum(Category)3852,t_struct(CategoryDetail)3862_storage)"
      },
      {
        "astId": 3872,
        "contract": "contracts/Frame.sol:Frame",
        "label": "requestIdToSender",
        "offset": 0,
        "slot": "22",
        "type": "t_mapping(t_bytes32,t_address)"
      },
      {
        "astId": 3877,
        "contract": "contracts/Frame.sol:Frame",
        "label": "requestIdToCategory",
        "offset": 0,
        "slot": "23",
        "type": "t_mapping(t_bytes32,t_enum(Category)3852)"
      },
      {
        "astId": 3881,
        "contract": "contracts/Frame.sol:Frame",
        "label": "requestIdToTokenId",
        "offset": 0,
        "slot": "24",
        "type": "t_mapping(t_bytes32,t_uint256)"
      },
      {
        "astId": 3884,
        "contract": "contracts/Frame.sol:Frame",
        "label": "randNonce",
        "offset": 0,
        "slot": "25",
        "type": "t_uint256"
      },
      {
        "astId": 3886,
        "contract": "contracts/Frame.sol:Frame",
        "label": "keyHash",
        "offset": 0,
        "slot": "26",
        "type": "t_bytes32"
      },
      {
        "astId": 3893,
        "contract": "contracts/Frame.sol:Frame",
        "label": "fee",
        "offset": 0,
        "slot": "27",
        "type": "t_uint256"
      },
      {
        "astId": 3896,
        "contract": "contracts/Frame.sol:Frame",
        "label": "categoriesInitialized",
        "offset": 0,
        "slot": "28",
        "type": "t_bool"
      }
    ],
    "types": {
      "t_address": {
        "encoding": "inplace",
        "label": "address",
        "numberOfBytes": "20"
      },
      "t_array(t_bytes32)dyn_storage": {
        "base": "t_bytes32",
        "encoding": "dynamic_array",
        "label": "bytes32[]",
        "numberOfBytes": "32"
      },
      "t_array(t_uint256)dyn_storage": {
        "base": "t_uint256",
        "encoding": "dynamic_array",
        "label": "uint256[]",
        "numberOfBytes": "32"
      },
      "t_bool": {
        "encoding": "inplace",
        "label": "bool",
        "numberOfBytes": "1"
      },
      "t_bytes32": {
        "encoding": "inplace",
        "label": "bytes32",
        "numberOfBytes": "32"
      },
      "t_enum(Category)3852": {
        "encoding": "inplace",
        "label": "enum Frame.Category",
        "numberOfBytes": "1"
      },
      "t_mapping(t_address,t_bool)": {
        "encoding": "mapping",
        "key": "t_address",
        "label": "mapping(address => bool)",
        "numberOfBytes": "32",
        "value": "t_bool"
      },
      "t_mapping(t_address,t_mapping(t_address,t_bool))": {
        "encoding": "mapping",
        "key": "t_address",
        "label": "mapping(address => mapping(address => bool))",
        "numberOfBytes": "32",
        "value": "t_mapping(t_address,t_bool)"
      },
      "t_mapping(t_address,t_mapping(t_uint256,t_uint256))": {
        "encoding": "mapping",
        "key": "t_address",
        "label": "mapping(address => mapping(uint256 => uint256))",
        "numberOfBytes": "32",
        "value": "t_mapping(t_uint256,t_uint256)"
      },
      "t_mapping(t_address,t_uint256)": {
        "encoding": "mapping",
        "key": "t_address",
        "label": "mapping(address => uint256)",
        "numberOfBytes": "32",
        "value": "t_uint256"
      },
      "t_mapping(t_bytes32,t_address)": {
        "encoding": "mapping",
        "key": "t_bytes32",
        "label": "mapping(bytes32 => address)",
        "numberOfBytes": "32",
        "value": "t_address"
      },
      "t_mapping(t_bytes32,t_enum(Category)3852)": {
        "encoding": "mapping",
        "key": "t_bytes32",
        "label": "mapping(bytes32 => enum Frame.Category)",
        "numberOfBytes": "32",
        "value": "t_enum(Category)3852"
      },
      "t_mapping(t_bytes32,t_struct(AddressSet)3526_storage)": {
        "encoding": "mapping",
        "key": "t_bytes32",
        "label": "mapping(bytes32 => struct EnumerableSet.AddressSet)",
        "numberOfBytes": "32",
        "value": "t_struct(AddressSet)3526_storage"
      },
      "t_mapping(t_bytes32,t_struct(RoleData)285_storage)": {
        "encoding": "mapping",
        "key": "t_bytes32",
        "label": "mapping(bytes32 => struct AccessControl.RoleData)",
        "numberOfBytes": "32",
        "value": "t_struct(RoleData)285_storage"
      },
      "t_mapping(t_bytes32,t_uint256)": {
        "encoding": "mapping",
        "key": "t_bytes32",
        "label": "mapping(bytes32 => uint256)",
        "numberOfBytes": "32",
        "value": "t_uint256"
      },
      "t_mapping(t_enum(Category)3852,t_struct(CategoryDetail)3862_storage)": {
        "encoding": "mapping",
        "key": "t_enum(Category)3852",
        "label": "mapping(enum Frame.Category => struct Frame.CategoryDetail)",
        "numberOfBytes": "32",
        "value": "t_struct(CategoryDetail)3862_storage"
      },
      "t_mapping(t_uint256,t_address)": {
        "encoding": "mapping",
        "key": "t_uint256",
        "label": "mapping(uint256 => address)",
        "numberOfBytes": "32",
        "value": "t_address"
      },
      "t_mapping(t_uint256,t_struct(Exhibit)4868_storage)": {
        "encoding": "mapping",
        "key": "t_uint256",
        "label": "mapping(uint256 => struct IExhibitionable.Exhibit)",
        "numberOfBytes": "32",
        "value": "t_struct(Exhibit)4868_storage"
      },
      "t_mapping(t_uint256,t_struct(Rental)4907_storage)": {
        "encoding": "mapping",
        "key": "t_uint256",
        "label": "mapping(uint256 => struct IRentable.Rental)",
        "numberOfBytes": "32",
        "value": "t_struct(Rental)4907_storage"
      },
      "t_mapping(t_uint256,t_uint256)": {
        "encoding": "mapping",
        "key": "t_uint256",
        "label": "mapping(uint256 => uint256)",
        "numberOfBytes": "32",
        "value": "t_uint256"
      },
      "t_string_storage": {
        "encoding": "bytes",
        "label": "string",
        "numberOfBytes": "32"
      },
      "t_struct(AddressSet)3526_storage": {
        "encoding": "inplace",
        "label": "struct EnumerableSet.AddressSet",
        "members": [
          {
            "astId": 3525,
            "contract": "contracts/Frame.sol:Frame",
            "label": "_inner",
            "offset": 0,
            "slot": "0",
            "type": "t_struct(Set)3225_storage"
          }
        ],
        "numberOfBytes": "64"
      },
      "t_struct(CategoryDetail)3862_storage": {
        "encoding": "inplace",
        "label": "struct Frame.CategoryDetail",
        "members": [
          {
            "astId": 3854,
            "contract": "contracts/Frame.sol:Frame",
            "label": "price",
            "offset": 0,
            "slot": "0",
            "type": "t_uint256"
          },
          {
            "astId": 3856,
            "contract": "contracts/Frame.sol:Frame",
            "label": "startingTokenId",
            "offset": 0,
            "slot": "1",
            "type": "t_uint256"
          },
          {
            "astId": 3858,
            "contract": "contracts/Frame.sol:Frame",
            "label": "supply",
            "offset": 0,
            "slot": "2",
            "type": "t_uint256"
          },
          {
            "astId": 3861,
            "contract": "contracts/Frame.sol:Frame",
            "label": "tokenIds",
            "offset": 0,
            "slot": "3",
            "type": "t_struct(UintSet)3683_storage"
          }
        ],
        "numberOfBytes": "160"
      },
      "t_struct(Counter)2907_storage": {
        "encoding": "inplace",
        "label": "struct Counters.Counter",
        "members": [
          {
            "astId": 2906,
            "contract": "contracts/Frame.sol:Frame",
            "label": "_value",
            "offset": 0,
            "slot": "0",
            "type": "t_uint256"
          }
        ],
        "numberOfBytes": "32"
      },
      "t_struct(Exhibit)4868_storage": {
        "encoding": "inplace",
        "label": "struct IExhibitionable.Exhibit",
        "members": [
          {
            "astId": 4865,
            "contract": "contracts/Frame.sol:Frame",
            "label": "contractAddress",
            "offset": 0,
            "slot": "0",
            "type": "t_address"
          },
          {
            "astId": 4867,
            "contract": "contracts/Frame.sol:Frame",
            "label": "tokenId",
            "offset": 0,
            "slot": "1",
            "type": "t_uint256"
          }
        ],
        "numberOfBytes": "64"
      },
      "t_struct(Rental)4907_storage": {
        "encoding": "inplace",
        "label": "struct IRentable.Rental",
        "members": [
          {
            "astId": 4904,
            "contract": "contracts/Frame.sol:Frame",
            "label": "renter",
            "offset": 0,
            "slot": "0",
            "type": "t_address"
          },
          {
            "astId": 4906,
            "contract": "contracts/Frame.sol:Frame",
            "label": "rentalExpiryBlock",
            "offset": 0,
            "slot": "1",
            "type": "t_uint256"
          }
        ],
        "numberOfBytes": "64"
      },
      "t_struct(RoleData)285_storage": {
        "encoding": "inplace",
        "label": "struct AccessControl.RoleData",
        "members": [
          {
            "astId": 282,
            "contract": "contracts/Frame.sol:Frame",
            "label": "members",
            "offset": 0,
            "slot": "0",
            "type": "t_mapping(t_address,t_bool)"
          },
          {
            "astId": 284,
            "contract": "contracts/Frame.sol:Frame",
            "label": "adminRole",
            "offset": 0,
            "slot": "1",
            "type": "t_bytes32"
          }
        ],
        "numberOfBytes": "64"
      },
      "t_struct(Set)3225_storage": {
        "encoding": "inplace",
        "label": "struct EnumerableSet.Set",
        "members": [
          {
            "astId": 3220,
            "contract": "contracts/Frame.sol:Frame",
            "label": "_values",
            "offset": 0,
            "slot": "0",
            "type": "t_array(t_bytes32)dyn_storage"
          },
          {
            "astId": 3224,
            "contract": "contracts/Frame.sol:Frame",
            "label": "_indexes",
            "offset": 0,
            "slot": "1",
            "type": "t_mapping(t_bytes32,t_uint256)"
          }
        ],
        "numberOfBytes": "64"
      },
      "t_struct(UintSet)3683_storage": {
        "encoding": "inplace",
        "label": "struct EnumerableSet.UintSet",
        "members": [
          {
            "astId": 3682,
            "contract": "contracts/Frame.sol:Frame",
            "label": "_inner",
            "offset": 0,
            "slot": "0",
            "type": "t_struct(Set)3225_storage"
          }
        ],
        "numberOfBytes": "64"
      },
      "t_uint256": {
        "encoding": "inplace",
        "label": "uint256",
        "numberOfBytes": "32"
      }
    }
  }
}