{
  "address": "0xedD22F4BFb8D2495274A2a7A18806dD6A34De01B",
  "abi": [
    {
      "inputs": [
        {
          "internalType": "string",
          "name": "_name",
          "type": "string"
        },
        {
          "internalType": "string",
          "name": "_symbol",
          "type": "string"
        },
        {
          "internalType": "string",
          "name": "_baseTokenUri",
          "type": "string"
        },
        {
          "internalType": "string",
          "name": "_contractUri",
          "type": "string"
        },
        {
          "internalType": "address",
          "name": "_vrfCoordinator",
          "type": "address"
        },
        {
          "internalType": "address",
          "name": "_link",
          "type": "address"
        },
        {
          "internalType": "bytes32",
          "name": "_keyHash",
          "type": "bytes32"
        },
        {
          "internalType": "uint256",
          "name": "_fee",
          "type": "uint256"
        }
      ],
      "stateMutability": "nonpayable",
      "type": "constructor"
    },
    {
      "anonymous": false,
      "inputs": [
        {
          "indexed": true,
          "internalType": "address",
          "name": "owner",
          "type": "address"
        },
        {
          "indexed": true,
          "internalType": "address",
          "name": "approved",
          "type": "address"
        },
        {
          "indexed": true,
          "internalType": "uint256",
          "name": "tokenId",
          "type": "uint256"
        }
      ],
      "name": "Approval",
      "type": "event"
    },
    {
      "anonymous": false,
      "inputs": [
        {
          "indexed": true,
          "internalType": "address",
          "name": "owner",
          "type": "address"
        },
        {
          "indexed": true,
          "internalType": "address",
          "name": "operator",
          "type": "address"
        },
        {
          "indexed": false,
          "internalType": "bool",
          "name": "approved",
          "type": "bool"
        }
      ],
      "name": "ApprovalForAll",
      "type": "event"
    },
    {
      "anonymous": false,
      "inputs": [
        {
          "indexed": true,
          "internalType": "address",
          "name": "_to",
          "type": "address"
        },
        {
          "indexed": false,
          "internalType": "uint256",
          "name": "_value",
          "type": "uint256"
        }
      ],
      "name": "EtherWithdrawn",
      "type": "event"
    },
    {
      "anonymous": false,
      "inputs": [
        {
          "indexed": true,
          "internalType": "uint256",
          "name": "_tokenId",
          "type": "uint256"
        },
        {
          "indexed": true,
          "internalType": "address",
          "name": "_exhibitContractAddress",
          "type": "address"
        },
        {
          "indexed": false,
          "internalType": "uint256",
          "name": "_exhibitTokenId",
          "type": "uint256"
        }
      ],
      "name": "ExhibitSet",
      "type": "event"
    },
    {
      "anonymous": false,
      "inputs": [
        {
          "indexed": true,
          "internalType": "address",
          "name": "_to",
          "type": "address"
        },
        {
          "indexed": false,
          "internalType": "uint256",
          "name": "_value",
          "type": "uint256"
        }
      ],
      "name": "LinkWithdrawn",
      "type": "event"
    },
    {
      "anonymous": false,
      "inputs": [
        {
          "indexed": true,
          "internalType": "bytes32",
          "name": "_requestId",
          "type": "bytes32"
        },
        {
          "indexed": true,
          "internalType": "address",
          "name": "_address",
          "type": "address"
        },
        {
          "indexed": true,
          "internalType": "uint256",
          "name": "_tokenId",
          "type": "uint256"
        }
      ],
      "name": "MintFulfilled",
      "type": "event"
    },
    {
      "anonymous": false,
      "inputs": [
        {
          "indexed": true,
          "internalType": "bytes32",
          "name": "_requestId",
          "type": "bytes32"
        },
        {
          "indexed": true,
          "internalType": "address",
          "name": "_address",
          "type": "address"
        }
      ],
      "name": "MintRequest",
      "type": "event"
    },
    {
      "anonymous": false,
      "inputs": [
        {
          "indexed": false,
          "internalType": "address",
          "name": "account",
          "type": "address"
        }
      ],
      "name": "Paused",
      "type": "event"
    },
    {
      "anonymous": false,
      "inputs": [
        {
          "indexed": true,
          "internalType": "uint256",
          "name": "_tokenId",
          "type": "uint256"
        },
        {
          "indexed": true,
          "internalType": "address",
          "name": "_renter",
          "type": "address"
        },
        {
          "indexed": false,
          "internalType": "uint256",
          "name": "_rentalExpiryBlock",
          "type": "uint256"
        }
      ],
      "name": "RenterSet",
      "type": "event"
    },
    {
      "anonymous": false,
      "inputs": [
        {
          "indexed": true,
          "internalType": "bytes32",
          "name": "role",
          "type": "bytes32"
        },
        {
          "indexed": true,
          "internalType": "bytes32",
          "name": "previousAdminRole",
          "type": "bytes32"
        },
        {
          "indexed": true,
          "internalType": "bytes32",
          "name": "newAdminRole",
          "type": "bytes32"
        }
      ],
      "name": "RoleAdminChanged",
      "type": "event"
    },
    {
      "anonymous": false,
      "inputs": [
        {
          "indexed": true,
          "internalType": "bytes32",
          "name": "role",
          "type": "bytes32"
        },
        {
          "indexed": true,
          "internalType": "address",
          "name": "account",
          "type": "address"
        },
        {
          "indexed": true,
          "internalType": "address",
          "name": "sender",
          "type": "address"
        }
      ],
      "name": "RoleGranted",
      "type": "event"
    },
    {
      "anonymous": false,
      "inputs": [
        {
          "indexed": true,
          "internalType": "bytes32",
          "name": "role",
          "type": "bytes32"
        },
        {
          "indexed": true,
          "internalType": "address",
          "name": "account",
          "type": "address"
        },
        {
          "indexed": true,
          "internalType": "address",
          "name": "sender",
          "type": "address"
        }
      ],
      "name": "RoleRevoked",
      "type": "event"
    },
    {
      "anonymous": false,
      "inputs": [
        {
          "indexed": true,
          "internalType": "address",
          "name": "from",
          "type": "address"
        },
        {
          "indexed": true,
          "internalType": "address",
          "name": "to",
          "type": "address"
        },
        {
          "indexed": true,
          "internalType": "uint256",
          "name": "tokenId",
          "type": "uint256"
        }
      ],
      "name": "Transfer",
      "type": "event"
    },
    {
      "anonymous": false,
      "inputs": [
        {
          "indexed": false,
          "internalType": "address",
          "name": "account",
          "type": "address"
        }
      ],
      "name": "Unpaused",
      "type": "event"
    },
    {
      "inputs": [],
      "name": "DEFAULT_ADMIN_ROLE",
      "outputs": [
        {
          "internalType": "bytes32",
          "name": "",
          "type": "bytes32"
        }
      ],
      "stateMutability": "view",
      "type": "function"
    },
    {
      "inputs": [],
      "name": "MINTER_ROLE",
      "outputs": [
        {
          "internalType": "bytes32",
          "name": "",
          "type": "bytes32"
        }
      ],
      "stateMutability": "view",
      "type": "function"
    },
    {
      "inputs": [],
      "name": "PAUSER_ROLE",
      "outputs": [
        {
          "internalType": "bytes32",
          "name": "",
          "type": "bytes32"
        }
      ],
      "stateMutability": "view",
      "type": "function"
    },
    {
      "inputs": [
        {
          "internalType": "uint256",
          "name": "",
          "type": "uint256"
        }
      ],
      "name": "_rentalPrices",
      "outputs": [
        {
          "internalType": "uint256",
          "name": "",
          "type": "uint256"
        }
      ],
      "stateMutability": "view",
      "type": "function"
    },
    {
      "inputs": [
        {
          "internalType": "address",
          "name": "to",
          "type": "address"
        },
        {
          "internalType": "uint256",
          "name": "tokenId",
          "type": "uint256"
        }
      ],
      "name": "approve",
      "outputs": [],
      "stateMutability": "nonpayable",
      "type": "function"
    },
    {
      "inputs": [
        {
          "internalType": "address",
          "name": "owner",
          "type": "address"
        }
      ],
      "name": "balanceOf",
      "outputs": [
        {
          "internalType": "uint256",
          "name": "",
          "type": "uint256"
        }
      ],
      "stateMutability": "view",
      "type": "function"
    },
    {
      "inputs": [
        {
          "internalType": "uint256",
          "name": "tokenId",
          "type": "uint256"
        }
      ],
      "name": "burn",
      "outputs": [],
      "stateMutability": "nonpayable",
      "type": "function"
    },
    {
      "inputs": [
        {
          "internalType": "uint256",
          "name": "_tokenId",
          "type": "uint256"
        }
      ],
      "name": "clearExhibit",
      "outputs": [],
      "stateMutability": "nonpayable",
      "type": "function"
    },
    {
      "inputs": [],
      "name": "contractURI",
      "outputs": [
        {
          "internalType": "string",
          "name": "",
          "type": "string"
        }
      ],
      "stateMutability": "view",
      "type": "function"
    },
    {
      "inputs": [
        {
          "internalType": "address",
          "name": "_exhibitor",
          "type": "address"
        },
        {
          "internalType": "address",
          "name": "_exhibitContractAddress",
          "type": "address"
        },
        {
          "internalType": "uint256",
          "name": "_exhibitTokenId",
          "type": "uint256"
        }
      ],
      "name": "exhibitIsOwnedBy",
      "outputs": [
        {
          "internalType": "bool",
          "name": "",
          "type": "bool"
        }
      ],
      "stateMutability": "view",
      "type": "function"
    },
    {
      "inputs": [
        {
          "internalType": "uint256",
          "name": "tokenId",
          "type": "uint256"
        }
      ],
      "name": "getApproved",
      "outputs": [
        {
          "internalType": "address",
          "name": "",
          "type": "address"
        }
      ],
      "stateMutability": "view",
      "type": "function"
    },
    {
      "inputs": [
        {
          "internalType": "uint256",
          "name": "_tokenId",
          "type": "uint256"
        }
      ],
      "name": "getExhibit",
      "outputs": [
        {
          "components": [
            {
              "internalType": "address",
              "name": "contractAddress",
              "type": "address"
            },
            {
              "internalType": "uint256",
              "name": "tokenId",
              "type": "uint256"
            }
          ],
          "internalType": "struct IExhibitionable.Exhibit",
          "name": "",
          "type": "tuple"
        }
      ],
      "stateMutability": "view",
      "type": "function"
    },
    {
      "inputs": [
        {
          "internalType": "uint256",
          "name": "_tokenId",
          "type": "uint256"
        }
      ],
      "name": "getRentalPricePerBlock",
      "outputs": [
        {
          "internalType": "uint256",
          "name": "",
          "type": "uint256"
        }
      ],
      "stateMutability": "view",
      "type": "function"
    },
    {
      "inputs": [
        {
          "internalType": "uint256",
          "name": "_tokenId",
          "type": "uint256"
        }
      ],
      "name": "getRenter",
      "outputs": [
        {
          "components": [
            {
              "internalType": "address",
              "name": "renter",
              "type": "address"
            },
            {
              "internalType": "uint256",
              "name": "rentalExpiryBlock",
              "type": "uint256"
            }
          ],
          "internalType": "struct IRentable.Rental",
          "name": "",
          "type": "tuple"
        }
      ],
      "stateMutability": "view",
      "type": "function"
    },
    {
      "inputs": [
        {
          "internalType": "bytes32",
          "name": "role",
          "type": "bytes32"
        }
      ],
      "name": "getRoleAdmin",
      "outputs": [
        {
          "internalType": "bytes32",
          "name": "",
          "type": "bytes32"
        }
      ],
      "stateMutability": "view",
      "type": "function"
    },
    {
      "inputs": [
        {
          "internalType": "bytes32",
          "name": "role",
          "type": "bytes32"
        },
        {
          "internalType": "uint256",
          "name": "index",
          "type": "uint256"
        }
      ],
      "name": "getRoleMember",
      "outputs": [
        {
          "internalType": "address",
          "name": "",
          "type": "address"
        }
      ],
      "stateMutability": "view",
      "type": "function"
    },
    {
      "inputs": [
        {
          "internalType": "bytes32",
          "name": "role",
          "type": "bytes32"
        }
      ],
      "name": "getRoleMemberCount",
      "outputs": [
        {
          "internalType": "uint256",
          "name": "",
          "type": "uint256"
        }
      ],
      "stateMutability": "view",
      "type": "function"
    },
    {
      "inputs": [],
      "name": "getVersionNumber",
      "outputs": [
        {
          "internalType": "uint256",
          "name": "",
          "type": "uint256"
        },
        {
          "internalType": "uint256",
          "name": "",
          "type": "uint256"
        },
        {
          "internalType": "uint256",
          "name": "",
          "type": "uint256"
        },
        {
          "internalType": "uint256",
          "name": "",
          "type": "uint256"
        }
      ],
      "stateMutability": "pure",
      "type": "function"
    },
    {
      "inputs": [
        {
          "internalType": "bytes32",
          "name": "role",
          "type": "bytes32"
        },
        {
          "internalType": "address",
          "name": "account",
          "type": "address"
        }
      ],
      "name": "grantRole",
      "outputs": [],
      "stateMutability": "nonpayable",
      "type": "function"
    },
    {
      "inputs": [
        {
          "internalType": "bytes32",
          "name": "role",
          "type": "bytes32"
        },
        {
          "internalType": "address",
          "name": "account",
          "type": "address"
        }
      ],
      "name": "hasRole",
      "outputs": [
        {
          "internalType": "bool",
          "name": "",
          "type": "bool"
        }
      ],
      "stateMutability": "view",
      "type": "function"
    },
    {
      "inputs": [
        {
          "internalType": "address",
          "name": "owner",
          "type": "address"
        },
        {
          "internalType": "address",
          "name": "operator",
          "type": "address"
        }
      ],
      "name": "isApprovedForAll",
      "outputs": [
        {
          "internalType": "bool",
          "name": "",
          "type": "bool"
        }
      ],
      "stateMutability": "view",
      "type": "function"
    },
    {
      "inputs": [
        {
          "internalType": "uint256",
          "name": "_tokenId",
          "type": "uint256"
        }
      ],
      "name": "isCurrentlyRented",
      "outputs": [
        {
          "internalType": "bool",
          "name": "",
          "type": "bool"
        }
      ],
      "stateMutability": "view",
      "type": "function"
    },
    {
      "inputs": [
        {
          "internalType": "address",
          "name": "to",
          "type": "address"
        }
      ],
      "name": "mint",
      "outputs": [],
      "stateMutability": "nonpayable",
      "type": "function"
    },
    {
      "inputs": [
        {
          "internalType": "enum Frame.Category",
          "name": "_category",
          "type": "uint8"
        }
      ],
      "name": "mintFrame",
      "outputs": [],
      "stateMutability": "payable",
      "type": "function"
    },
    {
      "inputs": [],
      "name": "name",
      "outputs": [
        {
          "internalType": "string",
          "name": "",
          "type": "string"
        }
      ],
      "stateMutability": "view",
      "type": "function"
    },
    {
      "inputs": [
        {
          "internalType": "uint256",
          "name": "tokenId",
          "type": "uint256"
        }
      ],
      "name": "ownerOf",
      "outputs": [
        {
          "internalType": "address",
          "name": "",
          "type": "address"
        }
      ],
      "stateMutability": "view",
      "type": "function"
    },
    {
      "inputs": [],
      "name": "pause",
      "outputs": [],
      "stateMutability": "nonpayable",
      "type": "function"
    },
    {
      "inputs": [],
      "name": "paused",
      "outputs": [
        {
          "internalType": "bool",
          "name": "",
          "type": "bool"
        }
      ],
      "stateMutability": "view",
      "type": "function"
    },
    {
      "inputs": [
        {
          "internalType": "bytes32",
          "name": "requestId",
          "type": "bytes32"
        },
        {
          "internalType": "uint256",
          "name": "randomness",
          "type": "uint256"
        }
      ],
      "name": "rawFulfillRandomness",
      "outputs": [],
      "stateMutability": "nonpayable",
      "type": "function"
    },
    {
      "inputs": [
        {
          "internalType": "bytes32",
          "name": "role",
          "type": "bytes32"
        },
        {
          "internalType": "address",
          "name": "account",
          "type": "address"
        }
      ],
      "name": "renounceRole",
      "outputs": [],
      "stateMutability": "nonpayable",
      "type": "function"
    },
    {
      "inputs": [
        {
          "internalType": "bytes32",
          "name": "",
          "type": "bytes32"
        }
      ],
      "name": "requestIdToCategory",
      "outputs": [
        {
          "internalType": "enum Frame.Category",
          "name": "",
          "type": "uint8"
        }
      ],
      "stateMutability": "view",
      "type": "function"
    },
    {
      "inputs": [
        {
          "internalType": "bytes32",
          "name": "",
          "type": "bytes32"
        }
      ],
      "name": "requestIdToSender",
      "outputs": [
        {
          "internalType": "address",
          "name": "",
          "type": "address"
        }
      ],
      "stateMutability": "view",
      "type": "function"
    },
    {
      "inputs": [
        {
          "internalType": "bytes32",
          "name": "",
          "type": "bytes32"
        }
      ],
      "name": "requestIdToTokenId",
      "outputs": [
        {
          "internalType": "uint256",
          "name": "",
          "type": "uint256"
        }
      ],
      "stateMutability": "view",
      "type": "function"
    },
    {
      "inputs": [
        {
          "internalType": "bytes32",
          "name": "role",
          "type": "bytes32"
        },
        {
          "internalType": "address",
          "name": "account",
          "type": "address"
        }
      ],
      "name": "revokeRole",
      "outputs": [],
      "stateMutability": "nonpayable",
      "type": "function"
    },
    {
      "inputs": [
        {
          "internalType": "address",
          "name": "from",
          "type": "address"
        },
        {
          "internalType": "address",
          "name": "to",
          "type": "address"
        },
        {
          "internalType": "uint256",
          "name": "tokenId",
          "type": "uint256"
        }
      ],
      "name": "safeTransferFrom",
      "outputs": [],
      "stateMutability": "nonpayable",
      "type": "function"
    },
    {
      "inputs": [
        {
          "internalType": "address",
          "name": "from",
          "type": "address"
        },
        {
          "internalType": "address",
          "name": "to",
          "type": "address"
        },
        {
          "internalType": "uint256",
          "name": "tokenId",
          "type": "uint256"
        },
        {
          "internalType": "bytes",
          "name": "_data",
          "type": "bytes"
        }
      ],
      "name": "safeTransferFrom",
      "outputs": [],
      "stateMutability": "nonpayable",
      "type": "function"
    },
    {
      "inputs": [
        {
          "internalType": "address",
          "name": "operator",
          "type": "address"
        },
        {
          "internalType": "bool",
          "name": "approved",
          "type": "bool"
        }
      ],
      "name": "setApprovalForAll",
      "outputs": [],
      "stateMutability": "nonpayable",
      "type": "function"
    },
    {
      "inputs": [],
      "name": "setCategoriesInitialized",
      "outputs": [],
      "stateMutability": "nonpayable",
      "type": "function"
    },
    {
      "inputs": [
        {
          "internalType": "enum Frame.Category",
          "name": "_category",
          "type": "uint8"
        },
        {
          "internalType": "uint256",
          "name": "_price",
          "type": "uint256"
        },
        {
          "internalType": "uint256",
          "name": "_startingTokenId",
          "type": "uint256"
        },
        {
          "internalType": "uint256",
          "name": "_supply",
          "type": "uint256"
        }
      ],
      "name": "setCategoryDetail",
      "outputs": [],
      "stateMutability": "nonpayable",
      "type": "function"
    },
    {
      "inputs": [
        {
          "internalType": "uint256",
          "name": "_tokenId",
          "type": "uint256"
        },
        {
          "internalType": "address",
          "name": "_exhibitContractAddress",
          "type": "address"
        },
        {
          "internalType": "uint256",
          "name": "_exhibitTokenId",
          "type": "uint256"
        }
      ],
      "name": "setExhibit",
      "outputs": [],
      "stateMutability": "nonpayable",
      "type": "function"
    },
    {
      "inputs": [
        {
          "internalType": "uint256",
          "name": "_tokenId",
          "type": "uint256"
        },
        {
          "internalType": "uint256",
          "name": "_rentalPrice",
          "type": "uint256"
        }
      ],
      "name": "setRentalPricePerBlock",
      "outputs": [],
      "stateMutability": "nonpayable",
      "type": "function"
    },
    {
      "inputs": [
        {
          "internalType": "uint256",
          "name": "_tokenId",
          "type": "uint256"
        },
        {
          "internalType": "address",
          "name": "_renter",
          "type": "address"
        },
        {
          "internalType": "uint256",
          "name": "_rentalExpiryAtBlock",
          "type": "uint256"
        }
      ],
      "name": "setRenter",
      "outputs": [],
      "stateMutability": "payable",
      "type": "function"
    },
    {
      "inputs": [
        {
          "internalType": "bytes4",
          "name": "interfaceId",
          "type": "bytes4"
        }
      ],
      "name": "supportsInterface",
      "outputs": [
        {
          "internalType": "bool",
          "name": "",
          "type": "bool"
        }
      ],
      "stateMutability": "view",
      "type": "function"
    },
    {
      "inputs": [],
      "name": "symbol",
      "outputs": [
        {
          "internalType": "string",
          "name": "",
          "type": "string"
        }
      ],
      "stateMutability": "view",
      "type": "function"
    },
    {
      "inputs": [
        {
          "internalType": "uint256",
          "name": "index",
          "type": "uint256"
        }
      ],
      "name": "tokenByIndex",
      "outputs": [
        {
          "internalType": "uint256",
          "name": "",
          "type": "uint256"
        }
      ],
      "stateMutability": "view",
      "type": "function"
    },
    {
      "inputs": [
        {
          "internalType": "address",
          "name": "owner",
          "type": "address"
        },
        {
          "internalType": "uint256",
          "name": "index",
          "type": "uint256"
        }
      ],
      "name": "tokenOfOwnerByIndex",
      "outputs": [
        {
          "internalType": "uint256",
          "name": "",
          "type": "uint256"
        }
      ],
      "stateMutability": "view",
      "type": "function"
    },
    {
      "inputs": [
        {
          "internalType": "uint256",
          "name": "tokenId",
          "type": "uint256"
        }
      ],
      "name": "tokenURI",
      "outputs": [
        {
          "internalType": "string",
          "name": "",
          "type": "string"
        }
      ],
      "stateMutability": "view",
      "type": "function"
    },
    {
      "inputs": [],
      "name": "totalSupply",
      "outputs": [
        {
          "internalType": "uint256",
          "name": "",
          "type": "uint256"
        }
      ],
      "stateMutability": "view",
      "type": "function"
    },
    {
      "inputs": [
        {
          "internalType": "address",
          "name": "from",
          "type": "address"
        },
        {
          "internalType": "address",
          "name": "to",
          "type": "address"
        },
        {
          "internalType": "uint256",
          "name": "tokenId",
          "type": "uint256"
        }
      ],
      "name": "transferFrom",
      "outputs": [],
      "stateMutability": "nonpayable",
      "type": "function"
    },
    {
      "inputs": [],
      "name": "unpause",
      "outputs": [],
      "stateMutability": "nonpayable",
      "type": "function"
    },
    {
      "inputs": [
        {
          "internalType": "address payable",
          "name": "_to",
          "type": "address"
        }
      ],
      "name": "withdrawAllLink",
      "outputs": [],
      "stateMutability": "nonpayable",
      "type": "function"
    },
    {
      "inputs": [
        {
          "internalType": "address payable",
          "name": "_to",
          "type": "address"
        },
        {
          "internalType": "uint256",
          "name": "_value",
          "type": "uint256"
        }
      ],
      "name": "withdrawEther",
      "outputs": [],
      "stateMutability": "nonpayable",
      "type": "function"
    }
  ],
  "transactionHash": "0xc0826c217f842563b27379f958f9787c2b93157e5a96be2bccd01e2ca886eb59",
  "args": [
    "Frame",
    "FRAME",
    "ipfs://QmeTpBAGt4ssZ12MnTXEbYmUi5ukvS7nGjHjfWnVevuv5S/",
    "https://musee-dezental.com/storefront",
    "0xb3dCcb4Cf7a26f6cf6B120Cf5A73875B7BBc655B",
    "0x01BE23585060835E02B77ef475b0Cc51aA1e0709",
    "0x2ed0feb3e7fd2022120aa84fab1945545a9f2ffc9076fd6156fa96eaff4c1311",
    "100000000000000000"
  ],
  "solcInputHash": "966ea6822a19e7593c7a9e76f1a86336",
  "bytecode": "0x60c060405267016345785d8a0000601a55601b805460ff191690553480156200002757600080fd5b5060405162004cb138038062004cb18339810160408190526200004a9162000433565b838389898982826001600081905550816006908051906020019062000071929190620002bd565b50805162000087906007906020840190620002bd565b50506010805460ff19169055508051620000a9906012906020840190620002bd565b50620000b760003362000154565b620000e37f9f2df0fed2c77648de5860a4cc508cd0818c85b8b8a1ab4ceeef8d981c8956a63362000154565b6200010f7f65d7a28e3265b37a6474929f336521b332c1681b933f6cb9f3376673440d862a3362000154565b5050506001600160601b0319606092831b811660a052911b16608052845162000140906014906020880190620002bd565b50601a556019555062000572945050505050565b6200016b82826200019760201b620023c41760201c565b600082815260056020908152604090912062000192918390620023ce620001a7821b17901c565b505050565b620001a38282620001c7565b5050565b6000620001be836001600160a01b0384166200026b565b90505b92915050565b60008281526004602090815260408083206001600160a01b038516845290915290205460ff16620001a35760008281526004602090815260408083206001600160a01b03851684529091529020805460ff19166001179055620002273390565b6001600160a01b0316816001600160a01b0316837f2f8788117e7eff1d82e926ec794901d17c78024a50270940304540a733656f0d60405160405180910390a45050565b6000818152600183016020526040812054620002b457508154600181810184556000848152602080822090930184905584548482528286019093526040902091909155620001c1565b506000620001c1565b828054620002cb906200051f565b90600052602060002090601f016020900481019282620002ef57600085556200033a565b82601f106200030a57805160ff19168380011785556200033a565b828001600101855582156200033a579182015b828111156200033a5782518255916020019190600101906200031d565b50620003489291506200034c565b5090565b5b808211156200034857600081556001016200034d565b80516001600160a01b03811681146200037b57600080fd5b919050565b600082601f83011262000391578081fd5b81516001600160401b0380821115620003ae57620003ae6200055c565b604051601f8301601f19908116603f01168101908282118183101715620003d957620003d96200055c565b81604052838152602092508683858801011115620003f5578485fd5b8491505b83821015620004185785820183015181830184015290820190620003f9565b838211156200042957848385830101525b9695505050505050565b600080600080600080600080610100898b03121562000450578384fd5b88516001600160401b038082111562000467578586fd5b620004758c838d0162000380565b995060208b01519150808211156200048b578586fd5b620004998c838d0162000380565b985060408b0151915080821115620004af578586fd5b620004bd8c838d0162000380565b975060608b0151915080821115620004d3578586fd5b50620004e28b828c0162000380565b955050620004f360808a0162000363565b93506200050360a08a0162000363565b60c08a015160e0909a0151989b979a5095989497939692505050565b600181811c908216806200053457607f821691505b602082108114156200055657634e487b7160e01b600052602260045260246000fd5b50919050565b634e487b7160e01b600052604160045260246000fd5b60805160601c60a05160601c6146f7620005ba60003960008181611a3e0152613080015260008181611643015281816116d101528181611d92015261305101526146f76000f3fe6080604052600436106102ff5760003560e01c8063690e4bed11610190578063a3e5cb51116100dc578063d057d24c11610095578063e63ab1e91161006f578063e63ab1e914610a0b578063e8a3d48514610a3f578063e985e9c514610a54578063fc1560b714610a9d57600080fd5b8063d057d24c14610955578063d5391393146109b7578063d547741f146109eb57600080fd5b8063a3e5cb5114610890578063a9c934f0146108cd578063b88d4fde146108e0578063c87b56dd14610900578063ca15c87314610920578063ccac97d31461094057600080fd5b80639010d07c1161014957806395d89b411161012357806395d89b411461081957806396eb80961461082e578063a217fddf1461085b578063a22cb4651461087057600080fd5b80639010d07c146107b957806391d14854146107d957806394985ddd146107f957600080fd5b8063690e4bed146106f75780636a6278421461071757806370a08231146107375780637e70f7cc146107575780637eaf7659146107845780638456cb59146107a457600080fd5b80633009c19b1161024f5780634684c6111161020857806354255be0116101e257806354255be01461066b5780635c975abb1461069f5780636352211e146106b757806369087819146106d757600080fd5b80634684c6111461060b5780634f6ccce71461062b578063522f68151461064b57600080fd5b80633009c19b1461050757806336568abe146105765780633db07cb8146105965780633f4ba83a146105b657806342842e0e146105cb57806342966c68146105eb57600080fd5b8063213a4234116102bc57806323b872dd1161029657806323b872dd14610477578063248a9ca3146104975780632f2ff15d146104c75780632f745c59146104e757600080fd5b8063213a4234146103f4578063219c0eee1461041457806322881f881461044a57600080fd5b806301ffc9a71461030457806306fdde0314610339578063081812fc1461035b578063095ea7b31461039357806309acea49146103b557806318160ddd146103d5575b600080fd5b34801561031057600080fd5b5061032461031f366004614093565b610ab0565b60405190151581526020015b60405180910390f35b34801561034557600080fd5b5061034e610ac1565b6040516103309190614317565b34801561036757600080fd5b5061037b610376366004614036565b610b53565b6040516001600160a01b039091168152602001610330565b34801561039f57600080fd5b506103b36103ae366004614008565b610be0565b005b3480156103c157600080fd5b506103b36103d0366004614036565b610cf6565b3480156103e157600080fd5b50600e545b604051908152602001610330565b34801561040057600080fd5b506103b361040f3660046140e5565b610d61565b34801561042057600080fd5b5061037b61042f366004614036565b6016602052600090815260409020546001600160a01b031681565b34801561045657600080fd5b506103e6610465366004614036565b60186020526000908152604090205481565b34801561048357600080fd5b506103b3610492366004613edf565b610eaf565b3480156104a357600080fd5b506103e66104b2366004614036565b60009081526004602052604090206001015490565b3480156104d357600080fd5b506103b36104e236600461404e565b610ee1565b3480156104f357600080fd5b506103e6610502366004614008565b610f03565b34801561051357600080fd5b50610569610522366004614036565b604080518082019091526000808252602082015250600090815260026020908152604091829020825180840190935280546001600160a01b03168352600101549082015290565b60405161033091906144b2565b34801561058257600080fd5b506103b361059136600461404e565b610f99565b3480156105a257600080fd5b506103246105b1366004613edf565b610fbb565b3480156105c257600080fd5b506103b361110d565b3480156105d757600080fd5b506103b36105e6366004613edf565b6111b5565b3480156105f757600080fd5b506103b3610606366004614036565b6111d0565b34801561061757600080fd5b506103b361062636600461418c565b61124a565b34801561063757600080fd5b506103e6610646366004614036565b611393565b34801561065757600080fd5b506103b3610666366004613e7c565b611434565b34801561067757600080fd5b5060016000600281604080519485526020850193909352918301526060820152608001610330565b3480156106ab57600080fd5b5060105460ff16610324565b3480156106c357600080fd5b5061037b6106d2366004614036565b6114db565b3480156106e357600080fd5b506103b36106f2366004614072565b611552565b34801561070357600080fd5b506103b3610712366004613e44565b6115dc565b34801561072357600080fd5b506103b3610732366004613e44565b6117fe565b34801561074357600080fd5b506103e6610752366004613e44565b6118ba565b34801561076357600080fd5b506103e6610772366004614036565b60009081526001602052604090205490565b34801561079057600080fd5b5061032461079f366004614036565b611941565b3480156107b057600080fd5b506103b361194c565b3480156107c557600080fd5b5061037b6107d4366004614072565b6119f0565b3480156107e557600080fd5b506103246107f436600461404e565b611a08565b34801561080557600080fd5b506103b3610814366004614072565b611a33565b34801561082557600080fd5b5061034e611ab9565b34801561083a57600080fd5b506103e6610849366004614036565b60016020526000908152604090205481565b34801561086757600080fd5b506103e6600081565b34801561087c57600080fd5b506103b361088b366004613fdb565b611ac8565b34801561089c57600080fd5b506108c06108ab366004614036565b60176020526000908152604090205460ff1681565b60405161033091906142ef565b6103b36108db3660046140cb565b611b8d565b3480156108ec57600080fd5b506103b36108fb366004613f1f565b611efd565b34801561090c57600080fd5b5061034e61091b366004614036565b611f35565b34801561092c57600080fd5b506103e661093b366004614036565b611fff565b34801561094c57600080fd5b506103b3612016565b34801561096157600080fd5b50610569610970366004614036565b604080518082019091526000808252602082015250600090815260036020908152604091829020825180840190935280546001600160a01b03168352600101549082015290565b3480156109c357600080fd5b506103e67f9f2df0fed2c77648de5860a4cc508cd0818c85b8b8a1ab4ceeef8d981c8956a681565b3480156109f757600080fd5b506103b3610a0636600461404e565b61204e565b348015610a1757600080fd5b506103e67f65d7a28e3265b37a6474929f336521b332c1681b933f6cb9f3376673440d862a81565b348015610a4b57600080fd5b5061034e612058565b348015610a6057600080fd5b50610324610a6f366004613ea7565b6001600160a01b039182166000908152600b6020908152604080832093909416825291909152205460ff1690565b6103b3610aab36600461418c565b6120e6565b6000610abb826123e3565b92915050565b606060068054610ad0906145a8565b80601f0160208091040260200160405190810160405280929190818152602001828054610afc906145a8565b8015610b495780601f10610b1e57610100808354040283529160200191610b49565b820191906000526020600020905b815481529060010190602001808311610b2c57829003601f168201915b5050505050905090565b6000610b5e82612408565b610bc45760405162461bcd60e51b815260206004820152602c60248201527f4552433732313a20617070726f76656420717565727920666f72206e6f6e657860448201526b34b9ba32b73a103a37b5b2b760a11b60648201526084015b60405180910390fd5b506000908152600a60205260409020546001600160a01b031690565b6000610beb826114db565b9050806001600160a01b0316836001600160a01b03161415610c595760405162461bcd60e51b815260206004820152602160248201527f4552433732313a20617070726f76616c20746f2063757272656e74206f776e656044820152603960f91b6064820152608401610bbb565b336001600160a01b0382161480610c755750610c758133610a6f565b610ce75760405162461bcd60e51b815260206004820152603860248201527f4552433732313a20617070726f76652063616c6c6572206973206e6f74206f7760448201527f6e6572206e6f7220617070726f76656420666f7220616c6c00000000000000006064820152608401610bbb565b610cf18383612425565b505050565b80610d0081612408565b610d1c5760405162461bcd60e51b8152600401610bbb9061437c565b60026000541415610d3f5760405162461bcd60e51b8152600401610bbb9061447b565b6002600055610d4e3383612493565b50610d5882612543565b50506001600055565b33610d6d600082611a08565b610d895760405162461bcd60e51b8152600401610bbb906143c8565b84600a81600a811115610dac57634e487b7160e01b600052602160045260246000fd5b1115610dca5760405162461bcd60e51b8152600401610bbb90614444565b600081600a811115610dec57634e487b7160e01b600052602160045260246000fd5b1015610e0a5760405162461bcd60e51b8152600401610bbb90614444565b60006015600088600a811115610e3057634e487b7160e01b600052602160045260246000fd5b600a811115610e4f57634e487b7160e01b600052602160045260246000fd5b8152602081019190915260400160002086815560018101869055600281018590559050845b610e7e8587614503565b811015610ea557610e92600383018261254f565b5080610e9d816145e3565b915050610e74565b5050505050505050565b610eba335b8261255b565b610ed65760405162461bcd60e51b8152600401610bbb906143f3565b610cf1838383612600565b610eeb82826127ab565b6000828152600560205260409020610cf190826123ce565b6000610f0e836118ba565b8210610f705760405162461bcd60e51b815260206004820152602b60248201527f455243373231456e756d657261626c653a206f776e657220696e646578206f7560448201526a74206f6620626f756e647360a81b6064820152608401610bbb565b506001600160a01b03919091166000908152600c60209081526040808320938352929052205490565b610fa382826127d1565b6000828152600560205260409020610cf1908261284b565b6040516301ffc9a760e01b81526380ac58cd60e01b60048201526000906001600160a01b038416906301ffc9a79060240160206040518083038186803b15801561100457600080fd5b505afa158015611018573d6000803e3d6000fd5b505050506040513d601f19601f8201168201806040525081019061103c919061401a565b156110535761104c848484612860565b9050611106565b6040516301ffc9a760e01b8152636cdb3d1360e11b60048201526001600160a01b038416906301ffc9a79060240160206040518083038186803b15801561109957600080fd5b505afa1580156110ad573d6000803e3d6000fd5b505050506040513d601f19601f820116820180604052508101906110d1919061401a565b156110e15761104c84848461297a565b61110260405180606001604052806034815260200161468e60349139612a06565b5060005b9392505050565b6111377f65d7a28e3265b37a6474929f336521b332c1681b933f6cb9f3376673440d862a33611a08565b6111ab576040805162461bcd60e51b81526020600482015260248101919091527f4552433732315072657365744d696e7465725061757365724175746f49643a2060448201527f6d75737420686176652070617573657220726f6c6520746f20756e70617573656064820152608401610bbb565b6111b3612a49565b565b610cf183838360405180602001604052806000815250611efd565b6111d933610eb4565b61123e5760405162461bcd60e51b815260206004820152603060248201527f4552433732314275726e61626c653a2063616c6c6572206973206e6f74206f7760448201526f1b995c881b9bdc88185c1c1c9bdd995960821b6064820152608401610bbb565b61124781612adc565b50565b8261125481612408565b6112705760405162461bcd60e51b8152600401610bbb9061437c565b336040516307b60f9760e31b81526001600160a01b0380831660048301528516602482015260448101849052849084903090633db07cb89060640160206040518083038186803b1580156112c357600080fd5b505afa1580156112d7573d6000803e3d6000fd5b505050506040513d601f19601f820116820180604052508101906112fb919061401a565b6113475760405162461bcd60e51b815260206004820152601860248201527f4672616d653a2045786869626974206e6f74206f776e656400000000000000006044820152606401610bbb565b6002600054141561136a5760405162461bcd60e51b8152600401610bbb9061447b565b60026000556113793388612493565b50611385878787612b83565b505060016000555050505050565b600061139e600e5490565b82106114015760405162461bcd60e51b815260206004820152602c60248201527f455243373231456e756d657261626c653a20676c6f62616c20696e646578206f60448201526b7574206f6620626f756e647360a01b6064820152608401610bbb565b600e828154811061142257634e487b7160e01b600052603260045260246000fd5b90600052602060002001549050919050565b33611440600082611a08565b61145c5760405162461bcd60e51b8152600401610bbb906143c8565b6002600054141561147f5760405162461bcd60e51b8152600401610bbb9061447b565b600260005561148e8383612bf3565b826001600160a01b03167f06097061aeda806b5e9cb4133d9899f332ff0913956567fc0f7ea15e3d19947c836040516114c991815260200190565b60405180910390a25050600160005550565b6000818152600860205260408120546001600160a01b031680610abb5760405162461bcd60e51b815260206004820152602960248201527f4552433732313a206f776e657220717565727920666f72206e6f6e657869737460448201526832b73a103a37b5b2b760b91b6064820152608401610bbb565b8161155c81612408565b6115785760405162461bcd60e51b8152600401610bbb9061437c565b82336115848282612c96565b6115c75760405162461bcd60e51b8152602060048201526014602482015273233930b6b29d102737ba103a34329027bbb732b960611b6044820152606401610bbb565b50505060009182526001602052604090912055565b336115e8600082611a08565b6116045760405162461bcd60e51b8152600401610bbb906143c8565b600260005414156116275760405162461bcd60e51b8152600401610bbb9061447b565b600260009081556040516370a0823160e01b81523060048201527f00000000000000000000000000000000000000000000000000000000000000006001600160a01b0316906370a082319060240160206040518083038186803b15801561168d57600080fd5b505afa1580156116a1573d6000803e3d6000fd5b505050506040513d601f19601f820116820180604052508101906116c59190614174565b90506001600160a01b037f00000000000000000000000000000000000000000000000000000000000000001663a9059cbb336040516001600160e01b031960e084901b1681526001600160a01b03909116600482015260248101849052604401602060405180830381600087803b15801561173f57600080fd5b505af1158015611753573d6000803e3d6000fd5b505050506040513d601f19601f82011682018060405250810190611777919061401a565b6117c35760405162461bcd60e51b815260206004820152601960248201527f4672616d653a204572726f722073656e64696e67204c494e4b000000000000006044820152606401610bbb565b826001600160a01b03167fcb1436249a1dd8cf93362c28d79a4e20dc54398b6c49e30316e8396e72a584b0826040516114c991815260200190565b6118287f9f2df0fed2c77648de5860a4cc508cd0818c85b8b8a1ab4ceeef8d981c8956a633611a08565b61189a5760405162461bcd60e51b815260206004820152603d60248201527f4552433732315072657365744d696e7465725061757365724175746f49643a2060448201527f6d7573742068617665206d696e74657220726f6c6520746f206d696e740000006064820152608401610bbb565b6118ac816118a760115490565b612cbd565b611247601180546001019055565b60006001600160a01b0382166119255760405162461bcd60e51b815260206004820152602a60248201527f4552433732313a2062616c616e636520717565727920666f7220746865207a65604482015269726f206164647265737360b01b6064820152608401610bbb565b506001600160a01b031660009081526009602052604090205490565b6000610abb82612dfc565b6119767f65d7a28e3265b37a6474929f336521b332c1681b933f6cb9f3376673440d862a33611a08565b6119e85760405162461bcd60e51b815260206004820152603e60248201527f4552433732315072657365744d696e7465725061757365724175746f49643a2060448201527f6d75737420686176652070617573657220726f6c6520746f20706175736500006064820152608401610bbb565b6111b3612e8c565b60008281526005602052604081206111069083612f07565b60009182526004602090815260408084206001600160a01b0393909316845291905290205460ff1690565b336001600160a01b037f00000000000000000000000000000000000000000000000000000000000000001614611aab5760405162461bcd60e51b815260206004820152601f60248201527f4f6e6c7920565246436f6f7264696e61746f722063616e2066756c66696c6c006044820152606401610bbb565b611ab58282612f13565b5050565b606060078054610ad0906145a8565b6001600160a01b038216331415611b215760405162461bcd60e51b815260206004820152601960248201527f4552433732313a20617070726f766520746f2063616c6c6572000000000000006044820152606401610bbb565b336000818152600b602090815260408083206001600160a01b03871680855290835292819020805460ff191686151590811790915590519081529192917f17307eab39ab6107e8899845ad3d59bd9653f200f220920489ca2b5937696c31910160405180910390a35050565b601b5460ff16611bd25760405162461bcd60e51b815260206004820152601060248201526f4672616d653a204e6f7420726561647960801b6044820152606401610bbb565b80600a81600a811115611bf557634e487b7160e01b600052602160045260246000fd5b1115611c135760405162461bcd60e51b8152600401610bbb90614444565b600081600a811115611c3557634e487b7160e01b600052602160045260246000fd5b1015611c535760405162461bcd60e51b8152600401610bbb90614444565b60026000541415611c765760405162461bcd60e51b8152600401610bbb9061447b565b6002600090815560158184600a811115611ca057634e487b7160e01b600052602160045260246000fd5b600a811115611cbf57634e487b7160e01b600052602160045260246000fd5b815260200190815260200160002090506000611cdd82600301613043565b11611d1c5760405162461bcd60e51b815260206004820152600f60248201526e119c985b594e8814dbdb19081bdd5d608a1b6044820152606401610bbb565b80543414611d7a5760405162461bcd60e51b815260206004820152602560248201527f4672616d653a20496e636f7272656374207061796d656e7420666f722063617460448201526465676f727960d81b6064820152608401610bbb565b601a546040516370a0823160e01b81523060048201527f00000000000000000000000000000000000000000000000000000000000000006001600160a01b0316906370a082319060240160206040518083038186803b158015611ddc57600080fd5b505afa158015611df0573d6000803e3d6000fd5b505050506040513d601f19601f82011682018060405250810190611e149190614174565b1015611e5b5760405162461bcd60e51b81526020600482015260166024820152754672616d653a204e6f7420656e6f756768204c494e4b60501b6044820152606401610bbb565b6000611e6b601954601a5461304d565b600081815260166020908152604080832080546001600160a01b03191633179055601790915290208054919250859160ff1916600183600a811115611ec057634e487b7160e01b600052602160045260246000fd5b0217905550604051339082907f9d03d5e4e11627bacfb2a3a993b2f9923c66e8cb86c1c3a6bca45fc876590d7890600090a3505060016000555050565b611f07338361255b565b611f235760405162461bcd60e51b8152600401610bbb906143f3565b611f2f848484846131d8565b50505050565b6060611f4082612408565b611fa45760405162461bcd60e51b815260206004820152602f60248201527f4552433732314d657461646174613a2055524920717565727920666f72206e6f60448201526e3732bc34b9ba32b73a103a37b5b2b760891b6064820152608401610bbb565b6000611fae61320b565b90506000815111611fce5760405180602001604052806000815250611106565b80611fd88461321a565b604051602001611fe99291906141de565b6040516020818303038152906040529392505050565b6000818152600560205260408120610abb90613043565b33612022600082611a08565b61203e5760405162461bcd60e51b8152600401610bbb906143c8565b50601b805460ff19166001179055565b610fa38282613334565b60148054612065906145a8565b80601f0160208091040260200160405190810160405280929190818152602001828054612091906145a8565b80156120de5780601f106120b3576101008083540402835291602001916120de565b820191906000526020600020905b8154815290600101906020018083116120c157829003601f168201915b505050505081565b826120f081612408565b61210c5760405162461bcd60e51b8152600401610bbb9061437c565b8361211681612dfc565b156121635760405162461bcd60e51b815260206004820152601b60248201527f4672616d653a20546f6b656e20616c72656164792072656e74656400000000006044820152606401610bbb565b824381116121b35760405162461bcd60e51b815260206004820152601a60248201527f4672616d653a20426c6f636b206e6f7420696e206675747572650000000000006044820152606401610bbb565b604051631f9c3df360e21b81526004810187905286906000903090637e70f7cc9060240160206040518083038186803b1580156121ef57600080fd5b505afa158015612203573d6000803e3d6000fd5b505050506040513d601f19601f820116820180604052508101906122279190614174565b116122745760405162461bcd60e51b815260206004820152601b60248201527f4672616d653a2052656e74616c207072696365206e6f742073657400000000006044820152606401610bbb565b600260005414156122975760405162461bcd60e51b8152600401610bbb9061447b565b60026000908155604051631f9c3df360e21b8152600481018990523090637e70f7cc9060240160206040518083038186803b1580156122d557600080fd5b505afa1580156122e9573d6000803e3d6000fd5b505050506040513d601f19601f8201168201806040525081019061230d9190614174565b905060008161231c438961454e565b612326919061452f565b9050803410156123705760405162461bcd60e51b8152602060048201526015602482015274119c985b594e8814995b9d185b081c185e5b595b9d605a1b6044820152606401610bbb565b600061237b8a6114db565b90506123878183612bf3565b6000612393833461454e565b90503381156123a6576123a68183612bf3565b6123b18c8c8c61335a565b5050600160005550505050505050505050565b611ab582826133c0565b6000611106836001600160a01b038416613446565b60006001600160e01b0319821663780e9d6360e01b1480610abb5750610abb82613495565b6000908152600860205260409020546001600160a01b0316151590565b6000818152600a6020526040902080546001600160a01b0319166001600160a01b038416908117909155819061245a826114db565b6001600160a01b03167f8c5be1e5ebec7d5bd14f71427d1e84f3dd0314c0f7b2291e5b200ac8c7c3b92560405160405180910390a45050565b600061249e82612dfc565b156124f6576124ad82846134d5565b6124f15760405162461bcd60e51b8152602060048201526015602482015274233930b6b29d102737ba103a3432902932b73a32b960591b6044820152606401610bbb565b610abb565b6125008284612c96565b610abb5760405162461bcd60e51b8152602060048201526014602482015273233930b6b29d102737ba103a34329027bbb732b960611b6044820152606401610bbb565b61124781600080612b83565b60006111068383613446565b600061256682612408565b6125825760405162461bcd60e51b8152600401610bbb9061437c565b600061258d836114db565b9050806001600160a01b0316846001600160a01b031614806125c85750836001600160a01b03166125bd84610b53565b6001600160a01b0316145b806125f857506001600160a01b038082166000908152600b602090815260408083209388168352929052205460ff165b949350505050565b826001600160a01b0316612613826114db565b6001600160a01b03161461267b5760405162461bcd60e51b815260206004820152602960248201527f4552433732313a207472616e73666572206f6620746f6b656e2074686174206960448201526839903737ba1037bbb760b91b6064820152608401610bbb565b6001600160a01b0382166126dd5760405162461bcd60e51b8152602060048201526024808201527f4552433732313a207472616e7366657220746f20746865207a65726f206164646044820152637265737360e01b6064820152608401610bbb565b6126e8838383613561565b6126f3600082612425565b6001600160a01b038316600090815260096020526040812080546001929061271c90849061454e565b90915550506001600160a01b038216600090815260096020526040812080546001929061274a908490614503565b909155505060008181526008602052604080822080546001600160a01b0319166001600160a01b0386811691821790925591518493918716917fddf252ad1be2c89b69c2b068fc378daa952ba7f163c4a11628f55a4df523b3ef91a4505050565b6000828152600460205260409020600101546127c7813361356c565b610cf183836133c0565b6001600160a01b03811633146128415760405162461bcd60e51b815260206004820152602f60248201527f416363657373436f6e74726f6c3a2063616e206f6e6c792072656e6f756e636560448201526e103937b632b9903337b91039b2b63360891b6064820152608401610bbb565b611ab582826135d0565b6000611106836001600160a01b038416613637565b6040516331a9108f60e11b81526004810182905260009081906001600160a01b03851690636352211e9060240160206040518083038186803b1580156128a557600080fd5b505afa1580156128b9573d6000803e3d6000fd5b505050506040513d601f19601f820116820180604052508101906128dd9190613e60565b9050846001600160a01b0316846001600160a01b0316636352211e856040518263ffffffff1660e01b815260040161291791815260200190565b60206040518083038186803b15801561292f57600080fd5b505afa158015612943573d6000803e3d6000fd5b505050506040513d601f19601f820116820180604052508101906129679190613e60565b6001600160a01b03161495945050505050565b604051627eeac760e11b81526001600160a01b03848116600483015260248201839052600091829185169062fdd58e9060440160206040518083038186803b1580156129c557600080fd5b505afa1580156129d9573d6000803e3d6000fd5b505050506040513d601f19601f820116820180604052508101906129fd9190614174565b11949350505050565b61124781604051602401612a1a9190614317565b60408051601f198184030181529190526020810180516001600160e01b031663104c13eb60e21b179052613754565b60105460ff16612a925760405162461bcd60e51b815260206004820152601460248201527314185d5cd8589b194e881b9bdd081c185d5cd95960621b6044820152606401610bbb565b6010805460ff191690557f5db9ee0a495bf2e6ff9c91a7834c1ba4fdd244a5e8aa4e537bd38aeae4b073aa335b6040516001600160a01b03909116815260200160405180910390a1565b6000612ae7826114db565b9050612af581600084613561565b612b00600083612425565b6001600160a01b0381166000908152600960205260408120805460019290612b2990849061454e565b909155505060008281526008602052604080822080546001600160a01b0319169055518391906001600160a01b038416907fddf252ad1be2c89b69c2b068fc378daa952ba7f163c4a11628f55a4df523b3ef908390a45050565b60008381526003602090815260409182902080546001600160a01b0319166001600160a01b038616908117825560018201859055925184815290929186917f845ee41542a753bb1bf9f17c3d2930fd16349a29332893bc06569e4e9f5f46b391015b60405180910390a350505050565b6000826001600160a01b03168260405160006040518083038185875af1925050503d8060008114612c40576040519150601f19603f3d011682016040523d82523d6000602084013e612c45565b606091505b5050905080610cf15760405162461bcd60e51b815260206004820152601960248201527f4672616d653a204661696c656420746f2073656e6420455448000000000000006044820152606401610bbb565b6000612ca1836114db565b6001600160a01b0316826001600160a01b031614905092915050565b6001600160a01b038216612d135760405162461bcd60e51b815260206004820181905260248201527f4552433732313a206d696e7420746f20746865207a65726f20616464726573736044820152606401610bbb565b612d1c81612408565b15612d695760405162461bcd60e51b815260206004820152601c60248201527f4552433732313a20746f6b656e20616c7265616479206d696e746564000000006044820152606401610bbb565b612d7560008383613561565b6001600160a01b0382166000908152600960205260408120805460019290612d9e908490614503565b909155505060008181526008602052604080822080546001600160a01b0319166001600160a01b03861690811790915590518392907fddf252ad1be2c89b69c2b068fc378daa952ba7f163c4a11628f55a4df523b3ef908290a45050565b604051633009c19b60e01b81526004810182905260009081903090633009c19b90602401604080518083038186803b158015612e3757600080fd5b505afa158015612e4b573d6000803e3d6000fd5b505050506040513d601f19601f82011682018060405250810190612e6f919061411d565b905080602001516000141580611106575060200151431092915050565b60105460ff1615612ed25760405162461bcd60e51b815260206004820152601060248201526f14185d5cd8589b194e881c185d5cd95960821b6044820152606401610bbb565b6010805460ff191660011790557f62e78cea01bee320cd4e420270b5ea74000d11b0c9f74754ebdbfc544b05a258612abf3390565b60006111068383613775565b60008281526016602090815260408083205460179092528220546001600160a01b039091169190601590829060ff16600a811115612f6157634e487b7160e01b600052602160045260246000fd5b600a811115612f8057634e487b7160e01b600052602160045260246000fd5b815260200190815260200160002090506000612f9e82600301613043565b905060006001821115612fc957612fc2612fb883876145fe565b6003850190612f07565b9050612fda565b612fd7600384016000612f07565b90505b612fe760038401826137ad565b50600086815260186020526040902081905561300384826137b9565b80846001600160a01b0316877f98b595a980d0cccd434684fb987af818dc227293514b685567789f969a0ff11660405160405180910390a4505050505050565b6000610abb825490565b60007f00000000000000000000000000000000000000000000000000000000000000006001600160a01b0316634000aea07f0000000000000000000000000000000000000000000000000000000000000000848660006040516020016130bd929190918252602082015260400190565b6040516020818303038152906040526040518463ffffffff1660e01b81526004016130ea939291906142bf565b602060405180830381600087803b15801561310457600080fd5b505af1158015613118573d6000803e3d6000fd5b505050506040513d601f19601f8201168201806040525081019061313c919061401a565b50600083815260136020818152604080842054815180840189905280830186905230606082015260808082018390528351808303909101815260a090910190925281519183019190912093879052919052613198906001614503565b6000858152601360205260409020556125f88482604080516020808201949094528082019290925280518083038201815260609092019052805191012090565b6131e3848484612600565b6131ef848484846137d3565b611f2f5760405162461bcd60e51b8152600401610bbb9061432a565b606060128054610ad0906145a8565b60608161323e5750506040805180820190915260018152600360fc1b602082015290565b8160005b81156132685780613252816145e3565b91506132619050600a8361451b565b9150613242565b60008167ffffffffffffffff81111561329157634e487b7160e01b600052604160045260246000fd5b6040519080825280601f01601f1916602001820160405280156132bb576020820181803683370190505b5090505b84156125f8576132d060018361454e565b91506132dd600a866145fe565b6132e8906030614503565b60f81b81838151811061330b57634e487b7160e01b600052603260045260246000fd5b60200101906001600160f81b031916908160001a90535061332d600a8661451b565b94506132bf565b600082815260046020526040902060010154613350813361356c565b610cf183836135d0565b60008381526002602090815260409182902080546001600160a01b0319166001600160a01b038616908117825560018201859055925184815290929186917fed30b68a6b75846b1f125f61bee0f445ff34e5b5f127eda7d4ebb9634b16922e9101612be5565b6133ca8282611a08565b611ab55760008281526004602090815260408083206001600160a01b03851684529091529020805460ff191660011790556134023390565b6001600160a01b0316816001600160a01b0316837f2f8788117e7eff1d82e926ec794901d17c78024a50270940304540a733656f0d60405160405180910390a45050565b600081815260018301602052604081205461348d57508154600181810184556000848152602080822090930184905584548482528286019093526040902091909155610abb565b506000610abb565b60006001600160e01b031982166380ac58cd60e01b14806134c657506001600160e01b03198216635b5e139f60e01b145b80610abb5750610abb826138dd565b604051633009c19b60e01b81526004810183905260009081903090633009c19b90602401604080518083038186803b15801561351057600080fd5b505afa158015613524573d6000803e3d6000fd5b505050506040513d601f19601f82011682018060405250810190613548919061411d565b516001600160a01b039081169084161491505092915050565b610cf1838383613902565b6135768282611a08565b611ab55761358e816001600160a01b03166014613974565b613599836020613974565b6040516020016135aa92919061420d565b60408051601f198184030181529082905262461bcd60e51b8252610bbb91600401614317565b6135da8282611a08565b15611ab55760008281526004602090815260408083206001600160a01b0385168085529252808320805460ff1916905551339285917ff6391f5c32d9c69d2a47ea670b442974b53935d1edc7fd64eb21e047a839171b9190a45050565b6000818152600183016020526040812054801561374a57600061365b60018361454e565b855490915060009061366f9060019061454e565b90508181146136f057600086600001828154811061369d57634e487b7160e01b600052603260045260246000fd5b90600052602060002001549050808760000184815481106136ce57634e487b7160e01b600052603260045260246000fd5b6000918252602080832090910192909255918252600188019052604090208390555b855486908061370f57634e487b7160e01b600052603160045260246000fd5b600190038181906000526020600020016000905590558560010160008681526020019081526020016000206000905560019350505050610abb565b6000915050610abb565b80516a636f6e736f6c652e6c6f67602083016000808483855afa5050505050565b600082600001828154811061379a57634e487b7160e01b600052603260045260246000fd5b9060005260206000200154905092915050565b60006111068383613637565b611ab5828260405180602001604052806000815250613b56565b60006001600160a01b0384163b156138d557604051630a85bd0160e11b81526001600160a01b0385169063150b7a0290613817903390899088908890600401614282565b602060405180830381600087803b15801561383157600080fd5b505af1925050508015613861575060408051601f3d908101601f1916820190925261385e918101906140af565b60015b6138bb573d80801561388f576040519150601f19603f3d011682016040523d82523d6000602084013e613894565b606091505b5080516138b35760405162461bcd60e51b8152600401610bbb9061432a565b805181602001fd5b6001600160e01b031916630a85bd0160e11b1490506125f8565b5060016125f8565b60006001600160e01b03198216635a05180f60e01b1480610abb5750610abb82613b89565b61390d838383613bbe565b60105460ff1615610cf15760405162461bcd60e51b815260206004820152602b60248201527f4552433732315061757361626c653a20746f6b656e207472616e73666572207760448201526a1a1a5b19481c185d5cd95960aa1b6064820152608401610bbb565b6060600061398383600261452f565b61398e906002614503565b67ffffffffffffffff8111156139b457634e487b7160e01b600052604160045260246000fd5b6040519080825280601f01601f1916602001820160405280156139de576020820181803683370190505b509050600360fc1b81600081518110613a0757634e487b7160e01b600052603260045260246000fd5b60200101906001600160f81b031916908160001a905350600f60fb1b81600181518110613a4457634e487b7160e01b600052603260045260246000fd5b60200101906001600160f81b031916908160001a9053506000613a6884600261452f565b613a73906001614503565b90505b6001811115613b07576f181899199a1a9b1b9c1cb0b131b232b360811b85600f1660108110613ab557634e487b7160e01b600052603260045260246000fd5b1a60f81b828281518110613ad957634e487b7160e01b600052603260045260246000fd5b60200101906001600160f81b031916908160001a90535060049490941c93613b0081614591565b9050613a76565b5083156111065760405162461bcd60e51b815260206004820181905260248201527f537472696e67733a20686578206c656e67746820696e73756666696369656e746044820152606401610bbb565b613b608383612cbd565b613b6d60008484846137d3565b610cf15760405162461bcd60e51b8152600401610bbb9061432a565b60006001600160e01b03198216637965db0b60e01b1480610abb57506301ffc9a760e01b6001600160e01b0319831614610abb565b6001600160a01b038316613c1957613c1481600e80546000838152600f60205260408120829055600182018355919091527fbb7b4a454dc3493923482f07822329ed19e8244eff582cc204f8554c3620c3fd0155565b613c3c565b816001600160a01b0316836001600160a01b031614613c3c57613c3c8382613c76565b6001600160a01b038216613c5357610cf181613d13565b826001600160a01b0316826001600160a01b031614610cf157610cf18282613dec565b60006001613c83846118ba565b613c8d919061454e565b6000838152600d6020526040902054909150808214613ce0576001600160a01b0384166000908152600c602090815260408083208584528252808320548484528184208190558352600d90915290208190555b506000918252600d602090815260408084208490556001600160a01b039094168352600c81528383209183525290812055565b600e54600090613d259060019061454e565b6000838152600f6020526040812054600e8054939450909284908110613d5b57634e487b7160e01b600052603260045260246000fd5b9060005260206000200154905080600e8381548110613d8a57634e487b7160e01b600052603260045260246000fd5b6000918252602080832090910192909255828152600f9091526040808220849055858252812055600e805480613dd057634e487b7160e01b600052603160045260246000fd5b6001900381819060005260206000200160009055905550505050565b6000613df7836118ba565b6001600160a01b039093166000908152600c602090815260408083208684528252808320859055938252600d9052919091209190915550565b8035600b8110613e3f57600080fd5b919050565b600060208284031215613e55578081fd5b813561110681614654565b600060208284031215613e71578081fd5b815161110681614654565b60008060408385031215613e8e578081fd5b8235613e9981614654565b946020939093013593505050565b60008060408385031215613eb9578182fd5b8235613ec481614654565b91506020830135613ed481614654565b809150509250929050565b600080600060608486031215613ef3578081fd5b8335613efe81614654565b92506020840135613f0e81614654565b929592945050506040919091013590565b60008060008060808587031215613f34578081fd5b8435613f3f81614654565b9350602085810135613f5081614654565b935060408601359250606086013567ffffffffffffffff80821115613f73578384fd5b818801915088601f830112613f86578384fd5b813581811115613f9857613f9861463e565b613faa601f8201601f191685016144d2565b91508082528984828501011115613fbf578485fd5b8084840185840137810190920192909252939692955090935050565b60008060408385031215613fed578182fd5b8235613ff881614654565b91506020830135613ed481614669565b60008060408385031215613e8e578182fd5b60006020828403121561402b578081fd5b815161110681614669565b600060208284031215614047578081fd5b5035919050565b60008060408385031215614060578081fd5b823591506020830135613ed481614654565b60008060408385031215614084578182fd5b50508035926020909101359150565b6000602082840312156140a4578081fd5b813561110681614677565b6000602082840312156140c0578081fd5b815161110681614677565b6000602082840312156140dc578081fd5b61110682613e30565b600080600080608085870312156140fa578182fd5b61410385613e30565b966020860135965060408601359560600135945092505050565b60006040828403121561412e578081fd5b6040516040810181811067ffffffffffffffff821117156141515761415161463e565b604052825161415f81614654565b81526020928301519281019290925250919050565b600060208284031215614185578081fd5b5051919050565b6000806000606084860312156141a0578081fd5b833592506020840135613f0e81614654565b600081518084526141ca816020860160208601614565565b601f01601f19169290920160200192915050565b600083516141f0818460208801614565565b835190830190614204818360208801614565565b01949350505050565b7f416363657373436f6e74726f6c3a206163636f756e7420000000000000000000815260008351614245816017850160208801614565565b7001034b99036b4b9b9b4b733903937b6329607d1b6017918401918201528351614276816028840160208801614565565b01602801949350505050565b6001600160a01b03858116825284166020820152604081018390526080606082018190526000906142b5908301846141b2565b9695505050505050565b60018060a01b03841681528260208201526060604082015260006142e660608301846141b2565b95945050505050565b60208101600b831061431157634e487b7160e01b600052602160045260246000fd5b91905290565b60208152600061110660208301846141b2565b60208082526032908201527f4552433732313a207472616e7366657220746f206e6f6e20455243373231526560408201527131b2b4bb32b91034b6b83632b6b2b73a32b960711b606082015260800190565b6020808252602c908201527f4552433732313a206f70657261746f7220717565727920666f72206e6f6e657860408201526b34b9ba32b73a103a37b5b2b760a11b606082015260800190565b602080825260119082015270233930b6b29d1027b7363c9037bbb732b960791b604082015260600190565b60208082526031908201527f4552433732313a207472616e736665722063616c6c6572206973206e6f74206f6040820152701ddb995c881b9bdc88185c1c1c9bdd9959607a1b606082015260800190565b60208082526017908201527f4672616d653a20496e76616c69642043617465676f7279000000000000000000604082015260600190565b6020808252601f908201527f5265656e7472616e637947756172643a207265656e7472616e742063616c6c00604082015260600190565b81516001600160a01b031681526020808301519082015260408101610abb565b604051601f8201601f1916810167ffffffffffffffff811182821017156144fb576144fb61463e565b604052919050565b6000821982111561451657614516614612565b500190565b60008261452a5761452a614628565b500490565b600081600019048311821515161561454957614549614612565b500290565b60008282101561456057614560614612565b500390565b60005b83811015614580578181015183820152602001614568565b83811115611f2f5750506000910152565b6000816145a0576145a0614612565b506000190190565b600181811c908216806145bc57607f821691505b602082108114156145dd57634e487b7160e01b600052602260045260246000fd5b50919050565b60006000198214156145f7576145f7614612565b5060010190565b60008261460d5761460d614628565b500690565b634e487b7160e01b600052601160045260246000fd5b634e487b7160e01b600052601260045260246000fd5b634e487b7160e01b600052604160045260246000fd5b6001600160a01b038116811461124757600080fd5b801515811461124757600080fd5b6001600160e01b03198116811461124757600080fdfe4578686962697420737570706f727473206e65697468657220455243373231206f72204552433131353520696e74657266616365a2646970667358221220dada34ba4f0841d9ffce34e30f35e55096c959cab81d2ce8f51f519e74f162c464736f6c63430008040033",
  "devdoc": {
    "kind": "dev",
    "methods": {
      "approve(address,uint256)": {
        "details": "See {IERC721-approve}."
      },
      "balanceOf(address)": {
        "details": "See {IERC721-balanceOf}."
      },
      "burn(uint256)": {
        "details": "Burns `tokenId`. See {ERC721-_burn}. Requirements: - The caller must own `tokenId` or be an approved operator."
      },
      "constructor": {
        "details": "Grants `DEFAULT_ADMIN_ROLE`, `MINTER_ROLE` and `PAUSER_ROLE` to the account that deploys the contract."
      },
      "getApproved(uint256)": {
        "details": "See {IERC721-getApproved}."
      },
      "getRoleAdmin(bytes32)": {
        "details": "Returns the admin role that controls `role`. See {grantRole} and {revokeRole}. To change a role's admin, use {_setRoleAdmin}."
      },
      "getRoleMember(bytes32,uint256)": {
        "details": "Returns one of the accounts that have `role`. `index` must be a value between 0 and {getRoleMemberCount}, non-inclusive. Role bearers are not sorted in any particular way, and their ordering may change at any point. WARNING: When using {getRoleMember} and {getRoleMemberCount}, make sure you perform all queries on the same block. See the following https://forum.openzeppelin.com/t/iterating-over-elements-on-enumerableset-in-openzeppelin-contracts/2296[forum post] for more information."
      },
      "getRoleMemberCount(bytes32)": {
        "details": "Returns the number of accounts that have `role`. Can be used together with {getRoleMember} to enumerate all bearers of a role."
      },
      "getVersionNumber()": {
        "returns": {
          "_0": "The storage, major, minor, and patch version of the contract."
        }
      },
      "grantRole(bytes32,address)": {
        "details": "Overload {grantRole} to track enumerable memberships"
      },
      "hasRole(bytes32,address)": {
        "details": "Returns `true` if `account` has been granted `role`."
      },
      "isApprovedForAll(address,address)": {
        "details": "See {IERC721-isApprovedForAll}."
      },
      "isCurrentlyRented(uint256)": {
        "params": {
          "_tokenId": "The token to check is rented"
        }
      },
      "mint(address)": {
        "details": "Creates a new token for `to`. Its token ID will be automatically assigned (and available on the emitted {IERC721-Transfer} event), and the token URI autogenerated based on the base URI passed at construction. See {ERC721-_mint}. Requirements: - the caller must have the `MINTER_ROLE`."
      },
      "name()": {
        "details": "See {IERC721Metadata-name}."
      },
      "ownerOf(uint256)": {
        "details": "See {IERC721-ownerOf}."
      },
      "pause()": {
        "details": "Pauses all token transfers. See {ERC721Pausable} and {Pausable-_pause}. Requirements: - the caller must have the `PAUSER_ROLE`."
      },
      "paused()": {
        "details": "Returns true if the contract is paused, and false otherwise."
      },
      "renounceRole(bytes32,address)": {
        "details": "Overload {renounceRole} to track enumerable memberships"
      },
      "revokeRole(bytes32,address)": {
        "details": "Overload {revokeRole} to track enumerable memberships"
      },
      "safeTransferFrom(address,address,uint256)": {
        "details": "See {IERC721-safeTransferFrom}."
      },
      "safeTransferFrom(address,address,uint256,bytes)": {
        "details": "See {IERC721-safeTransferFrom}."
      },
      "setApprovalForAll(address,bool)": {
        "details": "See {IERC721-setApprovalForAll}."
      },
      "setExhibit(uint256,address,uint256)": {
        "details": "Exhibitionable implementation overrides"
      },
      "setRenter(uint256,address,uint256)": {
        "details": "Rentable implementation overrides"
      },
      "supportsInterface(bytes4)": {
        "details": "See {IERC165-supportsInterface}."
      },
      "symbol()": {
        "details": "See {IERC721Metadata-symbol}."
      },
      "tokenByIndex(uint256)": {
        "details": "See {IERC721Enumerable-tokenByIndex}."
      },
      "tokenOfOwnerByIndex(address,uint256)": {
        "details": "See {IERC721Enumerable-tokenOfOwnerByIndex}."
      },
      "tokenURI(uint256)": {
        "details": "See {IERC721Metadata-tokenURI}."
      },
      "totalSupply()": {
        "details": "See {IERC721Enumerable-totalSupply}."
      },
      "transferFrom(address,address,uint256)": {
        "details": "See {IERC721-transferFrom}."
      },
      "unpause()": {
        "details": "Unpauses all token transfers. See {ERC721Pausable} and {Pausable-_unpause}. Requirements: - the caller must have the `PAUSER_ROLE`."
      }
    },
    "version": 1
  },
  "userdoc": {
    "events": {
      "ExhibitSet(uint256,address,uint256)": {
        "notice": "Triggered when a a new exhibit has been set"
      },
      "RenterSet(uint256,address,uint256)": {
        "notice": "Triggered when a renter has been set"
      }
    },
    "kind": "user",
    "methods": {
      "getVersionNumber()": {
        "notice": "Returns the storage, major, minor, and patch version of the contract."
      },
      "isCurrentlyRented(uint256)": {
        "notice": "Checks if a token is currently rented by anyone"
      }
    },
    "version": 1
  },
  "storageLayout": {
    "storage": [
      {
        "astId": 1056,
        "contract": "contracts/Frame.sol:Frame",
        "label": "_status",
        "offset": 0,
        "slot": "0",
        "type": "t_uint256"
      },
      {
        "astId": 6125,
        "contract": "contracts/Frame.sol:Frame",
        "label": "_rentalPrices",
        "offset": 0,
        "slot": "1",
        "type": "t_mapping(t_uint256,t_uint256)"
      },
      {
        "astId": 6130,
        "contract": "contracts/Frame.sol:Frame",
        "label": "_renters",
        "offset": 0,
        "slot": "2",
        "type": "t_mapping(t_uint256,t_struct(Rental)6297_storage)"
      },
      {
        "astId": 5913,
        "contract": "contracts/Frame.sol:Frame",
        "label": "_exhibits",
        "offset": 0,
        "slot": "3",
        "type": "t_mapping(t_uint256,t_struct(Exhibit)6247_storage)"
      },
      {
        "astId": 290,
        "contract": "contracts/Frame.sol:Frame",
        "label": "_roles",
        "offset": 0,
        "slot": "4",
        "type": "t_mapping(t_bytes32,t_struct(RoleData)285_storage)"
      },
      {
        "astId": 591,
        "contract": "contracts/Frame.sol:Frame",
        "label": "_roleMembers",
        "offset": 0,
        "slot": "5",
        "type": "t_mapping(t_bytes32,t_struct(AddressSet)4636_storage)"
      },
      {
        "astId": 2117,
        "contract": "contracts/Frame.sol:Frame",
        "label": "_name",
        "offset": 0,
        "slot": "6",
        "type": "t_string_storage"
      },
      {
        "astId": 2119,
        "contract": "contracts/Frame.sol:Frame",
        "label": "_symbol",
        "offset": 0,
        "slot": "7",
        "type": "t_string_storage"
      },
      {
        "astId": 2123,
        "contract": "contracts/Frame.sol:Frame",
        "label": "_owners",
        "offset": 0,
        "slot": "8",
        "type": "t_mapping(t_uint256,t_address)"
      },
      {
        "astId": 2127,
        "contract": "contracts/Frame.sol:Frame",
        "label": "_balances",
        "offset": 0,
        "slot": "9",
        "type": "t_mapping(t_address,t_uint256)"
      },
      {
        "astId": 2131,
        "contract": "contracts/Frame.sol:Frame",
        "label": "_tokenApprovals",
        "offset": 0,
        "slot": "10",
        "type": "t_mapping(t_uint256,t_address)"
      },
      {
        "astId": 2137,
        "contract": "contracts/Frame.sol:Frame",
        "label": "_operatorApprovals",
        "offset": 0,
        "slot": "11",
        "type": "t_mapping(t_address,t_mapping(t_address,t_bool))"
      },
      {
        "astId": 3086,
        "contract": "contracts/Frame.sol:Frame",
        "label": "_ownedTokens",
        "offset": 0,
        "slot": "12",
        "type": "t_mapping(t_address,t_mapping(t_uint256,t_uint256))"
      },
      {
        "astId": 3090,
        "contract": "contracts/Frame.sol:Frame",
        "label": "_ownedTokensIndex",
        "offset": 0,
        "slot": "13",
        "type": "t_mapping(t_uint256,t_uint256)"
      },
      {
        "astId": 3093,
        "contract": "contracts/Frame.sol:Frame",
        "label": "_allTokens",
        "offset": 0,
        "slot": "14",
        "type": "t_array(t_uint256)dyn_storage"
      },
      {
        "astId": 3097,
        "contract": "contracts/Frame.sol:Frame",
        "label": "_allTokensIndex",
        "offset": 0,
        "slot": "15",
        "type": "t_mapping(t_uint256,t_uint256)"
      },
      {
        "astId": 971,
        "contract": "contracts/Frame.sol:Frame",
        "label": "_paused",
        "offset": 0,
        "slot": "16",
        "type": "t_bool"
      },
      {
        "astId": 3541,
        "contract": "contracts/Frame.sol:Frame",
        "label": "_tokenIdTracker",
        "offset": 0,
        "slot": "17",
        "type": "t_struct(Counter)4017_storage"
      },
      {
        "astId": 3543,
        "contract": "contracts/Frame.sol:Frame",
        "label": "_baseTokenURI",
        "offset": 0,
        "slot": "18",
        "type": "t_string_storage"
      },
      {
        "astId": 79,
        "contract": "contracts/Frame.sol:Frame",
        "label": "nonces",
        "offset": 0,
        "slot": "19",
        "type": "t_mapping(t_bytes32,t_uint256)"
      },
      {
        "astId": 4950,
        "contract": "contracts/Frame.sol:Frame",
        "label": "contractURI",
        "offset": 0,
        "slot": "20",
        "type": "t_string_storage"
      },
      {
        "astId": 4978,
        "contract": "contracts/Frame.sol:Frame",
        "label": "categories",
        "offset": 0,
        "slot": "21",
        "type": "t_mapping(t_enum(Category)4962,t_struct(CategoryDetail)4972_storage)"
      },
      {
        "astId": 4982,
        "contract": "contracts/Frame.sol:Frame",
        "label": "requestIdToSender",
        "offset": 0,
        "slot": "22",
        "type": "t_mapping(t_bytes32,t_address)"
      },
      {
        "astId": 4987,
        "contract": "contracts/Frame.sol:Frame",
        "label": "requestIdToCategory",
        "offset": 0,
        "slot": "23",
        "type": "t_mapping(t_bytes32,t_enum(Category)4962)"
      },
      {
        "astId": 4991,
        "contract": "contracts/Frame.sol:Frame",
        "label": "requestIdToTokenId",
        "offset": 0,
        "slot": "24",
        "type": "t_mapping(t_bytes32,t_uint256)"
      },
      {
        "astId": 4993,
        "contract": "contracts/Frame.sol:Frame",
        "label": "keyHash",
        "offset": 0,
        "slot": "25",
        "type": "t_bytes32"
      },
      {
        "astId": 5000,
        "contract": "contracts/Frame.sol:Frame",
        "label": "fee",
        "offset": 0,
        "slot": "26",
        "type": "t_uint256"
      },
      {
        "astId": 5003,
        "contract": "contracts/Frame.sol:Frame",
        "label": "categoriesInitialized",
        "offset": 0,
        "slot": "27",
        "type": "t_bool"
      }
    ],
    "types": {
      "t_address": {
        "encoding": "inplace",
        "label": "address",
        "numberOfBytes": "20"
      },
      "t_array(t_bytes32)dyn_storage": {
        "base": "t_bytes32",
        "encoding": "dynamic_array",
        "label": "bytes32[]",
        "numberOfBytes": "32"
      },
      "t_array(t_uint256)dyn_storage": {
        "base": "t_uint256",
        "encoding": "dynamic_array",
        "label": "uint256[]",
        "numberOfBytes": "32"
      },
      "t_bool": {
        "encoding": "inplace",
        "label": "bool",
        "numberOfBytes": "1"
      },
      "t_bytes32": {
        "encoding": "inplace",
        "label": "bytes32",
        "numberOfBytes": "32"
      },
      "t_enum(Category)4962": {
        "encoding": "inplace",
        "label": "enum Frame.Category",
        "numberOfBytes": "1"
      },
      "t_mapping(t_address,t_bool)": {
        "encoding": "mapping",
        "key": "t_address",
        "label": "mapping(address => bool)",
        "numberOfBytes": "32",
        "value": "t_bool"
      },
      "t_mapping(t_address,t_mapping(t_address,t_bool))": {
        "encoding": "mapping",
        "key": "t_address",
        "label": "mapping(address => mapping(address => bool))",
        "numberOfBytes": "32",
        "value": "t_mapping(t_address,t_bool)"
      },
      "t_mapping(t_address,t_mapping(t_uint256,t_uint256))": {
        "encoding": "mapping",
        "key": "t_address",
        "label": "mapping(address => mapping(uint256 => uint256))",
        "numberOfBytes": "32",
        "value": "t_mapping(t_uint256,t_uint256)"
      },
      "t_mapping(t_address,t_uint256)": {
        "encoding": "mapping",
        "key": "t_address",
        "label": "mapping(address => uint256)",
        "numberOfBytes": "32",
        "value": "t_uint256"
      },
      "t_mapping(t_bytes32,t_address)": {
        "encoding": "mapping",
        "key": "t_bytes32",
        "label": "mapping(bytes32 => address)",
        "numberOfBytes": "32",
        "value": "t_address"
      },
      "t_mapping(t_bytes32,t_enum(Category)4962)": {
        "encoding": "mapping",
        "key": "t_bytes32",
        "label": "mapping(bytes32 => enum Frame.Category)",
        "numberOfBytes": "32",
        "value": "t_enum(Category)4962"
      },
      "t_mapping(t_bytes32,t_struct(AddressSet)4636_storage)": {
        "encoding": "mapping",
        "key": "t_bytes32",
        "label": "mapping(bytes32 => struct EnumerableSet.AddressSet)",
        "numberOfBytes": "32",
        "value": "t_struct(AddressSet)4636_storage"
      },
      "t_mapping(t_bytes32,t_struct(RoleData)285_storage)": {
        "encoding": "mapping",
        "key": "t_bytes32",
        "label": "mapping(bytes32 => struct AccessControl.RoleData)",
        "numberOfBytes": "32",
        "value": "t_struct(RoleData)285_storage"
      },
      "t_mapping(t_bytes32,t_uint256)": {
        "encoding": "mapping",
        "key": "t_bytes32",
        "label": "mapping(bytes32 => uint256)",
        "numberOfBytes": "32",
        "value": "t_uint256"
      },
      "t_mapping(t_enum(Category)4962,t_struct(CategoryDetail)4972_storage)": {
        "encoding": "mapping",
        "key": "t_enum(Category)4962",
        "label": "mapping(enum Frame.Category => struct Frame.CategoryDetail)",
        "numberOfBytes": "32",
        "value": "t_struct(CategoryDetail)4972_storage"
      },
      "t_mapping(t_uint256,t_address)": {
        "encoding": "mapping",
        "key": "t_uint256",
        "label": "mapping(uint256 => address)",
        "numberOfBytes": "32",
        "value": "t_address"
      },
      "t_mapping(t_uint256,t_struct(Exhibit)6247_storage)": {
        "encoding": "mapping",
        "key": "t_uint256",
        "label": "mapping(uint256 => struct IExhibitionable.Exhibit)",
        "numberOfBytes": "32",
        "value": "t_struct(Exhibit)6247_storage"
      },
      "t_mapping(t_uint256,t_struct(Rental)6297_storage)": {
        "encoding": "mapping",
        "key": "t_uint256",
        "label": "mapping(uint256 => struct IRentable.Rental)",
        "numberOfBytes": "32",
        "value": "t_struct(Rental)6297_storage"
      },
      "t_mapping(t_uint256,t_uint256)": {
        "encoding": "mapping",
        "key": "t_uint256",
        "label": "mapping(uint256 => uint256)",
        "numberOfBytes": "32",
        "value": "t_uint256"
      },
      "t_string_storage": {
        "encoding": "bytes",
        "label": "string",
        "numberOfBytes": "32"
      },
      "t_struct(AddressSet)4636_storage": {
        "encoding": "inplace",
        "label": "struct EnumerableSet.AddressSet",
        "members": [
          {
            "astId": 4635,
            "contract": "contracts/Frame.sol:Frame",
            "label": "_inner",
            "offset": 0,
            "slot": "0",
            "type": "t_struct(Set)4335_storage"
          }
        ],
        "numberOfBytes": "64"
      },
      "t_struct(CategoryDetail)4972_storage": {
        "encoding": "inplace",
        "label": "struct Frame.CategoryDetail",
        "members": [
          {
            "astId": 4964,
            "contract": "contracts/Frame.sol:Frame",
            "label": "price",
            "offset": 0,
            "slot": "0",
            "type": "t_uint256"
          },
          {
            "astId": 4966,
            "contract": "contracts/Frame.sol:Frame",
            "label": "startingTokenId",
            "offset": 0,
            "slot": "1",
            "type": "t_uint256"
          },
          {
            "astId": 4968,
            "contract": "contracts/Frame.sol:Frame",
            "label": "supply",
            "offset": 0,
            "slot": "2",
            "type": "t_uint256"
          },
          {
            "astId": 4971,
            "contract": "contracts/Frame.sol:Frame",
            "label": "tokenIds",
            "offset": 0,
            "slot": "3",
            "type": "t_struct(UintSet)4793_storage"
          }
        ],
        "numberOfBytes": "160"
      },
      "t_struct(Counter)4017_storage": {
        "encoding": "inplace",
        "label": "struct Counters.Counter",
        "members": [
          {
            "astId": 4016,
            "contract": "contracts/Frame.sol:Frame",
            "label": "_value",
            "offset": 0,
            "slot": "0",
            "type": "t_uint256"
          }
        ],
        "numberOfBytes": "32"
      },
      "t_struct(Exhibit)6247_storage": {
        "encoding": "inplace",
        "label": "struct IExhibitionable.Exhibit",
        "members": [
          {
            "astId": 6244,
            "contract": "contracts/Frame.sol:Frame",
            "label": "contractAddress",
            "offset": 0,
            "slot": "0",
            "type": "t_address"
          },
          {
            "astId": 6246,
            "contract": "contracts/Frame.sol:Frame",
            "label": "tokenId",
            "offset": 0,
            "slot": "1",
            "type": "t_uint256"
          }
        ],
        "numberOfBytes": "64"
      },
      "t_struct(Rental)6297_storage": {
        "encoding": "inplace",
        "label": "struct IRentable.Rental",
        "members": [
          {
            "astId": 6294,
            "contract": "contracts/Frame.sol:Frame",
            "label": "renter",
            "offset": 0,
            "slot": "0",
            "type": "t_address"
          },
          {
            "astId": 6296,
            "contract": "contracts/Frame.sol:Frame",
            "label": "rentalExpiryBlock",
            "offset": 0,
            "slot": "1",
            "type": "t_uint256"
          }
        ],
        "numberOfBytes": "64"
      },
      "t_struct(RoleData)285_storage": {
        "encoding": "inplace",
        "label": "struct AccessControl.RoleData",
        "members": [
          {
            "astId": 282,
            "contract": "contracts/Frame.sol:Frame",
            "label": "members",
            "offset": 0,
            "slot": "0",
            "type": "t_mapping(t_address,t_bool)"
          },
          {
            "astId": 284,
            "contract": "contracts/Frame.sol:Frame",
            "label": "adminRole",
            "offset": 0,
            "slot": "1",
            "type": "t_bytes32"
          }
        ],
        "numberOfBytes": "64"
      },
      "t_struct(Set)4335_storage": {
        "encoding": "inplace",
        "label": "struct EnumerableSet.Set",
        "members": [
          {
            "astId": 4330,
            "contract": "contracts/Frame.sol:Frame",
            "label": "_values",
            "offset": 0,
            "slot": "0",
            "type": "t_array(t_bytes32)dyn_storage"
          },
          {
            "astId": 4334,
            "contract": "contracts/Frame.sol:Frame",
            "label": "_indexes",
            "offset": 0,
            "slot": "1",
            "type": "t_mapping(t_bytes32,t_uint256)"
          }
        ],
        "numberOfBytes": "64"
      },
      "t_struct(UintSet)4793_storage": {
        "encoding": "inplace",
        "label": "struct EnumerableSet.UintSet",
        "members": [
          {
            "astId": 4792,
            "contract": "contracts/Frame.sol:Frame",
            "label": "_inner",
            "offset": 0,
            "slot": "0",
            "type": "t_struct(Set)4335_storage"
          }
        ],
        "numberOfBytes": "64"
      },
      "t_uint256": {
        "encoding": "inplace",
        "label": "uint256",
        "numberOfBytes": "32"
      }
    }
  }
}