{
  "address": "0xBd081595b145BA5b1D32e98C52A55D20b6faB702",
  "abi": [
    {
      "inputs": [
        {
          "internalType": "string",
          "name": "_name",
          "type": "string"
        },
        {
          "internalType": "string",
          "name": "_symbol",
          "type": "string"
        }
      ],
      "stateMutability": "nonpayable",
      "type": "constructor"
    },
    {
      "anonymous": false,
      "inputs": [
        {
          "indexed": true,
          "internalType": "address",
          "name": "owner",
          "type": "address"
        },
        {
          "indexed": true,
          "internalType": "address",
          "name": "approved",
          "type": "address"
        },
        {
          "indexed": true,
          "internalType": "uint256",
          "name": "tokenId",
          "type": "uint256"
        }
      ],
      "name": "Approval",
      "type": "event"
    },
    {
      "anonymous": false,
      "inputs": [
        {
          "indexed": true,
          "internalType": "address",
          "name": "owner",
          "type": "address"
        },
        {
          "indexed": true,
          "internalType": "address",
          "name": "operator",
          "type": "address"
        },
        {
          "indexed": false,
          "internalType": "bool",
          "name": "approved",
          "type": "bool"
        }
      ],
      "name": "ApprovalForAll",
      "type": "event"
    },
    {
      "anonymous": false,
      "inputs": [
        {
          "indexed": true,
          "internalType": "uint256",
          "name": "_tokenId",
          "type": "uint256"
        },
        {
          "indexed": true,
          "internalType": "address",
          "name": "_exhibitContractAddress",
          "type": "address"
        },
        {
          "indexed": false,
          "internalType": "uint256",
          "name": "_exhibitTokenId",
          "type": "uint256"
        }
      ],
      "name": "ExhibitSet",
      "type": "event"
    },
    {
      "anonymous": false,
      "inputs": [
        {
          "indexed": true,
          "internalType": "uint256",
          "name": "_tokenId",
          "type": "uint256"
        },
        {
          "indexed": true,
          "internalType": "address",
          "name": "_renter",
          "type": "address"
        },
        {
          "indexed": false,
          "internalType": "uint256",
          "name": "_rentalExpiryBlock",
          "type": "uint256"
        }
      ],
      "name": "RenterSet",
      "type": "event"
    },
    {
      "anonymous": false,
      "inputs": [
        {
          "indexed": true,
          "internalType": "bytes32",
          "name": "role",
          "type": "bytes32"
        },
        {
          "indexed": true,
          "internalType": "bytes32",
          "name": "previousAdminRole",
          "type": "bytes32"
        },
        {
          "indexed": true,
          "internalType": "bytes32",
          "name": "newAdminRole",
          "type": "bytes32"
        }
      ],
      "name": "RoleAdminChanged",
      "type": "event"
    },
    {
      "anonymous": false,
      "inputs": [
        {
          "indexed": true,
          "internalType": "bytes32",
          "name": "role",
          "type": "bytes32"
        },
        {
          "indexed": true,
          "internalType": "address",
          "name": "account",
          "type": "address"
        },
        {
          "indexed": true,
          "internalType": "address",
          "name": "sender",
          "type": "address"
        }
      ],
      "name": "RoleGranted",
      "type": "event"
    },
    {
      "anonymous": false,
      "inputs": [
        {
          "indexed": true,
          "internalType": "bytes32",
          "name": "role",
          "type": "bytes32"
        },
        {
          "indexed": true,
          "internalType": "address",
          "name": "account",
          "type": "address"
        },
        {
          "indexed": true,
          "internalType": "address",
          "name": "sender",
          "type": "address"
        }
      ],
      "name": "RoleRevoked",
      "type": "event"
    },
    {
      "anonymous": false,
      "inputs": [
        {
          "indexed": true,
          "internalType": "address",
          "name": "from",
          "type": "address"
        },
        {
          "indexed": true,
          "internalType": "address",
          "name": "to",
          "type": "address"
        },
        {
          "indexed": true,
          "internalType": "uint256",
          "name": "tokenId",
          "type": "uint256"
        }
      ],
      "name": "Transfer",
      "type": "event"
    },
    {
      "inputs": [],
      "name": "DEFAULT_ADMIN_ROLE",
      "outputs": [
        {
          "internalType": "bytes32",
          "name": "",
          "type": "bytes32"
        }
      ],
      "stateMutability": "view",
      "type": "function"
    },
    {
      "inputs": [],
      "name": "MINTER_ROLE",
      "outputs": [
        {
          "internalType": "bytes32",
          "name": "",
          "type": "bytes32"
        }
      ],
      "stateMutability": "view",
      "type": "function"
    },
    {
      "inputs": [],
      "name": "PAUSER_ROLE",
      "outputs": [
        {
          "internalType": "bytes32",
          "name": "",
          "type": "bytes32"
        }
      ],
      "stateMutability": "view",
      "type": "function"
    },
    {
      "inputs": [
        {
          "internalType": "uint256",
          "name": "",
          "type": "uint256"
        }
      ],
      "name": "_rentalPrices",
      "outputs": [
        {
          "internalType": "uint256",
          "name": "",
          "type": "uint256"
        }
      ],
      "stateMutability": "view",
      "type": "function"
    },
    {
      "inputs": [
        {
          "internalType": "address payable",
          "name": "_to",
          "type": "address"
        },
        {
          "internalType": "uint256",
          "name": "_amount",
          "type": "uint256"
        }
      ],
      "name": "_transfer",
      "outputs": [],
      "stateMutability": "nonpayable",
      "type": "function"
    },
    {
      "inputs": [
        {
          "internalType": "address",
          "name": "to",
          "type": "address"
        },
        {
          "internalType": "uint256",
          "name": "tokenId",
          "type": "uint256"
        }
      ],
      "name": "approve",
      "outputs": [],
      "stateMutability": "nonpayable",
      "type": "function"
    },
    {
      "inputs": [
        {
          "internalType": "address",
          "name": "owner",
          "type": "address"
        }
      ],
      "name": "balanceOf",
      "outputs": [
        {
          "internalType": "uint256",
          "name": "",
          "type": "uint256"
        }
      ],
      "stateMutability": "view",
      "type": "function"
    },
    {
      "inputs": [
        {
          "internalType": "uint256",
          "name": "_tokenId",
          "type": "uint256"
        }
      ],
      "name": "clearExhibit",
      "outputs": [],
      "stateMutability": "nonpayable",
      "type": "function"
    },
    {
      "inputs": [],
      "name": "contractURI",
      "outputs": [
        {
          "internalType": "string",
          "name": "",
          "type": "string"
        }
      ],
      "stateMutability": "pure",
      "type": "function"
    },
    {
      "inputs": [
        {
          "internalType": "uint256",
          "name": "tokenId",
          "type": "uint256"
        }
      ],
      "name": "getApproved",
      "outputs": [
        {
          "internalType": "address",
          "name": "",
          "type": "address"
        }
      ],
      "stateMutability": "view",
      "type": "function"
    },
    {
      "inputs": [
        {
          "internalType": "uint256",
          "name": "_tokenId",
          "type": "uint256"
        }
      ],
      "name": "getExhibit",
      "outputs": [
        {
          "components": [
            {
              "internalType": "address",
              "name": "contractAddress",
              "type": "address"
            },
            {
              "internalType": "uint256",
              "name": "tokenId",
              "type": "uint256"
            }
          ],
          "internalType": "struct IExhibitionable.Exhibit",
          "name": "",
          "type": "tuple"
        }
      ],
      "stateMutability": "view",
      "type": "function"
    },
    {
      "inputs": [
        {
          "internalType": "uint256",
          "name": "_tokenId",
          "type": "uint256"
        }
      ],
      "name": "getRentalPricePerBlock",
      "outputs": [
        {
          "internalType": "uint256",
          "name": "",
          "type": "uint256"
        }
      ],
      "stateMutability": "view",
      "type": "function"
    },
    {
      "inputs": [
        {
          "internalType": "uint256",
          "name": "_tokenId",
          "type": "uint256"
        }
      ],
      "name": "getRenter",
      "outputs": [
        {
          "components": [
            {
              "internalType": "address",
              "name": "renter",
              "type": "address"
            },
            {
              "internalType": "uint256",
              "name": "rentalExpiryBlock",
              "type": "uint256"
            }
          ],
          "internalType": "struct IRentable.Rental",
          "name": "",
          "type": "tuple"
        }
      ],
      "stateMutability": "view",
      "type": "function"
    },
    {
      "inputs": [
        {
          "internalType": "bytes32",
          "name": "role",
          "type": "bytes32"
        }
      ],
      "name": "getRoleAdmin",
      "outputs": [
        {
          "internalType": "bytes32",
          "name": "",
          "type": "bytes32"
        }
      ],
      "stateMutability": "view",
      "type": "function"
    },
    {
      "inputs": [],
      "name": "getVersionNumber",
      "outputs": [
        {
          "internalType": "uint256",
          "name": "",
          "type": "uint256"
        },
        {
          "internalType": "uint256",
          "name": "",
          "type": "uint256"
        },
        {
          "internalType": "uint256",
          "name": "",
          "type": "uint256"
        },
        {
          "internalType": "uint256",
          "name": "",
          "type": "uint256"
        }
      ],
      "stateMutability": "pure",
      "type": "function"
    },
    {
      "inputs": [
        {
          "internalType": "bytes32",
          "name": "role",
          "type": "bytes32"
        },
        {
          "internalType": "address",
          "name": "account",
          "type": "address"
        }
      ],
      "name": "grantRole",
      "outputs": [],
      "stateMutability": "nonpayable",
      "type": "function"
    },
    {
      "inputs": [
        {
          "internalType": "bytes32",
          "name": "role",
          "type": "bytes32"
        },
        {
          "internalType": "address",
          "name": "account",
          "type": "address"
        }
      ],
      "name": "hasRole",
      "outputs": [
        {
          "internalType": "bool",
          "name": "",
          "type": "bool"
        }
      ],
      "stateMutability": "view",
      "type": "function"
    },
    {
      "inputs": [
        {
          "internalType": "address",
          "name": "owner",
          "type": "address"
        },
        {
          "internalType": "address",
          "name": "operator",
          "type": "address"
        }
      ],
      "name": "isApprovedForAll",
      "outputs": [
        {
          "internalType": "bool",
          "name": "",
          "type": "bool"
        }
      ],
      "stateMutability": "view",
      "type": "function"
    },
    {
      "inputs": [],
      "name": "name",
      "outputs": [
        {
          "internalType": "string",
          "name": "",
          "type": "string"
        }
      ],
      "stateMutability": "view",
      "type": "function"
    },
    {
      "inputs": [
        {
          "internalType": "address",
          "name": "_to",
          "type": "address"
        },
        {
          "internalType": "enum Frame.Category",
          "name": "_category",
          "type": "uint8"
        },
        {
          "internalType": "uint256",
          "name": "_tokenId",
          "type": "uint256"
        },
        {
          "internalType": "string",
          "name": "_metadataURI",
          "type": "string"
        }
      ],
      "name": "ownerMint",
      "outputs": [],
      "stateMutability": "nonpayable",
      "type": "function"
    },
    {
      "inputs": [
        {
          "internalType": "uint256",
          "name": "tokenId",
          "type": "uint256"
        }
      ],
      "name": "ownerOf",
      "outputs": [
        {
          "internalType": "address",
          "name": "",
          "type": "address"
        }
      ],
      "stateMutability": "view",
      "type": "function"
    },
    {
      "inputs": [
        {
          "internalType": "enum Frame.Category",
          "name": "_category",
          "type": "uint8"
        }
      ],
      "name": "purchase",
      "outputs": [],
      "stateMutability": "payable",
      "type": "function"
    },
    {
      "inputs": [
        {
          "internalType": "bytes32",
          "name": "role",
          "type": "bytes32"
        },
        {
          "internalType": "address",
          "name": "account",
          "type": "address"
        }
      ],
      "name": "renounceRole",
      "outputs": [],
      "stateMutability": "nonpayable",
      "type": "function"
    },
    {
      "inputs": [
        {
          "internalType": "bytes32",
          "name": "role",
          "type": "bytes32"
        },
        {
          "internalType": "address",
          "name": "account",
          "type": "address"
        }
      ],
      "name": "revokeRole",
      "outputs": [],
      "stateMutability": "nonpayable",
      "type": "function"
    },
    {
      "inputs": [
        {
          "internalType": "address",
          "name": "from",
          "type": "address"
        },
        {
          "internalType": "address",
          "name": "to",
          "type": "address"
        },
        {
          "internalType": "uint256",
          "name": "tokenId",
          "type": "uint256"
        }
      ],
      "name": "safeTransferFrom",
      "outputs": [],
      "stateMutability": "nonpayable",
      "type": "function"
    },
    {
      "inputs": [
        {
          "internalType": "address",
          "name": "from",
          "type": "address"
        },
        {
          "internalType": "address",
          "name": "to",
          "type": "address"
        },
        {
          "internalType": "uint256",
          "name": "tokenId",
          "type": "uint256"
        },
        {
          "internalType": "bytes",
          "name": "_data",
          "type": "bytes"
        }
      ],
      "name": "safeTransferFrom",
      "outputs": [],
      "stateMutability": "nonpayable",
      "type": "function"
    },
    {
      "inputs": [
        {
          "internalType": "address",
          "name": "operator",
          "type": "address"
        },
        {
          "internalType": "bool",
          "name": "approved",
          "type": "bool"
        }
      ],
      "name": "setApprovalForAll",
      "outputs": [],
      "stateMutability": "nonpayable",
      "type": "function"
    },
    {
      "inputs": [
        {
          "internalType": "enum Frame.Category",
          "name": "_category",
          "type": "uint8"
        },
        {
          "internalType": "uint256",
          "name": "_price",
          "type": "uint256"
        },
        {
          "internalType": "uint256",
          "name": "_startingTokenId",
          "type": "uint256"
        },
        {
          "internalType": "uint256",
          "name": "_supply",
          "type": "uint256"
        }
      ],
      "name": "setCategoryDetail",
      "outputs": [],
      "stateMutability": "nonpayable",
      "type": "function"
    },
    {
      "inputs": [
        {
          "internalType": "uint256",
          "name": "_tokenId",
          "type": "uint256"
        },
        {
          "internalType": "address",
          "name": "_exhibitContractAddress",
          "type": "address"
        },
        {
          "internalType": "uint256",
          "name": "_exhibitTokenId",
          "type": "uint256"
        }
      ],
      "name": "setExhibit",
      "outputs": [],
      "stateMutability": "nonpayable",
      "type": "function"
    },
    {
      "inputs": [
        {
          "internalType": "uint256",
          "name": "_tokenId",
          "type": "uint256"
        },
        {
          "internalType": "uint256",
          "name": "_rentalPrice",
          "type": "uint256"
        }
      ],
      "name": "setRentalPricePerBlock",
      "outputs": [],
      "stateMutability": "nonpayable",
      "type": "function"
    },
    {
      "inputs": [
        {
          "internalType": "uint256",
          "name": "_tokenId",
          "type": "uint256"
        },
        {
          "internalType": "address",
          "name": "_renter",
          "type": "address"
        },
        {
          "internalType": "uint256",
          "name": "_rentalExpiryAtBlock",
          "type": "uint256"
        }
      ],
      "name": "setRenter",
      "outputs": [],
      "stateMutability": "payable",
      "type": "function"
    },
    {
      "inputs": [
        {
          "internalType": "bytes4",
          "name": "interfaceId",
          "type": "bytes4"
        }
      ],
      "name": "supportsInterface",
      "outputs": [
        {
          "internalType": "bool",
          "name": "",
          "type": "bool"
        }
      ],
      "stateMutability": "view",
      "type": "function"
    },
    {
      "inputs": [],
      "name": "symbol",
      "outputs": [
        {
          "internalType": "string",
          "name": "",
          "type": "string"
        }
      ],
      "stateMutability": "view",
      "type": "function"
    },
    {
      "inputs": [
        {
          "internalType": "uint256",
          "name": "tokenId",
          "type": "uint256"
        }
      ],
      "name": "tokenURI",
      "outputs": [
        {
          "internalType": "string",
          "name": "",
          "type": "string"
        }
      ],
      "stateMutability": "view",
      "type": "function"
    },
    {
      "inputs": [
        {
          "internalType": "address",
          "name": "from",
          "type": "address"
        },
        {
          "internalType": "address",
          "name": "to",
          "type": "address"
        },
        {
          "internalType": "uint256",
          "name": "tokenId",
          "type": "uint256"
        }
      ],
      "name": "transferFrom",
      "outputs": [],
      "stateMutability": "nonpayable",
      "type": "function"
    }
  ],
  "transactionHash": "0xdf7ca41ce96f761789aeb8e8b17c23904c726c60dcbc0928318acbfa4a3d65b1",
  "args": [
    "Frame",
    "FRAME"
  ],
  "solcInputHash": "b947e7cdc70003681a6b66072596993b",
  "bytecode": "0x60806040526000600d553480156200001657600080fd5b5060405162005e7238038062005e7283398181016040528101906200003c9190620003c2565b81816001808190555081600590805190602001906200005d929190620002a0565b50806006908051906020019062000076929190620002a0565b5050506200009d6000801b620000916200012760201b60201c565b6200012f60201b60201c565b620000de7f9f2df0fed2c77648de5860a4cc508cd0818c85b8b8a1ab4ceeef8d981c8956a6620000d26200012760201b60201c565b6200012f60201b60201c565b6200011f7f65d7a28e3265b37a6474929f336521b332c1681b933f6cb9f3376673440d862a620001136200012760201b60201c565b6200012f60201b60201c565b5050620005a5565b600033905090565b6200014182826200014560201b60201c565b5050565b6200015782826200023660201b60201c565b6200023257600160008084815260200190815260200160002060000160008373ffffffffffffffffffffffffffffffffffffffff1673ffffffffffffffffffffffffffffffffffffffff16815260200190815260200160002060006101000a81548160ff021916908315150217905550620001d76200012760201b60201c565b73ffffffffffffffffffffffffffffffffffffffff168173ffffffffffffffffffffffffffffffffffffffff16837f2f8788117e7eff1d82e926ec794901d17c78024a50270940304540a733656f0d60405160405180910390a45b5050565b600080600084815260200190815260200160002060000160008373ffffffffffffffffffffffffffffffffffffffff1673ffffffffffffffffffffffffffffffffffffffff16815260200190815260200160002060009054906101000a900460ff16905092915050565b828054620002ae90620004ca565b90600052602060002090601f016020900481019282620002d257600085556200031e565b82601f10620002ed57805160ff19168380011785556200031e565b828001600101855582156200031e579182015b828111156200031d57825182559160200191906001019062000300565b5b5090506200032d919062000331565b5090565b5b808211156200034c57600081600090555060010162000332565b5090565b60006200036762000361846200045e565b62000435565b9050828152602081018484840111156200038057600080fd5b6200038d84828562000494565b509392505050565b600082601f830112620003a757600080fd5b8151620003b984826020860162000350565b91505092915050565b60008060408385031215620003d657600080fd5b600083015167ffffffffffffffff811115620003f157600080fd5b620003ff8582860162000395565b925050602083015167ffffffffffffffff8111156200041d57600080fd5b6200042b8582860162000395565b9150509250929050565b60006200044162000454565b90506200044f828262000500565b919050565b6000604051905090565b600067ffffffffffffffff8211156200047c576200047b62000565565b5b620004878262000594565b9050602081019050919050565b60005b83811015620004b457808201518184015260208101905062000497565b83811115620004c4576000848401525b50505050565b60006002820490506001821680620004e357607f821691505b60208210811415620004fa57620004f962000536565b5b50919050565b6200050b8262000594565b810181811067ffffffffffffffff821117156200052d576200052c62000565565b5b80604052505050565b7f4e487b7100000000000000000000000000000000000000000000000000000000600052602260045260246000fd5b7f4e487b7100000000000000000000000000000000000000000000000000000000600052604160045260246000fd5b6000601f19601f8301169050919050565b6158bd80620005b56000396000f3fe6080604052600436106102045760003560e01c80636352211e11610118578063b88d4fde116100a0578063d547741f1161006f578063d547741f146107b3578063e63ab1e9146107dc578063e8a3d48514610807578063e985e9c514610832578063fc1560b71461086f57610204565b8063b88d4fde146106e5578063c87b56dd1461070e578063d057d24c1461074b578063d53913931461078857610204565b806391d14854116100e757806391d14854146105ec57806395d89b411461062957806396eb809614610654578063a217fddf14610691578063a22cb465146106bc57610204565b80636352211e1461050c578063690878191461054957806370a08231146105725780637e70f7cc146105af57610204565b8063248a9ca31161019b57806336568abe1161016a57806336568abe1461043a57806342842e0e146104635780634684c6111461048c5780634847a79c146104b557806354255be0146104de57610204565b8063248a9ca31461037b5780632f2ff15d146103b85780633009c19b146103e15780633298df761461041e57610204565b806309acea49116101d757806309acea49146102d75780631e39b1f014610300578063213a42341461032957806323b872dd1461035257610204565b806301ffc9a71461020957806306fdde0314610246578063081812fc14610271578063095ea7b3146102ae575b600080fd5b34801561021557600080fd5b50610230600480360381019061022b9190613e02565b61088b565b60405161023d91906146e6565b60405180910390f35b34801561025257600080fd5b5061025b61089d565b604051610268919061471c565b60405180910390f35b34801561027d57600080fd5b5061029860048036038101906102939190613f09565b61092f565b6040516102a5919061467f565b60405180910390f35b3480156102ba57600080fd5b506102d560048036038101906102d09190613d61565b6109b4565b005b3480156102e357600080fd5b506102fe60048036038101906102f99190613f09565b610acc565b005b34801561030c57600080fd5b5061032760048036038101906103229190613ce1565b610cde565b005b34801561033557600080fd5b50610350600480360381019061034b9190613e7d565b610ead565b005b34801561035e57600080fd5b5061037960048036038101906103749190613bdb565b610fab565b005b34801561038757600080fd5b506103a2600480360381019061039d9190613d9d565b61100b565b6040516103af9190614701565b60405180910390f35b3480156103c457600080fd5b506103df60048036038101906103da9190613dc6565b61102a565b005b3480156103ed57600080fd5b5061040860048036038101906104039190613f09565b611053565b6040516104159190614af9565b60405180910390f35b61043860048036038101906104339190613e54565b6110e0565b005b34801561044657600080fd5b50610461600480360381019061045c9190613dc6565b6112b2565b005b34801561046f57600080fd5b5061048a60048036038101906104859190613bdb565b611335565b005b34801561049857600080fd5b506104b360048036038101906104ae9190613f5b565b611355565b005b3480156104c157600080fd5b506104dc60048036038101906104d79190613b63565b61156d565b005b3480156104ea57600080fd5b506104f361161e565b6040516105039493929190614b8f565b60405180910390f35b34801561051857600080fd5b50610533600480360381019061052e9190613f09565b61163a565b604051610540919061467f565b60405180910390f35b34801561055557600080fd5b50610570600480360381019061056b9190613faa565b6116ec565b005b34801561057e57600080fd5b5061059960048036038101906105949190613b3a565b61182e565b6040516105a69190614b14565b60405180910390f35b3480156105bb57600080fd5b506105d660048036038101906105d19190613f09565b6118e6565b6040516105e39190614b14565b60405180910390f35b3480156105f857600080fd5b50610613600480360381019061060e9190613dc6565b611903565b60405161062091906146e6565b60405180910390f35b34801561063557600080fd5b5061063e61196d565b60405161064b919061471c565b60405180910390f35b34801561066057600080fd5b5061067b60048036038101906106769190613f09565b6119ff565b6040516106889190614b14565b60405180910390f35b34801561069d57600080fd5b506106a6611a17565b6040516106b39190614701565b60405180910390f35b3480156106c857600080fd5b506106e360048036038101906106de9190613ca5565b611a1e565b005b3480156106f157600080fd5b5061070c60048036038101906107079190613c2a565b611b9f565b005b34801561071a57600080fd5b5061073560048036038101906107309190613f09565b611c01565b604051610742919061471c565b60405180910390f35b34801561075757600080fd5b50610772600480360381019061076d9190613f09565b611d53565b60405161077f9190614ade565b60405180910390f35b34801561079457600080fd5b5061079d611de0565b6040516107aa9190614701565b60405180910390f35b3480156107bf57600080fd5b506107da60048036038101906107d59190613dc6565b611e04565b005b3480156107e857600080fd5b506107f1611e2d565b6040516107fe9190614701565b60405180910390f35b34801561081357600080fd5b5061081c611e51565b604051610829919061471c565b60405180910390f35b34801561083e57600080fd5b5061085960048036038101906108549190613b9f565b611e71565b60405161086691906146e6565b60405180910390f35b61088960048036038101906108849190613f5b565b611f05565b005b600061089682612277565b9050919050565b6060600580546108ac90614e89565b80601f01602080910402602001604051908101604052809291908181526020018280546108d890614e89565b80156109255780601f106108fa57610100808354040283529160200191610925565b820191906000526020600020905b81548152906001019060200180831161090857829003601f168201915b5050505050905090565b600061093a82612359565b610979576040517f08c379a00000000000000000000000000000000000000000000000000000000081526004016109709061499e565b60405180910390fd5b6009600083815260200190815260200160002060009054906101000a900473ffffffffffffffffffffffffffffffffffffffff169050919050565b60006109bf8261163a565b90508073ffffffffffffffffffffffffffffffffffffffff168373ffffffffffffffffffffffffffffffffffffffff161415610a30576040517f08c379a0000000000000000000000000000000000000000000000000000000008152600401610a27906149fe565b60405180910390fd5b8073ffffffffffffffffffffffffffffffffffffffff16610a4f6123c5565b73ffffffffffffffffffffffffffffffffffffffff161480610a7e5750610a7d81610a786123c5565b611e71565b5b610abd576040517f08c379a0000000000000000000000000000000000000000000000000000000008152600401610ab4906148be565b60405180910390fd5b610ac783836123cd565b505050565b80610ad681612359565b610b15576040517f08c379a0000000000000000000000000000000000000000000000000000000008152600401610b0c9061487e565b60405180910390fd5b81610b1e6123c5565b6000610b298361163a565b905060008273ffffffffffffffffffffffffffffffffffffffff168273ffffffffffffffffffffffffffffffffffffffff1614905060003073ffffffffffffffffffffffffffffffffffffffff16633009c19b866040518263ffffffff1660e01b8152600401610b999190614b14565b604080518083038186803b158015610bb057600080fd5b505afa158015610bc4573d6000803e3d6000fd5b505050506040513d601f19601f82011682018060405250810190610be89190613ee0565b905060008473ffffffffffffffffffffffffffffffffffffffff16826000015173ffffffffffffffffffffffffffffffffffffffff161490508280610c2a5750805b610c69576040517f08c379a0000000000000000000000000000000000000000000000000000000008152600401610c60906147fe565b60405180910390fd5b3073ffffffffffffffffffffffffffffffffffffffff166309acea49896040518263ffffffff1660e01b8152600401610ca29190614b14565b600060405180830381600087803b158015610cbc57600080fd5b505af1158015610cd0573d6000803e3d6000fd5b505050505050505050505050565b610ce66123c5565b610d107f9f2df0fed2c77648de5860a4cc508cd0818c85b8b8a1ab4ceeef8d981c8956a682611903565b610d4f576040517f08c379a0000000000000000000000000000000000000000000000000000000008152600401610d469061475e565b60405180910390fd5b60026001541415610d95576040517f08c379a0000000000000000000000000000000000000000000000000000000008152600401610d8c90614a7e565b60405180910390fd5b6002600181905550610da78685612486565b610df58484848080601f016020809104026020016040519081016040528093929190818152602001838380828437600081840152601f19601f820116905080830192505050505050506124a4565b610dff30856109b4565b6000600c600087600a811115610e3e577f4e487b7100000000000000000000000000000000000000000000000000000000600052602160045260246000fd5b600a811115610e76577f4e487b7100000000000000000000000000000000000000000000000000000000600052602160045260246000fd5b81526020019081526020016000209050610e9c858260030161251890919063ffffffff16565b505060018081905550505050505050565b610eb56123c5565b610ec26000801b82611903565b610f01576040517f08c379a0000000000000000000000000000000000000000000000000000000008152600401610ef89061489e565b60405180910390fd5b6000600c600087600a811115610f40577f4e487b7100000000000000000000000000000000000000000000000000000000600052602160045260246000fd5b600a811115610f78577f4e487b7100000000000000000000000000000000000000000000000000000000600052602160045260246000fd5b81526020019081526020016000209050848160000181905550838160010181905550828160020181905550505050505050565b610fbc610fb66123c5565b82612532565b610ffb576040517f08c379a0000000000000000000000000000000000000000000000000000000008152600401610ff290614a3e565b60405180910390fd5b611006838383612610565b505050565b6000806000838152602001908152602001600020600101549050919050565b6110338261100b565b6110448161103f6123c5565b61286c565b61104e8383612909565b505050565b61105b613867565b600360008381526020019081526020016000206040518060400160405290816000820160009054906101000a900473ffffffffffffffffffffffffffffffffffffffff1673ffffffffffffffffffffffffffffffffffffffff1673ffffffffffffffffffffffffffffffffffffffff1681526020016001820154815250509050919050565b60026001541415611126576040517f08c379a000000000000000000000000000000000000000000000000000000000815260040161111d90614a7e565b60405180910390fd5b60026001819055506000600c600083600a81111561116d577f4e487b7100000000000000000000000000000000000000000000000000000000600052602160045260246000fd5b600a8111156111a5577f4e487b7100000000000000000000000000000000000000000000000000000000600052602160045260246000fd5b8152602001908152602001600020905060006111c3826003016129e9565b11611203576040517f08c379a00000000000000000000000000000000000000000000000000000000081526004016111fa9061481e565b60405180910390fd5b806000015434101561124a576040517f08c379a000000000000000000000000000000000000000000000000000000000815260040161124190614abe565b60405180910390fd5b600061126061125b836003016129e9565b6129fe565b9050600061127a8284600301612a5a90919063ffffffff16565b905061128e306112886123c5565b83612610565b6112a48184600301612a7490919063ffffffff16565b505050506001808190555050565b6112ba6123c5565b73ffffffffffffffffffffffffffffffffffffffff168173ffffffffffffffffffffffffffffffffffffffff1614611327576040517f08c379a000000000000000000000000000000000000000000000000000000000815260040161131e90614a9e565b60405180910390fd5b6113318282612a8e565b5050565b61135083838360405180602001604052806000815250611b9f565b505050565b8261135f81612359565b61139e576040517f08c379a00000000000000000000000000000000000000000000000000000000081526004016113959061487e565b60405180910390fd5b836113a76123c5565b60006113b28361163a565b905060008273ffffffffffffffffffffffffffffffffffffffff168273ffffffffffffffffffffffffffffffffffffffff1614905060003073ffffffffffffffffffffffffffffffffffffffff16633009c19b866040518263ffffffff1660e01b81526004016114229190614b14565b604080518083038186803b15801561143957600080fd5b505afa15801561144d573d6000803e3d6000fd5b505050506040513d601f19601f820116820180604052508101906114719190613ee0565b905060008473ffffffffffffffffffffffffffffffffffffffff16826000015173ffffffffffffffffffffffffffffffffffffffff1614905082806114b35750805b6114f2576040517f08c379a00000000000000000000000000000000000000000000000000000000081526004016114e9906147fe565b60405180910390fd5b3073ffffffffffffffffffffffffffffffffffffffff16634684c6118b8b8b6040518463ffffffff1660e01b815260040161152f93929190614b2f565b600060405180830381600087803b15801561154957600080fd5b505af115801561155d573d6000803e3d6000fd5b5050505050505050505050505050565b60008273ffffffffffffffffffffffffffffffffffffffff1682604051611593906145f3565b60006040518083038185875af1925050503d80600081146115d0576040519150601f19603f3d011682016040523d82523d6000602084013e6115d5565b606091505b5050905080611619576040517f08c379a000000000000000000000000000000000000000000000000000000000815260040161161090614a1e565b60405180910390fd5b505050565b6000806000806001600060016000935093509350935090919293565b6000806007600084815260200190815260200160002060009054906101000a900473ffffffffffffffffffffffffffffffffffffffff169050600073ffffffffffffffffffffffffffffffffffffffff168173ffffffffffffffffffffffffffffffffffffffff1614156116e3576040517f08c379a00000000000000000000000000000000000000000000000000000000081526004016116da906148fe565b60405180910390fd5b80915050919050565b816116f681612359565b611735576040517f08c379a000000000000000000000000000000000000000000000000000000000815260040161172c9061487e565b60405180910390fd5b8261173e6123c5565b60006117498361163a565b90508173ffffffffffffffffffffffffffffffffffffffff168173ffffffffffffffffffffffffffffffffffffffff16146117b9576040517f08c379a00000000000000000000000000000000000000000000000000000000081526004016117b09061493e565b60405180910390fd5b3073ffffffffffffffffffffffffffffffffffffffff16636908781987876040518363ffffffff1660e01b81526004016117f4929190614b66565b600060405180830381600087803b15801561180e57600080fd5b505af1158015611822573d6000803e3d6000fd5b50505050505050505050565b60008073ffffffffffffffffffffffffffffffffffffffff168273ffffffffffffffffffffffffffffffffffffffff16141561189f576040517f08c379a0000000000000000000000000000000000000000000000000000000008152600401611896906148de565b60405180910390fd5b600860008373ffffffffffffffffffffffffffffffffffffffff1673ffffffffffffffffffffffffffffffffffffffff168152602001908152602001600020549050919050565b600060026000838152602001908152602001600020549050919050565b600080600084815260200190815260200160002060000160008373ffffffffffffffffffffffffffffffffffffffff1673ffffffffffffffffffffffffffffffffffffffff16815260200190815260200160002060009054906101000a900460ff16905092915050565b60606006805461197c90614e89565b80601f01602080910402602001604051908101604052809291908181526020018280546119a890614e89565b80156119f55780601f106119ca576101008083540402835291602001916119f5565b820191906000526020600020905b8154815290600101906020018083116119d857829003601f168201915b5050505050905090565b60026020528060005260406000206000915090505481565b6000801b81565b611a266123c5565b73ffffffffffffffffffffffffffffffffffffffff168273ffffffffffffffffffffffffffffffffffffffff161415611a94576040517f08c379a0000000000000000000000000000000000000000000000000000000008152600401611a8b9061485e565b60405180910390fd5b80600a6000611aa16123c5565b73ffffffffffffffffffffffffffffffffffffffff1673ffffffffffffffffffffffffffffffffffffffff16815260200190815260200160002060008473ffffffffffffffffffffffffffffffffffffffff1673ffffffffffffffffffffffffffffffffffffffff16815260200190815260200160002060006101000a81548160ff0219169083151502179055508173ffffffffffffffffffffffffffffffffffffffff16611b4e6123c5565b73ffffffffffffffffffffffffffffffffffffffff167f17307eab39ab6107e8899845ad3d59bd9653f200f220920489ca2b5937696c3183604051611b9391906146e6565b60405180910390a35050565b611bb0611baa6123c5565b83612532565b611bef576040517f08c379a0000000000000000000000000000000000000000000000000000000008152600401611be690614a3e565b60405180910390fd5b611bfb84848484612b6f565b50505050565b6060611c0c82612359565b611c4b576040517f08c379a0000000000000000000000000000000000000000000000000000000008152600401611c429061497e565b60405180910390fd5b6000600b60008481526020019081526020016000208054611c6b90614e89565b80601f0160208091040260200160405190810160405280929190818152602001828054611c9790614e89565b8015611ce45780601f10611cb957610100808354040283529160200191611ce4565b820191906000526020600020905b815481529060010190602001808311611cc757829003601f168201915b505050505090506000611cf5612bcb565b9050600081511415611d0b578192505050611d4e565b600082511115611d40578082604051602001611d289291906145cf565b60405160208183030381529060405292505050611d4e565b611d4984612be2565b925050505b919050565b611d5b613897565b600460008381526020019081526020016000206040518060400160405290816000820160009054906101000a900473ffffffffffffffffffffffffffffffffffffffff1673ffffffffffffffffffffffffffffffffffffffff1673ffffffffffffffffffffffffffffffffffffffff1681526020016001820154815250509050919050565b7f9f2df0fed2c77648de5860a4cc508cd0818c85b8b8a1ab4ceeef8d981c8956a681565b611e0d8261100b565b611e1e81611e196123c5565b61286c565b611e288383612a8e565b505050565b7f65d7a28e3265b37a6474929f336521b332c1681b933f6cb9f3376673440d862a81565b606060405180606001604052806025815260200161586360259139905090565b6000600a60008473ffffffffffffffffffffffffffffffffffffffff1673ffffffffffffffffffffffffffffffffffffffff16815260200190815260200160002060008373ffffffffffffffffffffffffffffffffffffffff1673ffffffffffffffffffffffffffffffffffffffff16815260200190815260200160002060009054906101000a900460ff16905092915050565b82611f0f81612359565b611f4e576040517f08c379a0000000000000000000000000000000000000000000000000000000008152600401611f459061487e565b60405180910390fd5b8360003073ffffffffffffffffffffffffffffffffffffffff16633009c19b836040518263ffffffff1660e01b8152600401611f8a9190614b14565b604080518083038186803b158015611fa157600080fd5b505afa158015611fb5573d6000803e3d6000fd5b505050506040513d601f19601f82011682018060405250810190611fd99190613ee0565b9050600081602001511480611ff15750438160200151105b612030576040517f08c379a0000000000000000000000000000000000000000000000000000000008152600401612027906147de565b60405180910390fd5b83428111612073576040517f08c379a000000000000000000000000000000000000000000000000000000000815260040161206a9061479e565b60405180910390fd5b600260015414156120b9576040517f08c379a00000000000000000000000000000000000000000000000000000000081526004016120b090614a7e565b60405180910390fd5b600260018190555060003073ffffffffffffffffffffffffffffffffffffffff16637e70f7cc896040518263ffffffff1660e01b81526004016120fc9190614b14565b60206040518083038186803b15801561211457600080fd5b505afa158015612128573d6000803e3d6000fd5b505050506040513d601f19601f8201168201806040525081019061214c9190613f32565b9050600081438861215d9190614d59565b6121679190614cff565b9050803410156121ac576040517f08c379a00000000000000000000000000000000000000000000000000000000081526004016121a390614a5e565b60405180910390fd5b60006121b78a61163a565b90506121c3818361156d565b600082346121d19190614d59565b905060006121dd6123c5565b905060008211156121f3576121f2818361156d565b5b3073ffffffffffffffffffffffffffffffffffffffff1663fc1560b78d8d8d6040518463ffffffff1660e01b815260040161223093929190614b2f565b600060405180830381600087803b15801561224a57600080fd5b505af115801561225e573d6000803e3d6000fd5b5050505050505050506001808190555050505050505050565b60007f80ac58cd000000000000000000000000000000000000000000000000000000007bffffffffffffffffffffffffffffffffffffffffffffffffffffffff1916827bffffffffffffffffffffffffffffffffffffffffffffffffffffffff1916148061234257507f5b5e139f000000000000000000000000000000000000000000000000000000007bffffffffffffffffffffffffffffffffffffffffffffffffffffffff1916827bffffffffffffffffffffffffffffffffffffffffffffffffffffffff1916145b80612352575061235182612c89565b5b9050919050565b60008073ffffffffffffffffffffffffffffffffffffffff166007600084815260200190815260200160002060009054906101000a900473ffffffffffffffffffffffffffffffffffffffff1673ffffffffffffffffffffffffffffffffffffffff1614159050919050565b600033905090565b816009600083815260200190815260200160002060006101000a81548173ffffffffffffffffffffffffffffffffffffffff021916908373ffffffffffffffffffffffffffffffffffffffff160217905550808273ffffffffffffffffffffffffffffffffffffffff166124408361163a565b73ffffffffffffffffffffffffffffffffffffffff167f8c5be1e5ebec7d5bd14f71427d1e84f3dd0314c0f7b2291e5b200ac8c7c3b92560405160405180910390a45050565b6124a0828260405180602001604052806000815250612d03565b5050565b6124ad82612359565b6124ec576040517f08c379a00000000000000000000000000000000000000000000000000000000081526004016124e39061491e565b60405180910390fd5b80600b600084815260200190815260200160002090805190602001906125139291906138c7565b505050565b600061252a836000018360001b612d5e565b905092915050565b600061253d82612359565b61257c576040517f08c379a00000000000000000000000000000000000000000000000000000000081526004016125739061487e565b60405180910390fd5b60006125878361163a565b90508073ffffffffffffffffffffffffffffffffffffffff168473ffffffffffffffffffffffffffffffffffffffff1614806125f657508373ffffffffffffffffffffffffffffffffffffffff166125de8461092f565b73ffffffffffffffffffffffffffffffffffffffff16145b8061260757506126068185611e71565b5b91505092915050565b8273ffffffffffffffffffffffffffffffffffffffff166126308261163a565b73ffffffffffffffffffffffffffffffffffffffff1614612686576040517f08c379a000000000000000000000000000000000000000000000000000000000815260040161267d906149be565b60405180910390fd5b600073ffffffffffffffffffffffffffffffffffffffff168273ffffffffffffffffffffffffffffffffffffffff1614156126f6576040517f08c379a00000000000000000000000000000000000000000000000000000000081526004016126ed9061483e565b60405180910390fd5b612701838383612dce565b61270c6000826123cd565b6001600860008573ffffffffffffffffffffffffffffffffffffffff1673ffffffffffffffffffffffffffffffffffffffff168152602001908152602001600020600082825461275c9190614d59565b925050819055506001600860008473ffffffffffffffffffffffffffffffffffffffff1673ffffffffffffffffffffffffffffffffffffffff16815260200190815260200160002060008282546127b39190614c78565b92505081905550816007600083815260200190815260200160002060006101000a81548173ffffffffffffffffffffffffffffffffffffffff021916908373ffffffffffffffffffffffffffffffffffffffff160217905550808273ffffffffffffffffffffffffffffffffffffffff168473ffffffffffffffffffffffffffffffffffffffff167fddf252ad1be2c89b69c2b068fc378daa952ba7f163c4a11628f55a4df523b3ef60405160405180910390a4505050565b6128768282611903565b6129055761289b8173ffffffffffffffffffffffffffffffffffffffff166014612dd3565b6128a98360001c6020612dd3565b6040516020016128ba929190614608565b6040516020818303038152906040526040517f08c379a00000000000000000000000000000000000000000000000000000000081526004016128fc919061471c565b60405180910390fd5b5050565b6129138282611903565b6129e557600160008084815260200190815260200160002060000160008373ffffffffffffffffffffffffffffffffffffffff1673ffffffffffffffffffffffffffffffffffffffff16815260200190815260200160002060006101000a81548160ff02191690831515021790555061298a6123c5565b73ffffffffffffffffffffffffffffffffffffffff168173ffffffffffffffffffffffffffffffffffffffff16837f2f8788117e7eff1d82e926ec794901d17c78024a50270940304540a733656f0d60405160405180910390a45b5050565b60006129f7826000016130cd565b9050919050565b6000600d6000815480929190612a1390614eec565b9190505550814233600d54604051602001612a3093929190614642565b6040516020818303038152906040528051906020012060001c612a539190614f63565b9050919050565b6000612a6983600001836130de565b60001c905092915050565b6000612a86836000018360001b61312f565b905092915050565b612a988282611903565b15612b6b57600080600084815260200190815260200160002060000160008373ffffffffffffffffffffffffffffffffffffffff1673ffffffffffffffffffffffffffffffffffffffff16815260200190815260200160002060006101000a81548160ff021916908315150217905550612b106123c5565b73ffffffffffffffffffffffffffffffffffffffff168173ffffffffffffffffffffffffffffffffffffffff16837ff6391f5c32d9c69d2a47ea670b442974b53935d1edc7fd64eb21e047a839171b60405160405180910390a45b5050565b612b7a848484612610565b612b86848484846132b5565b612bc5576040517f08c379a0000000000000000000000000000000000000000000000000000000008152600401612bbc9061477e565b60405180910390fd5b50505050565b606060405180602001604052806000815250905090565b6060612bed82612359565b612c2c576040517f08c379a0000000000000000000000000000000000000000000000000000000008152600401612c23906149de565b60405180910390fd5b6000612c36612bcb565b90506000815111612c565760405180602001604052806000815250612c81565b80612c608461344c565b604051602001612c719291906145cf565b6040516020818303038152906040525b915050919050565b60007f7965db0b000000000000000000000000000000000000000000000000000000007bffffffffffffffffffffffffffffffffffffffffffffffffffffffff1916827bffffffffffffffffffffffffffffffffffffffffffffffffffffffff19161480612cfc5750612cfb826135f9565b5b9050919050565b612d0d8383613663565b612d1a60008484846132b5565b612d59576040517f08c379a0000000000000000000000000000000000000000000000000000000008152600401612d509061477e565b60405180910390fd5b505050565b6000612d6a8383613831565b612dc3578260000182908060018154018082558091505060019003906000526020600020016000909190919091505582600001805490508360010160008481526020019081526020016000208190555060019050612dc8565b600090505b92915050565b505050565b606060006002836002612de69190614cff565b612df09190614c78565b67ffffffffffffffff811115612e2f577f4e487b7100000000000000000000000000000000000000000000000000000000600052604160045260246000fd5b6040519080825280601f01601f191660200182016040528015612e615781602001600182028036833780820191505090505b5090507f300000000000000000000000000000000000000000000000000000000000000081600081518110612ebf577f4e487b7100000000000000000000000000000000000000000000000000000000600052603260045260246000fd5b60200101907effffffffffffffffffffffffffffffffffffffffffffffffffffffffffffff1916908160001a9053507f780000000000000000000000000000000000000000000000000000000000000081600181518110612f49577f4e487b7100000000000000000000000000000000000000000000000000000000600052603260045260246000fd5b60200101907effffffffffffffffffffffffffffffffffffffffffffffffffffffffffffff1916908160001a90535060006001846002612f899190614cff565b612f939190614c78565b90505b600181111561307f577f3031323334353637383961626364656600000000000000000000000000000000600f861660108110612ffb577f4e487b7100000000000000000000000000000000000000000000000000000000600052603260045260246000fd5b1a60f81b828281518110613038577f4e487b7100000000000000000000000000000000000000000000000000000000600052603260045260246000fd5b60200101907effffffffffffffffffffffffffffffffffffffffffffffffffffffffffffff1916908160001a905350600485901c94508061307890614e5f565b9050612f96565b50600084146130c3576040517f08c379a00000000000000000000000000000000000000000000000000000000081526004016130ba9061473e565b60405180910390fd5b8091505092915050565b600081600001805490509050919050565b600082600001828154811061311c577f4e487b7100000000000000000000000000000000000000000000000000000000600052603260045260246000fd5b9060005260206000200154905092915050565b600080836001016000848152602001908152602001600020549050600081146132a95760006001826131619190614d59565b90506000600186600001805490506131799190614d59565b90508181146132345760008660000182815481106131c0577f4e487b7100000000000000000000000000000000000000000000000000000000600052603260045260246000fd5b906000526020600020015490508087600001848154811061320a577f4e487b7100000000000000000000000000000000000000000000000000000000600052603260045260246000fd5b90600052602060002001819055508387600101600083815260200190815260200160002081905550505b8560000180548061326e577f4e487b7100000000000000000000000000000000000000000000000000000000600052603160045260246000fd5b6001900381819060005260206000200160009055905585600101600086815260200190815260200160002060009055600193505050506132af565b60009150505b92915050565b60006132d68473ffffffffffffffffffffffffffffffffffffffff16613854565b1561343f578373ffffffffffffffffffffffffffffffffffffffff1663150b7a026132ff6123c5565b8786866040518563ffffffff1660e01b8152600401613321949392919061469a565b602060405180830381600087803b15801561333b57600080fd5b505af192505050801561336c57506040513d601f19601f820116820180604052508101906133699190613e2b565b60015b6133ef573d806000811461339c576040519150601f19603f3d011682016040523d82523d6000602084013e6133a1565b606091505b506000815114156133e7576040517f08c379a00000000000000000000000000000000000000000000000000000000081526004016133de9061477e565b60405180910390fd5b805181602001fd5b63150b7a0260e01b7bffffffffffffffffffffffffffffffffffffffffffffffffffffffff1916817bffffffffffffffffffffffffffffffffffffffffffffffffffffffff191614915050613444565b600190505b949350505050565b60606000821415613494576040518060400160405280600181526020017f300000000000000000000000000000000000000000000000000000000000000081525090506135f4565b600082905060005b600082146134c65780806134af90614eec565b915050600a826134bf9190614cce565b915061349c565b60008167ffffffffffffffff811115613508577f4e487b7100000000000000000000000000000000000000000000000000000000600052604160045260246000fd5b6040519080825280601f01601f19166020018201604052801561353a5781602001600182028036833780820191505090505b5090505b600085146135ed576001826135539190614d59565b9150600a856135629190614f63565b603061356e9190614c78565b60f81b8183815181106135aa577f4e487b7100000000000000000000000000000000000000000000000000000000600052603260045260246000fd5b60200101907effffffffffffffffffffffffffffffffffffffffffffffffffffffffffffff1916908160001a905350600a856135e69190614cce565b945061353e565b8093505050505b919050565b60007f01ffc9a7000000000000000000000000000000000000000000000000000000007bffffffffffffffffffffffffffffffffffffffffffffffffffffffff1916827bffffffffffffffffffffffffffffffffffffffffffffffffffffffff1916149050919050565b600073ffffffffffffffffffffffffffffffffffffffff168273ffffffffffffffffffffffffffffffffffffffff1614156136d3576040517f08c379a00000000000000000000000000000000000000000000000000000000081526004016136ca9061495e565b60405180910390fd5b6136dc81612359565b1561371c576040517f08c379a0000000000000000000000000000000000000000000000000000000008152600401613713906147be565b60405180910390fd5b61372860008383612dce565b6001600860008473ffffffffffffffffffffffffffffffffffffffff1673ffffffffffffffffffffffffffffffffffffffff16815260200190815260200160002060008282546137789190614c78565b92505081905550816007600083815260200190815260200160002060006101000a81548173ffffffffffffffffffffffffffffffffffffffff021916908373ffffffffffffffffffffffffffffffffffffffff160217905550808273ffffffffffffffffffffffffffffffffffffffff16600073ffffffffffffffffffffffffffffffffffffffff167fddf252ad1be2c89b69c2b068fc378daa952ba7f163c4a11628f55a4df523b3ef60405160405180910390a45050565b600080836001016000848152602001908152602001600020541415905092915050565b600080823b905060008111915050919050565b6040518060400160405280600073ffffffffffffffffffffffffffffffffffffffff168152602001600081525090565b6040518060400160405280600073ffffffffffffffffffffffffffffffffffffffff168152602001600081525090565b8280546138d390614e89565b90600052602060002090601f0160209004810192826138f5576000855561393c565b82601f1061390e57805160ff191683800117855561393c565b8280016001018555821561393c579182015b8281111561393b578251825591602001919060010190613920565b5b509050613949919061394d565b5090565b5b8082111561396657600081600090555060010161394e565b5090565b600061397d61397884614bf9565b614bd4565b90508281526020810184848401111561399557600080fd5b6139a0848285614e1d565b509392505050565b6000813590506139b7816157c8565b92915050565b6000815190506139cc816157c8565b92915050565b6000813590506139e1816157df565b92915050565b6000813590506139f6816157f6565b92915050565b600081359050613a0b8161580d565b92915050565b600081359050613a2081615824565b92915050565b600081519050613a3581615824565b92915050565b600082601f830112613a4c57600080fd5b8135613a5c84826020860161396a565b91505092915050565b600081359050613a748161583b565b92915050565b60008083601f840112613a8c57600080fd5b8235905067ffffffffffffffff811115613aa557600080fd5b602083019150836001820283011115613abd57600080fd5b9250929050565b600060408284031215613ad657600080fd5b613ae06040614bd4565b90506000613af0848285016139bd565b6000830152506020613b0484828501613b25565b60208301525092915050565b600081359050613b1f8161584b565b92915050565b600081519050613b348161584b565b92915050565b600060208284031215613b4c57600080fd5b6000613b5a848285016139a8565b91505092915050565b60008060408385031215613b7657600080fd5b6000613b84858286016139d2565b9250506020613b9585828601613b10565b9150509250929050565b60008060408385031215613bb257600080fd5b6000613bc0858286016139a8565b9250506020613bd1858286016139a8565b9150509250929050565b600080600060608486031215613bf057600080fd5b6000613bfe868287016139a8565b9350506020613c0f868287016139a8565b9250506040613c2086828701613b10565b9150509250925092565b60008060008060808587031215613c4057600080fd5b6000613c4e878288016139a8565b9450506020613c5f878288016139a8565b9350506040613c7087828801613b10565b925050606085013567ffffffffffffffff811115613c8d57600080fd5b613c9987828801613a3b565b91505092959194509250565b60008060408385031215613cb857600080fd5b6000613cc6858286016139a8565b9250506020613cd7858286016139e7565b9150509250929050565b600080600080600060808688031215613cf957600080fd5b6000613d07888289016139a8565b9550506020613d1888828901613a65565b9450506040613d2988828901613b10565b935050606086013567ffffffffffffffff811115613d4657600080fd5b613d5288828901613a7a565b92509250509295509295909350565b60008060408385031215613d7457600080fd5b6000613d82858286016139a8565b9250506020613d9385828601613b10565b9150509250929050565b600060208284031215613daf57600080fd5b6000613dbd848285016139fc565b91505092915050565b60008060408385031215613dd957600080fd5b6000613de7858286016139fc565b9250506020613df8858286016139a8565b9150509250929050565b600060208284031215613e1457600080fd5b6000613e2284828501613a11565b91505092915050565b600060208284031215613e3d57600080fd5b6000613e4b84828501613a26565b91505092915050565b600060208284031215613e6657600080fd5b6000613e7484828501613a65565b91505092915050565b60008060008060808587031215613e9357600080fd5b6000613ea187828801613a65565b9450506020613eb287828801613b10565b9350506040613ec387828801613b10565b9250506060613ed487828801613b10565b91505092959194509250565b600060408284031215613ef257600080fd5b6000613f0084828501613ac4565b91505092915050565b600060208284031215613f1b57600080fd5b6000613f2984828501613b10565b91505092915050565b600060208284031215613f4457600080fd5b6000613f5284828501613b25565b91505092915050565b600080600060608486031215613f7057600080fd5b6000613f7e86828701613b10565b9350506020613f8f868287016139a8565b9250506040613fa086828701613b10565b9150509250925092565b60008060408385031215613fbd57600080fd5b6000613fcb85828601613b10565b9250506020613fdc85828601613b10565b9150509250929050565b613fef81614d8d565b82525050565b613ffe81614d8d565b82525050565b61401561401082614d8d565b614f35565b82525050565b61402481614db1565b82525050565b61403381614dbd565b82525050565b600061404482614c2a565b61404e8185614c40565b935061405e818560208601614e2c565b61406781615050565b840191505092915050565b600061407d82614c35565b6140878185614c5c565b9350614097818560208601614e2c565b6140a081615050565b840191505092915050565b60006140b682614c35565b6140c08185614c6d565b93506140d0818560208601614e2c565b80840191505092915050565b60006140e9602083614c5c565b91506140f48261506e565b602082019050919050565b600061410c601283614c5c565b915061411782615097565b602082019050919050565b600061412f603283614c5c565b915061413a826150c0565b604082019050919050565b6000614152601e83614c5c565b915061415d8261510f565b602082019050919050565b6000614175601c83614c5c565b915061418082615138565b602082019050919050565b6000614198602583614c5c565b91506141a382615161565b604082019050919050565b60006141bb602083614c5c565b91506141c6826151b0565b602082019050919050565b60006141de600f83614c5c565b91506141e9826151d9565b602082019050919050565b6000614201602483614c5c565b915061420c82615202565b604082019050919050565b6000614224601983614c5c565b915061422f82615251565b602082019050919050565b6000614247602c83614c5c565b91506142528261527a565b604082019050919050565b600061426a601183614c5c565b9150614275826152c9565b602082019050919050565b600061428d603883614c5c565b9150614298826152f2565b604082019050919050565b60006142b0602a83614c5c565b91506142bb82615341565b604082019050919050565b60006142d3602983614c5c565b91506142de82615390565b604082019050919050565b60006142f6602e83614c5c565b9150614301826153df565b604082019050919050565b6000614319601683614c5c565b91506143248261542e565b602082019050919050565b600061433c602083614c5c565b915061434782615457565b602082019050919050565b600061435f603183614c5c565b915061436a82615480565b604082019050919050565b6000614382602c83614c5c565b915061438d826154cf565b604082019050919050565b60006143a5602983614c5c565b91506143b08261551e565b604082019050919050565b60006143c8602f83614c5c565b91506143d38261556d565b604082019050919050565b60006143eb602183614c5c565b91506143f6826155bc565b604082019050919050565b600061440e600083614c51565b91506144198261560b565b600082019050919050565b6000614431601b83614c5c565b915061443c8261560e565b602082019050919050565b6000614454603183614c5c565b915061445f82615637565b604082019050919050565b6000614477601783614c6d565b915061448282615686565b601782019050919050565b600061449a602283614c5c565b91506144a5826156af565b604082019050919050565b60006144bd601f83614c5c565b91506144c8826156fe565b602082019050919050565b60006144e0601183614c6d565b91506144eb82615727565b601182019050919050565b6000614503602f83614c5c565b915061450e82615750565b604082019050919050565b6000614526601683614c5c565b91506145318261579f565b602082019050919050565b6040820160008201516145526000850182613fe6565b506020820151614565602085018261459a565b50505050565b6040820160008201516145816000850182613fe6565b506020820151614594602085018261459a565b50505050565b6145a381614e13565b82525050565b6145b281614e13565b82525050565b6145c96145c482614e13565b614f59565b82525050565b60006145db82856140ab565b91506145e782846140ab565b91508190509392505050565b60006145fe82614401565b9150819050919050565b60006146138261446a565b915061461f82856140ab565b915061462a826144d3565b915061463682846140ab565b91508190509392505050565b600061464e82866145b8565b60208201915061465e8285614004565b60148201915061466e82846145b8565b602082019150819050949350505050565b60006020820190506146946000830184613ff5565b92915050565b60006080820190506146af6000830187613ff5565b6146bc6020830186613ff5565b6146c960408301856145a9565b81810360608301526146db8184614039565b905095945050505050565b60006020820190506146fb600083018461401b565b92915050565b6000602082019050614716600083018461402a565b92915050565b600060208201905081810360008301526147368184614072565b905092915050565b60006020820190508181036000830152614757816140dc565b9050919050565b60006020820190508181036000830152614777816140ff565b9050919050565b6000602082019050818103600083015261479781614122565b9050919050565b600060208201905081810360008301526147b781614145565b9050919050565b600060208201905081810360008301526147d781614168565b9050919050565b600060208201905081810360008301526147f78161418b565b9050919050565b60006020820190508181036000830152614817816141ae565b9050919050565b60006020820190508181036000830152614837816141d1565b9050919050565b60006020820190508181036000830152614857816141f4565b9050919050565b6000602082019050818103600083015261487781614217565b9050919050565b600060208201905081810360008301526148978161423a565b9050919050565b600060208201905081810360008301526148b78161425d565b9050919050565b600060208201905081810360008301526148d781614280565b9050919050565b600060208201905081810360008301526148f7816142a3565b9050919050565b60006020820190508181036000830152614917816142c6565b9050919050565b60006020820190508181036000830152614937816142e9565b9050919050565b600060208201905081810360008301526149578161430c565b9050919050565b600060208201905081810360008301526149778161432f565b9050919050565b6000602082019050818103600083015261499781614352565b9050919050565b600060208201905081810360008301526149b781614375565b9050919050565b600060208201905081810360008301526149d781614398565b9050919050565b600060208201905081810360008301526149f7816143bb565b9050919050565b60006020820190508181036000830152614a17816143de565b9050919050565b60006020820190508181036000830152614a3781614424565b9050919050565b60006020820190508181036000830152614a5781614447565b9050919050565b60006020820190508181036000830152614a778161448d565b9050919050565b60006020820190508181036000830152614a97816144b0565b9050919050565b60006020820190508181036000830152614ab7816144f6565b9050919050565b60006020820190508181036000830152614ad781614519565b9050919050565b6000604082019050614af3600083018461453c565b92915050565b6000604082019050614b0e600083018461456b565b92915050565b6000602082019050614b2960008301846145a9565b92915050565b6000606082019050614b4460008301866145a9565b614b516020830185613ff5565b614b5e60408301846145a9565b949350505050565b6000604082019050614b7b60008301856145a9565b614b8860208301846145a9565b9392505050565b6000608082019050614ba460008301876145a9565b614bb160208301866145a9565b614bbe60408301856145a9565b614bcb60608301846145a9565b95945050505050565b6000614bde614bef565b9050614bea8282614ebb565b919050565b6000604051905090565b600067ffffffffffffffff821115614c1457614c13615021565b5b614c1d82615050565b9050602081019050919050565b600081519050919050565b600081519050919050565b600082825260208201905092915050565b600081905092915050565b600082825260208201905092915050565b600081905092915050565b6000614c8382614e13565b9150614c8e83614e13565b9250827fffffffffffffffffffffffffffffffffffffffffffffffffffffffffffffffff03821115614cc357614cc2614f94565b5b828201905092915050565b6000614cd982614e13565b9150614ce483614e13565b925082614cf457614cf3614fc3565b5b828204905092915050565b6000614d0a82614e13565b9150614d1583614e13565b9250817fffffffffffffffffffffffffffffffffffffffffffffffffffffffffffffffff0483118215151615614d4e57614d4d614f94565b5b828202905092915050565b6000614d6482614e13565b9150614d6f83614e13565b925082821015614d8257614d81614f94565b5b828203905092915050565b6000614d9882614df3565b9050919050565b6000614daa82614df3565b9050919050565b60008115159050919050565b6000819050919050565b60007fffffffff0000000000000000000000000000000000000000000000000000000082169050919050565b600073ffffffffffffffffffffffffffffffffffffffff82169050919050565b6000819050919050565b82818337600083830152505050565b60005b83811015614e4a578082015181840152602081019050614e2f565b83811115614e59576000848401525b50505050565b6000614e6a82614e13565b91506000821415614e7e57614e7d614f94565b5b600182039050919050565b60006002820490506001821680614ea157607f821691505b60208210811415614eb557614eb4614ff2565b5b50919050565b614ec482615050565b810181811067ffffffffffffffff82111715614ee357614ee2615021565b5b80604052505050565b6000614ef782614e13565b91507fffffffffffffffffffffffffffffffffffffffffffffffffffffffffffffffff821415614f2a57614f29614f94565b5b600182019050919050565b6000614f4082614f47565b9050919050565b6000614f5282615061565b9050919050565b6000819050919050565b6000614f6e82614e13565b9150614f7983614e13565b925082614f8957614f88614fc3565b5b828206905092915050565b7f4e487b7100000000000000000000000000000000000000000000000000000000600052601160045260246000fd5b7f4e487b7100000000000000000000000000000000000000000000000000000000600052601260045260246000fd5b7f4e487b7100000000000000000000000000000000000000000000000000000000600052602260045260246000fd5b7f4e487b7100000000000000000000000000000000000000000000000000000000600052604160045260246000fd5b6000601f19601f8301169050919050565b60008160601b9050919050565b7f537472696e67733a20686578206c656e67746820696e73756666696369656e74600082015250565b7f4672616d653a204f6e6c79206d696e7465720000000000000000000000000000600082015250565b7f4552433732313a207472616e7366657220746f206e6f6e20455243373231526560008201527f63656976657220696d706c656d656e7465720000000000000000000000000000602082015250565b7f4672616d653a20426c6f636b206d75737420626520696e206675747572650000600082015250565b7f4552433732313a20746f6b656e20616c7265616479206d696e74656400000000600082015250565b7f4672616d653a20546f6b656e2063757272656e746c7920616c7265616479207260008201527f656e746564000000000000000000000000000000000000000000000000000000602082015250565b7f4672616d653a20546f6b656e206e6f74206f776e6564206f722072656e746564600082015250565b7f4672616d653a20536f6c64206f75740000000000000000000000000000000000600082015250565b7f4552433732313a207472616e7366657220746f20746865207a65726f2061646460008201527f7265737300000000000000000000000000000000000000000000000000000000602082015250565b7f4552433732313a20617070726f766520746f2063616c6c657200000000000000600082015250565b7f4552433732313a206f70657261746f7220717565727920666f72206e6f6e657860008201527f697374656e7420746f6b656e0000000000000000000000000000000000000000602082015250565b7f4672616d653a204f6e6c79206f776e6572000000000000000000000000000000600082015250565b7f4552433732313a20617070726f76652063616c6c6572206973206e6f74206f7760008201527f6e6572206e6f7220617070726f76656420666f7220616c6c0000000000000000602082015250565b7f4552433732313a2062616c616e636520717565727920666f7220746865207a6560008201527f726f206164647265737300000000000000000000000000000000000000000000602082015250565b7f4552433732313a206f776e657220717565727920666f72206e6f6e657869737460008201527f656e7420746f6b656e0000000000000000000000000000000000000000000000602082015250565b7f45524337323155524953746f726167653a2055524920736574206f66206e6f6e60008201527f6578697374656e7420746f6b656e000000000000000000000000000000000000602082015250565b7f4672616d653a20546f6b656e206e6f74206f776e656400000000000000000000600082015250565b7f4552433732313a206d696e7420746f20746865207a65726f2061646472657373600082015250565b7f45524337323155524953746f726167653a2055524920717565727920666f722060008201527f6e6f6e6578697374656e7420746f6b656e000000000000000000000000000000602082015250565b7f4552433732313a20617070726f76656420717565727920666f72206e6f6e657860008201527f697374656e7420746f6b656e0000000000000000000000000000000000000000602082015250565b7f4552433732313a207472616e73666572206f6620746f6b656e2074686174206960008201527f73206e6f74206f776e0000000000000000000000000000000000000000000000602082015250565b7f4552433732314d657461646174613a2055524920717565727920666f72206e6f60008201527f6e6578697374656e7420746f6b656e0000000000000000000000000000000000602082015250565b7f4552433732313a20617070726f76616c20746f2063757272656e74206f776e6560008201527f7200000000000000000000000000000000000000000000000000000000000000602082015250565b50565b7f4672616d653a204661696c656420746f2073656e642045746865720000000000600082015250565b7f4552433732313a207472616e736665722063616c6c6572206973206e6f74206f60008201527f776e6572206e6f7220617070726f766564000000000000000000000000000000602082015250565b7f416363657373436f6e74726f6c3a206163636f756e7420000000000000000000600082015250565b7f4672616d653a2052656e74616c207061796d656e74206e6f7420737570706c6960008201527f6564000000000000000000000000000000000000000000000000000000000000602082015250565b7f5265656e7472616e637947756172643a207265656e7472616e742063616c6c00600082015250565b7f206973206d697373696e6720726f6c6520000000000000000000000000000000600082015250565b7f416363657373436f6e74726f6c3a2063616e206f6e6c792072656e6f756e636560008201527f20726f6c657320666f722073656c660000000000000000000000000000000000602082015250565b7f4672616d653a204e6f74207061696420656e6f75676800000000000000000000600082015250565b6157d181614d8d565b81146157dc57600080fd5b50565b6157e881614d9f565b81146157f357600080fd5b50565b6157ff81614db1565b811461580a57600080fd5b50565b61581681614dbd565b811461582157600080fd5b50565b61582d81614dc7565b811461583857600080fd5b50565b600b811061584857600080fd5b50565b61585481614e13565b811461585f57600080fd5b5056fe68747470733a2f2f6d757365652d64657a656e74616c2e636f6d2f73746f726566726f6e74a264697066735822122082bfb1a6f86aa22cc7e76a423b7f6cffd4f255ad6da4f30d6c85f899b181f94964736f6c63430008040033",
  "devdoc": {
    "kind": "dev",
    "methods": {
      "approve(address,uint256)": {
        "details": "See {IERC721-approve}."
      },
      "balanceOf(address)": {
        "details": "See {IERC721-balanceOf}."
      },
      "constructor": {
        "details": "Grants `DEFAULT_ADMIN_ROLE`, `MINTER_ROLE` and `PAUSER_ROLE` to the account that deploys the contract."
      },
      "getApproved(uint256)": {
        "details": "See {IERC721-getApproved}."
      },
      "getRoleAdmin(bytes32)": {
        "details": "Returns the admin role that controls `role`. See {grantRole} and {revokeRole}. To change a role's admin, use {_setRoleAdmin}."
      },
      "getVersionNumber()": {
        "returns": {
          "_0": "The storage, major, minor, and patch version of the contract."
        }
      },
      "grantRole(bytes32,address)": {
        "details": "Grants `role` to `account`. If `account` had not been already granted `role`, emits a {RoleGranted} event. Requirements: - the caller must have ``role``'s admin role."
      },
      "hasRole(bytes32,address)": {
        "details": "Returns `true` if `account` has been granted `role`."
      },
      "isApprovedForAll(address,address)": {
        "details": "See {IERC721-isApprovedForAll}."
      },
      "name()": {
        "details": "See {IERC721Metadata-name}."
      },
      "ownerOf(uint256)": {
        "details": "See {IERC721-ownerOf}."
      },
      "renounceRole(bytes32,address)": {
        "details": "Revokes `role` from the calling account. Roles are often managed via {grantRole} and {revokeRole}: this function's purpose is to provide a mechanism for accounts to lose their privileges if they are compromised (such as when a trusted device is misplaced). If the calling account had been granted `role`, emits a {RoleRevoked} event. Requirements: - the caller must be `account`."
      },
      "revokeRole(bytes32,address)": {
        "details": "Revokes `role` from `account`. If `account` had been granted `role`, emits a {RoleRevoked} event. Requirements: - the caller must have ``role``'s admin role."
      },
      "safeTransferFrom(address,address,uint256)": {
        "details": "See {IERC721-safeTransferFrom}."
      },
      "safeTransferFrom(address,address,uint256,bytes)": {
        "details": "See {IERC721-safeTransferFrom}."
      },
      "setApprovalForAll(address,bool)": {
        "details": "See {IERC721-setApprovalForAll}."
      },
      "setExhibit(uint256,address,uint256)": {
        "details": "Exhibitionable implementation overrides"
      },
      "setRenter(uint256,address,uint256)": {
        "details": "Rentable implementation overrides"
      },
      "supportsInterface(bytes4)": {
        "details": "See {IERC165-supportsInterface}."
      },
      "symbol()": {
        "details": "See {IERC721Metadata-symbol}."
      },
      "tokenURI(uint256)": {
        "details": "See {IERC721Metadata-tokenURI}."
      },
      "transferFrom(address,address,uint256)": {
        "details": "See {IERC721-transferFrom}."
      }
    },
    "version": 1
  },
  "userdoc": {
    "events": {
      "ExhibitSet(uint256,address,uint256)": {
        "notice": "Triggered when a a new exhibit has been set"
      },
      "RenterSet(uint256,address,uint256)": {
        "notice": "Triggered when a renter has been set"
      }
    },
    "kind": "user",
    "methods": {
      "getVersionNumber()": {
        "notice": "Returns the storage, major, minor, and patch version of the contract."
      }
    },
    "version": 1
  },
  "storageLayout": {
    "storage": [
      {
        "astId": 24,
        "contract": "contracts/Frame.sol:Frame",
        "label": "_roles",
        "offset": 0,
        "slot": "0",
        "type": "t_mapping(t_bytes32,t_struct(RoleData)19_storage)"
      },
      {
        "astId": 390,
        "contract": "contracts/Frame.sol:Frame",
        "label": "_status",
        "offset": 0,
        "slot": "1",
        "type": "t_uint256"
      },
      {
        "astId": 3473,
        "contract": "contracts/Frame.sol:Frame",
        "label": "_rentalPrices",
        "offset": 0,
        "slot": "2",
        "type": "t_mapping(t_uint256,t_uint256)"
      },
      {
        "astId": 3478,
        "contract": "contracts/Frame.sol:Frame",
        "label": "_renters",
        "offset": 0,
        "slot": "3",
        "type": "t_mapping(t_uint256,t_struct(Rental)3605_storage)"
      },
      {
        "astId": 3379,
        "contract": "contracts/Frame.sol:Frame",
        "label": "_exhibits",
        "offset": 0,
        "slot": "4",
        "type": "t_mapping(t_uint256,t_struct(Exhibit)3566_storage)"
      },
      {
        "astId": 445,
        "contract": "contracts/Frame.sol:Frame",
        "label": "_name",
        "offset": 0,
        "slot": "5",
        "type": "t_string_storage"
      },
      {
        "astId": 447,
        "contract": "contracts/Frame.sol:Frame",
        "label": "_symbol",
        "offset": 0,
        "slot": "6",
        "type": "t_string_storage"
      },
      {
        "astId": 451,
        "contract": "contracts/Frame.sol:Frame",
        "label": "_owners",
        "offset": 0,
        "slot": "7",
        "type": "t_mapping(t_uint256,t_address)"
      },
      {
        "astId": 455,
        "contract": "contracts/Frame.sol:Frame",
        "label": "_balances",
        "offset": 0,
        "slot": "8",
        "type": "t_mapping(t_address,t_uint256)"
      },
      {
        "astId": 459,
        "contract": "contracts/Frame.sol:Frame",
        "label": "_tokenApprovals",
        "offset": 0,
        "slot": "9",
        "type": "t_mapping(t_uint256,t_address)"
      },
      {
        "astId": 465,
        "contract": "contracts/Frame.sol:Frame",
        "label": "_operatorApprovals",
        "offset": 0,
        "slot": "10",
        "type": "t_mapping(t_address,t_mapping(t_address,t_bool))"
      },
      {
        "astId": 1382,
        "contract": "contracts/Frame.sol:Frame",
        "label": "_tokenURIs",
        "offset": 0,
        "slot": "11",
        "type": "t_mapping(t_uint256,t_string_storage)"
      },
      {
        "astId": 2744,
        "contract": "contracts/Frame.sol:Frame",
        "label": "categories",
        "offset": 0,
        "slot": "12",
        "type": "t_mapping(t_enum(Category)2728,t_struct(CategoryDetail)2738_storage)"
      },
      {
        "astId": 2747,
        "contract": "contracts/Frame.sol:Frame",
        "label": "randNonce",
        "offset": 0,
        "slot": "13",
        "type": "t_uint256"
      }
    ],
    "types": {
      "t_address": {
        "encoding": "inplace",
        "label": "address",
        "numberOfBytes": "20"
      },
      "t_array(t_bytes32)dyn_storage": {
        "base": "t_bytes32",
        "encoding": "dynamic_array",
        "label": "bytes32[]",
        "numberOfBytes": "32"
      },
      "t_bool": {
        "encoding": "inplace",
        "label": "bool",
        "numberOfBytes": "1"
      },
      "t_bytes32": {
        "encoding": "inplace",
        "label": "bytes32",
        "numberOfBytes": "32"
      },
      "t_enum(Category)2728": {
        "encoding": "inplace",
        "label": "enum Frame.Category",
        "numberOfBytes": "1"
      },
      "t_mapping(t_address,t_bool)": {
        "encoding": "mapping",
        "key": "t_address",
        "label": "mapping(address => bool)",
        "numberOfBytes": "32",
        "value": "t_bool"
      },
      "t_mapping(t_address,t_mapping(t_address,t_bool))": {
        "encoding": "mapping",
        "key": "t_address",
        "label": "mapping(address => mapping(address => bool))",
        "numberOfBytes": "32",
        "value": "t_mapping(t_address,t_bool)"
      },
      "t_mapping(t_address,t_uint256)": {
        "encoding": "mapping",
        "key": "t_address",
        "label": "mapping(address => uint256)",
        "numberOfBytes": "32",
        "value": "t_uint256"
      },
      "t_mapping(t_bytes32,t_struct(RoleData)19_storage)": {
        "encoding": "mapping",
        "key": "t_bytes32",
        "label": "mapping(bytes32 => struct AccessControl.RoleData)",
        "numberOfBytes": "32",
        "value": "t_struct(RoleData)19_storage"
      },
      "t_mapping(t_bytes32,t_uint256)": {
        "encoding": "mapping",
        "key": "t_bytes32",
        "label": "mapping(bytes32 => uint256)",
        "numberOfBytes": "32",
        "value": "t_uint256"
      },
      "t_mapping(t_enum(Category)2728,t_struct(CategoryDetail)2738_storage)": {
        "encoding": "mapping",
        "key": "t_enum(Category)2728",
        "label": "mapping(enum Frame.Category => struct Frame.CategoryDetail)",
        "numberOfBytes": "32",
        "value": "t_struct(CategoryDetail)2738_storage"
      },
      "t_mapping(t_uint256,t_address)": {
        "encoding": "mapping",
        "key": "t_uint256",
        "label": "mapping(uint256 => address)",
        "numberOfBytes": "32",
        "value": "t_address"
      },
      "t_mapping(t_uint256,t_string_storage)": {
        "encoding": "mapping",
        "key": "t_uint256",
        "label": "mapping(uint256 => string)",
        "numberOfBytes": "32",
        "value": "t_string_storage"
      },
      "t_mapping(t_uint256,t_struct(Exhibit)3566_storage)": {
        "encoding": "mapping",
        "key": "t_uint256",
        "label": "mapping(uint256 => struct IExhibitionable.Exhibit)",
        "numberOfBytes": "32",
        "value": "t_struct(Exhibit)3566_storage"
      },
      "t_mapping(t_uint256,t_struct(Rental)3605_storage)": {
        "encoding": "mapping",
        "key": "t_uint256",
        "label": "mapping(uint256 => struct IRentable.Rental)",
        "numberOfBytes": "32",
        "value": "t_struct(Rental)3605_storage"
      },
      "t_mapping(t_uint256,t_uint256)": {
        "encoding": "mapping",
        "key": "t_uint256",
        "label": "mapping(uint256 => uint256)",
        "numberOfBytes": "32",
        "value": "t_uint256"
      },
      "t_string_storage": {
        "encoding": "bytes",
        "label": "string",
        "numberOfBytes": "32"
      },
      "t_struct(CategoryDetail)2738_storage": {
        "encoding": "inplace",
        "label": "struct Frame.CategoryDetail",
        "members": [
          {
            "astId": 2730,
            "contract": "contracts/Frame.sol:Frame",
            "label": "price",
            "offset": 0,
            "slot": "0",
            "type": "t_uint256"
          },
          {
            "astId": 2732,
            "contract": "contracts/Frame.sol:Frame",
            "label": "startingTokenId",
            "offset": 0,
            "slot": "1",
            "type": "t_uint256"
          },
          {
            "astId": 2734,
            "contract": "contracts/Frame.sol:Frame",
            "label": "supply",
            "offset": 0,
            "slot": "2",
            "type": "t_uint256"
          },
          {
            "astId": 2737,
            "contract": "contracts/Frame.sol:Frame",
            "label": "tokenIds",
            "offset": 0,
            "slot": "3",
            "type": "t_struct(UintSet)2551_storage"
          }
        ],
        "numberOfBytes": "160"
      },
      "t_struct(Exhibit)3566_storage": {
        "encoding": "inplace",
        "label": "struct IExhibitionable.Exhibit",
        "members": [
          {
            "astId": 3563,
            "contract": "contracts/Frame.sol:Frame",
            "label": "contractAddress",
            "offset": 0,
            "slot": "0",
            "type": "t_address"
          },
          {
            "astId": 3565,
            "contract": "contracts/Frame.sol:Frame",
            "label": "tokenId",
            "offset": 0,
            "slot": "1",
            "type": "t_uint256"
          }
        ],
        "numberOfBytes": "64"
      },
      "t_struct(Rental)3605_storage": {
        "encoding": "inplace",
        "label": "struct IRentable.Rental",
        "members": [
          {
            "astId": 3602,
            "contract": "contracts/Frame.sol:Frame",
            "label": "renter",
            "offset": 0,
            "slot": "0",
            "type": "t_address"
          },
          {
            "astId": 3604,
            "contract": "contracts/Frame.sol:Frame",
            "label": "rentalExpiryBlock",
            "offset": 0,
            "slot": "1",
            "type": "t_uint256"
          }
        ],
        "numberOfBytes": "64"
      },
      "t_struct(RoleData)19_storage": {
        "encoding": "inplace",
        "label": "struct AccessControl.RoleData",
        "members": [
          {
            "astId": 16,
            "contract": "contracts/Frame.sol:Frame",
            "label": "members",
            "offset": 0,
            "slot": "0",
            "type": "t_mapping(t_address,t_bool)"
          },
          {
            "astId": 18,
            "contract": "contracts/Frame.sol:Frame",
            "label": "adminRole",
            "offset": 0,
            "slot": "1",
            "type": "t_bytes32"
          }
        ],
        "numberOfBytes": "64"
      },
      "t_struct(Set)2093_storage": {
        "encoding": "inplace",
        "label": "struct EnumerableSet.Set",
        "members": [
          {
            "astId": 2088,
            "contract": "contracts/Frame.sol:Frame",
            "label": "_values",
            "offset": 0,
            "slot": "0",
            "type": "t_array(t_bytes32)dyn_storage"
          },
          {
            "astId": 2092,
            "contract": "contracts/Frame.sol:Frame",
            "label": "_indexes",
            "offset": 0,
            "slot": "1",
            "type": "t_mapping(t_bytes32,t_uint256)"
          }
        ],
        "numberOfBytes": "64"
      },
      "t_struct(UintSet)2551_storage": {
        "encoding": "inplace",
        "label": "struct EnumerableSet.UintSet",
        "members": [
          {
            "astId": 2550,
            "contract": "contracts/Frame.sol:Frame",
            "label": "_inner",
            "offset": 0,
            "slot": "0",
            "type": "t_struct(Set)2093_storage"
          }
        ],
        "numberOfBytes": "64"
      },
      "t_uint256": {
        "encoding": "inplace",
        "label": "uint256",
        "numberOfBytes": "32"
      }
    }
  }
}