{
  "address": "0x0BFB9B83e5F2211fbF8977cb41bB98A1339BF7b2",
  "abi": [
    {
      "inputs": [],
      "name": "getAllowList",
      "outputs": [
        {
          "internalType": "address[128]",
          "name": "",
          "type": "address[128]"
        }
      ],
      "stateMutability": "pure",
      "type": "function"
    }
  ],
  "transactionHash": "0xe8e5f8c9bf126a1352afcda4c027a317fbcf57097466bb29262587b4813589a0",
  "args": [],
  "solcInputHash": "0d700dcf8a8fb55ff7e26dea34432360",
  "bytecode": "0x610d8961003a600b82828239805160001a60731461002d57634e487b7160e01b600052600060045260246000fd5b30600052607381538281f3fe73000000000000000000000000000000000000000030146080604052600436106100355760003560e01c8063a7cd63b71461003a575b600080fd5b610042610058565b60405161004f9190610d18565b60405180910390f35b610060610cf9565b506040805161100081018252733146242e1b95a1acf64e385c84200600aac7883981527321cf67ebba0f6e18cddb1da09b0361a0fe6215656020820181905273b36b0f1d29b127542186ca1995e1d59c4ccd2c7f9282019290925273bc2785b363bd5b7c0ae8cdc3874101f888393af56060820181905273f7c9cae52b345f3c8dc8105577e87f7911b52f4d608083015273d46f082231ef8e975265fb0c143b02b23cdc030d60a083015273c9fd59153c9df38f3e6ab45568b5f8372ab5ab0860c08301527342e3b2b9969308c2fa6c4b71f6a13762e3136a1a60e0830152733d3d5f950b6702f2a13fd4eb2d10a1c15185fd5c610100830181905273bd9d1d31a6a451f7a8ec61fc5fd491fd59d5f489610120840152610140830193909352733342d7df6806600dba1fcd48d1222825dfdbcb786101608301819052732203035b20499f5c515ea8abcd7e597d9d1074f3610180840152736d8f32a67ee02292431a1249a5e8aaca156425ca6101a084015273eec9f7a228c212ab363ad1156e4933556d6a72a96101c0840181905273d813824721afeaf441a35bdbfea49261f2edf5ca6101e0850181905273eee987dd48a8bd7071812232473ee847a235c02f61020086018190527314bac35ac95ebb8828307806ac748bb7321a002661022087018190527350db2a16b185a894edffd076558c2694767c12806102408801526102608701949094527308b4b79a44364f7d8a9bf737c704bd59ebccfb2761028087015273d1b9b828a727a03c0947613c81ede59e354e84b76102a087015273d9bead417c25ce07ee87c201619ee3f0bd77940d6102c08701526102e086019690965273a1f14fc2ccb14ea4856208dc21d9b77b83c2134d6103008601527370c68d5e579ece1bf3a0a3ac03c42020b41693c361032086015273f636c77ffb54ed04fd869142d59968e5d6a2ab6c610340860152733380582390ec5c3d956107c6472b352cc917e95561036086015273d48c866ccb1c540b74fdfebe398103312ee9367d610380860152736ee9209ef6e3624fc7f5829be6eb1b729d6f80ee6103a086015273fa634e983fddd3e1225227e8bceec244670263c76103c086018190526103e0860152736367b50a56fd7874288269680469afba4e1ca7e6610400860152739aaa0d92888f1c31f7678ef18c77c78f3a65e3486104208601819052739666df32d66a10fa90bc3e42e531eb14a2d9b0646104408701819052739a76b2babee120843ab316e2aec97876055fefdf61046088015261048087018490526104a087019590955273ff36e4237a5dac9b9ac10bcd7b6d7a969483293f6104c08701526104e086019190915273a6a0c9a482fc762d5496185261998fb3c706928e6105008601527340e18743699644c805fe8f2946e1147d207747b561052086015273ad5cf99ca2a181abf2a2face08cefd45ad94ed6061054086015273ca68ccfcc97a8075ae7163a7b86a5ee1aa09a4ca610560860152737298b0fb3fbb1a2900364f45f9f0f92b65ace069610580860152732906f37e8e6d43ca035488da1f870c93d70d04fb6105a08601527372a0726ae7a9054476a8c7e759962a4da667175f6105c086015273f2da64cf36e390957a912ae04342ebf70857ebac6105e086015273645d875519cdaada97c6ac2ef3d213d04b51359f61060086015273fb388500b3dd8e908c88efcfe86d3f5b9d6047476106208601527356e2b3a3f27789da27858eabeca4461700162ffd610640860152737e064a3a972e8dd2cd0e26faa6730c00fae2aa0a61066086015273632e75cedf495ccd2cb891b55ed97e4aa11ec94661068086015273341ff27f5c3e3376d092cd19c8eac4ccb1b7ceae6106a086015273aaed29c2b8f389a7192d41d1c28d1ba61e307d206106c08601527359234591ae5246b8dc35b07eedf9e1e93d28c8be6106e0860152610700850192909252730e31a27f6f1e7142c9c7f7f4f254c513fabd1e1b610720850152736344a87d1a871798ec2213d5c94da17de701239961074085015273a8668e1639733f070c818a155eebd69cde93c5f36107608501527332becc88186152fffa9db99fb830b66f6396c630610780850152733dc6d8312c906feac4c9c6ad06884cf477f8a7086107a085015273380336041fed6d3de0c0a1f5079668760cd647796107c085015273382981dfcf4e5164b5430c4fabbee2bf7d6e3d5d6107e08501527347fd829cd4a550e7ff216599483b171ca9abacb861080085015261082084019290925273c3c136122d7819da60b5f7550a1ac689d1e7eef26108408401527398ad774fc109787e50ad2ae1bda2fdf855b6f6cc61086084015273cbc16f59968b3b92c1cc4c8215ece339aca9604061088084015273dbcf7f6441797e5351d300b2b20d8a754b2a888f6108a084015273748d47be167bc97e4ba80c8c421fa24c79a49fbe6108c0840152730e2126f99134af90aa43149387ec252bfc8fba0d6108e08401527331e1cf8a99c1d89b1d99b047565dc2475f9fe2696109008401527342647285714407c7e4664be52e3a4ab38a2a7ef161092084015273df8d7ae76c468483bd93e2c1d24d73504bb3096261094084015273dc0c2d971bdab9beb3d8436ffe08494d40c0dbfd61096084015273eaef7e5f5c1212f4bf7953c4b8c66debe81b92486109808401527358a4007fa212170bb539dd5a860cb5fc49031ddf6109a0840152739db170d5214cc654ef7423025efc14ef214369816109c08401527309a089f8bf325d4ea776f4042abcc2e2ad37a7136109e084015273ce0d0a205175200cff87afa13d30f1d6ea4abb90610a00840152735dd657ab879d97641f09aa0fce4492d74dac626e610a20840152735be4f39bfbca1123a00b34f42eb997cde8992fc8610a408401527361a13cbd1af590ce296c0c524ea3340062ac9380610a6084015273af9781f8ad73b4cd0ac06c2124c9e31a6e725c0a610a8084015273fa8be98c63c52c7216dd3083119ff53b5c7836fb610aa084015273dd0a34a0190d57a7642e18903f41f602ac308816610ac08401527399dd9b625e3d5d83dceddb5ef7f8a3174123c006610ae084015273d34f559b2602c5b9e0cd9e1f54caec0746bc4fbf610b0084015273c5224a994dba1fb1edb8facc372658f8a934b35f610b20840152610b40830152733e5e4ad7207eb68929b3f2f643eddcdc548013d5610b60830152737238135f989b5304af8169de483aabe9850dc74b610b80830152729fc4a83b95819bb68dceb620c2492fcd5d0932610ba0830152738046cf7315549cf87608eb3f2ff0a6e20888e010610bc083015273e855cca7e2b0d3e3682153deab2b27a676551bb3610be083015273305bcaa6851c3a29fcbe47a44f7aafc6465addf8610c0083015273611b15330d927ef98a01be58f1805008caff46b4610c2083015273277ae3be8d778697ff30e7cd7f7d945d0bbe88b7610c40830152734bb0a135503cb32007732e3758f5bde46e631602610c6083015273106a3b778fa518c0aa21ba459d35a4f61711575a610c808301527307ac123d23bf1fbd8d735ba89216edcecd2abd88610ca0830152737b35d77d05bc8883487535451aafe9735658c4f0610cc0830152731410263f1c6c20a26e24b7d5f749de0b3797621c610ce083015273261a5c4a4817d1b3a28f316bd5e9f397ccfa2f6e610d008301527340b17fff5e9d4524cc8e2615198069e27459be9b610d2083015273d8c5765beb94d5b669ce5f216327eb8bf3733078610d408301527392ad1567ceeea549037cf3f981f9bfed9d317806610d6083015273e813bb961b8040943b654b5879df29d9987ffcd0610d8083015273a0e268f89e641d92573d28fb82643e11972e051c610da0830152739e2692de2ec83f72389f738b81f75ba7a37bf009610dc083015273a3b02b18225b77dd79558405875ef1dfc248a8aa610de083015273e8e11370576322cdda86429dd82579ef7e52f72c610e008301527383fcf4aa2682306009d5d354dbaf27443f441960610e20830152610e40820192909252610e60810191909152737f87b77d9b36becf65d9341d6a1a46d04d42c335610e8082015273de61049559608bff7bbc4bdcbe286351af6e0c46610ea082015273922822f887cb2e31b205fc45cfa8a6b887b5286a610ec08201527375bbd7dab6fac6159357fdf340c023ab2ba45e92610ee0820181905273d01fa6e26b3576a5191f3adc9bcf82daac179165610f008301527344516032e9d220073db4095dd851fad06611c5ef610f208301527356e1b883a7ee8c948d014af899e2710b8b89de6d610f4083018190527390ab7636ee1087816fc90ec879fba4716cb5b346610f6084015273845ed9721b289bdaeb01a47160849ade90277873610f80840152610fa083019190915273538b5d6a5c226829b4086b1c19f7ffe6f76276b8610fc0830152610fe082015290565b6040518061100001604052806080906020820280368337509192915050565b6110008101818360005b6080811015610d4a5781516001600160a01b0316835260209283019290910190600101610d22565b5050509291505056fea2646970667358221220b7c9531c4a9a2b59118031519c8a56b7d19cafdc1de120be8c33bea2b55bd69a64736f6c63430008040033",
  "devdoc": {
    "kind": "dev",
    "methods": {},
    "version": 1
  },
  "userdoc": {
    "kind": "user",
    "methods": {},
    "version": 1
  },
  "storageLayout": {
    "storage": [],
    "types": null
  }
}